{"contracts/mygov.sol":{"MyGov":{"abi":[{"inputs":[{"internalType":"uint256","name":"tokensupply","type":"uint256"}],"stateMutability":"nonpayable","type":"constructor"},{"anonymous":false,"inputs":[{"indexed":true,"internalType":"address","name":"owner","type":"address"},{"indexed":true,"internalType":"address","name":"spender","type":"address"},{"indexed":false,"internalType":"uint256","name":"value","type":"uint256"}],"name":"Approval","type":"event"},{"anonymous":false,"inputs":[{"indexed":true,"internalType":"address","name":"from","type":"address"},{"indexed":true,"internalType":"address","name":"to","type":"address"},{"indexed":false,"internalType":"uint256","name":"value","type":"uint256"}],"name":"Transfer","type":"event"},{"inputs":[{"internalType":"address","name":"owner","type":"address"},{"internalType":"address","name":"spender","type":"address"}],"name":"allowance","outputs":[{"internalType":"uint256","name":"","type":"uint256"}],"stateMutability":"view","type":"function"},{"inputs":[{"internalType":"address","name":"spender","type":"address"},{"internalType":"uint256","name":"amount","type":"uint256"}],"name":"approve","outputs":[{"internalType":"bool","name":"","type":"bool"}],"stateMutability":"nonpayable","type":"function"},{"inputs":[{"internalType":"address","name":"account","type":"address"}],"name":"balanceOf","outputs":[{"internalType":"uint256","name":"","type":"uint256"}],"stateMutability":"view","type":"function"},{"inputs":[],"name":"decimals","outputs":[{"internalType":"uint8","name":"","type":"uint8"}],"stateMutability":"view","type":"function"},{"inputs":[{"internalType":"address","name":"spender","type":"address"},{"internalType":"uint256","name":"subtractedValue","type":"uint256"}],"name":"decreaseAllowance","outputs":[{"internalType":"bool","name":"","type":"bool"}],"stateMutability":"nonpayable","type":"function"},{"inputs":[{"internalType":"address","name":"memberaddr","type":"address"},{"internalType":"uint256","name":"projectid","type":"uint256"}],"name":"delegateVoteTo","outputs":[],"stateMutability":"payable","type":"function"},{"inputs":[],"name":"donateEther","outputs":[],"stateMutability":"payable","type":"function"},{"inputs":[{"internalType":"uint256","name":"amount","type":"uint256"}],"name":"donateMyGovToken","outputs":[],"stateMutability":"nonpayable","type":"function"},{"inputs":[],"name":"faucet","outputs":[],"stateMutability":"nonpayable","type":"function"},{"inputs":[{"internalType":"uint256","name":"projectid","type":"uint256"}],"name":"findSchIndex","outputs":[{"internalType":"uint256","name":"idx","type":"uint256"}],"stateMutability":"view","type":"function"},{"inputs":[{"internalType":"uint256","name":"projectid","type":"uint256"}],"name":"getEtherReceivedByProject","outputs":[{"internalType":"uint256","name":"amount","type":"uint256"}],"stateMutability":"view","type":"function"},{"inputs":[{"internalType":"uint256","name":"projectid","type":"uint256"}],"name":"getIsProjectFunded","outputs":[{"internalType":"bool","name":"funded","type":"bool"}],"stateMutability":"view","type":"function"},{"inputs":[],"name":"getNoOfFundedProjects","outputs":[{"internalType":"uint256","name":"numfunded","type":"uint256"}],"stateMutability":"view","type":"function"},{"inputs":[],"name":"getNoOfProjectProposals","outputs":[{"internalType":"uint256","name":"numproposals","type":"uint256"}],"stateMutability":"view","type":"function"},{"inputs":[],"name":"getNoOfSurveys","outputs":[{"internalType":"uint256","name":"numsurveys","type":"uint256"}],"stateMutability":"view","type":"function"},{"inputs":[{"internalType":"uint256","name":"projectid","type":"uint256"}],"name":"getProjectInfo","outputs":[{"internalType":"string","name":"ipfshash","type":"string"},{"internalType":"uint256","name":"votedeadline","type":"uint256"},{"internalType":"uint256[]","name":"paymentamounts","type":"uint256[]"},{"internalType":"uint256[]","name":"payschedule","type":"uint256[]"}],"stateMutability":"view","type":"function"},{"inputs":[{"internalType":"uint256","name":"projectid","type":"uint256"}],"name":"getProjectNextPayment","outputs":[{"internalType":"uint256","name":"next","type":"uint256"}],"stateMutability":"view","type":"function"},{"inputs":[{"internalType":"uint256","name":"projectid","type":"uint256"}],"name":"getProjectOwner","outputs":[{"internalType":"address","name":"projectowner","type":"address"}],"stateMutability":"view","type":"function"},{"inputs":[{"internalType":"uint256","name":"surveyid","type":"uint256"}],"name":"getSurveyInfo","outputs":[{"internalType":"string","name":"ipfshash","type":"string"},{"internalType":"uint256","name":"surveydeadline","type":"uint256"},{"internalType":"uint256","name":"numchoices","type":"uint256"},{"internalType":"uint256","name":"atmostchoice","type":"uint256"}],"stateMutability":"view","type":"function"},{"inputs":[{"internalType":"uint256","name":"surveyid","type":"uint256"}],"name":"getSurveyOwner","outputs":[{"internalType":"address","name":"surveyowner","type":"address"}],"stateMutability":"view","type":"function"},{"inputs":[{"internalType":"uint256","name":"surveyid","type":"uint256"}],"name":"getSurveyResults","outputs":[{"internalType":"uint256","name":"numtaken","type":"uint256"},{"internalType":"uint256[]","name":"results","type":"uint256[]"}],"stateMutability":"view","type":"function"},{"inputs":[{"internalType":"address","name":"spender","type":"address"},{"internalType":"uint256","name":"addedValue","type":"uint256"}],"name":"increaseAllowance","outputs":[{"internalType":"bool","name":"","type":"bool"}],"stateMutability":"nonpayable","type":"function"},{"inputs":[{"internalType":"address","name":"useraddress","type":"address"}],"name":"isMember","outputs":[{"internalType":"bool","name":"","type":"bool"}],"stateMutability":"view","type":"function"},{"inputs":[],"name":"name","outputs":[{"internalType":"string","name":"","type":"string"}],"stateMutability":"view","type":"function"},{"inputs":[{"internalType":"uint256","name":"","type":"uint256"}],"name":"projectProposals","outputs":[{"internalType":"uint256","name":"voteCountForProjectProposal","type":"uint256"},{"internalType":"uint256","name":"totalFundingWei","type":"uint256"},{"internalType":"uint256","name":"deadline","type":"uint256"},{"internalType":"string","name":"ipfsHash","type":"string"},{"internalType":"address","name":"owner","type":"address"},{"internalType":"bool","name":"isStillFunded","type":"bool"}],"stateMutability":"view","type":"function"},{"inputs":[{"internalType":"uint256","name":"projectid","type":"uint256"}],"name":"reserveProjectGrant","outputs":[],"stateMutability":"nonpayable","type":"function"},{"inputs":[{"internalType":"string","name":"ipfshash","type":"string"},{"internalType":"uint256","name":"votedeadline","type":"uint256"},{"internalType":"uint256[]","name":"paymentamounts","type":"uint256[]"},{"internalType":"uint256[]","name":"payschedule","type":"uint256[]"}],"name":"submitProjectProposal","outputs":[{"internalType":"uint256","name":"projectid","type":"uint256"}],"stateMutability":"payable","type":"function"},{"inputs":[{"internalType":"string","name":"ipfshash","type":"string"},{"internalType":"uint256","name":"surveydeadline","type":"uint256"},{"internalType":"uint256","name":"numchoices","type":"uint256"},{"internalType":"uint256","name":"atmostchoice","type":"uint256"}],"name":"submitSurvey","outputs":[{"internalType":"uint256","name":"surveyid","type":"uint256"}],"stateMutability":"payable","type":"function"},{"inputs":[{"internalType":"uint256","name":"","type":"uint256"}],"name":"surveys","outputs":[{"internalType":"string","name":"Ipfshash","type":"string"},{"internalType":"address","name":"Owner","type":"address"},{"internalType":"uint256","name":"Deadline","type":"uint256"},{"internalType":"uint256","name":"AtmostChoice","type":"uint256"},{"internalType":"uint256","name":"SurveyId","type":"uint256"},{"internalType":"uint256","name":"NumChoices","type":"uint256"},{"internalType":"uint256","name":"NumTaken","type":"uint256"}],"stateMutability":"view","type":"function"},{"inputs":[],"name":"symbol","outputs":[{"internalType":"string","name":"","type":"string"}],"stateMutability":"view","type":"function"},{"inputs":[{"internalType":"uint256","name":"surveyid","type":"uint256"},{"internalType":"uint256[]","name":"choices","type":"uint256[]"}],"name":"takeSurvey","outputs":[],"stateMutability":"nonpayable","type":"function"},{"inputs":[],"name":"totalSupply","outputs":[{"internalType":"uint256","name":"","type":"uint256"}],"stateMutability":"view","type":"function"},{"inputs":[{"internalType":"address","name":"to","type":"address"},{"internalType":"uint256","name":"amount","type":"uint256"}],"name":"transfer","outputs":[{"internalType":"bool","name":"","type":"bool"}],"stateMutability":"nonpayable","type":"function"},{"inputs":[{"internalType":"address","name":"from","type":"address"},{"internalType":"address","name":"to","type":"address"},{"internalType":"uint256","name":"amount","type":"uint256"}],"name":"transferFrom","outputs":[{"internalType":"bool","name":"","type":"bool"}],"stateMutability":"nonpayable","type":"function"},{"inputs":[{"internalType":"address","name":"","type":"address"}],"name":"users","outputs":[{"internalType":"uint256","name":"myGovTokens","type":"uint256"},{"internalType":"uint256","name":"myGovTokensLockedUntil","type":"uint256"},{"internalType":"bool","name":"UsedFaucet","type":"bool"}],"stateMutability":"view","type":"function"},{"inputs":[{"internalType":"uint256","name":"projectid","type":"uint256"},{"internalType":"bool","name":"choice","type":"bool"}],"name":"voteForProjectProposal","outputs":[],"stateMutability":"nonpayable","type":"function"},{"inputs":[{"internalType":"uint256","name":"projectid","type":"uint256"},{"internalType":"bool","name":"choice","type":"bool"}],"name":"votingforinstallment","outputs":[],"stateMutability":"nonpayable","type":"function"},{"inputs":[{"internalType":"uint256","name":"projectid","type":"uint256"}],"name":"withdrawProjectPayment","outputs":[],"stateMutability":"nonpayable","type":"function"},{"stateMutability":"payable","type":"receive"}],"evm":{"bytecode":{"linkReferences":{},"object":"6080604052668e1bc9bf040000600a5567016345785d8a0000600b553480156200002857600080fd5b5060405162006b0238038062006b0283398181016040528101906200004e919062000354565b6040518060400160405280600581526020017f4d79476f760000000000000000000000000000000000000000000000000000008152506040518060400160405280600281526020017f4d470000000000000000000000000000000000000000000000000000000000008152508160039080519060200190620000d29291906200028d565b508060049080519060200190620000eb9291906200028d565b50505080600581905550806006819055506200010e30826200011560201b60201c565b5062000546565b600073ffffffffffffffffffffffffffffffffffffffff168273ffffffffffffffffffffffffffffffffffffffff16141562000188576040517f08c379a00000000000000000000000000000000000000000000000000000000081526004016200017f90620003b8565b60405180910390fd5b6200019c600083836200028360201b60201c565b8060026000828254620001b0919062000408565b92505081905550806000808473ffffffffffffffffffffffffffffffffffffffff1673ffffffffffffffffffffffffffffffffffffffff168152602001908152602001600020600082825401925050819055508173ffffffffffffffffffffffffffffffffffffffff16600073ffffffffffffffffffffffffffffffffffffffff167fddf252ad1be2c89b69c2b068fc378daa952ba7f163c4a11628f55a4df523b3ef83604051620002639190620003da565b60405180910390a36200027f600083836200028860201b60201c565b5050565b505050565b505050565b8280546200029b906200046f565b90600052602060002090601f016020900481019282620002bf57600085556200030b565b82601f10620002da57805160ff19168380011785556200030b565b828001600101855582156200030b579182015b828111156200030a578251825591602001919060010190620002ed565b5b5090506200031a91906200031e565b5090565b5b80821115620003395760008160009055506001016200031f565b5090565b6000815190506200034e816200052c565b92915050565b6000602082840312156200036757600080fd5b600062000377848285016200033d565b91505092915050565b60006200038f601f83620003f7565b91506200039c8262000503565b602082019050919050565b620003b28162000465565b82525050565b60006020820190508181036000830152620003d38162000380565b9050919050565b6000602082019050620003f16000830184620003a7565b92915050565b600082825260208201905092915050565b6000620004158262000465565b9150620004228362000465565b9250827fffffffffffffffffffffffffffffffffffffffffffffffffffffffffffffffff038211156200045a5762000459620004a5565b5b828201905092915050565b6000819050919050565b600060028204905060018216806200048857607f821691505b602082108114156200049f576200049e620004d4565b5b50919050565b7f4e487b7100000000000000000000000000000000000000000000000000000000600052601160045260246000fd5b7f4e487b7100000000000000000000000000000000000000000000000000000000600052602260045260246000fd5b7f45524332303a206d696e7420746f20746865207a65726f206164647265737300600082015250565b620005378162000465565b81146200054357600080fd5b50565b6165ac80620005566000396000f3fe6080604052600436106102295760003560e01c806394d9ff4811610123578063b5003369116100ab578063dd62ed3e1161006f578063dd62ed3e146108f9578063de5f72fd14610936578063ef269ae31461094d578063f22449ba1461097d578063fabf5968146109a657610249565b8063b5003369146107fd578063bd2757641461083a578063bd6c733c14610863578063bf50556d1461088c578063dbc1d569146108b757610249565b8063a230c524116100f2578063a230c524146106d7578063a457c2d714610714578063a5e898e114610751578063a87430ba14610781578063a9059cbb146107c057610249565b806394d9ff481461062a57806395d89b41146106535780639983fa581461067e578063a1669b32146106bb57610249565b806339c94d2d116101b15780637c405164116101755780637c40516414610526578063863451dd1461056357806386e68b901461056d578063875b5076146105b057806392256aec146105ed57610249565b806339c94d2d1461042e5780635d801b3714610457578063702798df1461048257806370a08231146104ab57806370a56c73146104e857610249565b806323b872dd116101f857806323b872dd1461031e57806323fd498b1461035b5780632e8f341314610386578063313ce567146103c657806339509351146103f157610249565b806306fdde031461024e578063095ea7b31461027957806318160ddd146102b65780631d2acdfd146102e157610249565b3661024957346007600082825461024091906159cd565b92505081905550005b600080fd5b34801561025a57600080fd5b506102636109e6565b60405161027091906152a8565b60405180910390f35b34801561028557600080fd5b506102a0600480360381019061029b9190614a3b565b610a78565b6040516102ad919061528d565b60405180910390f35b3480156102c257600080fd5b506102cb610a9b565b6040516102d891906157e6565b60405180910390f35b3480156102ed57600080fd5b5061030860048036038101906103039190614bc6565b610aa5565b60405161031591906157e6565b60405180910390f35b34801561032a57600080fd5b50610345600480360381019061034091906149ec565b610b49565b604051610352919061528d565b60405180910390f35b34801561036757600080fd5b50610370610b78565b60405161037d91906157e6565b60405180910390f35b34801561039257600080fd5b506103ad60048036038101906103a89190614bc6565b610b85565b6040516103bd949392919061539a565b60405180910390f35b3480156103d257600080fd5b506103db610d53565b6040516103e891906158d0565b60405180910390f35b3480156103fd57600080fd5b5061041860048036038101906104139190614a3b565b610d5c565b604051610425919061528d565b60405180910390f35b34801561043a57600080fd5b5061045560048036038101906104509190614bc6565b610d93565b005b34801561046357600080fd5b5061046c610f50565b60405161047991906157e6565b60405180910390f35b34801561048e57600080fd5b506104a960048036038101906104a49190614bef565b610f5d565b005b3480156104b757600080fd5b506104d260048036038101906104cd9190614987565b611278565b6040516104df91906157e6565b60405180910390f35b3480156104f457600080fd5b5061050f600480360381019061050a9190614bc6565b6112c0565b60405161051d929190615801565b60405180910390f35b34801561053257600080fd5b5061054d60048036038101906105489190614bc6565b6113b3565b60405161055a919061528d565b60405180910390f35b61056b61147a565b005b34801561057957600080fd5b50610594600480360381019061058f9190614bc6565b61147c565b6040516105a797969594939291906152ca565b60405180910390f35b3480156105bc57600080fd5b506105d760048036038101906105d29190614bc6565b611576565b6040516105e49190615220565b60405180910390f35b3480156105f957600080fd5b50610614600480360381019061060f9190614bc6565b6115eb565b6040516106219190615220565b60405180910390f35b34801561063657600080fd5b50610651600480360381019061064c9190614c43565b611660565b005b34801561065f57600080fd5b50610668611c00565b60405161067591906152a8565b60405180910390f35b34801561068a57600080fd5b506106a560048036038101906106a09190614bc6565b611c92565b6040516106b291906157e6565b60405180910390f35b6106d560048036038101906106d09190614a3b565b611d2e565b005b3480156106e357600080fd5b506106fe60048036038101906106f99190614987565b61209a565b60405161070b919061528d565b60405180910390f35b34801561072057600080fd5b5061073b60048036038101906107369190614a3b565b6120ae565b604051610748919061528d565b60405180910390f35b61076b60048036038101906107669190614aa0565b612125565b60405161077891906157e6565b60405180910390f35b34801561078d57600080fd5b506107a860048036038101906107a39190614987565b612449565b6040516107b793929190615831565b60405180910390f35b3480156107cc57600080fd5b506107e760048036038101906107e29190614a3b565b612480565b6040516107f4919061528d565b60405180910390f35b34801561080957600080fd5b50610824600480360381019061081f9190614bc6565b6124a3565b60405161083191906157e6565b60405180910390f35b34801561084657600080fd5b50610861600480360381019061085c9190614bc6565b61260a565b005b34801561086f57600080fd5b5061088a60048036038101906108859190614bc6565b61299d565b005b34801561089857600080fd5b506108a1612fb9565b6040516108ae91906157e6565b60405180910390f35b3480156108c357600080fd5b506108de60048036038101906108d99190614bc6565b613008565b6040516108f096959493929190615868565b60405180910390f35b34801561090557600080fd5b50610920600480360381019061091b91906149b0565b613109565b60405161092d91906157e6565b60405180910390f35b34801561094257600080fd5b5061094b613190565b005b61096760048036038101906109629190614b4b565b6133b7565b60405161097491906157e6565b60405180910390f35b34801561098957600080fd5b506109a4600480360381019061099f9190614c43565b613853565b005b3480156109b257600080fd5b506109cd60048036038101906109c89190614bc6565b613f54565b6040516109dd9493929190615340565b60405180910390f35b6060600380546109f590615b5a565b80601f0160208091040260200160405190810160405280929190818152602001828054610a2190615b5a565b8015610a6e5780601f10610a4357610100808354040283529160200191610a6e565b820191906000526020600020905b815481529060010190602001808311610a5157829003601f168201915b5050505050905090565b600080610a836141be565b9050610a908185856141c6565b600191505092915050565b6000600254905090565b600080610ab1836124a3565b9050600c8381548110610aed577f4e487b7100000000000000000000000000000000000000000000000000000000600052603260045260246000fd5b90600052602060002090600a02016004018181548110610b36577f4e487b7100000000000000000000000000000000000000000000000000000000600052603260045260246000fd5b9060005260206000200154915050919050565b600080610b546141be565b9050610b61858285614391565b610b6c85858561441d565b60019150509392505050565b6000600c80549050905090565b60606000806000600f8581548110610bc6577f4e487b7100000000000000000000000000000000000000000000000000000000600052603260045260246000fd5b90600052602060002090600802016000018054610be290615b5a565b80601f0160208091040260200160405190810160405280929190818152602001828054610c0e90615b5a565b8015610c5b5780601f10610c3057610100808354040283529160200191610c5b565b820191906000526020600020905b815481529060010190602001808311610c3e57829003601f168201915b50505050509350600f8581548110610c9c577f4e487b7100000000000000000000000000000000000000000000000000000000600052603260045260246000fd5b9060005260206000209060080201600201549250600f8581548110610cea577f4e487b7100000000000000000000000000000000000000000000000000000000600052603260045260246000fd5b9060005260206000209060080201600501549150600f8581548110610d38577f4e487b7100000000000000000000000000000000000000000000000000000000600052603260045260246000fd5b90600052602060002090600802016003015490509193509193565b60006012905090565b600080610d676141be565b9050610d88818585610d798589613109565b610d8391906159cd565b6141c6565b600191505092915050565b80600d60003373ffffffffffffffffffffffffffffffffffffffff1673ffffffffffffffffffffffffffffffffffffffff168152602001908152602001600020600001541015610e18576040517f08c379a0000000000000000000000000000000000000000000000000000000008152600401610e0f906157a6565b60405180910390fd5b80600d60003373ffffffffffffffffffffffffffffffffffffffff1673ffffffffffffffffffffffffffffffffffffffff168152602001908152602001600020600001541180610eaa575042600d60003373ffffffffffffffffffffffffffffffffffffffff1673ffffffffffffffffffffffffffffffffffffffff1681526020019081526020016000206006015411155b610ee9576040517f08c379a0000000000000000000000000000000000000000000000000000000008152600401610ee090615566565b60405180910390fd5b80600d60003373ffffffffffffffffffffffffffffffffffffffff1673ffffffffffffffffffffffffffffffffffffffff1681526020019081526020016000206000016000828254610f3b9190615a7d565b92505081905550610f4c3082612480565b5050565b6000600f80549050905090565b6000600d60003373ffffffffffffffffffffffffffffffffffffffff1673ffffffffffffffffffffffffffffffffffffffff1681526020019081526020016000209050610fa93361209a565b610fe8576040517f08c379a0000000000000000000000000000000000000000000000000000000008152600401610fdf90615406565b60405180910390fd5b6000151581600301600085815260200190815260200160002060009054906101000a900460ff16151514611051576040517f08c379a000000000000000000000000000000000000000000000000000000000815260040161104890615626565b60405180910390fd5b42600f848154811061108c577f4e487b7100000000000000000000000000000000000000000000000000000000600052603260045260246000fd5b90600052602060002090600802016002015410156110df576040517f08c379a00000000000000000000000000000000000000000000000000000000081526004016110d690615586565b60405180910390fd5b60005b82518110156111e157600f8481548110611125577f4e487b7100000000000000000000000000000000000000000000000000000000600052603260045260246000fd5b906000526020600020906008020160070183828151811061116f577f4e487b7100000000000000000000000000000000000000000000000000000000600052603260045260246000fd5b6020026020010151815481106111ae577f4e487b7100000000000000000000000000000000000000000000000000000000600052603260045260246000fd5b9060005260206000200160008154809291906111c990615bbd565b919050555080806111d990615bbd565b9150506110e2565b506001600f848154811061121e577f4e487b7100000000000000000000000000000000000000000000000000000000600052603260045260246000fd5b9060005260206000209060080201600601600082825461123e91906159cd565b92505081905550600181600301600085815260200190815260200160002060006101000a81548160ff021916908315150217905550505050565b60008060008373ffffffffffffffffffffffffffffffffffffffff1673ffffffffffffffffffffffffffffffffffffffff168152602001908152602001600020549050919050565b60006060600f83815481106112fe577f4e487b7100000000000000000000000000000000000000000000000000000000600052603260045260246000fd5b9060005260206000209060080201600601549150600f838154811061134c577f4e487b7100000000000000000000000000000000000000000000000000000000600052603260045260246000fd5b90600052602060002090600802016007018054806020026020016040519081016040528092919081815260200182805480156113a757602002820191906000526020600020905b815481526020019060010190808311611393575b50505050509050915091565b600081600c805490501180156113ca575060008210155b611409576040517f08c379a000000000000000000000000000000000000000000000000000000000815260040161140090615446565b60405180910390fd5b600c8281548110611443577f4e487b7100000000000000000000000000000000000000000000000000000000600052603260045260246000fd5b90600052602060002090600a020160090160009054906101000a900460ff16156114705760019050611475565b600190505b919050565b565b600f818154811061148c57600080fd5b90600052602060002090600802016000915090508060000180546114af90615b5a565b80601f01602080910402602001604051908101604052809291908181526020018280546114db90615b5a565b80156115285780601f106114fd57610100808354040283529160200191611528565b820191906000526020600020905b81548152906001019060200180831161150b57829003601f168201915b5050505050908060010160009054906101000a900473ffffffffffffffffffffffffffffffffffffffff16908060020154908060030154908060040154908060050154908060060154905087565b6000600f82815481106115b2577f4e487b7100000000000000000000000000000000000000000000000000000000600052603260045260246000fd5b906000526020600020906008020160010160009054906101000a900473ffffffffffffffffffffffffffffffffffffffff169050919050565b6000600c8281548110611627577f4e487b7100000000000000000000000000000000000000000000000000000000600052603260045260246000fd5b90600052602060002090600a020160070160009054906101000a900473ffffffffffffffffffffffffffffffffffffffff169050919050565b600061166b836124a3565b905082600c80549050118015611682575060008310155b6116c1576040517f08c379a00000000000000000000000000000000000000000000000000000000081526004016116b890615446565b60405180910390fd5b6000600d60003373ffffffffffffffffffffffffffffffffffffffff1673ffffffffffffffffffffffffffffffffffffffff16815260200190815260200160002090506001151581600101600086815260200190815260200160002060009054906101000a900460ff161515141561176e576040517f08c379a0000000000000000000000000000000000000000000000000000000008152600401611765906154a6565b60405180910390fd5b600073ffffffffffffffffffffffffffffffffffffffff1681600501600086815260200190815260200160002060009054906101000a900473ffffffffffffffffffffffffffffffffffffffff1673ffffffffffffffffffffffffffffffffffffffff1614611812576040517f08c379a000000000000000000000000000000000000000000000000000000000815260040161180990615786565b60405180910390fd5b61181b3361209a565b61185a576040517f08c379a000000000000000000000000000000000000000000000000000000000815260040161185190615706565b60405180910390fd5b600161186557600080fd5b8215611911576001600c85815481106118a7577f4e487b7100000000000000000000000000000000000000000000000000000000600052603260045260246000fd5b90600052602060002090600a020160000183815481106118f0577f4e487b7100000000000000000000000000000000000000000000000000000000600052603260045260246000fd5b90600052602060002001600082825461190991906159cd565b925050819055505b6000600c858154811061194d577f4e487b7100000000000000000000000000000000000000000000000000000000600052603260045260246000fd5b90600052602060002090600a02016000018381548110611996577f4e487b7100000000000000000000000000000000000000000000000000000000600052603260045260246000fd5b90600052602060002001549050600954816119b191906159cd565b8160646119be9190615a23565b1115611bf9576001600c8681548110611a00577f4e487b7100000000000000000000000000000000000000000000000000000000600052603260045260246000fd5b90600052602060002090600a02016008018481548110611a49577f4e487b7100000000000000000000000000000000000000000000000000000000600052603260045260246000fd5b90600052602060002090602091828204019190066101000a81548160ff0219169083151502179055503073ffffffffffffffffffffffffffffffffffffffff166339509351600c8781548110611ac8577f4e487b7100000000000000000000000000000000000000000000000000000000600052603260045260246000fd5b90600052602060002090600a020160070160009054906101000a900473ffffffffffffffffffffffffffffffffffffffff16600c8881548110611b34577f4e487b7100000000000000000000000000000000000000000000000000000000600052603260045260246000fd5b90600052602060002090600a02016004018681548110611b7d577f4e487b7100000000000000000000000000000000000000000000000000000000600052603260045260246000fd5b90600052602060002001546040518363ffffffff1660e01b8152600401611ba5929190615264565b602060405180830381600087803b158015611bbf57600080fd5b505af1158015611bd3573d6000803e3d6000fd5b505050506040513d601f19601f82011682018060405250810190611bf79190614a77565b505b5050505050565b606060048054611c0f90615b5a565b80601f0160208091040260200160405190810160405280929190818152602001828054611c3b90615b5a565b8015611c885780601f10611c5d57610100808354040283529160200191611c88565b820191906000526020600020905b815481529060010190602001808311611c6b57829003601f168201915b5050505050905090565b600081600c8054905011611cdb576040517f08c379a0000000000000000000000000000000000000000000000000000000008152600401611cd290615686565b60405180910390fd5b600c8281548110611d15577f4e487b7100000000000000000000000000000000000000000000000000000000600052603260045260246000fd5b90600052602060002090600a0201600201549050919050565b60008290506000339050611d418261209a565b611d80576040517f08c379a0000000000000000000000000000000000000000000000000000000008152600401611d7790615766565b60405180910390fd5b611d898161209a565b611dc8576040517f08c379a0000000000000000000000000000000000000000000000000000000008152600401611dbf90615666565b60405180910390fd5b8173ffffffffffffffffffffffffffffffffffffffff168173ffffffffffffffffffffffffffffffffffffffff161415611e37576040517f08c379a0000000000000000000000000000000000000000000000000000000008152600401611e2e90615506565b60405180910390fd5b600073ffffffffffffffffffffffffffffffffffffffff16600d60008373ffffffffffffffffffffffffffffffffffffffff1673ffffffffffffffffffffffffffffffffffffffff168152602001908152602001600020600501600085815260200190815260200160002060009054906101000a900473ffffffffffffffffffffffffffffffffffffffff1673ffffffffffffffffffffffffffffffffffffffff1614611f19576040517f08c379a0000000000000000000000000000000000000000000000000000000008152600401611f1090615606565b60405180910390fd5b600d60008373ffffffffffffffffffffffffffffffffffffffff1673ffffffffffffffffffffffffffffffffffffffff16815260200190815260200160002060040160405180604001604052808581526020018373ffffffffffffffffffffffffffffffffffffffff1681525090806001815401808255809150506001900390600052602060002090600202016000909190919091506000820151816000015560208201518160010160006101000a81548173ffffffffffffffffffffffffffffffffffffffff021916908373ffffffffffffffffffffffffffffffffffffffff160217905550505081600d60008373ffffffffffffffffffffffffffffffffffffffff1673ffffffffffffffffffffffffffffffffffffffff168152602001908152602001600020600501600085815260200190815260200160002060006101000a81548173ffffffffffffffffffffffffffffffffffffffff021916908373ffffffffffffffffffffffffffffffffffffffff16021790555050505050565b6000806120a683611278565b119050919050565b6000806120b96141be565b905060006120c78286613109565b90508381101561210c576040517f08c379a0000000000000000000000000000000000000000000000000000000008152600401612103906157c6565b60405180910390fd5b61211982868684036141c6565b60019250505092915050565b60006121303361209a565b61216f576040517f08c379a000000000000000000000000000000000000000000000000000000000815260040161216690615646565b60405180910390fd5b6000835167ffffffffffffffff8111156121b2577f4e487b7100000000000000000000000000000000000000000000000000000000600052604160045260246000fd5b6040519080825280602002602001820160405280156121e05781602001602082028036833780820191505090505b5090506121ee306005612480565b50600030905061220081600b54612480565b50600b546007600082825461221591906159cd565b92505081905550600c805490509250600060405180610140016040528084815260200160008152602001600081526020018881526020018781526020018681526020018981526020013373ffffffffffffffffffffffffffffffffffffffff168152602001875167ffffffffffffffff8111156122bb577f4e487b7100000000000000000000000000000000000000000000000000000000600052604160045260246000fd5b6040519080825280602002602001820160405280156122e95781602001602082028036833780820191505090505b508152602001600015158152509050600c8190806001815401808255809150506001900390600052602060002090600a0201600090919091909150600082015181600001908051906020019061234092919061469f565b50602082015181600101556040820151816002015560608201518160030155608082015181600401908051906020019061237b92919061469f565b5060a082015181600501908051906020019061239892919061469f565b5060c08201518160060190805190602001906123b59291906146ec565b5060e08201518160070160006101000a81548173ffffffffffffffffffffffffffffffffffffffff021916908373ffffffffffffffffffffffffffffffffffffffff16021790555061010082015181600801908051906020019061241a929190614772565b506101208201518160090160006101000a81548160ff0219169083151502179055505050505050949350505050565b600d6020528060005260406000206000915090508060000154908060060154908060070160009054906101000a900460ff16905083565b60008061248b6141be565b905061249881858561441d565b600191505092915050565b600080600090505b600c83815481106124e5577f4e487b7100000000000000000000000000000000000000000000000000000000600052603260045260246000fd5b90600052602060002090600a0201600501805490508110156125b257600c838154811061253b577f4e487b7100000000000000000000000000000000000000000000000000000000600052603260045260246000fd5b90600052602060002090600a02016005018181548110612584577f4e487b7100000000000000000000000000000000000000000000000000000000600052603260045260246000fd5b906000526020600020015442101561259f5780915050612605565b80806125aa90615bbd565b9150506124ab565b50600c82815481106125ed577f4e487b7100000000000000000000000000000000000000000000000000000000600052603260045260246000fd5b90600052602060002090600a02016005018054905090505b919050565b612613816113b3565b612652576040517f08c379a0000000000000000000000000000000000000000000000000000000008152600401612649906155a6565b60405180910390fd5b80600c80549050118015612667575060008110155b6126a6576040517f08c379a000000000000000000000000000000000000000000000000000000000815260040161269d90615446565b60405180910390fd5b60016126e7576040517f08c379a00000000000000000000000000000000000000000000000000000000081526004016126de90615546565b60405180910390fd5b6000805b600c8381548110612725577f4e487b7100000000000000000000000000000000000000000000000000000000600052603260045260246000fd5b90600052602060002090600a0201600401805490508110156127ef57600c838154811061277b577f4e487b7100000000000000000000000000000000000000000000000000000000600052603260045260246000fd5b90600052602060002090600a020160040181815481106127c4577f4e487b7100000000000000000000000000000000000000000000000000000000600052603260045260246000fd5b9060005260206000200154826127da91906159cd565b915080806127e790615bbd565b9150506126eb565b506001612831576040517f08c379a0000000000000000000000000000000000000000000000000000000008152600401612828906154e6565b60405180910390fd5b600c828154811061286b577f4e487b7100000000000000000000000000000000000000000000000000000000600052603260045260246000fd5b90600052602060002090600a0201600201546008600082825461288e91906159cd565b92505081905550612998600c83815481106128d2577f4e487b7100000000000000000000000000000000000000000000000000000000600052603260045260246000fd5b90600052602060002090600a020160070160009054906101000a900473ffffffffffffffffffffffffffffffffffffffff16600c848154811061293e577f4e487b7100000000000000000000000000000000000000000000000000000000600052603260045260246000fd5b90600052602060002090600a0201600401600081548110612988577f4e487b7100000000000000000000000000000000000000000000000000000000600052603260045260246000fd5b9060005260206000200154610a78565b505050565b600060016129aa836124a3565b6129b49190615a7d565b905081600c805490501180156129cb575060008210155b612a0a576040517f08c379a0000000000000000000000000000000000000000000000000000000008152600401612a0190615446565b60405180910390fd5b600c8281548110612a44577f4e487b7100000000000000000000000000000000000000000000000000000000600052603260045260246000fd5b90600052602060002090600a020160070160009054906101000a900473ffffffffffffffffffffffffffffffffffffffff1673ffffffffffffffffffffffffffffffffffffffff163373ffffffffffffffffffffffffffffffffffffffff1614612aad57600080fd5b600c8281548110612ae7577f4e487b7100000000000000000000000000000000000000000000000000000000600052603260045260246000fd5b90600052602060002090600a020160050180549050612b05836124a3565b1115612b1057600080fd5b600c8281548110612b4a577f4e487b7100000000000000000000000000000000000000000000000000000000600052603260045260246000fd5b90600052602060002090600a02016005018181548110612b93577f4e487b7100000000000000000000000000000000000000000000000000000000600052603260045260246000fd5b90600052602060002050506001612ba957600080fd5b600080600c8481548110612be6577f4e487b7100000000000000000000000000000000000000000000000000000000600052603260045260246000fd5b90600052602060002090600a02016040518061014001604052908160008201805480602002602001604051908101604052809291908181526020018280548015612c4f57602002820191906000526020600020905b815481526020019060010190808311612c3b575b5050505050815260200160018201548152602001600282015481526020016003820154815260200160048201805480602002602001604051908101604052809291908181526020018280548015612cc557602002820191906000526020600020905b815481526020019060010190808311612cb1575b5050505050815260200160058201805480602002602001604051908101604052809291908181526020018280548015612d1d57602002820191906000526020600020905b815481526020019060010190808311612d09575b50505050508152602001600682018054612d3690615b5a565b80601f0160208091040260200160405190810160405280929190818152602001828054612d6290615b5a565b8015612daf5780601f10612d8457610100808354040283529160200191612daf565b820191906000526020600020905b815481529060010190602001808311612d9257829003601f168201915b505050505081526020016007820160009054906101000a900473ffffffffffffffffffffffffffffffffffffffff1673ffffffffffffffffffffffffffffffffffffffff1673ffffffffffffffffffffffffffffffffffffffff16815260200160088201805480602002602001604051908101604052809291908181526020018280548015612e8257602002820191906000526020600020906000905b82829054906101000a900460ff16151581526020019060010190602082600001049283019260010382029150808411612e4c5790505b505050505081526020016009820160009054906101000a900460ff161515151581525050905060005b838111612f63578161010001518181518110612ef0577f4e487b7100000000000000000000000000000000000000000000000000000000600052603260045260246000fd5b602002602001015115612f505781608001518181518110612f3a577f4e487b7100000000000000000000000000000000000000000000000000000000600052603260045260246000fd5b602002602001015183612f4d91906159cd565b92505b8080612f5b90615bbd565b915050612eab565b508160086000828254612f769190615a7d565b925050819055508160076000828254612f8f9190615a7d565b925050819055506000339050612fa6308285610b49565b50612fb2308285614391565b5050505050565b6000806000905060005b600c8054905081101561300057612fd9816113b3565b15612fed578180612fe990615bbd565b9250505b8080612ff890615bbd565b915050612fc3565b508091505090565b600c818154811061301857600080fd5b90600052602060002090600a020160009150905080600101549080600201549080600301549080600601805461304d90615b5a565b80601f016020809104026020016040519081016040528092919081815260200182805461307990615b5a565b80156130c65780601f1061309b576101008083540402835291602001916130c6565b820191906000526020600020905b8154815290600101906020018083116130a957829003601f168201915b5050505050908060070160009054906101000a900473ffffffffffffffffffffffffffffffffffffffff16908060090160009054906101000a900460ff16905086565b6000600160008473ffffffffffffffffffffffffffffffffffffffff1673ffffffffffffffffffffffffffffffffffffffff16815260200190815260200160002060008373ffffffffffffffffffffffffffffffffffffffff1673ffffffffffffffffffffffffffffffffffffffff16815260200190815260200160002054905092915050565b60003390506000600654116131da576040517f08c379a00000000000000000000000000000000000000000000000000000000081526004016131d190615426565b60405180910390fd5b60001515600d60008373ffffffffffffffffffffffffffffffffffffffff1673ffffffffffffffffffffffffffffffffffffffff16815260200190815260200160002060070160009054906101000a900460ff16151514613270576040517f08c379a0000000000000000000000000000000000000000000000000000000008152600401613267906156a6565b60405180910390fd5b3073ffffffffffffffffffffffffffffffffffffffff1663a9059cbb8260056040518363ffffffff1660e01b81526004016132ac92919061523b565b602060405180830381600087803b1580156132c657600080fd5b505af11580156132da573d6000803e3d6000fd5b505050506040513d601f19601f820116820180604052508101906132fe9190614a77565b506001600d60008373ffffffffffffffffffffffffffffffffffffffff1673ffffffffffffffffffffffffffffffffffffffff16815260200190815260200160002060070160006101000a81548160ff0219169083151502179055506005600d60008373ffffffffffffffffffffffffffffffffffffffff1673ffffffffffffffffffffffffffffffffffffffff16815260200190815260200160002060000160008282546133ad91906159cd565b9250508190555050565b60006133c23361209a565b613401576040517f08c379a00000000000000000000000000000000000000000000000000000000081526004016133f890615726565b60405180910390fd5b6002600d60003373ffffffffffffffffffffffffffffffffffffffff1673ffffffffffffffffffffffffffffffffffffffff168152602001908152602001600020600001541015613487576040517f08c379a000000000000000000000000000000000000000000000000000000000815260040161347e90615726565b60405180910390fd5b6002600d60003373ffffffffffffffffffffffffffffffffffffffff1673ffffffffffffffffffffffffffffffffffffffff16815260200190815260200160002060000154118061351a575042600d60003373ffffffffffffffffffffffffffffffffffffffff1673ffffffffffffffffffffffffffffffffffffffff1681526020019081526020016000206006015411155b613559576040517f08c379a000000000000000000000000000000000000000000000000000000000815260040161355090615486565b60405180910390fd5b600a5434101561359e576040517f08c379a0000000000000000000000000000000000000000000000000000000008152600401613595906155c6565b60405180910390fd5b60008367ffffffffffffffff8111156135e0577f4e487b7100000000000000000000000000000000000000000000000000000000600052604160045260246000fd5b60405190808252806020026020018201604052801561360e5781602001602082028036833780820191505090505b50905060006040518061010001604052808881526020013373ffffffffffffffffffffffffffffffffffffffff16815260200187815260200185815260200184815260200186815260200160008152602001838152509050613671306002612480565b50600a546007600082825461368691906159cd565b92505081905550600f81908060018154018082558091505060019003906000526020600020906008020160009091909190915060008201518160000190805190602001906136d59291906146ec565b5060208201518160010160006101000a81548173ffffffffffffffffffffffffffffffffffffffff021916908373ffffffffffffffffffffffffffffffffffffffff16021790555060408201518160020155606082015181600301556080820151816004015560a0820151816005015560c0820151816006015560e082015181600701908051906020019061376b92919061469f565b5050506001600f805490506137809190615a7d565b9250828160800181815250506000803373ffffffffffffffffffffffffffffffffffffffff16600a54346137b49190615a7d565b6040516137c09061520b565b60006040518083038185875af1925050503d80600081146137fd576040519150601f19603f3d011682016040523d82523d6000602084013e613802565b606091505b509150915081613847576040517f08c379a000000000000000000000000000000000000000000000000000000000815260040161383e906156c6565b60405180910390fd5b50505050949350505050565b81600c80549050118015613868575060008210155b6138a7576040517f08c379a000000000000000000000000000000000000000000000000000000000815260040161389e90615446565b60405180910390fd5b6000600d60003373ffffffffffffffffffffffffffffffffffffffff1673ffffffffffffffffffffffffffffffffffffffff16815260200190815260200160002090506001151581600201600085815260200190815260200160002060009054906101000a900460ff1615151415613954576040517f08c379a000000000000000000000000000000000000000000000000000000000815260040161394b906155e6565b60405180910390fd5b600073ffffffffffffffffffffffffffffffffffffffff1681600501600085815260200190815260200160002060009054906101000a900473ffffffffffffffffffffffffffffffffffffffff1673ffffffffffffffffffffffffffffffffffffffff16146139f8576040517f08c379a00000000000000000000000000000000000000000000000000000000081526004016139ef90615786565b60405180910390fd5b613a013361209a565b613a40576040517f08c379a0000000000000000000000000000000000000000000000000000000008152600401613a3790615706565b60405180910390fd5b600181600201600085815260200190815260200160002060006101000a81548160ff0219169083151502179055508115613ad657600c8381548110613aae577f4e487b7100000000000000000000000000000000000000000000000000000000600052603260045260246000fd5b90600052602060002090600a02016001016000815480929190613ad090615bbd565b91905055505b600c8381548110613b10577f4e487b7100000000000000000000000000000000000000000000000000000000600052603260045260246000fd5b90600052602060002090600a02016003015481600601541015613b8257600c8381548110613b67577f4e487b7100000000000000000000000000000000000000000000000000000000600052603260045260246000fd5b90600052602060002090600a02016003015481600601819055505b60005b8160040180549050811015613e20576000826004018281548110613bd2577f4e487b7100000000000000000000000000000000000000000000000000000000600052603260045260246000fd5b9060005260206000209060020201604051806040016040529081600082015481526020016001820160009054906101000a900473ffffffffffffffffffffffffffffffffffffffff1673ffffffffffffffffffffffffffffffffffffffff1673ffffffffffffffffffffffffffffffffffffffff168152505090508481600001511415613e0c576000600d6000836020015173ffffffffffffffffffffffffffffffffffffffff1673ffffffffffffffffffffffffffffffffffffffff168152602001908152602001600020905080600201600087815260200190815260200160002060009054906101000a900460ff16613e0a57600181600201600088815260200190815260200160002060006101000a81548160ff021916908315150217905550600c8681548110613d2f577f4e487b7100000000000000000000000000000000000000000000000000000000600052603260045260246000fd5b90600052602060002090600a02016003015481600601541015613da157600c8681548110613d86577f4e487b7100000000000000000000000000000000000000000000000000000000600052603260045260246000fd5b90600052602060002090600a02016003015481600601819055505b8415613e0957600c8681548110613de1577f4e487b7100000000000000000000000000000000000000000000000000000000600052603260045260246000fd5b90600052602060002090600a02016001016000815480929190613e0390615bbd565b91905055505b5b505b508080613e1890615bbd565b915050613b85565b50600c8381548110613e5b577f4e487b7100000000000000000000000000000000000000000000000000000000600052603260045260246000fd5b90600052602060002090600a020160010154600a613e799190615a23565b60095411613eea576001600c8481548110613ebd577f4e487b7100000000000000000000000000000000000000000000000000000000600052603260045260246000fd5b90600052602060002090600a020160090160006101000a81548160ff021916908315150217905550613f4f565b6000600c8481548110613f26577f4e487b7100000000000000000000000000000000000000000000000000000000600052603260045260246000fd5b90600052602060002090600a020160090160006101000a81548160ff0219169083151502179055505b505050565b60606000606080600c8581548110613f95577f4e487b7100000000000000000000000000000000000000000000000000000000600052603260045260246000fd5b90600052602060002090600a02016006018054613fb190615b5a565b80601f0160208091040260200160405190810160405280929190818152602001828054613fdd90615b5a565b801561402a5780601f10613fff5761010080835404028352916020019161402a565b820191906000526020600020905b81548152906001019060200180831161400d57829003601f168201915b50505050509350600c858154811061406b577f4e487b7100000000000000000000000000000000000000000000000000000000600052603260045260246000fd5b90600052602060002090600a0201600301549250600c85815481106140b9577f4e487b7100000000000000000000000000000000000000000000000000000000600052603260045260246000fd5b90600052602060002090600a020160040180548060200260200160405190810160405280929190818152602001828054801561411457602002820191906000526020600020905b815481526020019060010190808311614100575b50505050509150600c8581548110614155577f4e487b7100000000000000000000000000000000000000000000000000000000600052603260045260246000fd5b90600052602060002090600a02016005018054806020026020016040519081016040528092919081815260200182805480156141b057602002820191906000526020600020905b81548152602001906001019080831161419c575b505050505090509193509193565b600033905090565b600073ffffffffffffffffffffffffffffffffffffffff168373ffffffffffffffffffffffffffffffffffffffff161415614236576040517f08c379a000000000000000000000000000000000000000000000000000000000815260040161422d90615746565b60405180910390fd5b600073ffffffffffffffffffffffffffffffffffffffff168273ffffffffffffffffffffffffffffffffffffffff1614156142a6576040517f08c379a000000000000000000000000000000000000000000000000000000000815260040161429d90615466565b60405180910390fd5b80600160008573ffffffffffffffffffffffffffffffffffffffff1673ffffffffffffffffffffffffffffffffffffffff16815260200190815260200160002060008473ffffffffffffffffffffffffffffffffffffffff1673ffffffffffffffffffffffffffffffffffffffff168152602001908152602001600020819055508173ffffffffffffffffffffffffffffffffffffffff168373ffffffffffffffffffffffffffffffffffffffff167f8c5be1e5ebec7d5bd14f71427d1e84f3dd0314c0f7b2291e5b200ac8c7c3b9258360405161438491906157e6565b60405180910390a3505050565b600061439d8484613109565b90507fffffffffffffffffffffffffffffffffffffffffffffffffffffffffffffffff81146144175781811015614409576040517f08c379a0000000000000000000000000000000000000000000000000000000008152600401614400906154c6565b60405180910390fd5b61441684848484036141c6565b5b50505050565b600073ffffffffffffffffffffffffffffffffffffffff168373ffffffffffffffffffffffffffffffffffffffff16141561448d576040517f08c379a0000000000000000000000000000000000000000000000000000000008152600401614484906156e6565b60405180910390fd5b600073ffffffffffffffffffffffffffffffffffffffff168273ffffffffffffffffffffffffffffffffffffffff1614156144fd576040517f08c379a00000000000000000000000000000000000000000000000000000000081526004016144f4906153e6565b60405180910390fd5b614508838383614695565b60008060008573ffffffffffffffffffffffffffffffffffffffff1673ffffffffffffffffffffffffffffffffffffffff1681526020019081526020016000205490508181101561458e576040517f08c379a000000000000000000000000000000000000000000000000000000000815260040161458590615526565b60405180910390fd5b8181036000808673ffffffffffffffffffffffffffffffffffffffff1673ffffffffffffffffffffffffffffffffffffffff16815260200190815260200160002081905550816000808573ffffffffffffffffffffffffffffffffffffffff1673ffffffffffffffffffffffffffffffffffffffff168152602001908152602001600020600082825401925050819055508273ffffffffffffffffffffffffffffffffffffffff168473ffffffffffffffffffffffffffffffffffffffff167fddf252ad1be2c89b69c2b068fc378daa952ba7f163c4a11628f55a4df523b3ef8460405161467c91906157e6565b60405180910390a361468f84848461469a565b50505050565b505050565b505050565b8280548282559060005260206000209081019282156146db579160200282015b828111156146da5782518255916020019190600101906146bf565b5b5090506146e89190614818565b5090565b8280546146f890615b5a565b90600052602060002090601f01602090048101928261471a5760008555614761565b82601f1061473357805160ff1916838001178555614761565b82800160010185558215614761579182015b82811115614760578251825591602001919060010190614745565b5b50905061476e9190614818565b5090565b82805482825590600052602060002090601f016020900481019282156148075791602002820160005b838211156147d857835183826101000a81548160ff021916908315150217905550926020019260010160208160000104928301926001030261479b565b80156148055782816101000a81549060ff02191690556001016020816000010492830192600103026147d8565b505b5090506148149190614818565b5090565b5b80821115614831576000816000905550600101614819565b5090565b600061484861484384615910565b6158eb565b9050808382526020820190508285602086028201111561486757600080fd5b60005b85811015614897578161487d8882614972565b84526020840193506020830192505060018101905061486a565b5050509392505050565b60006148b46148af8461593c565b6158eb565b9050828152602081018484840111156148cc57600080fd5b6148d7848285615b18565b509392505050565b6000813590506148ee81616531565b92915050565b600082601f83011261490557600080fd5b8135614915848260208601614835565b91505092915050565b60008135905061492d81616548565b92915050565b60008151905061494281616548565b92915050565b600082601f83011261495957600080fd5b81356149698482602086016148a1565b91505092915050565b6000813590506149818161655f565b92915050565b60006020828403121561499957600080fd5b60006149a7848285016148df565b91505092915050565b600080604083850312156149c357600080fd5b60006149d1858286016148df565b92505060206149e2858286016148df565b9150509250929050565b600080600060608486031215614a0157600080fd5b6000614a0f868287016148df565b9350506020614a20868287016148df565b9250506040614a3186828701614972565b9150509250925092565b60008060408385031215614a4e57600080fd5b6000614a5c858286016148df565b9250506020614a6d85828601614972565b9150509250929050565b600060208284031215614a8957600080fd5b6000614a9784828501614933565b91505092915050565b60008060008060808587031215614ab657600080fd5b600085013567ffffffffffffffff811115614ad057600080fd5b614adc87828801614948565b9450506020614aed87828801614972565b935050604085013567ffffffffffffffff811115614b0a57600080fd5b614b16878288016148f4565b925050606085013567ffffffffffffffff811115614b3357600080fd5b614b3f878288016148f4565b91505092959194509250565b60008060008060808587031215614b6157600080fd5b600085013567ffffffffffffffff811115614b7b57600080fd5b614b8787828801614948565b9450506020614b9887828801614972565b9350506040614ba987828801614972565b9250506060614bba87828801614972565b91505092959194509250565b600060208284031215614bd857600080fd5b6000614be684828501614972565b91505092915050565b60008060408385031215614c0257600080fd5b6000614c1085828601614972565b925050602083013567ffffffffffffffff811115614c2d57600080fd5b614c39858286016148f4565b9150509250929050565b60008060408385031215614c5657600080fd5b6000614c6485828601614972565b9250506020614c758582860161491e565b9150509250929050565b6000614c8b83836151de565b60208301905092915050565b614ca081615ab1565b82525050565b6000614cb18261597d565b614cbb81856159a0565b9350614cc68361596d565b8060005b83811015614cf7578151614cde8882614c7f565b9750614ce983615993565b925050600181019050614cca565b5085935050505092915050565b614d0d81615ac3565b82525050565b614d1c81615b06565b82525050565b6000614d2d82615988565b614d3781856159bc565b9350614d47818560208601615b27565b614d5081615c93565b840191505092915050565b6000614d686023836159bc565b9150614d7382615ca4565b604082019050919050565b6000614d8b602d836159bc565b9150614d9682615cf3565b604082019050919050565b6000614dae6024836159bc565b9150614db982615d42565b604082019050919050565b6000614dd16025836159bc565b9150614ddc82615d91565b604082019050919050565b6000614df46022836159bc565b9150614dff82615de0565b604082019050919050565b6000614e176001836159bc565b9150614e2282615e2f565b602082019050919050565b6000614e3a6028836159bc565b9150614e4582615e58565b604082019050919050565b6000614e5d601d836159bc565b9150614e6882615ea7565b602082019050919050565b6000614e806026836159bc565b9150614e8b82615ed0565b604082019050919050565b6000614ea36020836159bc565b9150614eae82615f1f565b602082019050919050565b6000614ec66026836159bc565b9150614ed182615f48565b604082019050919050565b6000614ee96018836159bc565b9150614ef482615f97565b602082019050919050565b6000614f0c6032836159bc565b9150614f1782615fc0565b604082019050919050565b6000614f2f6012836159bc565b9150614f3a8261600f565b602082019050919050565b6000614f526013836159bc565b9150614f5d82616038565b602082019050919050565b6000614f756029836159bc565b9150614f8082616061565b604082019050919050565b6000614f986016836159bc565b9150614fa3826160b0565b602082019050919050565b6000614fbb6024836159bc565b9150614fc6826160d9565b604082019050919050565b6000614fde6026836159bc565b9150614fe982616128565b604082019050919050565b60006150016026836159bc565b915061500c82616177565b604082019050919050565b60006150246043836159bc565b915061502f826161c6565b606082019050919050565b60006150476029836159bc565b91506150528261623b565b604082019050919050565b600061506a601c836159bc565b91506150758261628a565b602082019050919050565b600061508d6010836159bc565b9150615098826162b3565b602082019050919050565b60006150b06025836159bc565b91506150bb826162dc565b604082019050919050565b60006150d36026836159bc565b91506150de8261632b565b604082019050919050565b60006150f66000836159b1565b91506151018261637a565b600082019050919050565b60006151196001836159bc565b91506151248261637d565b602082019050919050565b600061513c6024836159bc565b9150615147826163a6565b604082019050919050565b600061515f6027836159bc565b915061516a826163f5565b604082019050919050565b60006151826038836159bc565b915061518d82616444565b604082019050919050565b60006151a5603d836159bc565b91506151b082616493565b604082019050919050565b60006151c86025836159bc565b91506151d3826164e2565b604082019050919050565b6151e781615aef565b82525050565b6151f681615aef565b82525050565b61520581615af9565b82525050565b6000615216826150e9565b9150819050919050565b60006020820190506152356000830184614c97565b92915050565b60006040820190506152506000830185614c97565b61525d6020830184614d13565b9392505050565b60006040820190506152796000830185614c97565b61528660208301846151ed565b9392505050565b60006020820190506152a26000830184614d04565b92915050565b600060208201905081810360008301526152c28184614d22565b905092915050565b600060e08201905081810360008301526152e4818a614d22565b90506152f36020830189614c97565b61530060408301886151ed565b61530d60608301876151ed565b61531a60808301866151ed565b61532760a08301856151ed565b61533460c08301846151ed565b98975050505050505050565b6000608082019050818103600083015261535a8187614d22565b905061536960208301866151ed565b818103604083015261537b8185614ca6565b9050818103606083015261538f8184614ca6565b905095945050505050565b600060808201905081810360008301526153b48187614d22565b90506153c360208301866151ed565b6153d060408301856151ed565b6153dd60608301846151ed565b95945050505050565b600060208201905081810360008301526153ff81614d5b565b9050919050565b6000602082019050818103600083015261541f81614d7e565b9050919050565b6000602082019050818103600083015261543f81614da1565b9050919050565b6000602082019050818103600083015261545f81614dc4565b9050919050565b6000602082019050818103600083015261547f81614de7565b9050919050565b6000602082019050818103600083015261549f81614e0a565b9050919050565b600060208201905081810360008301526154bf81614e2d565b9050919050565b600060208201905081810360008301526154df81614e50565b9050919050565b600060208201905081810360008301526154ff81614e73565b9050919050565b6000602082019050818103600083015261551f81614e96565b9050919050565b6000602082019050818103600083015261553f81614eb9565b9050919050565b6000602082019050818103600083015261555f81614edc565b9050919050565b6000602082019050818103600083015261557f81614eff565b9050919050565b6000602082019050818103600083015261559f81614f22565b9050919050565b600060208201905081810360008301526155bf81614f45565b9050919050565b600060208201905081810360008301526155df81614f68565b9050919050565b600060208201905081810360008301526155ff81614f8b565b9050919050565b6000602082019050818103600083015261561f81614fae565b9050919050565b6000602082019050818103600083015261563f81614fd1565b9050919050565b6000602082019050818103600083015261565f81614ff4565b9050919050565b6000602082019050818103600083015261567f81615017565b9050919050565b6000602082019050818103600083015261569f8161503a565b9050919050565b600060208201905081810360008301526156bf8161505d565b9050919050565b600060208201905081810360008301526156df81615080565b9050919050565b600060208201905081810360008301526156ff816150a3565b9050919050565b6000602082019050818103600083015261571f816150c6565b9050919050565b6000602082019050818103600083015261573f8161510c565b9050919050565b6000602082019050818103600083015261575f8161512f565b9050919050565b6000602082019050818103600083015261577f81615152565b9050919050565b6000602082019050818103600083015261579f81615175565b9050919050565b600060208201905081810360008301526157bf81615198565b9050919050565b600060208201905081810360008301526157df816151bb565b9050919050565b60006020820190506157fb60008301846151ed565b92915050565b600060408201905061581660008301856151ed565b81810360208301526158288184614ca6565b90509392505050565b600060608201905061584660008301866151ed565b61585360208301856151ed565b6158606040830184614d04565b949350505050565b600060c08201905061587d60008301896151ed565b61588a60208301886151ed565b61589760408301876151ed565b81810360608301526158a98186614d22565b90506158b86080830185614c97565b6158c560a0830184614d04565b979650505050505050565b60006020820190506158e560008301846151fc565b92915050565b60006158f5615906565b90506159018282615b8c565b919050565b6000604051905090565b600067ffffffffffffffff82111561592b5761592a615c64565b5b602082029050602081019050919050565b600067ffffffffffffffff82111561595757615956615c64565b5b61596082615c93565b9050602081019050919050565b6000819050602082019050919050565b600081519050919050565b600081519050919050565b6000602082019050919050565b600082825260208201905092915050565b600081905092915050565b600082825260208201905092915050565b60006159d882615aef565b91506159e383615aef565b9250827fffffffffffffffffffffffffffffffffffffffffffffffffffffffffffffffff03821115615a1857615a17615c06565b5b828201905092915050565b6000615a2e82615aef565b9150615a3983615aef565b9250817fffffffffffffffffffffffffffffffffffffffffffffffffffffffffffffffff0483118215151615615a7257615a71615c06565b5b828202905092915050565b6000615a8882615aef565b9150615a9383615aef565b925082821015615aa657615aa5615c06565b5b828203905092915050565b6000615abc82615acf565b9050919050565b60008115159050919050565b600073ffffffffffffffffffffffffffffffffffffffff82169050919050565b6000819050919050565b600060ff82169050919050565b6000615b1182615aef565b9050919050565b82818337600083830152505050565b60005b83811015615b45578082015181840152602081019050615b2a565b83811115615b54576000848401525b50505050565b60006002820490506001821680615b7257607f821691505b60208210811415615b8657615b85615c35565b5b50919050565b615b9582615c93565b810181811067ffffffffffffffff82111715615bb457615bb3615c64565b5b80604052505050565b6000615bc882615aef565b91507fffffffffffffffffffffffffffffffffffffffffffffffffffffffffffffffff821415615bfb57615bfa615c06565b5b600182019050919050565b7f4e487b7100000000000000000000000000000000000000000000000000000000600052601160045260246000fd5b7f4e487b7100000000000000000000000000000000000000000000000000000000600052602260045260246000fd5b7f4e487b7100000000000000000000000000000000000000000000000000000000600052604160045260246000fd5b6000601f19601f8301169050919050565b7f45524332303a207472616e7366657220746f20746865207a65726f206164647260008201527f6573730000000000000000000000000000000000000000000000000000000000602082015250565b7f4e6f6e206d656d626572732063616e6e6f74207061727469636970617465206960008201527f6e20746865207375727665792e00000000000000000000000000000000000000602082015250565b7f4e6f206d6f726520746f6b656e73206c65667420696e2074686520636f6e747260008201527f6163742e00000000000000000000000000000000000000000000000000000000602082015250565b7f4e6f20737563682070726f6a656374206578697374732077697468206769766560008201527f6e2069642e000000000000000000000000000000000000000000000000000000602082015250565b7f45524332303a20617070726f766520746f20746865207a65726f20616464726560008201527f7373000000000000000000000000000000000000000000000000000000000000602082015250565b7f3300000000000000000000000000000000000000000000000000000000000000600082015250565b7f557365722068617320616c726561647920766f74656420666f7220746869732060008201527f7061796d656e742e000000000000000000000000000000000000000000000000602082015250565b7f45524332303a20696e73756666696369656e7420616c6c6f77616e6365000000600082015250565b7f4e6f7420656e6f7567682065746865727320746f2066756e642074686520707260008201527f6f6a6563742e0000000000000000000000000000000000000000000000000000602082015250565b7f53656c662d64656c65676174696f6e206973206e6f7420706f737369626c652e600082015250565b7f45524332303a207472616e7366657220616d6f756e742065786365656473206260008201527f616c616e63650000000000000000000000000000000000000000000000000000602082015250565b7f54686520646561646c696e6520686173207061737365642e0000000000000000600082015250565b7f557365722063616e6e6f742064726f702069742773206d656d6265722073746160008201527f74757320647572696e6720766f74696e672e0000000000000000000000000000602082015250565b7f446561646c696e652065786365656465642e0000000000000000000000000000600082015250565b7f50726f6a656374206e6f742066756e6465642e00000000000000000000000000600082015250565b7f4e6f7420656e6f7567682065746865727320746f207375626d6974207468652060008201527f70726f706f73616c2e0000000000000000000000000000000000000000000000602082015250565b7f557365722068617320616c726561647920766f74656400000000000000000000600082015250565b7f5468652064656c65676174696f6e2068617320616c726561647920686170706560008201527f6e65642e00000000000000000000000000000000000000000000000000000000602082015250565b7f596f7520616c72656164792070617274696369706174656420696e207468652060008201527f7375727665790000000000000000000000000000000000000000000000000000602082015250565b7f4e6f6e2d6d656d626572732063616e6e6f742063616c6c20746869732066756e60008201527f6374696f6e2e0000000000000000000000000000000000000000000000000000602082015250565b7f4e6f6e2d6d656d6265727320646f6e277420686176652074686520726967687460008201527f20746f20766f74652074687573206e6f20726967687420746f2064656c65676160208201527f74652e0000000000000000000000000000000000000000000000000000000000604082015250565b7f4e6f2070726f6a6563742070726f706f73616c207769746820676976656e206960008201527f64206578697374732e0000000000000000000000000000000000000000000000602082015250565b7f596f7520616c7265616479207573656420746865206661756365742e00000000600082015250565b7f6661696c656420746f20726566756e6400000000000000000000000000000000600082015250565b7f45524332303a207472616e736665722066726f6d20746865207a65726f20616460008201527f6472657373000000000000000000000000000000000000000000000000000000602082015250565b7f55736572206973206e6f742061206d656d62657220746875732063616e6e6f7460008201527f20766f74652e0000000000000000000000000000000000000000000000000000602082015250565b50565b7f3100000000000000000000000000000000000000000000000000000000000000600082015250565b7f45524332303a20617070726f76652066726f6d20746865207a65726f2061646460008201527f7265737300000000000000000000000000000000000000000000000000000000602082015250565b7f44656c65676174696f6e2063616e206f6e6c7920626520646f6e6520746f206d60008201527f656d626572732e00000000000000000000000000000000000000000000000000602082015250565b7f55736572206861732064656c65676174656420736f6d656f6e6520656c73652060008201527f746f20766f746520666f72207468652070726f6a6563742e0000000000000000602082015250565b7f496e73756666696369656e74204d79476f76546f6b656e732062616c616e636560008201527f20666f7220656e746572656420646f6e6174696f6e20616d6f756e742e000000602082015250565b7f45524332303a2064656372656173656420616c6c6f77616e63652062656c6f7760008201527f207a65726f000000000000000000000000000000000000000000000000000000602082015250565b61653a81615ab1565b811461654557600080fd5b50565b61655181615ac3565b811461655c57600080fd5b50565b61656881615aef565b811461657357600080fd5b5056fea2646970667358221220f8b75d6417f7cafaf47aa46007a09ba6ed7c3aba09aecc4ef153e6b4ee3c8f1264736f6c63430008030033","opcodes":"PUSH1 0x80 PUSH1 0x40 MSTORE PUSH7 0x8E1BC9BF040000 PUSH1 0xA SSTORE PUSH8 0x16345785D8A0000 PUSH1 0xB SSTORE CALLVALUE DUP1 ISZERO PUSH3 0x28 JUMPI PUSH1 0x0 DUP1 REVERT JUMPDEST POP PUSH1 0x40 MLOAD PUSH3 0x6B02 CODESIZE SUB DUP1 PUSH3 0x6B02 DUP4 CODECOPY DUP2 DUP2 ADD PUSH1 0x40 MSTORE DUP2 ADD SWAP1 PUSH3 0x4E SWAP2 SWAP1 PUSH3 0x354 JUMP JUMPDEST PUSH1 0x40 MLOAD DUP1 PUSH1 0x40 ADD PUSH1 0x40 MSTORE DUP1 PUSH1 0x5 DUP2 MSTORE PUSH1 0x20 ADD PUSH32 0x4D79476F76000000000000000000000000000000000000000000000000000000 DUP2 MSTORE POP PUSH1 0x40 MLOAD DUP1 PUSH1 0x40 ADD PUSH1 0x40 MSTORE DUP1 PUSH1 0x2 DUP2 MSTORE PUSH1 0x20 ADD PUSH32 0x4D47000000000000000000000000000000000000000000000000000000000000 DUP2 MSTORE POP DUP2 PUSH1 0x3 SWAP1 DUP1 MLOAD SWAP1 PUSH1 0x20 ADD SWAP1 PUSH3 0xD2 SWAP3 SWAP2 SWAP1 PUSH3 0x28D JUMP JUMPDEST POP DUP1 PUSH1 0x4 SWAP1 DUP1 MLOAD SWAP1 PUSH1 0x20 ADD SWAP1 PUSH3 0xEB SWAP3 SWAP2 SWAP1 PUSH3 0x28D JUMP JUMPDEST POP POP POP DUP1 PUSH1 0x5 DUP2 SWAP1 SSTORE POP DUP1 PUSH1 0x6 DUP2 SWAP1 SSTORE POP PUSH3 0x10E ADDRESS DUP3 PUSH3 0x115 PUSH1 0x20 SHL PUSH1 0x20 SHR JUMP JUMPDEST POP PUSH3 0x546 JUMP JUMPDEST PUSH1 0x0 PUSH20 0xFFFFFFFFFFFFFFFFFFFFFFFFFFFFFFFFFFFFFFFF AND DUP3 PUSH20 0xFFFFFFFFFFFFFFFFFFFFFFFFFFFFFFFFFFFFFFFF AND EQ ISZERO PUSH3 0x188 JUMPI PUSH1 0x40 MLOAD PUSH32 0x8C379A000000000000000000000000000000000000000000000000000000000 DUP2 MSTORE PUSH1 0x4 ADD PUSH3 0x17F SWAP1 PUSH3 0x3B8 JUMP JUMPDEST PUSH1 0x40 MLOAD DUP1 SWAP2 SUB SWAP1 REVERT JUMPDEST PUSH3 0x19C PUSH1 0x0 DUP4 DUP4 PUSH3 0x283 PUSH1 0x20 SHL PUSH1 0x20 SHR JUMP JUMPDEST DUP1 PUSH1 0x2 PUSH1 0x0 DUP3 DUP3 SLOAD PUSH3 0x1B0 SWAP2 SWAP1 PUSH3 0x408 JUMP JUMPDEST SWAP3 POP POP DUP2 SWAP1 SSTORE POP DUP1 PUSH1 0x0 DUP1 DUP5 PUSH20 0xFFFFFFFFFFFFFFFFFFFFFFFFFFFFFFFFFFFFFFFF AND PUSH20 0xFFFFFFFFFFFFFFFFFFFFFFFFFFFFFFFFFFFFFFFF AND DUP2 MSTORE PUSH1 0x20 ADD SWAP1 DUP2 MSTORE PUSH1 0x20 ADD PUSH1 0x0 KECCAK256 PUSH1 0x0 DUP3 DUP3 SLOAD ADD SWAP3 POP POP DUP2 SWAP1 SSTORE POP DUP2 PUSH20 0xFFFFFFFFFFFFFFFFFFFFFFFFFFFFFFFFFFFFFFFF AND PUSH1 0x0 PUSH20 0xFFFFFFFFFFFFFFFFFFFFFFFFFFFFFFFFFFFFFFFF AND PUSH32 0xDDF252AD1BE2C89B69C2B068FC378DAA952BA7F163C4A11628F55A4DF523B3EF DUP4 PUSH1 0x40 MLOAD PUSH3 0x263 SWAP2 SWAP1 PUSH3 0x3DA JUMP JUMPDEST PUSH1 0x40 MLOAD DUP1 SWAP2 SUB SWAP1 LOG3 PUSH3 0x27F PUSH1 0x0 DUP4 DUP4 PUSH3 0x288 PUSH1 0x20 SHL PUSH1 0x20 SHR JUMP JUMPDEST POP POP JUMP JUMPDEST POP POP POP JUMP JUMPDEST POP POP POP JUMP JUMPDEST DUP3 DUP1 SLOAD PUSH3 0x29B SWAP1 PUSH3 0x46F JUMP JUMPDEST SWAP1 PUSH1 0x0 MSTORE PUSH1 0x20 PUSH1 0x0 KECCAK256 SWAP1 PUSH1 0x1F ADD PUSH1 0x20 SWAP1 DIV DUP2 ADD SWAP3 DUP3 PUSH3 0x2BF JUMPI PUSH1 0x0 DUP6 SSTORE PUSH3 0x30B JUMP JUMPDEST DUP3 PUSH1 0x1F LT PUSH3 0x2DA JUMPI DUP1 MLOAD PUSH1 0xFF NOT AND DUP4 DUP1 ADD OR DUP6 SSTORE PUSH3 0x30B JUMP JUMPDEST DUP3 DUP1 ADD PUSH1 0x1 ADD DUP6 SSTORE DUP3 ISZERO PUSH3 0x30B JUMPI SWAP2 DUP3 ADD JUMPDEST DUP3 DUP2 GT ISZERO PUSH3 0x30A JUMPI DUP3 MLOAD DUP3 SSTORE SWAP2 PUSH1 0x20 ADD SWAP2 SWAP1 PUSH1 0x1 ADD SWAP1 PUSH3 0x2ED JUMP JUMPDEST JUMPDEST POP SWAP1 POP PUSH3 0x31A SWAP2 SWAP1 PUSH3 0x31E JUMP JUMPDEST POP SWAP1 JUMP JUMPDEST JUMPDEST DUP1 DUP3 GT ISZERO PUSH3 0x339 JUMPI PUSH1 0x0 DUP2 PUSH1 0x0 SWAP1 SSTORE POP PUSH1 0x1 ADD PUSH3 0x31F JUMP JUMPDEST POP SWAP1 JUMP JUMPDEST PUSH1 0x0 DUP2 MLOAD SWAP1 POP PUSH3 0x34E DUP2 PUSH3 0x52C JUMP JUMPDEST SWAP3 SWAP2 POP POP JUMP JUMPDEST PUSH1 0x0 PUSH1 0x20 DUP3 DUP5 SUB SLT ISZERO PUSH3 0x367 JUMPI PUSH1 0x0 DUP1 REVERT JUMPDEST PUSH1 0x0 PUSH3 0x377 DUP5 DUP3 DUP6 ADD PUSH3 0x33D JUMP JUMPDEST SWAP2 POP POP SWAP3 SWAP2 POP POP JUMP JUMPDEST PUSH1 0x0 PUSH3 0x38F PUSH1 0x1F DUP4 PUSH3 0x3F7 JUMP JUMPDEST SWAP2 POP PUSH3 0x39C DUP3 PUSH3 0x503 JUMP JUMPDEST PUSH1 0x20 DUP3 ADD SWAP1 POP SWAP2 SWAP1 POP JUMP JUMPDEST PUSH3 0x3B2 DUP2 PUSH3 0x465 JUMP JUMPDEST DUP3 MSTORE POP POP JUMP JUMPDEST PUSH1 0x0 PUSH1 0x20 DUP3 ADD SWAP1 POP DUP2 DUP2 SUB PUSH1 0x0 DUP4 ADD MSTORE PUSH3 0x3D3 DUP2 PUSH3 0x380 JUMP JUMPDEST SWAP1 POP SWAP2 SWAP1 POP JUMP JUMPDEST PUSH1 0x0 PUSH1 0x20 DUP3 ADD SWAP1 POP PUSH3 0x3F1 PUSH1 0x0 DUP4 ADD DUP5 PUSH3 0x3A7 JUMP JUMPDEST SWAP3 SWAP2 POP POP JUMP JUMPDEST PUSH1 0x0 DUP3 DUP3 MSTORE PUSH1 0x20 DUP3 ADD SWAP1 POP SWAP3 SWAP2 POP POP JUMP JUMPDEST PUSH1 0x0 PUSH3 0x415 DUP3 PUSH3 0x465 JUMP JUMPDEST SWAP2 POP PUSH3 0x422 DUP4 PUSH3 0x465 JUMP JUMPDEST SWAP3 POP DUP3 PUSH32 0xFFFFFFFFFFFFFFFFFFFFFFFFFFFFFFFFFFFFFFFFFFFFFFFFFFFFFFFFFFFFFFFF SUB DUP3 GT ISZERO PUSH3 0x45A JUMPI PUSH3 0x459 PUSH3 0x4A5 JUMP JUMPDEST JUMPDEST DUP3 DUP3 ADD SWAP1 POP SWAP3 SWAP2 POP POP JUMP JUMPDEST PUSH1 0x0 DUP2 SWAP1 POP SWAP2 SWAP1 POP JUMP JUMPDEST PUSH1 0x0 PUSH1 0x2 DUP3 DIV SWAP1 POP PUSH1 0x1 DUP3 AND DUP1 PUSH3 0x488 JUMPI PUSH1 0x7F DUP3 AND SWAP2 POP JUMPDEST PUSH1 0x20 DUP3 LT DUP2 EQ ISZERO PUSH3 0x49F JUMPI PUSH3 0x49E PUSH3 0x4D4 JUMP JUMPDEST JUMPDEST POP SWAP2 SWAP1 POP JUMP JUMPDEST PUSH32 0x4E487B7100000000000000000000000000000000000000000000000000000000 PUSH1 0x0 MSTORE PUSH1 0x11 PUSH1 0x4 MSTORE PUSH1 0x24 PUSH1 0x0 REVERT JUMPDEST PUSH32 0x4E487B7100000000000000000000000000000000000000000000000000000000 PUSH1 0x0 MSTORE PUSH1 0x22 PUSH1 0x4 MSTORE PUSH1 0x24 PUSH1 0x0 REVERT JUMPDEST PUSH32 0x45524332303A206D696E7420746F20746865207A65726F206164647265737300 PUSH1 0x0 DUP3 ADD MSTORE POP JUMP JUMPDEST PUSH3 0x537 DUP2 PUSH3 0x465 JUMP JUMPDEST DUP2 EQ PUSH3 0x543 JUMPI PUSH1 0x0 DUP1 REVERT JUMPDEST POP JUMP JUMPDEST PUSH2 0x65AC DUP1 PUSH3 0x556 PUSH1 0x0 CODECOPY PUSH1 0x0 RETURN INVALID PUSH1 0x80 PUSH1 0x40 MSTORE PUSH1 0x4 CALLDATASIZE LT PUSH2 0x229 JUMPI PUSH1 0x0 CALLDATALOAD PUSH1 0xE0 SHR DUP1 PUSH4 0x94D9FF48 GT PUSH2 0x123 JUMPI DUP1 PUSH4 0xB5003369 GT PUSH2 0xAB JUMPI DUP1 PUSH4 0xDD62ED3E GT PUSH2 0x6F JUMPI DUP1 PUSH4 0xDD62ED3E EQ PUSH2 0x8F9 JUMPI DUP1 PUSH4 0xDE5F72FD EQ PUSH2 0x936 JUMPI DUP1 PUSH4 0xEF269AE3 EQ PUSH2 0x94D JUMPI DUP1 PUSH4 0xF22449BA EQ PUSH2 0x97D JUMPI DUP1 PUSH4 0xFABF5968 EQ PUSH2 0x9A6 JUMPI PUSH2 0x249 JUMP JUMPDEST DUP1 PUSH4 0xB5003369 EQ PUSH2 0x7FD JUMPI DUP1 PUSH4 0xBD275764 EQ PUSH2 0x83A JUMPI DUP1 PUSH4 0xBD6C733C EQ PUSH2 0x863 JUMPI DUP1 PUSH4 0xBF50556D EQ PUSH2 0x88C JUMPI DUP1 PUSH4 0xDBC1D569 EQ PUSH2 0x8B7 JUMPI PUSH2 0x249 JUMP JUMPDEST DUP1 PUSH4 0xA230C524 GT PUSH2 0xF2 JUMPI DUP1 PUSH4 0xA230C524 EQ PUSH2 0x6D7 JUMPI DUP1 PUSH4 0xA457C2D7 EQ PUSH2 0x714 JUMPI DUP1 PUSH4 0xA5E898E1 EQ PUSH2 0x751 JUMPI DUP1 PUSH4 0xA87430BA EQ PUSH2 0x781 JUMPI DUP1 PUSH4 0xA9059CBB EQ PUSH2 0x7C0 JUMPI PUSH2 0x249 JUMP JUMPDEST DUP1 PUSH4 0x94D9FF48 EQ PUSH2 0x62A JUMPI DUP1 PUSH4 0x95D89B41 EQ PUSH2 0x653 JUMPI DUP1 PUSH4 0x9983FA58 EQ PUSH2 0x67E JUMPI DUP1 PUSH4 0xA1669B32 EQ PUSH2 0x6BB JUMPI PUSH2 0x249 JUMP JUMPDEST DUP1 PUSH4 0x39C94D2D GT PUSH2 0x1B1 JUMPI DUP1 PUSH4 0x7C405164 GT PUSH2 0x175 JUMPI DUP1 PUSH4 0x7C405164 EQ PUSH2 0x526 JUMPI DUP1 PUSH4 0x863451DD EQ PUSH2 0x563 JUMPI DUP1 PUSH4 0x86E68B90 EQ PUSH2 0x56D JUMPI DUP1 PUSH4 0x875B5076 EQ PUSH2 0x5B0 JUMPI DUP1 PUSH4 0x92256AEC EQ PUSH2 0x5ED JUMPI PUSH2 0x249 JUMP JUMPDEST DUP1 PUSH4 0x39C94D2D EQ PUSH2 0x42E JUMPI DUP1 PUSH4 0x5D801B37 EQ PUSH2 0x457 JUMPI DUP1 PUSH4 0x702798DF EQ PUSH2 0x482 JUMPI DUP1 PUSH4 0x70A08231 EQ PUSH2 0x4AB JUMPI DUP1 PUSH4 0x70A56C73 EQ PUSH2 0x4E8 JUMPI PUSH2 0x249 JUMP JUMPDEST DUP1 PUSH4 0x23B872DD GT PUSH2 0x1F8 JUMPI DUP1 PUSH4 0x23B872DD EQ PUSH2 0x31E JUMPI DUP1 PUSH4 0x23FD498B EQ PUSH2 0x35B JUMPI DUP1 PUSH4 0x2E8F3413 EQ PUSH2 0x386 JUMPI DUP1 PUSH4 0x313CE567 EQ PUSH2 0x3C6 JUMPI DUP1 PUSH4 0x39509351 EQ PUSH2 0x3F1 JUMPI PUSH2 0x249 JUMP JUMPDEST DUP1 PUSH4 0x6FDDE03 EQ PUSH2 0x24E JUMPI DUP1 PUSH4 0x95EA7B3 EQ PUSH2 0x279 JUMPI DUP1 PUSH4 0x18160DDD EQ PUSH2 0x2B6 JUMPI DUP1 PUSH4 0x1D2ACDFD EQ PUSH2 0x2E1 JUMPI PUSH2 0x249 JUMP JUMPDEST CALLDATASIZE PUSH2 0x249 JUMPI CALLVALUE PUSH1 0x7 PUSH1 0x0 DUP3 DUP3 SLOAD PUSH2 0x240 SWAP2 SWAP1 PUSH2 0x59CD JUMP JUMPDEST SWAP3 POP POP DUP2 SWAP1 SSTORE POP STOP JUMPDEST PUSH1 0x0 DUP1 REVERT JUMPDEST CALLVALUE DUP1 ISZERO PUSH2 0x25A JUMPI PUSH1 0x0 DUP1 REVERT JUMPDEST POP PUSH2 0x263 PUSH2 0x9E6 JUMP JUMPDEST PUSH1 0x40 MLOAD PUSH2 0x270 SWAP2 SWAP1 PUSH2 0x52A8 JUMP JUMPDEST PUSH1 0x40 MLOAD DUP1 SWAP2 SUB SWAP1 RETURN JUMPDEST CALLVALUE DUP1 ISZERO PUSH2 0x285 JUMPI PUSH1 0x0 DUP1 REVERT JUMPDEST POP PUSH2 0x2A0 PUSH1 0x4 DUP1 CALLDATASIZE SUB DUP2 ADD SWAP1 PUSH2 0x29B SWAP2 SWAP1 PUSH2 0x4A3B JUMP JUMPDEST PUSH2 0xA78 JUMP JUMPDEST PUSH1 0x40 MLOAD PUSH2 0x2AD SWAP2 SWAP1 PUSH2 0x528D JUMP JUMPDEST PUSH1 0x40 MLOAD DUP1 SWAP2 SUB SWAP1 RETURN JUMPDEST CALLVALUE DUP1 ISZERO PUSH2 0x2C2 JUMPI PUSH1 0x0 DUP1 REVERT JUMPDEST POP PUSH2 0x2CB PUSH2 0xA9B JUMP JUMPDEST PUSH1 0x40 MLOAD PUSH2 0x2D8 SWAP2 SWAP1 PUSH2 0x57E6 JUMP JUMPDEST PUSH1 0x40 MLOAD DUP1 SWAP2 SUB SWAP1 RETURN JUMPDEST CALLVALUE DUP1 ISZERO PUSH2 0x2ED JUMPI PUSH1 0x0 DUP1 REVERT JUMPDEST POP PUSH2 0x308 PUSH1 0x4 DUP1 CALLDATASIZE SUB DUP2 ADD SWAP1 PUSH2 0x303 SWAP2 SWAP1 PUSH2 0x4BC6 JUMP JUMPDEST PUSH2 0xAA5 JUMP JUMPDEST PUSH1 0x40 MLOAD PUSH2 0x315 SWAP2 SWAP1 PUSH2 0x57E6 JUMP JUMPDEST PUSH1 0x40 MLOAD DUP1 SWAP2 SUB SWAP1 RETURN JUMPDEST CALLVALUE DUP1 ISZERO PUSH2 0x32A JUMPI PUSH1 0x0 DUP1 REVERT JUMPDEST POP PUSH2 0x345 PUSH1 0x4 DUP1 CALLDATASIZE SUB DUP2 ADD SWAP1 PUSH2 0x340 SWAP2 SWAP1 PUSH2 0x49EC JUMP JUMPDEST PUSH2 0xB49 JUMP JUMPDEST PUSH1 0x40 MLOAD PUSH2 0x352 SWAP2 SWAP1 PUSH2 0x528D JUMP JUMPDEST PUSH1 0x40 MLOAD DUP1 SWAP2 SUB SWAP1 RETURN JUMPDEST CALLVALUE DUP1 ISZERO PUSH2 0x367 JUMPI PUSH1 0x0 DUP1 REVERT JUMPDEST POP PUSH2 0x370 PUSH2 0xB78 JUMP JUMPDEST PUSH1 0x40 MLOAD PUSH2 0x37D SWAP2 SWAP1 PUSH2 0x57E6 JUMP JUMPDEST PUSH1 0x40 MLOAD DUP1 SWAP2 SUB SWAP1 RETURN JUMPDEST CALLVALUE DUP1 ISZERO PUSH2 0x392 JUMPI PUSH1 0x0 DUP1 REVERT JUMPDEST POP PUSH2 0x3AD PUSH1 0x4 DUP1 CALLDATASIZE SUB DUP2 ADD SWAP1 PUSH2 0x3A8 SWAP2 SWAP1 PUSH2 0x4BC6 JUMP JUMPDEST PUSH2 0xB85 JUMP JUMPDEST PUSH1 0x40 MLOAD PUSH2 0x3BD SWAP5 SWAP4 SWAP3 SWAP2 SWAP1 PUSH2 0x539A JUMP JUMPDEST PUSH1 0x40 MLOAD DUP1 SWAP2 SUB SWAP1 RETURN JUMPDEST CALLVALUE DUP1 ISZERO PUSH2 0x3D2 JUMPI PUSH1 0x0 DUP1 REVERT JUMPDEST POP PUSH2 0x3DB PUSH2 0xD53 JUMP JUMPDEST PUSH1 0x40 MLOAD PUSH2 0x3E8 SWAP2 SWAP1 PUSH2 0x58D0 JUMP JUMPDEST PUSH1 0x40 MLOAD DUP1 SWAP2 SUB SWAP1 RETURN JUMPDEST CALLVALUE DUP1 ISZERO PUSH2 0x3FD JUMPI PUSH1 0x0 DUP1 REVERT JUMPDEST POP PUSH2 0x418 PUSH1 0x4 DUP1 CALLDATASIZE SUB DUP2 ADD SWAP1 PUSH2 0x413 SWAP2 SWAP1 PUSH2 0x4A3B JUMP JUMPDEST PUSH2 0xD5C JUMP JUMPDEST PUSH1 0x40 MLOAD PUSH2 0x425 SWAP2 SWAP1 PUSH2 0x528D JUMP JUMPDEST PUSH1 0x40 MLOAD DUP1 SWAP2 SUB SWAP1 RETURN JUMPDEST CALLVALUE DUP1 ISZERO PUSH2 0x43A JUMPI PUSH1 0x0 DUP1 REVERT JUMPDEST POP PUSH2 0x455 PUSH1 0x4 DUP1 CALLDATASIZE SUB DUP2 ADD SWAP1 PUSH2 0x450 SWAP2 SWAP1 PUSH2 0x4BC6 JUMP JUMPDEST PUSH2 0xD93 JUMP JUMPDEST STOP JUMPDEST CALLVALUE DUP1 ISZERO PUSH2 0x463 JUMPI PUSH1 0x0 DUP1 REVERT JUMPDEST POP PUSH2 0x46C PUSH2 0xF50 JUMP JUMPDEST PUSH1 0x40 MLOAD PUSH2 0x479 SWAP2 SWAP1 PUSH2 0x57E6 JUMP JUMPDEST PUSH1 0x40 MLOAD DUP1 SWAP2 SUB SWAP1 RETURN JUMPDEST CALLVALUE DUP1 ISZERO PUSH2 0x48E JUMPI PUSH1 0x0 DUP1 REVERT JUMPDEST POP PUSH2 0x4A9 PUSH1 0x4 DUP1 CALLDATASIZE SUB DUP2 ADD SWAP1 PUSH2 0x4A4 SWAP2 SWAP1 PUSH2 0x4BEF JUMP JUMPDEST PUSH2 0xF5D JUMP JUMPDEST STOP JUMPDEST CALLVALUE DUP1 ISZERO PUSH2 0x4B7 JUMPI PUSH1 0x0 DUP1 REVERT JUMPDEST POP PUSH2 0x4D2 PUSH1 0x4 DUP1 CALLDATASIZE SUB DUP2 ADD SWAP1 PUSH2 0x4CD SWAP2 SWAP1 PUSH2 0x4987 JUMP JUMPDEST PUSH2 0x1278 JUMP JUMPDEST PUSH1 0x40 MLOAD PUSH2 0x4DF SWAP2 SWAP1 PUSH2 0x57E6 JUMP JUMPDEST PUSH1 0x40 MLOAD DUP1 SWAP2 SUB SWAP1 RETURN JUMPDEST CALLVALUE DUP1 ISZERO PUSH2 0x4F4 JUMPI PUSH1 0x0 DUP1 REVERT JUMPDEST POP PUSH2 0x50F PUSH1 0x4 DUP1 CALLDATASIZE SUB DUP2 ADD SWAP1 PUSH2 0x50A SWAP2 SWAP1 PUSH2 0x4BC6 JUMP JUMPDEST PUSH2 0x12C0 JUMP JUMPDEST PUSH1 0x40 MLOAD PUSH2 0x51D SWAP3 SWAP2 SWAP1 PUSH2 0x5801 JUMP JUMPDEST PUSH1 0x40 MLOAD DUP1 SWAP2 SUB SWAP1 RETURN JUMPDEST CALLVALUE DUP1 ISZERO PUSH2 0x532 JUMPI PUSH1 0x0 DUP1 REVERT JUMPDEST POP PUSH2 0x54D PUSH1 0x4 DUP1 CALLDATASIZE SUB DUP2 ADD SWAP1 PUSH2 0x548 SWAP2 SWAP1 PUSH2 0x4BC6 JUMP JUMPDEST PUSH2 0x13B3 JUMP JUMPDEST PUSH1 0x40 MLOAD PUSH2 0x55A SWAP2 SWAP1 PUSH2 0x528D JUMP JUMPDEST PUSH1 0x40 MLOAD DUP1 SWAP2 SUB SWAP1 RETURN JUMPDEST PUSH2 0x56B PUSH2 0x147A JUMP JUMPDEST STOP JUMPDEST CALLVALUE DUP1 ISZERO PUSH2 0x579 JUMPI PUSH1 0x0 DUP1 REVERT JUMPDEST POP PUSH2 0x594 PUSH1 0x4 DUP1 CALLDATASIZE SUB DUP2 ADD SWAP1 PUSH2 0x58F SWAP2 SWAP1 PUSH2 0x4BC6 JUMP JUMPDEST PUSH2 0x147C JUMP JUMPDEST PUSH1 0x40 MLOAD PUSH2 0x5A7 SWAP8 SWAP7 SWAP6 SWAP5 SWAP4 SWAP3 SWAP2 SWAP1 PUSH2 0x52CA JUMP JUMPDEST PUSH1 0x40 MLOAD DUP1 SWAP2 SUB SWAP1 RETURN JUMPDEST CALLVALUE DUP1 ISZERO PUSH2 0x5BC JUMPI PUSH1 0x0 DUP1 REVERT JUMPDEST POP PUSH2 0x5D7 PUSH1 0x4 DUP1 CALLDATASIZE SUB DUP2 ADD SWAP1 PUSH2 0x5D2 SWAP2 SWAP1 PUSH2 0x4BC6 JUMP JUMPDEST PUSH2 0x1576 JUMP JUMPDEST PUSH1 0x40 MLOAD PUSH2 0x5E4 SWAP2 SWAP1 PUSH2 0x5220 JUMP JUMPDEST PUSH1 0x40 MLOAD DUP1 SWAP2 SUB SWAP1 RETURN JUMPDEST CALLVALUE DUP1 ISZERO PUSH2 0x5F9 JUMPI PUSH1 0x0 DUP1 REVERT JUMPDEST POP PUSH2 0x614 PUSH1 0x4 DUP1 CALLDATASIZE SUB DUP2 ADD SWAP1 PUSH2 0x60F SWAP2 SWAP1 PUSH2 0x4BC6 JUMP JUMPDEST PUSH2 0x15EB JUMP JUMPDEST PUSH1 0x40 MLOAD PUSH2 0x621 SWAP2 SWAP1 PUSH2 0x5220 JUMP JUMPDEST PUSH1 0x40 MLOAD DUP1 SWAP2 SUB SWAP1 RETURN JUMPDEST CALLVALUE DUP1 ISZERO PUSH2 0x636 JUMPI PUSH1 0x0 DUP1 REVERT JUMPDEST POP PUSH2 0x651 PUSH1 0x4 DUP1 CALLDATASIZE SUB DUP2 ADD SWAP1 PUSH2 0x64C SWAP2 SWAP1 PUSH2 0x4C43 JUMP JUMPDEST PUSH2 0x1660 JUMP JUMPDEST STOP JUMPDEST CALLVALUE DUP1 ISZERO PUSH2 0x65F JUMPI PUSH1 0x0 DUP1 REVERT JUMPDEST POP PUSH2 0x668 PUSH2 0x1C00 JUMP JUMPDEST PUSH1 0x40 MLOAD PUSH2 0x675 SWAP2 SWAP1 PUSH2 0x52A8 JUMP JUMPDEST PUSH1 0x40 MLOAD DUP1 SWAP2 SUB SWAP1 RETURN JUMPDEST CALLVALUE DUP1 ISZERO PUSH2 0x68A JUMPI PUSH1 0x0 DUP1 REVERT JUMPDEST POP PUSH2 0x6A5 PUSH1 0x4 DUP1 CALLDATASIZE SUB DUP2 ADD SWAP1 PUSH2 0x6A0 SWAP2 SWAP1 PUSH2 0x4BC6 JUMP JUMPDEST PUSH2 0x1C92 JUMP JUMPDEST PUSH1 0x40 MLOAD PUSH2 0x6B2 SWAP2 SWAP1 PUSH2 0x57E6 JUMP JUMPDEST PUSH1 0x40 MLOAD DUP1 SWAP2 SUB SWAP1 RETURN JUMPDEST PUSH2 0x6D5 PUSH1 0x4 DUP1 CALLDATASIZE SUB DUP2 ADD SWAP1 PUSH2 0x6D0 SWAP2 SWAP1 PUSH2 0x4A3B JUMP JUMPDEST PUSH2 0x1D2E JUMP JUMPDEST STOP JUMPDEST CALLVALUE DUP1 ISZERO PUSH2 0x6E3 JUMPI PUSH1 0x0 DUP1 REVERT JUMPDEST POP PUSH2 0x6FE PUSH1 0x4 DUP1 CALLDATASIZE SUB DUP2 ADD SWAP1 PUSH2 0x6F9 SWAP2 SWAP1 PUSH2 0x4987 JUMP JUMPDEST PUSH2 0x209A JUMP JUMPDEST PUSH1 0x40 MLOAD PUSH2 0x70B SWAP2 SWAP1 PUSH2 0x528D JUMP JUMPDEST PUSH1 0x40 MLOAD DUP1 SWAP2 SUB SWAP1 RETURN JUMPDEST CALLVALUE DUP1 ISZERO PUSH2 0x720 JUMPI PUSH1 0x0 DUP1 REVERT JUMPDEST POP PUSH2 0x73B PUSH1 0x4 DUP1 CALLDATASIZE SUB DUP2 ADD SWAP1 PUSH2 0x736 SWAP2 SWAP1 PUSH2 0x4A3B JUMP JUMPDEST PUSH2 0x20AE JUMP JUMPDEST PUSH1 0x40 MLOAD PUSH2 0x748 SWAP2 SWAP1 PUSH2 0x528D JUMP JUMPDEST PUSH1 0x40 MLOAD DUP1 SWAP2 SUB SWAP1 RETURN JUMPDEST PUSH2 0x76B PUSH1 0x4 DUP1 CALLDATASIZE SUB DUP2 ADD SWAP1 PUSH2 0x766 SWAP2 SWAP1 PUSH2 0x4AA0 JUMP JUMPDEST PUSH2 0x2125 JUMP JUMPDEST PUSH1 0x40 MLOAD PUSH2 0x778 SWAP2 SWAP1 PUSH2 0x57E6 JUMP JUMPDEST PUSH1 0x40 MLOAD DUP1 SWAP2 SUB SWAP1 RETURN JUMPDEST CALLVALUE DUP1 ISZERO PUSH2 0x78D JUMPI PUSH1 0x0 DUP1 REVERT JUMPDEST POP PUSH2 0x7A8 PUSH1 0x4 DUP1 CALLDATASIZE SUB DUP2 ADD SWAP1 PUSH2 0x7A3 SWAP2 SWAP1 PUSH2 0x4987 JUMP JUMPDEST PUSH2 0x2449 JUMP JUMPDEST PUSH1 0x40 MLOAD PUSH2 0x7B7 SWAP4 SWAP3 SWAP2 SWAP1 PUSH2 0x5831 JUMP JUMPDEST PUSH1 0x40 MLOAD DUP1 SWAP2 SUB SWAP1 RETURN JUMPDEST CALLVALUE DUP1 ISZERO PUSH2 0x7CC JUMPI PUSH1 0x0 DUP1 REVERT JUMPDEST POP PUSH2 0x7E7 PUSH1 0x4 DUP1 CALLDATASIZE SUB DUP2 ADD SWAP1 PUSH2 0x7E2 SWAP2 SWAP1 PUSH2 0x4A3B JUMP JUMPDEST PUSH2 0x2480 JUMP JUMPDEST PUSH1 0x40 MLOAD PUSH2 0x7F4 SWAP2 SWAP1 PUSH2 0x528D JUMP JUMPDEST PUSH1 0x40 MLOAD DUP1 SWAP2 SUB SWAP1 RETURN JUMPDEST CALLVALUE DUP1 ISZERO PUSH2 0x809 JUMPI PUSH1 0x0 DUP1 REVERT JUMPDEST POP PUSH2 0x824 PUSH1 0x4 DUP1 CALLDATASIZE SUB DUP2 ADD SWAP1 PUSH2 0x81F SWAP2 SWAP1 PUSH2 0x4BC6 JUMP JUMPDEST PUSH2 0x24A3 JUMP JUMPDEST PUSH1 0x40 MLOAD PUSH2 0x831 SWAP2 SWAP1 PUSH2 0x57E6 JUMP JUMPDEST PUSH1 0x40 MLOAD DUP1 SWAP2 SUB SWAP1 RETURN JUMPDEST CALLVALUE DUP1 ISZERO PUSH2 0x846 JUMPI PUSH1 0x0 DUP1 REVERT JUMPDEST POP PUSH2 0x861 PUSH1 0x4 DUP1 CALLDATASIZE SUB DUP2 ADD SWAP1 PUSH2 0x85C SWAP2 SWAP1 PUSH2 0x4BC6 JUMP JUMPDEST PUSH2 0x260A JUMP JUMPDEST STOP JUMPDEST CALLVALUE DUP1 ISZERO PUSH2 0x86F JUMPI PUSH1 0x0 DUP1 REVERT JUMPDEST POP PUSH2 0x88A PUSH1 0x4 DUP1 CALLDATASIZE SUB DUP2 ADD SWAP1 PUSH2 0x885 SWAP2 SWAP1 PUSH2 0x4BC6 JUMP JUMPDEST PUSH2 0x299D JUMP JUMPDEST STOP JUMPDEST CALLVALUE DUP1 ISZERO PUSH2 0x898 JUMPI PUSH1 0x0 DUP1 REVERT JUMPDEST POP PUSH2 0x8A1 PUSH2 0x2FB9 JUMP JUMPDEST PUSH1 0x40 MLOAD PUSH2 0x8AE SWAP2 SWAP1 PUSH2 0x57E6 JUMP JUMPDEST PUSH1 0x40 MLOAD DUP1 SWAP2 SUB SWAP1 RETURN JUMPDEST CALLVALUE DUP1 ISZERO PUSH2 0x8C3 JUMPI PUSH1 0x0 DUP1 REVERT JUMPDEST POP PUSH2 0x8DE PUSH1 0x4 DUP1 CALLDATASIZE SUB DUP2 ADD SWAP1 PUSH2 0x8D9 SWAP2 SWAP1 PUSH2 0x4BC6 JUMP JUMPDEST PUSH2 0x3008 JUMP JUMPDEST PUSH1 0x40 MLOAD PUSH2 0x8F0 SWAP7 SWAP6 SWAP5 SWAP4 SWAP3 SWAP2 SWAP1 PUSH2 0x5868 JUMP JUMPDEST PUSH1 0x40 MLOAD DUP1 SWAP2 SUB SWAP1 RETURN JUMPDEST CALLVALUE DUP1 ISZERO PUSH2 0x905 JUMPI PUSH1 0x0 DUP1 REVERT JUMPDEST POP PUSH2 0x920 PUSH1 0x4 DUP1 CALLDATASIZE SUB DUP2 ADD SWAP1 PUSH2 0x91B SWAP2 SWAP1 PUSH2 0x49B0 JUMP JUMPDEST PUSH2 0x3109 JUMP JUMPDEST PUSH1 0x40 MLOAD PUSH2 0x92D SWAP2 SWAP1 PUSH2 0x57E6 JUMP JUMPDEST PUSH1 0x40 MLOAD DUP1 SWAP2 SUB SWAP1 RETURN JUMPDEST CALLVALUE DUP1 ISZERO PUSH2 0x942 JUMPI PUSH1 0x0 DUP1 REVERT JUMPDEST POP PUSH2 0x94B PUSH2 0x3190 JUMP JUMPDEST STOP JUMPDEST PUSH2 0x967 PUSH1 0x4 DUP1 CALLDATASIZE SUB DUP2 ADD SWAP1 PUSH2 0x962 SWAP2 SWAP1 PUSH2 0x4B4B JUMP JUMPDEST PUSH2 0x33B7 JUMP JUMPDEST PUSH1 0x40 MLOAD PUSH2 0x974 SWAP2 SWAP1 PUSH2 0x57E6 JUMP JUMPDEST PUSH1 0x40 MLOAD DUP1 SWAP2 SUB SWAP1 RETURN JUMPDEST CALLVALUE DUP1 ISZERO PUSH2 0x989 JUMPI PUSH1 0x0 DUP1 REVERT JUMPDEST POP PUSH2 0x9A4 PUSH1 0x4 DUP1 CALLDATASIZE SUB DUP2 ADD SWAP1 PUSH2 0x99F SWAP2 SWAP1 PUSH2 0x4C43 JUMP JUMPDEST PUSH2 0x3853 JUMP JUMPDEST STOP JUMPDEST CALLVALUE DUP1 ISZERO PUSH2 0x9B2 JUMPI PUSH1 0x0 DUP1 REVERT JUMPDEST POP PUSH2 0x9CD PUSH1 0x4 DUP1 CALLDATASIZE SUB DUP2 ADD SWAP1 PUSH2 0x9C8 SWAP2 SWAP1 PUSH2 0x4BC6 JUMP JUMPDEST PUSH2 0x3F54 JUMP JUMPDEST PUSH1 0x40 MLOAD PUSH2 0x9DD SWAP5 SWAP4 SWAP3 SWAP2 SWAP1 PUSH2 0x5340 JUMP JUMPDEST PUSH1 0x40 MLOAD DUP1 SWAP2 SUB SWAP1 RETURN JUMPDEST PUSH1 0x60 PUSH1 0x3 DUP1 SLOAD PUSH2 0x9F5 SWAP1 PUSH2 0x5B5A JUMP JUMPDEST DUP1 PUSH1 0x1F ADD PUSH1 0x20 DUP1 SWAP2 DIV MUL PUSH1 0x20 ADD PUSH1 0x40 MLOAD SWAP1 DUP2 ADD PUSH1 0x40 MSTORE DUP1 SWAP3 SWAP2 SWAP1 DUP2 DUP2 MSTORE PUSH1 0x20 ADD DUP3 DUP1 SLOAD PUSH2 0xA21 SWAP1 PUSH2 0x5B5A JUMP JUMPDEST DUP1 ISZERO PUSH2 0xA6E JUMPI DUP1 PUSH1 0x1F LT PUSH2 0xA43 JUMPI PUSH2 0x100 DUP1 DUP4 SLOAD DIV MUL DUP4 MSTORE SWAP2 PUSH1 0x20 ADD SWAP2 PUSH2 0xA6E JUMP JUMPDEST DUP3 ADD SWAP2 SWAP1 PUSH1 0x0 MSTORE PUSH1 0x20 PUSH1 0x0 KECCAK256 SWAP1 JUMPDEST DUP2 SLOAD DUP2 MSTORE SWAP1 PUSH1 0x1 ADD SWAP1 PUSH1 0x20 ADD DUP1 DUP4 GT PUSH2 0xA51 JUMPI DUP3 SWAP1 SUB PUSH1 0x1F AND DUP3 ADD SWAP2 JUMPDEST POP POP POP POP POP SWAP1 POP SWAP1 JUMP JUMPDEST PUSH1 0x0 DUP1 PUSH2 0xA83 PUSH2 0x41BE JUMP JUMPDEST SWAP1 POP PUSH2 0xA90 DUP2 DUP6 DUP6 PUSH2 0x41C6 JUMP JUMPDEST PUSH1 0x1 SWAP2 POP POP SWAP3 SWAP2 POP POP JUMP JUMPDEST PUSH1 0x0 PUSH1 0x2 SLOAD SWAP1 POP SWAP1 JUMP JUMPDEST PUSH1 0x0 DUP1 PUSH2 0xAB1 DUP4 PUSH2 0x24A3 JUMP JUMPDEST SWAP1 POP PUSH1 0xC DUP4 DUP2 SLOAD DUP2 LT PUSH2 0xAED JUMPI PUSH32 0x4E487B7100000000000000000000000000000000000000000000000000000000 PUSH1 0x0 MSTORE PUSH1 0x32 PUSH1 0x4 MSTORE PUSH1 0x24 PUSH1 0x0 REVERT JUMPDEST SWAP1 PUSH1 0x0 MSTORE PUSH1 0x20 PUSH1 0x0 KECCAK256 SWAP1 PUSH1 0xA MUL ADD PUSH1 0x4 ADD DUP2 DUP2 SLOAD DUP2 LT PUSH2 0xB36 JUMPI PUSH32 0x4E487B7100000000000000000000000000000000000000000000000000000000 PUSH1 0x0 MSTORE PUSH1 0x32 PUSH1 0x4 MSTORE PUSH1 0x24 PUSH1 0x0 REVERT JUMPDEST SWAP1 PUSH1 0x0 MSTORE PUSH1 0x20 PUSH1 0x0 KECCAK256 ADD SLOAD SWAP2 POP POP SWAP2 SWAP1 POP JUMP JUMPDEST PUSH1 0x0 DUP1 PUSH2 0xB54 PUSH2 0x41BE JUMP JUMPDEST SWAP1 POP PUSH2 0xB61 DUP6 DUP3 DUP6 PUSH2 0x4391 JUMP JUMPDEST PUSH2 0xB6C DUP6 DUP6 DUP6 PUSH2 0x441D JUMP JUMPDEST PUSH1 0x1 SWAP2 POP POP SWAP4 SWAP3 POP POP POP JUMP JUMPDEST PUSH1 0x0 PUSH1 0xC DUP1 SLOAD SWAP1 POP SWAP1 POP SWAP1 JUMP JUMPDEST PUSH1 0x60 PUSH1 0x0 DUP1 PUSH1 0x0 PUSH1 0xF DUP6 DUP2 SLOAD DUP2 LT PUSH2 0xBC6 JUMPI PUSH32 0x4E487B7100000000000000000000000000000000000000000000000000000000 PUSH1 0x0 MSTORE PUSH1 0x32 PUSH1 0x4 MSTORE PUSH1 0x24 PUSH1 0x0 REVERT JUMPDEST SWAP1 PUSH1 0x0 MSTORE PUSH1 0x20 PUSH1 0x0 KECCAK256 SWAP1 PUSH1 0x8 MUL ADD PUSH1 0x0 ADD DUP1 SLOAD PUSH2 0xBE2 SWAP1 PUSH2 0x5B5A JUMP JUMPDEST DUP1 PUSH1 0x1F ADD PUSH1 0x20 DUP1 SWAP2 DIV MUL PUSH1 0x20 ADD PUSH1 0x40 MLOAD SWAP1 DUP2 ADD PUSH1 0x40 MSTORE DUP1 SWAP3 SWAP2 SWAP1 DUP2 DUP2 MSTORE PUSH1 0x20 ADD DUP3 DUP1 SLOAD PUSH2 0xC0E SWAP1 PUSH2 0x5B5A JUMP JUMPDEST DUP1 ISZERO PUSH2 0xC5B JUMPI DUP1 PUSH1 0x1F LT PUSH2 0xC30 JUMPI PUSH2 0x100 DUP1 DUP4 SLOAD DIV MUL DUP4 MSTORE SWAP2 PUSH1 0x20 ADD SWAP2 PUSH2 0xC5B JUMP JUMPDEST DUP3 ADD SWAP2 SWAP1 PUSH1 0x0 MSTORE PUSH1 0x20 PUSH1 0x0 KECCAK256 SWAP1 JUMPDEST DUP2 SLOAD DUP2 MSTORE SWAP1 PUSH1 0x1 ADD SWAP1 PUSH1 0x20 ADD DUP1 DUP4 GT PUSH2 0xC3E JUMPI DUP3 SWAP1 SUB PUSH1 0x1F AND DUP3 ADD SWAP2 JUMPDEST POP POP POP POP POP SWAP4 POP PUSH1 0xF DUP6 DUP2 SLOAD DUP2 LT PUSH2 0xC9C JUMPI PUSH32 0x4E487B7100000000000000000000000000000000000000000000000000000000 PUSH1 0x0 MSTORE PUSH1 0x32 PUSH1 0x4 MSTORE PUSH1 0x24 PUSH1 0x0 REVERT JUMPDEST SWAP1 PUSH1 0x0 MSTORE PUSH1 0x20 PUSH1 0x0 KECCAK256 SWAP1 PUSH1 0x8 MUL ADD PUSH1 0x2 ADD SLOAD SWAP3 POP PUSH1 0xF DUP6 DUP2 SLOAD DUP2 LT PUSH2 0xCEA JUMPI PUSH32 0x4E487B7100000000000000000000000000000000000000000000000000000000 PUSH1 0x0 MSTORE PUSH1 0x32 PUSH1 0x4 MSTORE PUSH1 0x24 PUSH1 0x0 REVERT JUMPDEST SWAP1 PUSH1 0x0 MSTORE PUSH1 0x20 PUSH1 0x0 KECCAK256 SWAP1 PUSH1 0x8 MUL ADD PUSH1 0x5 ADD SLOAD SWAP2 POP PUSH1 0xF DUP6 DUP2 SLOAD DUP2 LT PUSH2 0xD38 JUMPI PUSH32 0x4E487B7100000000000000000000000000000000000000000000000000000000 PUSH1 0x0 MSTORE PUSH1 0x32 PUSH1 0x4 MSTORE PUSH1 0x24 PUSH1 0x0 REVERT JUMPDEST SWAP1 PUSH1 0x0 MSTORE PUSH1 0x20 PUSH1 0x0 KECCAK256 SWAP1 PUSH1 0x8 MUL ADD PUSH1 0x3 ADD SLOAD SWAP1 POP SWAP2 SWAP4 POP SWAP2 SWAP4 JUMP JUMPDEST PUSH1 0x0 PUSH1 0x12 SWAP1 POP SWAP1 JUMP JUMPDEST PUSH1 0x0 DUP1 PUSH2 0xD67 PUSH2 0x41BE JUMP JUMPDEST SWAP1 POP PUSH2 0xD88 DUP2 DUP6 DUP6 PUSH2 0xD79 DUP6 DUP10 PUSH2 0x3109 JUMP JUMPDEST PUSH2 0xD83 SWAP2 SWAP1 PUSH2 0x59CD JUMP JUMPDEST PUSH2 0x41C6 JUMP JUMPDEST PUSH1 0x1 SWAP2 POP POP SWAP3 SWAP2 POP POP JUMP JUMPDEST DUP1 PUSH1 0xD PUSH1 0x0 CALLER PUSH20 0xFFFFFFFFFFFFFFFFFFFFFFFFFFFFFFFFFFFFFFFF AND PUSH20 0xFFFFFFFFFFFFFFFFFFFFFFFFFFFFFFFFFFFFFFFF AND DUP2 MSTORE PUSH1 0x20 ADD SWAP1 DUP2 MSTORE PUSH1 0x20 ADD PUSH1 0x0 KECCAK256 PUSH1 0x0 ADD SLOAD LT ISZERO PUSH2 0xE18 JUMPI PUSH1 0x40 MLOAD PUSH32 0x8C379A000000000000000000000000000000000000000000000000000000000 DUP2 MSTORE PUSH1 0x4 ADD PUSH2 0xE0F SWAP1 PUSH2 0x57A6 JUMP JUMPDEST PUSH1 0x40 MLOAD DUP1 SWAP2 SUB SWAP1 REVERT JUMPDEST DUP1 PUSH1 0xD PUSH1 0x0 CALLER PUSH20 0xFFFFFFFFFFFFFFFFFFFFFFFFFFFFFFFFFFFFFFFF AND PUSH20 0xFFFFFFFFFFFFFFFFFFFFFFFFFFFFFFFFFFFFFFFF AND DUP2 MSTORE PUSH1 0x20 ADD SWAP1 DUP2 MSTORE PUSH1 0x20 ADD PUSH1 0x0 KECCAK256 PUSH1 0x0 ADD SLOAD GT DUP1 PUSH2 0xEAA JUMPI POP TIMESTAMP PUSH1 0xD PUSH1 0x0 CALLER PUSH20 0xFFFFFFFFFFFFFFFFFFFFFFFFFFFFFFFFFFFFFFFF AND PUSH20 0xFFFFFFFFFFFFFFFFFFFFFFFFFFFFFFFFFFFFFFFF AND DUP2 MSTORE PUSH1 0x20 ADD SWAP1 DUP2 MSTORE PUSH1 0x20 ADD PUSH1 0x0 KECCAK256 PUSH1 0x6 ADD SLOAD GT ISZERO JUMPDEST PUSH2 0xEE9 JUMPI PUSH1 0x40 MLOAD PUSH32 0x8C379A000000000000000000000000000000000000000000000000000000000 DUP2 MSTORE PUSH1 0x4 ADD PUSH2 0xEE0 SWAP1 PUSH2 0x5566 JUMP JUMPDEST PUSH1 0x40 MLOAD DUP1 SWAP2 SUB SWAP1 REVERT JUMPDEST DUP1 PUSH1 0xD PUSH1 0x0 CALLER PUSH20 0xFFFFFFFFFFFFFFFFFFFFFFFFFFFFFFFFFFFFFFFF AND PUSH20 0xFFFFFFFFFFFFFFFFFFFFFFFFFFFFFFFFFFFFFFFF AND DUP2 MSTORE PUSH1 0x20 ADD SWAP1 DUP2 MSTORE PUSH1 0x20 ADD PUSH1 0x0 KECCAK256 PUSH1 0x0 ADD PUSH1 0x0 DUP3 DUP3 SLOAD PUSH2 0xF3B SWAP2 SWAP1 PUSH2 0x5A7D JUMP JUMPDEST SWAP3 POP POP DUP2 SWAP1 SSTORE POP PUSH2 0xF4C ADDRESS DUP3 PUSH2 0x2480 JUMP JUMPDEST POP POP JUMP JUMPDEST PUSH1 0x0 PUSH1 0xF DUP1 SLOAD SWAP1 POP SWAP1 POP SWAP1 JUMP JUMPDEST PUSH1 0x0 PUSH1 0xD PUSH1 0x0 CALLER PUSH20 0xFFFFFFFFFFFFFFFFFFFFFFFFFFFFFFFFFFFFFFFF AND PUSH20 0xFFFFFFFFFFFFFFFFFFFFFFFFFFFFFFFFFFFFFFFF AND DUP2 MSTORE PUSH1 0x20 ADD SWAP1 DUP2 MSTORE PUSH1 0x20 ADD PUSH1 0x0 KECCAK256 SWAP1 POP PUSH2 0xFA9 CALLER PUSH2 0x209A JUMP JUMPDEST PUSH2 0xFE8 JUMPI PUSH1 0x40 MLOAD PUSH32 0x8C379A000000000000000000000000000000000000000000000000000000000 DUP2 MSTORE PUSH1 0x4 ADD PUSH2 0xFDF SWAP1 PUSH2 0x5406 JUMP JUMPDEST PUSH1 0x40 MLOAD DUP1 SWAP2 SUB SWAP1 REVERT JUMPDEST PUSH1 0x0 ISZERO ISZERO DUP2 PUSH1 0x3 ADD PUSH1 0x0 DUP6 DUP2 MSTORE PUSH1 0x20 ADD SWAP1 DUP2 MSTORE PUSH1 0x20 ADD PUSH1 0x0 KECCAK256 PUSH1 0x0 SWAP1 SLOAD SWAP1 PUSH2 0x100 EXP SWAP1 DIV PUSH1 0xFF AND ISZERO ISZERO EQ PUSH2 0x1051 JUMPI PUSH1 0x40 MLOAD PUSH32 0x8C379A000000000000000000000000000000000000000000000000000000000 DUP2 MSTORE PUSH1 0x4 ADD PUSH2 0x1048 SWAP1 PUSH2 0x5626 JUMP JUMPDEST PUSH1 0x40 MLOAD DUP1 SWAP2 SUB SWAP1 REVERT JUMPDEST TIMESTAMP PUSH1 0xF DUP5 DUP2 SLOAD DUP2 LT PUSH2 0x108C JUMPI PUSH32 0x4E487B7100000000000000000000000000000000000000000000000000000000 PUSH1 0x0 MSTORE PUSH1 0x32 PUSH1 0x4 MSTORE PUSH1 0x24 PUSH1 0x0 REVERT JUMPDEST SWAP1 PUSH1 0x0 MSTORE PUSH1 0x20 PUSH1 0x0 KECCAK256 SWAP1 PUSH1 0x8 MUL ADD PUSH1 0x2 ADD SLOAD LT ISZERO PUSH2 0x10DF JUMPI PUSH1 0x40 MLOAD PUSH32 0x8C379A000000000000000000000000000000000000000000000000000000000 DUP2 MSTORE PUSH1 0x4 ADD PUSH2 0x10D6 SWAP1 PUSH2 0x5586 JUMP JUMPDEST PUSH1 0x40 MLOAD DUP1 SWAP2 SUB SWAP1 REVERT JUMPDEST PUSH1 0x0 JUMPDEST DUP3 MLOAD DUP2 LT ISZERO PUSH2 0x11E1 JUMPI PUSH1 0xF DUP5 DUP2 SLOAD DUP2 LT PUSH2 0x1125 JUMPI PUSH32 0x4E487B7100000000000000000000000000000000000000000000000000000000 PUSH1 0x0 MSTORE PUSH1 0x32 PUSH1 0x4 MSTORE PUSH1 0x24 PUSH1 0x0 REVERT JUMPDEST SWAP1 PUSH1 0x0 MSTORE PUSH1 0x20 PUSH1 0x0 KECCAK256 SWAP1 PUSH1 0x8 MUL ADD PUSH1 0x7 ADD DUP4 DUP3 DUP2 MLOAD DUP2 LT PUSH2 0x116F JUMPI PUSH32 0x4E487B7100000000000000000000000000000000000000000000000000000000 PUSH1 0x0 MSTORE PUSH1 0x32 PUSH1 0x4 MSTORE PUSH1 0x24 PUSH1 0x0 REVERT JUMPDEST PUSH1 0x20 MUL PUSH1 0x20 ADD ADD MLOAD DUP2 SLOAD DUP2 LT PUSH2 0x11AE JUMPI PUSH32 0x4E487B7100000000000000000000000000000000000000000000000000000000 PUSH1 0x0 MSTORE PUSH1 0x32 PUSH1 0x4 MSTORE PUSH1 0x24 PUSH1 0x0 REVERT JUMPDEST SWAP1 PUSH1 0x0 MSTORE PUSH1 0x20 PUSH1 0x0 KECCAK256 ADD PUSH1 0x0 DUP2 SLOAD DUP1 SWAP3 SWAP2 SWAP1 PUSH2 0x11C9 SWAP1 PUSH2 0x5BBD JUMP JUMPDEST SWAP2 SWAP1 POP SSTORE POP DUP1 DUP1 PUSH2 0x11D9 SWAP1 PUSH2 0x5BBD JUMP JUMPDEST SWAP2 POP POP PUSH2 0x10E2 JUMP JUMPDEST POP PUSH1 0x1 PUSH1 0xF DUP5 DUP2 SLOAD DUP2 LT PUSH2 0x121E JUMPI PUSH32 0x4E487B7100000000000000000000000000000000000000000000000000000000 PUSH1 0x0 MSTORE PUSH1 0x32 PUSH1 0x4 MSTORE PUSH1 0x24 PUSH1 0x0 REVERT JUMPDEST SWAP1 PUSH1 0x0 MSTORE PUSH1 0x20 PUSH1 0x0 KECCAK256 SWAP1 PUSH1 0x8 MUL ADD PUSH1 0x6 ADD PUSH1 0x0 DUP3 DUP3 SLOAD PUSH2 0x123E SWAP2 SWAP1 PUSH2 0x59CD JUMP JUMPDEST SWAP3 POP POP DUP2 SWAP1 SSTORE POP PUSH1 0x1 DUP2 PUSH1 0x3 ADD PUSH1 0x0 DUP6 DUP2 MSTORE PUSH1 0x20 ADD SWAP1 DUP2 MSTORE PUSH1 0x20 ADD PUSH1 0x0 KECCAK256 PUSH1 0x0 PUSH2 0x100 EXP DUP2 SLOAD DUP2 PUSH1 0xFF MUL NOT AND SWAP1 DUP4 ISZERO ISZERO MUL OR SWAP1 SSTORE POP POP POP POP JUMP JUMPDEST PUSH1 0x0 DUP1 PUSH1 0x0 DUP4 PUSH20 0xFFFFFFFFFFFFFFFFFFFFFFFFFFFFFFFFFFFFFFFF AND PUSH20 0xFFFFFFFFFFFFFFFFFFFFFFFFFFFFFFFFFFFFFFFF AND DUP2 MSTORE PUSH1 0x20 ADD SWAP1 DUP2 MSTORE PUSH1 0x20 ADD PUSH1 0x0 KECCAK256 SLOAD SWAP1 POP SWAP2 SWAP1 POP JUMP JUMPDEST PUSH1 0x0 PUSH1 0x60 PUSH1 0xF DUP4 DUP2 SLOAD DUP2 LT PUSH2 0x12FE JUMPI PUSH32 0x4E487B7100000000000000000000000000000000000000000000000000000000 PUSH1 0x0 MSTORE PUSH1 0x32 PUSH1 0x4 MSTORE PUSH1 0x24 PUSH1 0x0 REVERT JUMPDEST SWAP1 PUSH1 0x0 MSTORE PUSH1 0x20 PUSH1 0x0 KECCAK256 SWAP1 PUSH1 0x8 MUL ADD PUSH1 0x6 ADD SLOAD SWAP2 POP PUSH1 0xF DUP4 DUP2 SLOAD DUP2 LT PUSH2 0x134C JUMPI PUSH32 0x4E487B7100000000000000000000000000000000000000000000000000000000 PUSH1 0x0 MSTORE PUSH1 0x32 PUSH1 0x4 MSTORE PUSH1 0x24 PUSH1 0x0 REVERT JUMPDEST SWAP1 PUSH1 0x0 MSTORE PUSH1 0x20 PUSH1 0x0 KECCAK256 SWAP1 PUSH1 0x8 MUL ADD PUSH1 0x7 ADD DUP1 SLOAD DUP1 PUSH1 0x20 MUL PUSH1 0x20 ADD PUSH1 0x40 MLOAD SWAP1 DUP2 ADD PUSH1 0x40 MSTORE DUP1 SWAP3 SWAP2 SWAP1 DUP2 DUP2 MSTORE PUSH1 0x20 ADD DUP3 DUP1 SLOAD DUP1 ISZERO PUSH2 0x13A7 JUMPI PUSH1 0x20 MUL DUP3 ADD SWAP2 SWAP1 PUSH1 0x0 MSTORE PUSH1 0x20 PUSH1 0x0 KECCAK256 SWAP1 JUMPDEST DUP2 SLOAD DUP2 MSTORE PUSH1 0x20 ADD SWAP1 PUSH1 0x1 ADD SWAP1 DUP1 DUP4 GT PUSH2 0x1393 JUMPI JUMPDEST POP POP POP POP POP SWAP1 POP SWAP2 POP SWAP2 JUMP JUMPDEST PUSH1 0x0 DUP2 PUSH1 0xC DUP1 SLOAD SWAP1 POP GT DUP1 ISZERO PUSH2 0x13CA JUMPI POP PUSH1 0x0 DUP3 LT ISZERO JUMPDEST PUSH2 0x1409 JUMPI PUSH1 0x40 MLOAD PUSH32 0x8C379A000000000000000000000000000000000000000000000000000000000 DUP2 MSTORE PUSH1 0x4 ADD PUSH2 0x1400 SWAP1 PUSH2 0x5446 JUMP JUMPDEST PUSH1 0x40 MLOAD DUP1 SWAP2 SUB SWAP1 REVERT JUMPDEST PUSH1 0xC DUP3 DUP2 SLOAD DUP2 LT PUSH2 0x1443 JUMPI PUSH32 0x4E487B7100000000000000000000000000000000000000000000000000000000 PUSH1 0x0 MSTORE PUSH1 0x32 PUSH1 0x4 MSTORE PUSH1 0x24 PUSH1 0x0 REVERT JUMPDEST SWAP1 PUSH1 0x0 MSTORE PUSH1 0x20 PUSH1 0x0 KECCAK256 SWAP1 PUSH1 0xA MUL ADD PUSH1 0x9 ADD PUSH1 0x0 SWAP1 SLOAD SWAP1 PUSH2 0x100 EXP SWAP1 DIV PUSH1 0xFF AND ISZERO PUSH2 0x1470 JUMPI PUSH1 0x1 SWAP1 POP PUSH2 0x1475 JUMP JUMPDEST PUSH1 0x1 SWAP1 POP JUMPDEST SWAP2 SWAP1 POP JUMP JUMPDEST JUMP JUMPDEST PUSH1 0xF DUP2 DUP2 SLOAD DUP2 LT PUSH2 0x148C JUMPI PUSH1 0x0 DUP1 REVERT JUMPDEST SWAP1 PUSH1 0x0 MSTORE PUSH1 0x20 PUSH1 0x0 KECCAK256 SWAP1 PUSH1 0x8 MUL ADD PUSH1 0x0 SWAP2 POP SWAP1 POP DUP1 PUSH1 0x0 ADD DUP1 SLOAD PUSH2 0x14AF SWAP1 PUSH2 0x5B5A JUMP JUMPDEST DUP1 PUSH1 0x1F ADD PUSH1 0x20 DUP1 SWAP2 DIV MUL PUSH1 0x20 ADD PUSH1 0x40 MLOAD SWAP1 DUP2 ADD PUSH1 0x40 MSTORE DUP1 SWAP3 SWAP2 SWAP1 DUP2 DUP2 MSTORE PUSH1 0x20 ADD DUP3 DUP1 SLOAD PUSH2 0x14DB SWAP1 PUSH2 0x5B5A JUMP JUMPDEST DUP1 ISZERO PUSH2 0x1528 JUMPI DUP1 PUSH1 0x1F LT PUSH2 0x14FD JUMPI PUSH2 0x100 DUP1 DUP4 SLOAD DIV MUL DUP4 MSTORE SWAP2 PUSH1 0x20 ADD SWAP2 PUSH2 0x1528 JUMP JUMPDEST DUP3 ADD SWAP2 SWAP1 PUSH1 0x0 MSTORE PUSH1 0x20 PUSH1 0x0 KECCAK256 SWAP1 JUMPDEST DUP2 SLOAD DUP2 MSTORE SWAP1 PUSH1 0x1 ADD SWAP1 PUSH1 0x20 ADD DUP1 DUP4 GT PUSH2 0x150B JUMPI DUP3 SWAP1 SUB PUSH1 0x1F AND DUP3 ADD SWAP2 JUMPDEST POP POP POP POP POP SWAP1 DUP1 PUSH1 0x1 ADD PUSH1 0x0 SWAP1 SLOAD SWAP1 PUSH2 0x100 EXP SWAP1 DIV PUSH20 0xFFFFFFFFFFFFFFFFFFFFFFFFFFFFFFFFFFFFFFFF AND SWAP1 DUP1 PUSH1 0x2 ADD SLOAD SWAP1 DUP1 PUSH1 0x3 ADD SLOAD SWAP1 DUP1 PUSH1 0x4 ADD SLOAD SWAP1 DUP1 PUSH1 0x5 ADD SLOAD SWAP1 DUP1 PUSH1 0x6 ADD SLOAD SWAP1 POP DUP8 JUMP JUMPDEST PUSH1 0x0 PUSH1 0xF DUP3 DUP2 SLOAD DUP2 LT PUSH2 0x15B2 JUMPI PUSH32 0x4E487B7100000000000000000000000000000000000000000000000000000000 PUSH1 0x0 MSTORE PUSH1 0x32 PUSH1 0x4 MSTORE PUSH1 0x24 PUSH1 0x0 REVERT JUMPDEST SWAP1 PUSH1 0x0 MSTORE PUSH1 0x20 PUSH1 0x0 KECCAK256 SWAP1 PUSH1 0x8 MUL ADD PUSH1 0x1 ADD PUSH1 0x0 SWAP1 SLOAD SWAP1 PUSH2 0x100 EXP SWAP1 DIV PUSH20 0xFFFFFFFFFFFFFFFFFFFFFFFFFFFFFFFFFFFFFFFF AND SWAP1 POP SWAP2 SWAP1 POP JUMP JUMPDEST PUSH1 0x0 PUSH1 0xC DUP3 DUP2 SLOAD DUP2 LT PUSH2 0x1627 JUMPI PUSH32 0x4E487B7100000000000000000000000000000000000000000000000000000000 PUSH1 0x0 MSTORE PUSH1 0x32 PUSH1 0x4 MSTORE PUSH1 0x24 PUSH1 0x0 REVERT JUMPDEST SWAP1 PUSH1 0x0 MSTORE PUSH1 0x20 PUSH1 0x0 KECCAK256 SWAP1 PUSH1 0xA MUL ADD PUSH1 0x7 ADD PUSH1 0x0 SWAP1 SLOAD SWAP1 PUSH2 0x100 EXP SWAP1 DIV PUSH20 0xFFFFFFFFFFFFFFFFFFFFFFFFFFFFFFFFFFFFFFFF AND SWAP1 POP SWAP2 SWAP1 POP JUMP JUMPDEST PUSH1 0x0 PUSH2 0x166B DUP4 PUSH2 0x24A3 JUMP JUMPDEST SWAP1 POP DUP3 PUSH1 0xC DUP1 SLOAD SWAP1 POP GT DUP1 ISZERO PUSH2 0x1682 JUMPI POP PUSH1 0x0 DUP4 LT ISZERO JUMPDEST PUSH2 0x16C1 JUMPI PUSH1 0x40 MLOAD PUSH32 0x8C379A000000000000000000000000000000000000000000000000000000000 DUP2 MSTORE PUSH1 0x4 ADD PUSH2 0x16B8 SWAP1 PUSH2 0x5446 JUMP JUMPDEST PUSH1 0x40 MLOAD DUP1 SWAP2 SUB SWAP1 REVERT JUMPDEST PUSH1 0x0 PUSH1 0xD PUSH1 0x0 CALLER PUSH20 0xFFFFFFFFFFFFFFFFFFFFFFFFFFFFFFFFFFFFFFFF AND PUSH20 0xFFFFFFFFFFFFFFFFFFFFFFFFFFFFFFFFFFFFFFFF AND DUP2 MSTORE PUSH1 0x20 ADD SWAP1 DUP2 MSTORE PUSH1 0x20 ADD PUSH1 0x0 KECCAK256 SWAP1 POP PUSH1 0x1 ISZERO ISZERO DUP2 PUSH1 0x1 ADD PUSH1 0x0 DUP7 DUP2 MSTORE PUSH1 0x20 ADD SWAP1 DUP2 MSTORE PUSH1 0x20 ADD PUSH1 0x0 KECCAK256 PUSH1 0x0 SWAP1 SLOAD SWAP1 PUSH2 0x100 EXP SWAP1 DIV PUSH1 0xFF AND ISZERO ISZERO EQ ISZERO PUSH2 0x176E JUMPI PUSH1 0x40 MLOAD PUSH32 0x8C379A000000000000000000000000000000000000000000000000000000000 DUP2 MSTORE PUSH1 0x4 ADD PUSH2 0x1765 SWAP1 PUSH2 0x54A6 JUMP JUMPDEST PUSH1 0x40 MLOAD DUP1 SWAP2 SUB SWAP1 REVERT JUMPDEST PUSH1 0x0 PUSH20 0xFFFFFFFFFFFFFFFFFFFFFFFFFFFFFFFFFFFFFFFF AND DUP2 PUSH1 0x5 ADD PUSH1 0x0 DUP7 DUP2 MSTORE PUSH1 0x20 ADD SWAP1 DUP2 MSTORE PUSH1 0x20 ADD PUSH1 0x0 KECCAK256 PUSH1 0x0 SWAP1 SLOAD SWAP1 PUSH2 0x100 EXP SWAP1 DIV PUSH20 0xFFFFFFFFFFFFFFFFFFFFFFFFFFFFFFFFFFFFFFFF AND PUSH20 0xFFFFFFFFFFFFFFFFFFFFFFFFFFFFFFFFFFFFFFFF AND EQ PUSH2 0x1812 JUMPI PUSH1 0x40 MLOAD PUSH32 0x8C379A000000000000000000000000000000000000000000000000000000000 DUP2 MSTORE PUSH1 0x4 ADD PUSH2 0x1809 SWAP1 PUSH2 0x5786 JUMP JUMPDEST PUSH1 0x40 MLOAD DUP1 SWAP2 SUB SWAP1 REVERT JUMPDEST PUSH2 0x181B CALLER PUSH2 0x209A JUMP JUMPDEST PUSH2 0x185A JUMPI PUSH1 0x40 MLOAD PUSH32 0x8C379A000000000000000000000000000000000000000000000000000000000 DUP2 MSTORE PUSH1 0x4 ADD PUSH2 0x1851 SWAP1 PUSH2 0x5706 JUMP JUMPDEST PUSH1 0x40 MLOAD DUP1 SWAP2 SUB SWAP1 REVERT JUMPDEST PUSH1 0x1 PUSH2 0x1865 JUMPI PUSH1 0x0 DUP1 REVERT JUMPDEST DUP3 ISZERO PUSH2 0x1911 JUMPI PUSH1 0x1 PUSH1 0xC DUP6 DUP2 SLOAD DUP2 LT PUSH2 0x18A7 JUMPI PUSH32 0x4E487B7100000000000000000000000000000000000000000000000000000000 PUSH1 0x0 MSTORE PUSH1 0x32 PUSH1 0x4 MSTORE PUSH1 0x24 PUSH1 0x0 REVERT JUMPDEST SWAP1 PUSH1 0x0 MSTORE PUSH1 0x20 PUSH1 0x0 KECCAK256 SWAP1 PUSH1 0xA MUL ADD PUSH1 0x0 ADD DUP4 DUP2 SLOAD DUP2 LT PUSH2 0x18F0 JUMPI PUSH32 0x4E487B7100000000000000000000000000000000000000000000000000000000 PUSH1 0x0 MSTORE PUSH1 0x32 PUSH1 0x4 MSTORE PUSH1 0x24 PUSH1 0x0 REVERT JUMPDEST SWAP1 PUSH1 0x0 MSTORE PUSH1 0x20 PUSH1 0x0 KECCAK256 ADD PUSH1 0x0 DUP3 DUP3 SLOAD PUSH2 0x1909 SWAP2 SWAP1 PUSH2 0x59CD JUMP JUMPDEST SWAP3 POP POP DUP2 SWAP1 SSTORE POP JUMPDEST PUSH1 0x0 PUSH1 0xC DUP6 DUP2 SLOAD DUP2 LT PUSH2 0x194D JUMPI PUSH32 0x4E487B7100000000000000000000000000000000000000000000000000000000 PUSH1 0x0 MSTORE PUSH1 0x32 PUSH1 0x4 MSTORE PUSH1 0x24 PUSH1 0x0 REVERT JUMPDEST SWAP1 PUSH1 0x0 MSTORE PUSH1 0x20 PUSH1 0x0 KECCAK256 SWAP1 PUSH1 0xA MUL ADD PUSH1 0x0 ADD DUP4 DUP2 SLOAD DUP2 LT PUSH2 0x1996 JUMPI PUSH32 0x4E487B7100000000000000000000000000000000000000000000000000000000 PUSH1 0x0 MSTORE PUSH1 0x32 PUSH1 0x4 MSTORE PUSH1 0x24 PUSH1 0x0 REVERT JUMPDEST SWAP1 PUSH1 0x0 MSTORE PUSH1 0x20 PUSH1 0x0 KECCAK256 ADD SLOAD SWAP1 POP PUSH1 0x9 SLOAD DUP2 PUSH2 0x19B1 SWAP2 SWAP1 PUSH2 0x59CD JUMP JUMPDEST DUP2 PUSH1 0x64 PUSH2 0x19BE SWAP2 SWAP1 PUSH2 0x5A23 JUMP JUMPDEST GT ISZERO PUSH2 0x1BF9 JUMPI PUSH1 0x1 PUSH1 0xC DUP7 DUP2 SLOAD DUP2 LT PUSH2 0x1A00 JUMPI PUSH32 0x4E487B7100000000000000000000000000000000000000000000000000000000 PUSH1 0x0 MSTORE PUSH1 0x32 PUSH1 0x4 MSTORE PUSH1 0x24 PUSH1 0x0 REVERT JUMPDEST SWAP1 PUSH1 0x0 MSTORE PUSH1 0x20 PUSH1 0x0 KECCAK256 SWAP1 PUSH1 0xA MUL ADD PUSH1 0x8 ADD DUP5 DUP2 SLOAD DUP2 LT PUSH2 0x1A49 JUMPI PUSH32 0x4E487B7100000000000000000000000000000000000000000000000000000000 PUSH1 0x0 MSTORE PUSH1 0x32 PUSH1 0x4 MSTORE PUSH1 0x24 PUSH1 0x0 REVERT JUMPDEST SWAP1 PUSH1 0x0 MSTORE PUSH1 0x20 PUSH1 0x0 KECCAK256 SWAP1 PUSH1 0x20 SWAP2 DUP3 DUP3 DIV ADD SWAP2 SWAP1 MOD PUSH2 0x100 EXP DUP2 SLOAD DUP2 PUSH1 0xFF MUL NOT AND SWAP1 DUP4 ISZERO ISZERO MUL OR SWAP1 SSTORE POP ADDRESS PUSH20 0xFFFFFFFFFFFFFFFFFFFFFFFFFFFFFFFFFFFFFFFF AND PUSH4 0x39509351 PUSH1 0xC DUP8 DUP2 SLOAD DUP2 LT PUSH2 0x1AC8 JUMPI PUSH32 0x4E487B7100000000000000000000000000000000000000000000000000000000 PUSH1 0x0 MSTORE PUSH1 0x32 PUSH1 0x4 MSTORE PUSH1 0x24 PUSH1 0x0 REVERT JUMPDEST SWAP1 PUSH1 0x0 MSTORE PUSH1 0x20 PUSH1 0x0 KECCAK256 SWAP1 PUSH1 0xA MUL ADD PUSH1 0x7 ADD PUSH1 0x0 SWAP1 SLOAD SWAP1 PUSH2 0x100 EXP SWAP1 DIV PUSH20 0xFFFFFFFFFFFFFFFFFFFFFFFFFFFFFFFFFFFFFFFF AND PUSH1 0xC DUP9 DUP2 SLOAD DUP2 LT PUSH2 0x1B34 JUMPI PUSH32 0x4E487B7100000000000000000000000000000000000000000000000000000000 PUSH1 0x0 MSTORE PUSH1 0x32 PUSH1 0x4 MSTORE PUSH1 0x24 PUSH1 0x0 REVERT JUMPDEST SWAP1 PUSH1 0x0 MSTORE PUSH1 0x20 PUSH1 0x0 KECCAK256 SWAP1 PUSH1 0xA MUL ADD PUSH1 0x4 ADD DUP7 DUP2 SLOAD DUP2 LT PUSH2 0x1B7D JUMPI PUSH32 0x4E487B7100000000000000000000000000000000000000000000000000000000 PUSH1 0x0 MSTORE PUSH1 0x32 PUSH1 0x4 MSTORE PUSH1 0x24 PUSH1 0x0 REVERT JUMPDEST SWAP1 PUSH1 0x0 MSTORE PUSH1 0x20 PUSH1 0x0 KECCAK256 ADD SLOAD PUSH1 0x40 MLOAD DUP4 PUSH4 0xFFFFFFFF AND PUSH1 0xE0 SHL DUP2 MSTORE PUSH1 0x4 ADD PUSH2 0x1BA5 SWAP3 SWAP2 SWAP1 PUSH2 0x5264 JUMP JUMPDEST PUSH1 0x20 PUSH1 0x40 MLOAD DUP1 DUP4 SUB DUP2 PUSH1 0x0 DUP8 DUP1 EXTCODESIZE ISZERO DUP1 ISZERO PUSH2 0x1BBF JUMPI PUSH1 0x0 DUP1 REVERT JUMPDEST POP GAS CALL ISZERO DUP1 ISZERO PUSH2 0x1BD3 JUMPI RETURNDATASIZE PUSH1 0x0 DUP1 RETURNDATACOPY RETURNDATASIZE PUSH1 0x0 REVERT JUMPDEST POP POP POP POP PUSH1 0x40 MLOAD RETURNDATASIZE PUSH1 0x1F NOT PUSH1 0x1F DUP3 ADD AND DUP3 ADD DUP1 PUSH1 0x40 MSTORE POP DUP2 ADD SWAP1 PUSH2 0x1BF7 SWAP2 SWAP1 PUSH2 0x4A77 JUMP JUMPDEST POP JUMPDEST POP POP POP POP POP JUMP JUMPDEST PUSH1 0x60 PUSH1 0x4 DUP1 SLOAD PUSH2 0x1C0F SWAP1 PUSH2 0x5B5A JUMP JUMPDEST DUP1 PUSH1 0x1F ADD PUSH1 0x20 DUP1 SWAP2 DIV MUL PUSH1 0x20 ADD PUSH1 0x40 MLOAD SWAP1 DUP2 ADD PUSH1 0x40 MSTORE DUP1 SWAP3 SWAP2 SWAP1 DUP2 DUP2 MSTORE PUSH1 0x20 ADD DUP3 DUP1 SLOAD PUSH2 0x1C3B SWAP1 PUSH2 0x5B5A JUMP JUMPDEST DUP1 ISZERO PUSH2 0x1C88 JUMPI DUP1 PUSH1 0x1F LT PUSH2 0x1C5D JUMPI PUSH2 0x100 DUP1 DUP4 SLOAD DIV MUL DUP4 MSTORE SWAP2 PUSH1 0x20 ADD SWAP2 PUSH2 0x1C88 JUMP JUMPDEST DUP3 ADD SWAP2 SWAP1 PUSH1 0x0 MSTORE PUSH1 0x20 PUSH1 0x0 KECCAK256 SWAP1 JUMPDEST DUP2 SLOAD DUP2 MSTORE SWAP1 PUSH1 0x1 ADD SWAP1 PUSH1 0x20 ADD DUP1 DUP4 GT PUSH2 0x1C6B JUMPI DUP3 SWAP1 SUB PUSH1 0x1F AND DUP3 ADD SWAP2 JUMPDEST POP POP POP POP POP SWAP1 POP SWAP1 JUMP JUMPDEST PUSH1 0x0 DUP2 PUSH1 0xC DUP1 SLOAD SWAP1 POP GT PUSH2 0x1CDB JUMPI PUSH1 0x40 MLOAD PUSH32 0x8C379A000000000000000000000000000000000000000000000000000000000 DUP2 MSTORE PUSH1 0x4 ADD PUSH2 0x1CD2 SWAP1 PUSH2 0x5686 JUMP JUMPDEST PUSH1 0x40 MLOAD DUP1 SWAP2 SUB SWAP1 REVERT JUMPDEST PUSH1 0xC DUP3 DUP2 SLOAD DUP2 LT PUSH2 0x1D15 JUMPI PUSH32 0x4E487B7100000000000000000000000000000000000000000000000000000000 PUSH1 0x0 MSTORE PUSH1 0x32 PUSH1 0x4 MSTORE PUSH1 0x24 PUSH1 0x0 REVERT JUMPDEST SWAP1 PUSH1 0x0 MSTORE PUSH1 0x20 PUSH1 0x0 KECCAK256 SWAP1 PUSH1 0xA MUL ADD PUSH1 0x2 ADD SLOAD SWAP1 POP SWAP2 SWAP1 POP JUMP JUMPDEST PUSH1 0x0 DUP3 SWAP1 POP PUSH1 0x0 CALLER SWAP1 POP PUSH2 0x1D41 DUP3 PUSH2 0x209A JUMP JUMPDEST PUSH2 0x1D80 JUMPI PUSH1 0x40 MLOAD PUSH32 0x8C379A000000000000000000000000000000000000000000000000000000000 DUP2 MSTORE PUSH1 0x4 ADD PUSH2 0x1D77 SWAP1 PUSH2 0x5766 JUMP JUMPDEST PUSH1 0x40 MLOAD DUP1 SWAP2 SUB SWAP1 REVERT JUMPDEST PUSH2 0x1D89 DUP2 PUSH2 0x209A JUMP JUMPDEST PUSH2 0x1DC8 JUMPI PUSH1 0x40 MLOAD PUSH32 0x8C379A000000000000000000000000000000000000000000000000000000000 DUP2 MSTORE PUSH1 0x4 ADD PUSH2 0x1DBF SWAP1 PUSH2 0x5666 JUMP JUMPDEST PUSH1 0x40 MLOAD DUP1 SWAP2 SUB SWAP1 REVERT JUMPDEST DUP2 PUSH20 0xFFFFFFFFFFFFFFFFFFFFFFFFFFFFFFFFFFFFFFFF AND DUP2 PUSH20 0xFFFFFFFFFFFFFFFFFFFFFFFFFFFFFFFFFFFFFFFF AND EQ ISZERO PUSH2 0x1E37 JUMPI PUSH1 0x40 MLOAD PUSH32 0x8C379A000000000000000000000000000000000000000000000000000000000 DUP2 MSTORE PUSH1 0x4 ADD PUSH2 0x1E2E SWAP1 PUSH2 0x5506 JUMP JUMPDEST PUSH1 0x40 MLOAD DUP1 SWAP2 SUB SWAP1 REVERT JUMPDEST PUSH1 0x0 PUSH20 0xFFFFFFFFFFFFFFFFFFFFFFFFFFFFFFFFFFFFFFFF AND PUSH1 0xD PUSH1 0x0 DUP4 PUSH20 0xFFFFFFFFFFFFFFFFFFFFFFFFFFFFFFFFFFFFFFFF AND PUSH20 0xFFFFFFFFFFFFFFFFFFFFFFFFFFFFFFFFFFFFFFFF AND DUP2 MSTORE PUSH1 0x20 ADD SWAP1 DUP2 MSTORE PUSH1 0x20 ADD PUSH1 0x0 KECCAK256 PUSH1 0x5 ADD PUSH1 0x0 DUP6 DUP2 MSTORE PUSH1 0x20 ADD SWAP1 DUP2 MSTORE PUSH1 0x20 ADD PUSH1 0x0 KECCAK256 PUSH1 0x0 SWAP1 SLOAD SWAP1 PUSH2 0x100 EXP SWAP1 DIV PUSH20 0xFFFFFFFFFFFFFFFFFFFFFFFFFFFFFFFFFFFFFFFF AND PUSH20 0xFFFFFFFFFFFFFFFFFFFFFFFFFFFFFFFFFFFFFFFF AND EQ PUSH2 0x1F19 JUMPI PUSH1 0x40 MLOAD PUSH32 0x8C379A000000000000000000000000000000000000000000000000000000000 DUP2 MSTORE PUSH1 0x4 ADD PUSH2 0x1F10 SWAP1 PUSH2 0x5606 JUMP JUMPDEST PUSH1 0x40 MLOAD DUP1 SWAP2 SUB SWAP1 REVERT JUMPDEST PUSH1 0xD PUSH1 0x0 DUP4 PUSH20 0xFFFFFFFFFFFFFFFFFFFFFFFFFFFFFFFFFFFFFFFF AND PUSH20 0xFFFFFFFFFFFFFFFFFFFFFFFFFFFFFFFFFFFFFFFF AND DUP2 MSTORE PUSH1 0x20 ADD SWAP1 DUP2 MSTORE PUSH1 0x20 ADD PUSH1 0x0 KECCAK256 PUSH1 0x4 ADD PUSH1 0x40 MLOAD DUP1 PUSH1 0x40 ADD PUSH1 0x40 MSTORE DUP1 DUP6 DUP2 MSTORE PUSH1 0x20 ADD DUP4 PUSH20 0xFFFFFFFFFFFFFFFFFFFFFFFFFFFFFFFFFFFFFFFF AND DUP2 MSTORE POP SWAP1 DUP1 PUSH1 0x1 DUP2 SLOAD ADD DUP1 DUP3 SSTORE DUP1 SWAP2 POP POP PUSH1 0x1 SWAP1 SUB SWAP1 PUSH1 0x0 MSTORE PUSH1 0x20 PUSH1 0x0 KECCAK256 SWAP1 PUSH1 0x2 MUL ADD PUSH1 0x0 SWAP1 SWAP2 SWAP1 SWAP2 SWAP1 SWAP2 POP PUSH1 0x0 DUP3 ADD MLOAD DUP2 PUSH1 0x0 ADD SSTORE PUSH1 0x20 DUP3 ADD MLOAD DUP2 PUSH1 0x1 ADD PUSH1 0x0 PUSH2 0x100 EXP DUP2 SLOAD DUP2 PUSH20 0xFFFFFFFFFFFFFFFFFFFFFFFFFFFFFFFFFFFFFFFF MUL NOT AND SWAP1 DUP4 PUSH20 0xFFFFFFFFFFFFFFFFFFFFFFFFFFFFFFFFFFFFFFFF AND MUL OR SWAP1 SSTORE POP POP POP DUP2 PUSH1 0xD PUSH1 0x0 DUP4 PUSH20 0xFFFFFFFFFFFFFFFFFFFFFFFFFFFFFFFFFFFFFFFF AND PUSH20 0xFFFFFFFFFFFFFFFFFFFFFFFFFFFFFFFFFFFFFFFF AND DUP2 MSTORE PUSH1 0x20 ADD SWAP1 DUP2 MSTORE PUSH1 0x20 ADD PUSH1 0x0 KECCAK256 PUSH1 0x5 ADD PUSH1 0x0 DUP6 DUP2 MSTORE PUSH1 0x20 ADD SWAP1 DUP2 MSTORE PUSH1 0x20 ADD PUSH1 0x0 KECCAK256 PUSH1 0x0 PUSH2 0x100 EXP DUP2 SLOAD DUP2 PUSH20 0xFFFFFFFFFFFFFFFFFFFFFFFFFFFFFFFFFFFFFFFF MUL NOT AND SWAP1 DUP4 PUSH20 0xFFFFFFFFFFFFFFFFFFFFFFFFFFFFFFFFFFFFFFFF AND MUL OR SWAP1 SSTORE POP POP POP POP POP JUMP JUMPDEST PUSH1 0x0 DUP1 PUSH2 0x20A6 DUP4 PUSH2 0x1278 JUMP JUMPDEST GT SWAP1 POP SWAP2 SWAP1 POP JUMP JUMPDEST PUSH1 0x0 DUP1 PUSH2 0x20B9 PUSH2 0x41BE JUMP JUMPDEST SWAP1 POP PUSH1 0x0 PUSH2 0x20C7 DUP3 DUP7 PUSH2 0x3109 JUMP JUMPDEST SWAP1 POP DUP4 DUP2 LT ISZERO PUSH2 0x210C JUMPI PUSH1 0x40 MLOAD PUSH32 0x8C379A000000000000000000000000000000000000000000000000000000000 DUP2 MSTORE PUSH1 0x4 ADD PUSH2 0x2103 SWAP1 PUSH2 0x57C6 JUMP JUMPDEST PUSH1 0x40 MLOAD DUP1 SWAP2 SUB SWAP1 REVERT JUMPDEST PUSH2 0x2119 DUP3 DUP7 DUP7 DUP5 SUB PUSH2 0x41C6 JUMP JUMPDEST PUSH1 0x1 SWAP3 POP POP POP SWAP3 SWAP2 POP POP JUMP JUMPDEST PUSH1 0x0 PUSH2 0x2130 CALLER PUSH2 0x209A JUMP JUMPDEST PUSH2 0x216F JUMPI PUSH1 0x40 MLOAD PUSH32 0x8C379A000000000000000000000000000000000000000000000000000000000 DUP2 MSTORE PUSH1 0x4 ADD PUSH2 0x2166 SWAP1 PUSH2 0x5646 JUMP JUMPDEST PUSH1 0x40 MLOAD DUP1 SWAP2 SUB SWAP1 REVERT JUMPDEST PUSH1 0x0 DUP4 MLOAD PUSH8 0xFFFFFFFFFFFFFFFF DUP2 GT ISZERO PUSH2 0x21B2 JUMPI PUSH32 0x4E487B7100000000000000000000000000000000000000000000000000000000 PUSH1 0x0 MSTORE PUSH1 0x41 PUSH1 0x4 MSTORE PUSH1 0x24 PUSH1 0x0 REVERT JUMPDEST PUSH1 0x40 MLOAD SWAP1 DUP1 DUP3 MSTORE DUP1 PUSH1 0x20 MUL PUSH1 0x20 ADD DUP3 ADD PUSH1 0x40 MSTORE DUP1 ISZERO PUSH2 0x21E0 JUMPI DUP2 PUSH1 0x20 ADD PUSH1 0x20 DUP3 MUL DUP1 CALLDATASIZE DUP4 CALLDATACOPY DUP1 DUP3 ADD SWAP2 POP POP SWAP1 POP JUMPDEST POP SWAP1 POP PUSH2 0x21EE ADDRESS PUSH1 0x5 PUSH2 0x2480 JUMP JUMPDEST POP PUSH1 0x0 ADDRESS SWAP1 POP PUSH2 0x2200 DUP2 PUSH1 0xB SLOAD PUSH2 0x2480 JUMP JUMPDEST POP PUSH1 0xB SLOAD PUSH1 0x7 PUSH1 0x0 DUP3 DUP3 SLOAD PUSH2 0x2215 SWAP2 SWAP1 PUSH2 0x59CD JUMP JUMPDEST SWAP3 POP POP DUP2 SWAP1 SSTORE POP PUSH1 0xC DUP1 SLOAD SWAP1 POP SWAP3 POP PUSH1 0x0 PUSH1 0x40 MLOAD DUP1 PUSH2 0x140 ADD PUSH1 0x40 MSTORE DUP1 DUP5 DUP2 MSTORE PUSH1 0x20 ADD PUSH1 0x0 DUP2 MSTORE PUSH1 0x20 ADD PUSH1 0x0 DUP2 MSTORE PUSH1 0x20 ADD DUP9 DUP2 MSTORE PUSH1 0x20 ADD DUP8 DUP2 MSTORE PUSH1 0x20 ADD DUP7 DUP2 MSTORE PUSH1 0x20 ADD DUP10 DUP2 MSTORE PUSH1 0x20 ADD CALLER PUSH20 0xFFFFFFFFFFFFFFFFFFFFFFFFFFFFFFFFFFFFFFFF AND DUP2 MSTORE PUSH1 0x20 ADD DUP8 MLOAD PUSH8 0xFFFFFFFFFFFFFFFF DUP2 GT ISZERO PUSH2 0x22BB JUMPI PUSH32 0x4E487B7100000000000000000000000000000000000000000000000000000000 PUSH1 0x0 MSTORE PUSH1 0x41 PUSH1 0x4 MSTORE PUSH1 0x24 PUSH1 0x0 REVERT JUMPDEST PUSH1 0x40 MLOAD SWAP1 DUP1 DUP3 MSTORE DUP1 PUSH1 0x20 MUL PUSH1 0x20 ADD DUP3 ADD PUSH1 0x40 MSTORE DUP1 ISZERO PUSH2 0x22E9 JUMPI DUP2 PUSH1 0x20 ADD PUSH1 0x20 DUP3 MUL DUP1 CALLDATASIZE DUP4 CALLDATACOPY DUP1 DUP3 ADD SWAP2 POP POP SWAP1 POP JUMPDEST POP DUP2 MSTORE PUSH1 0x20 ADD PUSH1 0x0 ISZERO ISZERO DUP2 MSTORE POP SWAP1 POP PUSH1 0xC DUP2 SWAP1 DUP1 PUSH1 0x1 DUP2 SLOAD ADD DUP1 DUP3 SSTORE DUP1 SWAP2 POP POP PUSH1 0x1 SWAP1 SUB SWAP1 PUSH1 0x0 MSTORE PUSH1 0x20 PUSH1 0x0 KECCAK256 SWAP1 PUSH1 0xA MUL ADD PUSH1 0x0 SWAP1 SWAP2 SWAP1 SWAP2 SWAP1 SWAP2 POP PUSH1 0x0 DUP3 ADD MLOAD DUP2 PUSH1 0x0 ADD SWAP1 DUP1 MLOAD SWAP1 PUSH1 0x20 ADD SWAP1 PUSH2 0x2340 SWAP3 SWAP2 SWAP1 PUSH2 0x469F JUMP JUMPDEST POP PUSH1 0x20 DUP3 ADD MLOAD DUP2 PUSH1 0x1 ADD SSTORE PUSH1 0x40 DUP3 ADD MLOAD DUP2 PUSH1 0x2 ADD SSTORE PUSH1 0x60 DUP3 ADD MLOAD DUP2 PUSH1 0x3 ADD SSTORE PUSH1 0x80 DUP3 ADD MLOAD DUP2 PUSH1 0x4 ADD SWAP1 DUP1 MLOAD SWAP1 PUSH1 0x20 ADD SWAP1 PUSH2 0x237B SWAP3 SWAP2 SWAP1 PUSH2 0x469F JUMP JUMPDEST POP PUSH1 0xA0 DUP3 ADD MLOAD DUP2 PUSH1 0x5 ADD SWAP1 DUP1 MLOAD SWAP1 PUSH1 0x20 ADD SWAP1 PUSH2 0x2398 SWAP3 SWAP2 SWAP1 PUSH2 0x469F JUMP JUMPDEST POP PUSH1 0xC0 DUP3 ADD MLOAD DUP2 PUSH1 0x6 ADD SWAP1 DUP1 MLOAD SWAP1 PUSH1 0x20 ADD SWAP1 PUSH2 0x23B5 SWAP3 SWAP2 SWAP1 PUSH2 0x46EC JUMP JUMPDEST POP PUSH1 0xE0 DUP3 ADD MLOAD DUP2 PUSH1 0x7 ADD PUSH1 0x0 PUSH2 0x100 EXP DUP2 SLOAD DUP2 PUSH20 0xFFFFFFFFFFFFFFFFFFFFFFFFFFFFFFFFFFFFFFFF MUL NOT AND SWAP1 DUP4 PUSH20 0xFFFFFFFFFFFFFFFFFFFFFFFFFFFFFFFFFFFFFFFF AND MUL OR SWAP1 SSTORE POP PUSH2 0x100 DUP3 ADD MLOAD DUP2 PUSH1 0x8 ADD SWAP1 DUP1 MLOAD SWAP1 PUSH1 0x20 ADD SWAP1 PUSH2 0x241A SWAP3 SWAP2 SWAP1 PUSH2 0x4772 JUMP JUMPDEST POP PUSH2 0x120 DUP3 ADD MLOAD DUP2 PUSH1 0x9 ADD PUSH1 0x0 PUSH2 0x100 EXP DUP2 SLOAD DUP2 PUSH1 0xFF MUL NOT AND SWAP1 DUP4 ISZERO ISZERO MUL OR SWAP1 SSTORE POP POP POP POP POP POP SWAP5 SWAP4 POP POP POP POP JUMP JUMPDEST PUSH1 0xD PUSH1 0x20 MSTORE DUP1 PUSH1 0x0 MSTORE PUSH1 0x40 PUSH1 0x0 KECCAK256 PUSH1 0x0 SWAP2 POP SWAP1 POP DUP1 PUSH1 0x0 ADD SLOAD SWAP1 DUP1 PUSH1 0x6 ADD SLOAD SWAP1 DUP1 PUSH1 0x7 ADD PUSH1 0x0 SWAP1 SLOAD SWAP1 PUSH2 0x100 EXP SWAP1 DIV PUSH1 0xFF AND SWAP1 POP DUP4 JUMP JUMPDEST PUSH1 0x0 DUP1 PUSH2 0x248B PUSH2 0x41BE JUMP JUMPDEST SWAP1 POP PUSH2 0x2498 DUP2 DUP6 DUP6 PUSH2 0x441D JUMP JUMPDEST PUSH1 0x1 SWAP2 POP POP SWAP3 SWAP2 POP POP JUMP JUMPDEST PUSH1 0x0 DUP1 PUSH1 0x0 SWAP1 POP JUMPDEST PUSH1 0xC DUP4 DUP2 SLOAD DUP2 LT PUSH2 0x24E5 JUMPI PUSH32 0x4E487B7100000000000000000000000000000000000000000000000000000000 PUSH1 0x0 MSTORE PUSH1 0x32 PUSH1 0x4 MSTORE PUSH1 0x24 PUSH1 0x0 REVERT JUMPDEST SWAP1 PUSH1 0x0 MSTORE PUSH1 0x20 PUSH1 0x0 KECCAK256 SWAP1 PUSH1 0xA MUL ADD PUSH1 0x5 ADD DUP1 SLOAD SWAP1 POP DUP2 LT ISZERO PUSH2 0x25B2 JUMPI PUSH1 0xC DUP4 DUP2 SLOAD DUP2 LT PUSH2 0x253B JUMPI PUSH32 0x4E487B7100000000000000000000000000000000000000000000000000000000 PUSH1 0x0 MSTORE PUSH1 0x32 PUSH1 0x4 MSTORE PUSH1 0x24 PUSH1 0x0 REVERT JUMPDEST SWAP1 PUSH1 0x0 MSTORE PUSH1 0x20 PUSH1 0x0 KECCAK256 SWAP1 PUSH1 0xA MUL ADD PUSH1 0x5 ADD DUP2 DUP2 SLOAD DUP2 LT PUSH2 0x2584 JUMPI PUSH32 0x4E487B7100000000000000000000000000000000000000000000000000000000 PUSH1 0x0 MSTORE PUSH1 0x32 PUSH1 0x4 MSTORE PUSH1 0x24 PUSH1 0x0 REVERT JUMPDEST SWAP1 PUSH1 0x0 MSTORE PUSH1 0x20 PUSH1 0x0 KECCAK256 ADD SLOAD TIMESTAMP LT ISZERO PUSH2 0x259F JUMPI DUP1 SWAP2 POP POP PUSH2 0x2605 JUMP JUMPDEST DUP1 DUP1 PUSH2 0x25AA SWAP1 PUSH2 0x5BBD JUMP JUMPDEST SWAP2 POP POP PUSH2 0x24AB JUMP JUMPDEST POP PUSH1 0xC DUP3 DUP2 SLOAD DUP2 LT PUSH2 0x25ED JUMPI PUSH32 0x4E487B7100000000000000000000000000000000000000000000000000000000 PUSH1 0x0 MSTORE PUSH1 0x32 PUSH1 0x4 MSTORE PUSH1 0x24 PUSH1 0x0 REVERT JUMPDEST SWAP1 PUSH1 0x0 MSTORE PUSH1 0x20 PUSH1 0x0 KECCAK256 SWAP1 PUSH1 0xA MUL ADD PUSH1 0x5 ADD DUP1 SLOAD SWAP1 POP SWAP1 POP JUMPDEST SWAP2 SWAP1 POP JUMP JUMPDEST PUSH2 0x2613 DUP2 PUSH2 0x13B3 JUMP JUMPDEST PUSH2 0x2652 JUMPI PUSH1 0x40 MLOAD PUSH32 0x8C379A000000000000000000000000000000000000000000000000000000000 DUP2 MSTORE PUSH1 0x4 ADD PUSH2 0x2649 SWAP1 PUSH2 0x55A6 JUMP JUMPDEST PUSH1 0x40 MLOAD DUP1 SWAP2 SUB SWAP1 REVERT JUMPDEST DUP1 PUSH1 0xC DUP1 SLOAD SWAP1 POP GT DUP1 ISZERO PUSH2 0x2667 JUMPI POP PUSH1 0x0 DUP2 LT ISZERO JUMPDEST PUSH2 0x26A6 JUMPI PUSH1 0x40 MLOAD PUSH32 0x8C379A000000000000000000000000000000000000000000000000000000000 DUP2 MSTORE PUSH1 0x4 ADD PUSH2 0x269D SWAP1 PUSH2 0x5446 JUMP JUMPDEST PUSH1 0x40 MLOAD DUP1 SWAP2 SUB SWAP1 REVERT JUMPDEST PUSH1 0x1 PUSH2 0x26E7 JUMPI PUSH1 0x40 MLOAD PUSH32 0x8C379A000000000000000000000000000000000000000000000000000000000 DUP2 MSTORE PUSH1 0x4 ADD PUSH2 0x26DE SWAP1 PUSH2 0x5546 JUMP JUMPDEST PUSH1 0x40 MLOAD DUP1 SWAP2 SUB SWAP1 REVERT JUMPDEST PUSH1 0x0 DUP1 JUMPDEST PUSH1 0xC DUP4 DUP2 SLOAD DUP2 LT PUSH2 0x2725 JUMPI PUSH32 0x4E487B7100000000000000000000000000000000000000000000000000000000 PUSH1 0x0 MSTORE PUSH1 0x32 PUSH1 0x4 MSTORE PUSH1 0x24 PUSH1 0x0 REVERT JUMPDEST SWAP1 PUSH1 0x0 MSTORE PUSH1 0x20 PUSH1 0x0 KECCAK256 SWAP1 PUSH1 0xA MUL ADD PUSH1 0x4 ADD DUP1 SLOAD SWAP1 POP DUP2 LT ISZERO PUSH2 0x27EF JUMPI PUSH1 0xC DUP4 DUP2 SLOAD DUP2 LT PUSH2 0x277B JUMPI PUSH32 0x4E487B7100000000000000000000000000000000000000000000000000000000 PUSH1 0x0 MSTORE PUSH1 0x32 PUSH1 0x4 MSTORE PUSH1 0x24 PUSH1 0x0 REVERT JUMPDEST SWAP1 PUSH1 0x0 MSTORE PUSH1 0x20 PUSH1 0x0 KECCAK256 SWAP1 PUSH1 0xA MUL ADD PUSH1 0x4 ADD DUP2 DUP2 SLOAD DUP2 LT PUSH2 0x27C4 JUMPI PUSH32 0x4E487B7100000000000000000000000000000000000000000000000000000000 PUSH1 0x0 MSTORE PUSH1 0x32 PUSH1 0x4 MSTORE PUSH1 0x24 PUSH1 0x0 REVERT JUMPDEST SWAP1 PUSH1 0x0 MSTORE PUSH1 0x20 PUSH1 0x0 KECCAK256 ADD SLOAD DUP3 PUSH2 0x27DA SWAP2 SWAP1 PUSH2 0x59CD JUMP JUMPDEST SWAP2 POP DUP1 DUP1 PUSH2 0x27E7 SWAP1 PUSH2 0x5BBD JUMP JUMPDEST SWAP2 POP POP PUSH2 0x26EB JUMP JUMPDEST POP PUSH1 0x1 PUSH2 0x2831 JUMPI PUSH1 0x40 MLOAD PUSH32 0x8C379A000000000000000000000000000000000000000000000000000000000 DUP2 MSTORE PUSH1 0x4 ADD PUSH2 0x2828 SWAP1 PUSH2 0x54E6 JUMP JUMPDEST PUSH1 0x40 MLOAD DUP1 SWAP2 SUB SWAP1 REVERT JUMPDEST PUSH1 0xC DUP3 DUP2 SLOAD DUP2 LT PUSH2 0x286B JUMPI PUSH32 0x4E487B7100000000000000000000000000000000000000000000000000000000 PUSH1 0x0 MSTORE PUSH1 0x32 PUSH1 0x4 MSTORE PUSH1 0x24 PUSH1 0x0 REVERT JUMPDEST SWAP1 PUSH1 0x0 MSTORE PUSH1 0x20 PUSH1 0x0 KECCAK256 SWAP1 PUSH1 0xA MUL ADD PUSH1 0x2 ADD SLOAD PUSH1 0x8 PUSH1 0x0 DUP3 DUP3 SLOAD PUSH2 0x288E SWAP2 SWAP1 PUSH2 0x59CD JUMP JUMPDEST SWAP3 POP POP DUP2 SWAP1 SSTORE POP PUSH2 0x2998 PUSH1 0xC DUP4 DUP2 SLOAD DUP2 LT PUSH2 0x28D2 JUMPI PUSH32 0x4E487B7100000000000000000000000000000000000000000000000000000000 PUSH1 0x0 MSTORE PUSH1 0x32 PUSH1 0x4 MSTORE PUSH1 0x24 PUSH1 0x0 REVERT JUMPDEST SWAP1 PUSH1 0x0 MSTORE PUSH1 0x20 PUSH1 0x0 KECCAK256 SWAP1 PUSH1 0xA MUL ADD PUSH1 0x7 ADD PUSH1 0x0 SWAP1 SLOAD SWAP1 PUSH2 0x100 EXP SWAP1 DIV PUSH20 0xFFFFFFFFFFFFFFFFFFFFFFFFFFFFFFFFFFFFFFFF AND PUSH1 0xC DUP5 DUP2 SLOAD DUP2 LT PUSH2 0x293E JUMPI PUSH32 0x4E487B7100000000000000000000000000000000000000000000000000000000 PUSH1 0x0 MSTORE PUSH1 0x32 PUSH1 0x4 MSTORE PUSH1 0x24 PUSH1 0x0 REVERT JUMPDEST SWAP1 PUSH1 0x0 MSTORE PUSH1 0x20 PUSH1 0x0 KECCAK256 SWAP1 PUSH1 0xA MUL ADD PUSH1 0x4 ADD PUSH1 0x0 DUP2 SLOAD DUP2 LT PUSH2 0x2988 JUMPI PUSH32 0x4E487B7100000000000000000000000000000000000000000000000000000000 PUSH1 0x0 MSTORE PUSH1 0x32 PUSH1 0x4 MSTORE PUSH1 0x24 PUSH1 0x0 REVERT JUMPDEST SWAP1 PUSH1 0x0 MSTORE PUSH1 0x20 PUSH1 0x0 KECCAK256 ADD SLOAD PUSH2 0xA78 JUMP JUMPDEST POP POP POP JUMP JUMPDEST PUSH1 0x0 PUSH1 0x1 PUSH2 0x29AA DUP4 PUSH2 0x24A3 JUMP JUMPDEST PUSH2 0x29B4 SWAP2 SWAP1 PUSH2 0x5A7D JUMP JUMPDEST SWAP1 POP DUP2 PUSH1 0xC DUP1 SLOAD SWAP1 POP GT DUP1 ISZERO PUSH2 0x29CB JUMPI POP PUSH1 0x0 DUP3 LT ISZERO JUMPDEST PUSH2 0x2A0A JUMPI PUSH1 0x40 MLOAD PUSH32 0x8C379A000000000000000000000000000000000000000000000000000000000 DUP2 MSTORE PUSH1 0x4 ADD PUSH2 0x2A01 SWAP1 PUSH2 0x5446 JUMP JUMPDEST PUSH1 0x40 MLOAD DUP1 SWAP2 SUB SWAP1 REVERT JUMPDEST PUSH1 0xC DUP3 DUP2 SLOAD DUP2 LT PUSH2 0x2A44 JUMPI PUSH32 0x4E487B7100000000000000000000000000000000000000000000000000000000 PUSH1 0x0 MSTORE PUSH1 0x32 PUSH1 0x4 MSTORE PUSH1 0x24 PUSH1 0x0 REVERT JUMPDEST SWAP1 PUSH1 0x0 MSTORE PUSH1 0x20 PUSH1 0x0 KECCAK256 SWAP1 PUSH1 0xA MUL ADD PUSH1 0x7 ADD PUSH1 0x0 SWAP1 SLOAD SWAP1 PUSH2 0x100 EXP SWAP1 DIV PUSH20 0xFFFFFFFFFFFFFFFFFFFFFFFFFFFFFFFFFFFFFFFF AND PUSH20 0xFFFFFFFFFFFFFFFFFFFFFFFFFFFFFFFFFFFFFFFF AND CALLER PUSH20 0xFFFFFFFFFFFFFFFFFFFFFFFFFFFFFFFFFFFFFFFF AND EQ PUSH2 0x2AAD JUMPI PUSH1 0x0 DUP1 REVERT JUMPDEST PUSH1 0xC DUP3 DUP2 SLOAD DUP2 LT PUSH2 0x2AE7 JUMPI PUSH32 0x4E487B7100000000000000000000000000000000000000000000000000000000 PUSH1 0x0 MSTORE PUSH1 0x32 PUSH1 0x4 MSTORE PUSH1 0x24 PUSH1 0x0 REVERT JUMPDEST SWAP1 PUSH1 0x0 MSTORE PUSH1 0x20 PUSH1 0x0 KECCAK256 SWAP1 PUSH1 0xA MUL ADD PUSH1 0x5 ADD DUP1 SLOAD SWAP1 POP PUSH2 0x2B05 DUP4 PUSH2 0x24A3 JUMP JUMPDEST GT ISZERO PUSH2 0x2B10 JUMPI PUSH1 0x0 DUP1 REVERT JUMPDEST PUSH1 0xC DUP3 DUP2 SLOAD DUP2 LT PUSH2 0x2B4A JUMPI PUSH32 0x4E487B7100000000000000000000000000000000000000000000000000000000 PUSH1 0x0 MSTORE PUSH1 0x32 PUSH1 0x4 MSTORE PUSH1 0x24 PUSH1 0x0 REVERT JUMPDEST SWAP1 PUSH1 0x0 MSTORE PUSH1 0x20 PUSH1 0x0 KECCAK256 SWAP1 PUSH1 0xA MUL ADD PUSH1 0x5 ADD DUP2 DUP2 SLOAD DUP2 LT PUSH2 0x2B93 JUMPI PUSH32 0x4E487B7100000000000000000000000000000000000000000000000000000000 PUSH1 0x0 MSTORE PUSH1 0x32 PUSH1 0x4 MSTORE PUSH1 0x24 PUSH1 0x0 REVERT JUMPDEST SWAP1 PUSH1 0x0 MSTORE PUSH1 0x20 PUSH1 0x0 KECCAK256 POP POP PUSH1 0x1 PUSH2 0x2BA9 JUMPI PUSH1 0x0 DUP1 REVERT JUMPDEST PUSH1 0x0 DUP1 PUSH1 0xC DUP5 DUP2 SLOAD DUP2 LT PUSH2 0x2BE6 JUMPI PUSH32 0x4E487B7100000000000000000000000000000000000000000000000000000000 PUSH1 0x0 MSTORE PUSH1 0x32 PUSH1 0x4 MSTORE PUSH1 0x24 PUSH1 0x0 REVERT JUMPDEST SWAP1 PUSH1 0x0 MSTORE PUSH1 0x20 PUSH1 0x0 KECCAK256 SWAP1 PUSH1 0xA MUL ADD PUSH1 0x40 MLOAD DUP1 PUSH2 0x140 ADD PUSH1 0x40 MSTORE SWAP1 DUP2 PUSH1 0x0 DUP3 ADD DUP1 SLOAD DUP1 PUSH1 0x20 MUL PUSH1 0x20 ADD PUSH1 0x40 MLOAD SWAP1 DUP2 ADD PUSH1 0x40 MSTORE DUP1 SWAP3 SWAP2 SWAP1 DUP2 DUP2 MSTORE PUSH1 0x20 ADD DUP3 DUP1 SLOAD DUP1 ISZERO PUSH2 0x2C4F JUMPI PUSH1 0x20 MUL DUP3 ADD SWAP2 SWAP1 PUSH1 0x0 MSTORE PUSH1 0x20 PUSH1 0x0 KECCAK256 SWAP1 JUMPDEST DUP2 SLOAD DUP2 MSTORE PUSH1 0x20 ADD SWAP1 PUSH1 0x1 ADD SWAP1 DUP1 DUP4 GT PUSH2 0x2C3B JUMPI JUMPDEST POP POP POP POP POP DUP2 MSTORE PUSH1 0x20 ADD PUSH1 0x1 DUP3 ADD SLOAD DUP2 MSTORE PUSH1 0x20 ADD PUSH1 0x2 DUP3 ADD SLOAD DUP2 MSTORE PUSH1 0x20 ADD PUSH1 0x3 DUP3 ADD SLOAD DUP2 MSTORE PUSH1 0x20 ADD PUSH1 0x4 DUP3 ADD DUP1 SLOAD DUP1 PUSH1 0x20 MUL PUSH1 0x20 ADD PUSH1 0x40 MLOAD SWAP1 DUP2 ADD PUSH1 0x40 MSTORE DUP1 SWAP3 SWAP2 SWAP1 DUP2 DUP2 MSTORE PUSH1 0x20 ADD DUP3 DUP1 SLOAD DUP1 ISZERO PUSH2 0x2CC5 JUMPI PUSH1 0x20 MUL DUP3 ADD SWAP2 SWAP1 PUSH1 0x0 MSTORE PUSH1 0x20 PUSH1 0x0 KECCAK256 SWAP1 JUMPDEST DUP2 SLOAD DUP2 MSTORE PUSH1 0x20 ADD SWAP1 PUSH1 0x1 ADD SWAP1 DUP1 DUP4 GT PUSH2 0x2CB1 JUMPI JUMPDEST POP POP POP POP POP DUP2 MSTORE PUSH1 0x20 ADD PUSH1 0x5 DUP3 ADD DUP1 SLOAD DUP1 PUSH1 0x20 MUL PUSH1 0x20 ADD PUSH1 0x40 MLOAD SWAP1 DUP2 ADD PUSH1 0x40 MSTORE DUP1 SWAP3 SWAP2 SWAP1 DUP2 DUP2 MSTORE PUSH1 0x20 ADD DUP3 DUP1 SLOAD DUP1 ISZERO PUSH2 0x2D1D JUMPI PUSH1 0x20 MUL DUP3 ADD SWAP2 SWAP1 PUSH1 0x0 MSTORE PUSH1 0x20 PUSH1 0x0 KECCAK256 SWAP1 JUMPDEST DUP2 SLOAD DUP2 MSTORE PUSH1 0x20 ADD SWAP1 PUSH1 0x1 ADD SWAP1 DUP1 DUP4 GT PUSH2 0x2D09 JUMPI JUMPDEST POP POP POP POP POP DUP2 MSTORE PUSH1 0x20 ADD PUSH1 0x6 DUP3 ADD DUP1 SLOAD PUSH2 0x2D36 SWAP1 PUSH2 0x5B5A JUMP JUMPDEST DUP1 PUSH1 0x1F ADD PUSH1 0x20 DUP1 SWAP2 DIV MUL PUSH1 0x20 ADD PUSH1 0x40 MLOAD SWAP1 DUP2 ADD PUSH1 0x40 MSTORE DUP1 SWAP3 SWAP2 SWAP1 DUP2 DUP2 MSTORE PUSH1 0x20 ADD DUP3 DUP1 SLOAD PUSH2 0x2D62 SWAP1 PUSH2 0x5B5A JUMP JUMPDEST DUP1 ISZERO PUSH2 0x2DAF JUMPI DUP1 PUSH1 0x1F LT PUSH2 0x2D84 JUMPI PUSH2 0x100 DUP1 DUP4 SLOAD DIV MUL DUP4 MSTORE SWAP2 PUSH1 0x20 ADD SWAP2 PUSH2 0x2DAF JUMP JUMPDEST DUP3 ADD SWAP2 SWAP1 PUSH1 0x0 MSTORE PUSH1 0x20 PUSH1 0x0 KECCAK256 SWAP1 JUMPDEST DUP2 SLOAD DUP2 MSTORE SWAP1 PUSH1 0x1 ADD SWAP1 PUSH1 0x20 ADD DUP1 DUP4 GT PUSH2 0x2D92 JUMPI DUP3 SWAP1 SUB PUSH1 0x1F AND DUP3 ADD SWAP2 JUMPDEST POP POP POP POP POP DUP2 MSTORE PUSH1 0x20 ADD PUSH1 0x7 DUP3 ADD PUSH1 0x0 SWAP1 SLOAD SWAP1 PUSH2 0x100 EXP SWAP1 DIV PUSH20 0xFFFFFFFFFFFFFFFFFFFFFFFFFFFFFFFFFFFFFFFF AND PUSH20 0xFFFFFFFFFFFFFFFFFFFFFFFFFFFFFFFFFFFFFFFF AND PUSH20 0xFFFFFFFFFFFFFFFFFFFFFFFFFFFFFFFFFFFFFFFF AND DUP2 MSTORE PUSH1 0x20 ADD PUSH1 0x8 DUP3 ADD DUP1 SLOAD DUP1 PUSH1 0x20 MUL PUSH1 0x20 ADD PUSH1 0x40 MLOAD SWAP1 DUP2 ADD PUSH1 0x40 MSTORE DUP1 SWAP3 SWAP2 SWAP1 DUP2 DUP2 MSTORE PUSH1 0x20 ADD DUP3 DUP1 SLOAD DUP1 ISZERO PUSH2 0x2E82 JUMPI PUSH1 0x20 MUL DUP3 ADD SWAP2 SWAP1 PUSH1 0x0 MSTORE PUSH1 0x20 PUSH1 0x0 KECCAK256 SWAP1 PUSH1 0x0 SWAP1 JUMPDEST DUP3 DUP3 SWAP1 SLOAD SWAP1 PUSH2 0x100 EXP SWAP1 DIV PUSH1 0xFF AND ISZERO ISZERO DUP2 MSTORE PUSH1 0x20 ADD SWAP1 PUSH1 0x1 ADD SWAP1 PUSH1 0x20 DUP3 PUSH1 0x0 ADD DIV SWAP3 DUP4 ADD SWAP3 PUSH1 0x1 SUB DUP3 MUL SWAP2 POP DUP1 DUP5 GT PUSH2 0x2E4C JUMPI SWAP1 POP JUMPDEST POP POP POP POP POP DUP2 MSTORE PUSH1 0x20 ADD PUSH1 0x9 DUP3 ADD PUSH1 0x0 SWAP1 SLOAD SWAP1 PUSH2 0x100 EXP SWAP1 DIV PUSH1 0xFF AND ISZERO ISZERO ISZERO ISZERO DUP2 MSTORE POP POP SWAP1 POP PUSH1 0x0 JUMPDEST DUP4 DUP2 GT PUSH2 0x2F63 JUMPI DUP2 PUSH2 0x100 ADD MLOAD DUP2 DUP2 MLOAD DUP2 LT PUSH2 0x2EF0 JUMPI PUSH32 0x4E487B7100000000000000000000000000000000000000000000000000000000 PUSH1 0x0 MSTORE PUSH1 0x32 PUSH1 0x4 MSTORE PUSH1 0x24 PUSH1 0x0 REVERT JUMPDEST PUSH1 0x20 MUL PUSH1 0x20 ADD ADD MLOAD ISZERO PUSH2 0x2F50 JUMPI DUP2 PUSH1 0x80 ADD MLOAD DUP2 DUP2 MLOAD DUP2 LT PUSH2 0x2F3A JUMPI PUSH32 0x4E487B7100000000000000000000000000000000000000000000000000000000 PUSH1 0x0 MSTORE PUSH1 0x32 PUSH1 0x4 MSTORE PUSH1 0x24 PUSH1 0x0 REVERT JUMPDEST PUSH1 0x20 MUL PUSH1 0x20 ADD ADD MLOAD DUP4 PUSH2 0x2F4D SWAP2 SWAP1 PUSH2 0x59CD JUMP JUMPDEST SWAP3 POP JUMPDEST DUP1 DUP1 PUSH2 0x2F5B SWAP1 PUSH2 0x5BBD JUMP JUMPDEST SWAP2 POP POP PUSH2 0x2EAB JUMP JUMPDEST POP DUP2 PUSH1 0x8 PUSH1 0x0 DUP3 DUP3 SLOAD PUSH2 0x2F76 SWAP2 SWAP1 PUSH2 0x5A7D JUMP JUMPDEST SWAP3 POP POP DUP2 SWAP1 SSTORE POP DUP2 PUSH1 0x7 PUSH1 0x0 DUP3 DUP3 SLOAD PUSH2 0x2F8F SWAP2 SWAP1 PUSH2 0x5A7D JUMP JUMPDEST SWAP3 POP POP DUP2 SWAP1 SSTORE POP PUSH1 0x0 CALLER SWAP1 POP PUSH2 0x2FA6 ADDRESS DUP3 DUP6 PUSH2 0xB49 JUMP JUMPDEST POP PUSH2 0x2FB2 ADDRESS DUP3 DUP6 PUSH2 0x4391 JUMP JUMPDEST POP POP POP POP POP JUMP JUMPDEST PUSH1 0x0 DUP1 PUSH1 0x0 SWAP1 POP PUSH1 0x0 JUMPDEST PUSH1 0xC DUP1 SLOAD SWAP1 POP DUP2 LT ISZERO PUSH2 0x3000 JUMPI PUSH2 0x2FD9 DUP2 PUSH2 0x13B3 JUMP JUMPDEST ISZERO PUSH2 0x2FED JUMPI DUP2 DUP1 PUSH2 0x2FE9 SWAP1 PUSH2 0x5BBD JUMP JUMPDEST SWAP3 POP POP JUMPDEST DUP1 DUP1 PUSH2 0x2FF8 SWAP1 PUSH2 0x5BBD JUMP JUMPDEST SWAP2 POP POP PUSH2 0x2FC3 JUMP JUMPDEST POP DUP1 SWAP2 POP POP SWAP1 JUMP JUMPDEST PUSH1 0xC DUP2 DUP2 SLOAD DUP2 LT PUSH2 0x3018 JUMPI PUSH1 0x0 DUP1 REVERT JUMPDEST SWAP1 PUSH1 0x0 MSTORE PUSH1 0x20 PUSH1 0x0 KECCAK256 SWAP1 PUSH1 0xA MUL ADD PUSH1 0x0 SWAP2 POP SWAP1 POP DUP1 PUSH1 0x1 ADD SLOAD SWAP1 DUP1 PUSH1 0x2 ADD SLOAD SWAP1 DUP1 PUSH1 0x3 ADD SLOAD SWAP1 DUP1 PUSH1 0x6 ADD DUP1 SLOAD PUSH2 0x304D SWAP1 PUSH2 0x5B5A JUMP JUMPDEST DUP1 PUSH1 0x1F ADD PUSH1 0x20 DUP1 SWAP2 DIV MUL PUSH1 0x20 ADD PUSH1 0x40 MLOAD SWAP1 DUP2 ADD PUSH1 0x40 MSTORE DUP1 SWAP3 SWAP2 SWAP1 DUP2 DUP2 MSTORE PUSH1 0x20 ADD DUP3 DUP1 SLOAD PUSH2 0x3079 SWAP1 PUSH2 0x5B5A JUMP JUMPDEST DUP1 ISZERO PUSH2 0x30C6 JUMPI DUP1 PUSH1 0x1F LT PUSH2 0x309B JUMPI PUSH2 0x100 DUP1 DUP4 SLOAD DIV MUL DUP4 MSTORE SWAP2 PUSH1 0x20 ADD SWAP2 PUSH2 0x30C6 JUMP JUMPDEST DUP3 ADD SWAP2 SWAP1 PUSH1 0x0 MSTORE PUSH1 0x20 PUSH1 0x0 KECCAK256 SWAP1 JUMPDEST DUP2 SLOAD DUP2 MSTORE SWAP1 PUSH1 0x1 ADD SWAP1 PUSH1 0x20 ADD DUP1 DUP4 GT PUSH2 0x30A9 JUMPI DUP3 SWAP1 SUB PUSH1 0x1F AND DUP3 ADD SWAP2 JUMPDEST POP POP POP POP POP SWAP1 DUP1 PUSH1 0x7 ADD PUSH1 0x0 SWAP1 SLOAD SWAP1 PUSH2 0x100 EXP SWAP1 DIV PUSH20 0xFFFFFFFFFFFFFFFFFFFFFFFFFFFFFFFFFFFFFFFF AND SWAP1 DUP1 PUSH1 0x9 ADD PUSH1 0x0 SWAP1 SLOAD SWAP1 PUSH2 0x100 EXP SWAP1 DIV PUSH1 0xFF AND SWAP1 POP DUP7 JUMP JUMPDEST PUSH1 0x0 PUSH1 0x1 PUSH1 0x0 DUP5 PUSH20 0xFFFFFFFFFFFFFFFFFFFFFFFFFFFFFFFFFFFFFFFF AND PUSH20 0xFFFFFFFFFFFFFFFFFFFFFFFFFFFFFFFFFFFFFFFF AND DUP2 MSTORE PUSH1 0x20 ADD SWAP1 DUP2 MSTORE PUSH1 0x20 ADD PUSH1 0x0 KECCAK256 PUSH1 0x0 DUP4 PUSH20 0xFFFFFFFFFFFFFFFFFFFFFFFFFFFFFFFFFFFFFFFF AND PUSH20 0xFFFFFFFFFFFFFFFFFFFFFFFFFFFFFFFFFFFFFFFF AND DUP2 MSTORE PUSH1 0x20 ADD SWAP1 DUP2 MSTORE PUSH1 0x20 ADD PUSH1 0x0 KECCAK256 SLOAD SWAP1 POP SWAP3 SWAP2 POP POP JUMP JUMPDEST PUSH1 0x0 CALLER SWAP1 POP PUSH1 0x0 PUSH1 0x6 SLOAD GT PUSH2 0x31DA JUMPI PUSH1 0x40 MLOAD PUSH32 0x8C379A000000000000000000000000000000000000000000000000000000000 DUP2 MSTORE PUSH1 0x4 ADD PUSH2 0x31D1 SWAP1 PUSH2 0x5426 JUMP JUMPDEST PUSH1 0x40 MLOAD DUP1 SWAP2 SUB SWAP1 REVERT JUMPDEST PUSH1 0x0 ISZERO ISZERO PUSH1 0xD PUSH1 0x0 DUP4 PUSH20 0xFFFFFFFFFFFFFFFFFFFFFFFFFFFFFFFFFFFFFFFF AND PUSH20 0xFFFFFFFFFFFFFFFFFFFFFFFFFFFFFFFFFFFFFFFF AND DUP2 MSTORE PUSH1 0x20 ADD SWAP1 DUP2 MSTORE PUSH1 0x20 ADD PUSH1 0x0 KECCAK256 PUSH1 0x7 ADD PUSH1 0x0 SWAP1 SLOAD SWAP1 PUSH2 0x100 EXP SWAP1 DIV PUSH1 0xFF AND ISZERO ISZERO EQ PUSH2 0x3270 JUMPI PUSH1 0x40 MLOAD PUSH32 0x8C379A000000000000000000000000000000000000000000000000000000000 DUP2 MSTORE PUSH1 0x4 ADD PUSH2 0x3267 SWAP1 PUSH2 0x56A6 JUMP JUMPDEST PUSH1 0x40 MLOAD DUP1 SWAP2 SUB SWAP1 REVERT JUMPDEST ADDRESS PUSH20 0xFFFFFFFFFFFFFFFFFFFFFFFFFFFFFFFFFFFFFFFF AND PUSH4 0xA9059CBB DUP3 PUSH1 0x5 PUSH1 0x40 MLOAD DUP4 PUSH4 0xFFFFFFFF AND PUSH1 0xE0 SHL DUP2 MSTORE PUSH1 0x4 ADD PUSH2 0x32AC SWAP3 SWAP2 SWAP1 PUSH2 0x523B JUMP JUMPDEST PUSH1 0x20 PUSH1 0x40 MLOAD DUP1 DUP4 SUB DUP2 PUSH1 0x0 DUP8 DUP1 EXTCODESIZE ISZERO DUP1 ISZERO PUSH2 0x32C6 JUMPI PUSH1 0x0 DUP1 REVERT JUMPDEST POP GAS CALL ISZERO DUP1 ISZERO PUSH2 0x32DA JUMPI RETURNDATASIZE PUSH1 0x0 DUP1 RETURNDATACOPY RETURNDATASIZE PUSH1 0x0 REVERT JUMPDEST POP POP POP POP PUSH1 0x40 MLOAD RETURNDATASIZE PUSH1 0x1F NOT PUSH1 0x1F DUP3 ADD AND DUP3 ADD DUP1 PUSH1 0x40 MSTORE POP DUP2 ADD SWAP1 PUSH2 0x32FE SWAP2 SWAP1 PUSH2 0x4A77 JUMP JUMPDEST POP PUSH1 0x1 PUSH1 0xD PUSH1 0x0 DUP4 PUSH20 0xFFFFFFFFFFFFFFFFFFFFFFFFFFFFFFFFFFFFFFFF AND PUSH20 0xFFFFFFFFFFFFFFFFFFFFFFFFFFFFFFFFFFFFFFFF AND DUP2 MSTORE PUSH1 0x20 ADD SWAP1 DUP2 MSTORE PUSH1 0x20 ADD PUSH1 0x0 KECCAK256 PUSH1 0x7 ADD PUSH1 0x0 PUSH2 0x100 EXP DUP2 SLOAD DUP2 PUSH1 0xFF MUL NOT AND SWAP1 DUP4 ISZERO ISZERO MUL OR SWAP1 SSTORE POP PUSH1 0x5 PUSH1 0xD PUSH1 0x0 DUP4 PUSH20 0xFFFFFFFFFFFFFFFFFFFFFFFFFFFFFFFFFFFFFFFF AND PUSH20 0xFFFFFFFFFFFFFFFFFFFFFFFFFFFFFFFFFFFFFFFF AND DUP2 MSTORE PUSH1 0x20 ADD SWAP1 DUP2 MSTORE PUSH1 0x20 ADD PUSH1 0x0 KECCAK256 PUSH1 0x0 ADD PUSH1 0x0 DUP3 DUP3 SLOAD PUSH2 0x33AD SWAP2 SWAP1 PUSH2 0x59CD JUMP JUMPDEST SWAP3 POP POP DUP2 SWAP1 SSTORE POP POP JUMP JUMPDEST PUSH1 0x0 PUSH2 0x33C2 CALLER PUSH2 0x209A JUMP JUMPDEST PUSH2 0x3401 JUMPI PUSH1 0x40 MLOAD PUSH32 0x8C379A000000000000000000000000000000000000000000000000000000000 DUP2 MSTORE PUSH1 0x4 ADD PUSH2 0x33F8 SWAP1 PUSH2 0x5726 JUMP JUMPDEST PUSH1 0x40 MLOAD DUP1 SWAP2 SUB SWAP1 REVERT JUMPDEST PUSH1 0x2 PUSH1 0xD PUSH1 0x0 CALLER PUSH20 0xFFFFFFFFFFFFFFFFFFFFFFFFFFFFFFFFFFFFFFFF AND PUSH20 0xFFFFFFFFFFFFFFFFFFFFFFFFFFFFFFFFFFFFFFFF AND DUP2 MSTORE PUSH1 0x20 ADD SWAP1 DUP2 MSTORE PUSH1 0x20 ADD PUSH1 0x0 KECCAK256 PUSH1 0x0 ADD SLOAD LT ISZERO PUSH2 0x3487 JUMPI PUSH1 0x40 MLOAD PUSH32 0x8C379A000000000000000000000000000000000000000000000000000000000 DUP2 MSTORE PUSH1 0x4 ADD PUSH2 0x347E SWAP1 PUSH2 0x5726 JUMP JUMPDEST PUSH1 0x40 MLOAD DUP1 SWAP2 SUB SWAP1 REVERT JUMPDEST PUSH1 0x2 PUSH1 0xD PUSH1 0x0 CALLER PUSH20 0xFFFFFFFFFFFFFFFFFFFFFFFFFFFFFFFFFFFFFFFF AND PUSH20 0xFFFFFFFFFFFFFFFFFFFFFFFFFFFFFFFFFFFFFFFF AND DUP2 MSTORE PUSH1 0x20 ADD SWAP1 DUP2 MSTORE PUSH1 0x20 ADD PUSH1 0x0 KECCAK256 PUSH1 0x0 ADD SLOAD GT DUP1 PUSH2 0x351A JUMPI POP TIMESTAMP PUSH1 0xD PUSH1 0x0 CALLER PUSH20 0xFFFFFFFFFFFFFFFFFFFFFFFFFFFFFFFFFFFFFFFF AND PUSH20 0xFFFFFFFFFFFFFFFFFFFFFFFFFFFFFFFFFFFFFFFF AND DUP2 MSTORE PUSH1 0x20 ADD SWAP1 DUP2 MSTORE PUSH1 0x20 ADD PUSH1 0x0 KECCAK256 PUSH1 0x6 ADD SLOAD GT ISZERO JUMPDEST PUSH2 0x3559 JUMPI PUSH1 0x40 MLOAD PUSH32 0x8C379A000000000000000000000000000000000000000000000000000000000 DUP2 MSTORE PUSH1 0x4 ADD PUSH2 0x3550 SWAP1 PUSH2 0x5486 JUMP JUMPDEST PUSH1 0x40 MLOAD DUP1 SWAP2 SUB SWAP1 REVERT JUMPDEST PUSH1 0xA SLOAD CALLVALUE LT ISZERO PUSH2 0x359E JUMPI PUSH1 0x40 MLOAD PUSH32 0x8C379A000000000000000000000000000000000000000000000000000000000 DUP2 MSTORE PUSH1 0x4 ADD PUSH2 0x3595 SWAP1 PUSH2 0x55C6 JUMP JUMPDEST PUSH1 0x40 MLOAD DUP1 SWAP2 SUB SWAP1 REVERT JUMPDEST PUSH1 0x0 DUP4 PUSH8 0xFFFFFFFFFFFFFFFF DUP2 GT ISZERO PUSH2 0x35E0 JUMPI PUSH32 0x4E487B7100000000000000000000000000000000000000000000000000000000 PUSH1 0x0 MSTORE PUSH1 0x41 PUSH1 0x4 MSTORE PUSH1 0x24 PUSH1 0x0 REVERT JUMPDEST PUSH1 0x40 MLOAD SWAP1 DUP1 DUP3 MSTORE DUP1 PUSH1 0x20 MUL PUSH1 0x20 ADD DUP3 ADD PUSH1 0x40 MSTORE DUP1 ISZERO PUSH2 0x360E JUMPI DUP2 PUSH1 0x20 ADD PUSH1 0x20 DUP3 MUL DUP1 CALLDATASIZE DUP4 CALLDATACOPY DUP1 DUP3 ADD SWAP2 POP POP SWAP1 POP JUMPDEST POP SWAP1 POP PUSH1 0x0 PUSH1 0x40 MLOAD DUP1 PUSH2 0x100 ADD PUSH1 0x40 MSTORE DUP1 DUP9 DUP2 MSTORE PUSH1 0x20 ADD CALLER PUSH20 0xFFFFFFFFFFFFFFFFFFFFFFFFFFFFFFFFFFFFFFFF AND DUP2 MSTORE PUSH1 0x20 ADD DUP8 DUP2 MSTORE PUSH1 0x20 ADD DUP6 DUP2 MSTORE PUSH1 0x20 ADD DUP5 DUP2 MSTORE PUSH1 0x20 ADD DUP7 DUP2 MSTORE PUSH1 0x20 ADD PUSH1 0x0 DUP2 MSTORE PUSH1 0x20 ADD DUP4 DUP2 MSTORE POP SWAP1 POP PUSH2 0x3671 ADDRESS PUSH1 0x2 PUSH2 0x2480 JUMP JUMPDEST POP PUSH1 0xA SLOAD PUSH1 0x7 PUSH1 0x0 DUP3 DUP3 SLOAD PUSH2 0x3686 SWAP2 SWAP1 PUSH2 0x59CD JUMP JUMPDEST SWAP3 POP POP DUP2 SWAP1 SSTORE POP PUSH1 0xF DUP2 SWAP1 DUP1 PUSH1 0x1 DUP2 SLOAD ADD DUP1 DUP3 SSTORE DUP1 SWAP2 POP POP PUSH1 0x1 SWAP1 SUB SWAP1 PUSH1 0x0 MSTORE PUSH1 0x20 PUSH1 0x0 KECCAK256 SWAP1 PUSH1 0x8 MUL ADD PUSH1 0x0 SWAP1 SWAP2 SWAP1 SWAP2 SWAP1 SWAP2 POP PUSH1 0x0 DUP3 ADD MLOAD DUP2 PUSH1 0x0 ADD SWAP1 DUP1 MLOAD SWAP1 PUSH1 0x20 ADD SWAP1 PUSH2 0x36D5 SWAP3 SWAP2 SWAP1 PUSH2 0x46EC JUMP JUMPDEST POP PUSH1 0x20 DUP3 ADD MLOAD DUP2 PUSH1 0x1 ADD PUSH1 0x0 PUSH2 0x100 EXP DUP2 SLOAD DUP2 PUSH20 0xFFFFFFFFFFFFFFFFFFFFFFFFFFFFFFFFFFFFFFFF MUL NOT AND SWAP1 DUP4 PUSH20 0xFFFFFFFFFFFFFFFFFFFFFFFFFFFFFFFFFFFFFFFF AND MUL OR SWAP1 SSTORE POP PUSH1 0x40 DUP3 ADD MLOAD DUP2 PUSH1 0x2 ADD SSTORE PUSH1 0x60 DUP3 ADD MLOAD DUP2 PUSH1 0x3 ADD SSTORE PUSH1 0x80 DUP3 ADD MLOAD DUP2 PUSH1 0x4 ADD SSTORE PUSH1 0xA0 DUP3 ADD MLOAD DUP2 PUSH1 0x5 ADD SSTORE PUSH1 0xC0 DUP3 ADD MLOAD DUP2 PUSH1 0x6 ADD SSTORE PUSH1 0xE0 DUP3 ADD MLOAD DUP2 PUSH1 0x7 ADD SWAP1 DUP1 MLOAD SWAP1 PUSH1 0x20 ADD SWAP1 PUSH2 0x376B SWAP3 SWAP2 SWAP1 PUSH2 0x469F JUMP JUMPDEST POP POP POP PUSH1 0x1 PUSH1 0xF DUP1 SLOAD SWAP1 POP PUSH2 0x3780 SWAP2 SWAP1 PUSH2 0x5A7D JUMP JUMPDEST SWAP3 POP DUP3 DUP2 PUSH1 0x80 ADD DUP2 DUP2 MSTORE POP POP PUSH1 0x0 DUP1 CALLER PUSH20 0xFFFFFFFFFFFFFFFFFFFFFFFFFFFFFFFFFFFFFFFF AND PUSH1 0xA SLOAD CALLVALUE PUSH2 0x37B4 SWAP2 SWAP1 PUSH2 0x5A7D JUMP JUMPDEST PUSH1 0x40 MLOAD PUSH2 0x37C0 SWAP1 PUSH2 0x520B JUMP JUMPDEST PUSH1 0x0 PUSH1 0x40 MLOAD DUP1 DUP4 SUB DUP2 DUP6 DUP8 GAS CALL SWAP3 POP POP POP RETURNDATASIZE DUP1 PUSH1 0x0 DUP2 EQ PUSH2 0x37FD JUMPI PUSH1 0x40 MLOAD SWAP2 POP PUSH1 0x1F NOT PUSH1 0x3F RETURNDATASIZE ADD AND DUP3 ADD PUSH1 0x40 MSTORE RETURNDATASIZE DUP3 MSTORE RETURNDATASIZE PUSH1 0x0 PUSH1 0x20 DUP5 ADD RETURNDATACOPY PUSH2 0x3802 JUMP JUMPDEST PUSH1 0x60 SWAP2 POP JUMPDEST POP SWAP2 POP SWAP2 POP DUP2 PUSH2 0x3847 JUMPI PUSH1 0x40 MLOAD PUSH32 0x8C379A000000000000000000000000000000000000000000000000000000000 DUP2 MSTORE PUSH1 0x4 ADD PUSH2 0x383E SWAP1 PUSH2 0x56C6 JUMP JUMPDEST PUSH1 0x40 MLOAD DUP1 SWAP2 SUB SWAP1 REVERT JUMPDEST POP POP POP POP SWAP5 SWAP4 POP POP POP POP JUMP JUMPDEST DUP2 PUSH1 0xC DUP1 SLOAD SWAP1 POP GT DUP1 ISZERO PUSH2 0x3868 JUMPI POP PUSH1 0x0 DUP3 LT ISZERO JUMPDEST PUSH2 0x38A7 JUMPI PUSH1 0x40 MLOAD PUSH32 0x8C379A000000000000000000000000000000000000000000000000000000000 DUP2 MSTORE PUSH1 0x4 ADD PUSH2 0x389E SWAP1 PUSH2 0x5446 JUMP JUMPDEST PUSH1 0x40 MLOAD DUP1 SWAP2 SUB SWAP1 REVERT JUMPDEST PUSH1 0x0 PUSH1 0xD PUSH1 0x0 CALLER PUSH20 0xFFFFFFFFFFFFFFFFFFFFFFFFFFFFFFFFFFFFFFFF AND PUSH20 0xFFFFFFFFFFFFFFFFFFFFFFFFFFFFFFFFFFFFFFFF AND DUP2 MSTORE PUSH1 0x20 ADD SWAP1 DUP2 MSTORE PUSH1 0x20 ADD PUSH1 0x0 KECCAK256 SWAP1 POP PUSH1 0x1 ISZERO ISZERO DUP2 PUSH1 0x2 ADD PUSH1 0x0 DUP6 DUP2 MSTORE PUSH1 0x20 ADD SWAP1 DUP2 MSTORE PUSH1 0x20 ADD PUSH1 0x0 KECCAK256 PUSH1 0x0 SWAP1 SLOAD SWAP1 PUSH2 0x100 EXP SWAP1 DIV PUSH1 0xFF AND ISZERO ISZERO EQ ISZERO PUSH2 0x3954 JUMPI PUSH1 0x40 MLOAD PUSH32 0x8C379A000000000000000000000000000000000000000000000000000000000 DUP2 MSTORE PUSH1 0x4 ADD PUSH2 0x394B SWAP1 PUSH2 0x55E6 JUMP JUMPDEST PUSH1 0x40 MLOAD DUP1 SWAP2 SUB SWAP1 REVERT JUMPDEST PUSH1 0x0 PUSH20 0xFFFFFFFFFFFFFFFFFFFFFFFFFFFFFFFFFFFFFFFF AND DUP2 PUSH1 0x5 ADD PUSH1 0x0 DUP6 DUP2 MSTORE PUSH1 0x20 ADD SWAP1 DUP2 MSTORE PUSH1 0x20 ADD PUSH1 0x0 KECCAK256 PUSH1 0x0 SWAP1 SLOAD SWAP1 PUSH2 0x100 EXP SWAP1 DIV PUSH20 0xFFFFFFFFFFFFFFFFFFFFFFFFFFFFFFFFFFFFFFFF AND PUSH20 0xFFFFFFFFFFFFFFFFFFFFFFFFFFFFFFFFFFFFFFFF AND EQ PUSH2 0x39F8 JUMPI PUSH1 0x40 MLOAD PUSH32 0x8C379A000000000000000000000000000000000000000000000000000000000 DUP2 MSTORE PUSH1 0x4 ADD PUSH2 0x39EF SWAP1 PUSH2 0x5786 JUMP JUMPDEST PUSH1 0x40 MLOAD DUP1 SWAP2 SUB SWAP1 REVERT JUMPDEST PUSH2 0x3A01 CALLER PUSH2 0x209A JUMP JUMPDEST PUSH2 0x3A40 JUMPI PUSH1 0x40 MLOAD PUSH32 0x8C379A000000000000000000000000000000000000000000000000000000000 DUP2 MSTORE PUSH1 0x4 ADD PUSH2 0x3A37 SWAP1 PUSH2 0x5706 JUMP JUMPDEST PUSH1 0x40 MLOAD DUP1 SWAP2 SUB SWAP1 REVERT JUMPDEST PUSH1 0x1 DUP2 PUSH1 0x2 ADD PUSH1 0x0 DUP6 DUP2 MSTORE PUSH1 0x20 ADD SWAP1 DUP2 MSTORE PUSH1 0x20 ADD PUSH1 0x0 KECCAK256 PUSH1 0x0 PUSH2 0x100 EXP DUP2 SLOAD DUP2 PUSH1 0xFF MUL NOT AND SWAP1 DUP4 ISZERO ISZERO MUL OR SWAP1 SSTORE POP DUP2 ISZERO PUSH2 0x3AD6 JUMPI PUSH1 0xC DUP4 DUP2 SLOAD DUP2 LT PUSH2 0x3AAE JUMPI PUSH32 0x4E487B7100000000000000000000000000000000000000000000000000000000 PUSH1 0x0 MSTORE PUSH1 0x32 PUSH1 0x4 MSTORE PUSH1 0x24 PUSH1 0x0 REVERT JUMPDEST SWAP1 PUSH1 0x0 MSTORE PUSH1 0x20 PUSH1 0x0 KECCAK256 SWAP1 PUSH1 0xA MUL ADD PUSH1 0x1 ADD PUSH1 0x0 DUP2 SLOAD DUP1 SWAP3 SWAP2 SWAP1 PUSH2 0x3AD0 SWAP1 PUSH2 0x5BBD JUMP JUMPDEST SWAP2 SWAP1 POP SSTORE POP JUMPDEST PUSH1 0xC DUP4 DUP2 SLOAD DUP2 LT PUSH2 0x3B10 JUMPI PUSH32 0x4E487B7100000000000000000000000000000000000000000000000000000000 PUSH1 0x0 MSTORE PUSH1 0x32 PUSH1 0x4 MSTORE PUSH1 0x24 PUSH1 0x0 REVERT JUMPDEST SWAP1 PUSH1 0x0 MSTORE PUSH1 0x20 PUSH1 0x0 KECCAK256 SWAP1 PUSH1 0xA MUL ADD PUSH1 0x3 ADD SLOAD DUP2 PUSH1 0x6 ADD SLOAD LT ISZERO PUSH2 0x3B82 JUMPI PUSH1 0xC DUP4 DUP2 SLOAD DUP2 LT PUSH2 0x3B67 JUMPI PUSH32 0x4E487B7100000000000000000000000000000000000000000000000000000000 PUSH1 0x0 MSTORE PUSH1 0x32 PUSH1 0x4 MSTORE PUSH1 0x24 PUSH1 0x0 REVERT JUMPDEST SWAP1 PUSH1 0x0 MSTORE PUSH1 0x20 PUSH1 0x0 KECCAK256 SWAP1 PUSH1 0xA MUL ADD PUSH1 0x3 ADD SLOAD DUP2 PUSH1 0x6 ADD DUP2 SWAP1 SSTORE POP JUMPDEST PUSH1 0x0 JUMPDEST DUP2 PUSH1 0x4 ADD DUP1 SLOAD SWAP1 POP DUP2 LT ISZERO PUSH2 0x3E20 JUMPI PUSH1 0x0 DUP3 PUSH1 0x4 ADD DUP3 DUP2 SLOAD DUP2 LT PUSH2 0x3BD2 JUMPI PUSH32 0x4E487B7100000000000000000000000000000000000000000000000000000000 PUSH1 0x0 MSTORE PUSH1 0x32 PUSH1 0x4 MSTORE PUSH1 0x24 PUSH1 0x0 REVERT JUMPDEST SWAP1 PUSH1 0x0 MSTORE PUSH1 0x20 PUSH1 0x0 KECCAK256 SWAP1 PUSH1 0x2 MUL ADD PUSH1 0x40 MLOAD DUP1 PUSH1 0x40 ADD PUSH1 0x40 MSTORE SWAP1 DUP2 PUSH1 0x0 DUP3 ADD SLOAD DUP2 MSTORE PUSH1 0x20 ADD PUSH1 0x1 DUP3 ADD PUSH1 0x0 SWAP1 SLOAD SWAP1 PUSH2 0x100 EXP SWAP1 DIV PUSH20 0xFFFFFFFFFFFFFFFFFFFFFFFFFFFFFFFFFFFFFFFF AND PUSH20 0xFFFFFFFFFFFFFFFFFFFFFFFFFFFFFFFFFFFFFFFF AND PUSH20 0xFFFFFFFFFFFFFFFFFFFFFFFFFFFFFFFFFFFFFFFF AND DUP2 MSTORE POP POP SWAP1 POP DUP5 DUP2 PUSH1 0x0 ADD MLOAD EQ ISZERO PUSH2 0x3E0C JUMPI PUSH1 0x0 PUSH1 0xD PUSH1 0x0 DUP4 PUSH1 0x20 ADD MLOAD PUSH20 0xFFFFFFFFFFFFFFFFFFFFFFFFFFFFFFFFFFFFFFFF AND PUSH20 0xFFFFFFFFFFFFFFFFFFFFFFFFFFFFFFFFFFFFFFFF AND DUP2 MSTORE PUSH1 0x20 ADD SWAP1 DUP2 MSTORE PUSH1 0x20 ADD PUSH1 0x0 KECCAK256 SWAP1 POP DUP1 PUSH1 0x2 ADD PUSH1 0x0 DUP8 DUP2 MSTORE PUSH1 0x20 ADD SWAP1 DUP2 MSTORE PUSH1 0x20 ADD PUSH1 0x0 KECCAK256 PUSH1 0x0 SWAP1 SLOAD SWAP1 PUSH2 0x100 EXP SWAP1 DIV PUSH1 0xFF AND PUSH2 0x3E0A JUMPI PUSH1 0x1 DUP2 PUSH1 0x2 ADD PUSH1 0x0 DUP9 DUP2 MSTORE PUSH1 0x20 ADD SWAP1 DUP2 MSTORE PUSH1 0x20 ADD PUSH1 0x0 KECCAK256 PUSH1 0x0 PUSH2 0x100 EXP DUP2 SLOAD DUP2 PUSH1 0xFF MUL NOT AND SWAP1 DUP4 ISZERO ISZERO MUL OR SWAP1 SSTORE POP PUSH1 0xC DUP7 DUP2 SLOAD DUP2 LT PUSH2 0x3D2F JUMPI PUSH32 0x4E487B7100000000000000000000000000000000000000000000000000000000 PUSH1 0x0 MSTORE PUSH1 0x32 PUSH1 0x4 MSTORE PUSH1 0x24 PUSH1 0x0 REVERT JUMPDEST SWAP1 PUSH1 0x0 MSTORE PUSH1 0x20 PUSH1 0x0 KECCAK256 SWAP1 PUSH1 0xA MUL ADD PUSH1 0x3 ADD SLOAD DUP2 PUSH1 0x6 ADD SLOAD LT ISZERO PUSH2 0x3DA1 JUMPI PUSH1 0xC DUP7 DUP2 SLOAD DUP2 LT PUSH2 0x3D86 JUMPI PUSH32 0x4E487B7100000000000000000000000000000000000000000000000000000000 PUSH1 0x0 MSTORE PUSH1 0x32 PUSH1 0x4 MSTORE PUSH1 0x24 PUSH1 0x0 REVERT JUMPDEST SWAP1 PUSH1 0x0 MSTORE PUSH1 0x20 PUSH1 0x0 KECCAK256 SWAP1 PUSH1 0xA MUL ADD PUSH1 0x3 ADD SLOAD DUP2 PUSH1 0x6 ADD DUP2 SWAP1 SSTORE POP JUMPDEST DUP5 ISZERO PUSH2 0x3E09 JUMPI PUSH1 0xC DUP7 DUP2 SLOAD DUP2 LT PUSH2 0x3DE1 JUMPI PUSH32 0x4E487B7100000000000000000000000000000000000000000000000000000000 PUSH1 0x0 MSTORE PUSH1 0x32 PUSH1 0x4 MSTORE PUSH1 0x24 PUSH1 0x0 REVERT JUMPDEST SWAP1 PUSH1 0x0 MSTORE PUSH1 0x20 PUSH1 0x0 KECCAK256 SWAP1 PUSH1 0xA MUL ADD PUSH1 0x1 ADD PUSH1 0x0 DUP2 SLOAD DUP1 SWAP3 SWAP2 SWAP1 PUSH2 0x3E03 SWAP1 PUSH2 0x5BBD JUMP JUMPDEST SWAP2 SWAP1 POP SSTORE POP JUMPDEST JUMPDEST POP JUMPDEST POP DUP1 DUP1 PUSH2 0x3E18 SWAP1 PUSH2 0x5BBD JUMP JUMPDEST SWAP2 POP POP PUSH2 0x3B85 JUMP JUMPDEST POP PUSH1 0xC DUP4 DUP2 SLOAD DUP2 LT PUSH2 0x3E5B JUMPI PUSH32 0x4E487B7100000000000000000000000000000000000000000000000000000000 PUSH1 0x0 MSTORE PUSH1 0x32 PUSH1 0x4 MSTORE PUSH1 0x24 PUSH1 0x0 REVERT JUMPDEST SWAP1 PUSH1 0x0 MSTORE PUSH1 0x20 PUSH1 0x0 KECCAK256 SWAP1 PUSH1 0xA MUL ADD PUSH1 0x1 ADD SLOAD PUSH1 0xA PUSH2 0x3E79 SWAP2 SWAP1 PUSH2 0x5A23 JUMP JUMPDEST PUSH1 0x9 SLOAD GT PUSH2 0x3EEA JUMPI PUSH1 0x1 PUSH1 0xC DUP5 DUP2 SLOAD DUP2 LT PUSH2 0x3EBD JUMPI PUSH32 0x4E487B7100000000000000000000000000000000000000000000000000000000 PUSH1 0x0 MSTORE PUSH1 0x32 PUSH1 0x4 MSTORE PUSH1 0x24 PUSH1 0x0 REVERT JUMPDEST SWAP1 PUSH1 0x0 MSTORE PUSH1 0x20 PUSH1 0x0 KECCAK256 SWAP1 PUSH1 0xA MUL ADD PUSH1 0x9 ADD PUSH1 0x0 PUSH2 0x100 EXP DUP2 SLOAD DUP2 PUSH1 0xFF MUL NOT AND SWAP1 DUP4 ISZERO ISZERO MUL OR SWAP1 SSTORE POP PUSH2 0x3F4F JUMP JUMPDEST PUSH1 0x0 PUSH1 0xC DUP5 DUP2 SLOAD DUP2 LT PUSH2 0x3F26 JUMPI PUSH32 0x4E487B7100000000000000000000000000000000000000000000000000000000 PUSH1 0x0 MSTORE PUSH1 0x32 PUSH1 0x4 MSTORE PUSH1 0x24 PUSH1 0x0 REVERT JUMPDEST SWAP1 PUSH1 0x0 MSTORE PUSH1 0x20 PUSH1 0x0 KECCAK256 SWAP1 PUSH1 0xA MUL ADD PUSH1 0x9 ADD PUSH1 0x0 PUSH2 0x100 EXP DUP2 SLOAD DUP2 PUSH1 0xFF MUL NOT AND SWAP1 DUP4 ISZERO ISZERO MUL OR SWAP1 SSTORE POP JUMPDEST POP POP POP JUMP JUMPDEST PUSH1 0x60 PUSH1 0x0 PUSH1 0x60 DUP1 PUSH1 0xC DUP6 DUP2 SLOAD DUP2 LT PUSH2 0x3F95 JUMPI PUSH32 0x4E487B7100000000000000000000000000000000000000000000000000000000 PUSH1 0x0 MSTORE PUSH1 0x32 PUSH1 0x4 MSTORE PUSH1 0x24 PUSH1 0x0 REVERT JUMPDEST SWAP1 PUSH1 0x0 MSTORE PUSH1 0x20 PUSH1 0x0 KECCAK256 SWAP1 PUSH1 0xA MUL ADD PUSH1 0x6 ADD DUP1 SLOAD PUSH2 0x3FB1 SWAP1 PUSH2 0x5B5A JUMP JUMPDEST DUP1 PUSH1 0x1F ADD PUSH1 0x20 DUP1 SWAP2 DIV MUL PUSH1 0x20 ADD PUSH1 0x40 MLOAD SWAP1 DUP2 ADD PUSH1 0x40 MSTORE DUP1 SWAP3 SWAP2 SWAP1 DUP2 DUP2 MSTORE PUSH1 0x20 ADD DUP3 DUP1 SLOAD PUSH2 0x3FDD SWAP1 PUSH2 0x5B5A JUMP JUMPDEST DUP1 ISZERO PUSH2 0x402A JUMPI DUP1 PUSH1 0x1F LT PUSH2 0x3FFF JUMPI PUSH2 0x100 DUP1 DUP4 SLOAD DIV MUL DUP4 MSTORE SWAP2 PUSH1 0x20 ADD SWAP2 PUSH2 0x402A JUMP JUMPDEST DUP3 ADD SWAP2 SWAP1 PUSH1 0x0 MSTORE PUSH1 0x20 PUSH1 0x0 KECCAK256 SWAP1 JUMPDEST DUP2 SLOAD DUP2 MSTORE SWAP1 PUSH1 0x1 ADD SWAP1 PUSH1 0x20 ADD DUP1 DUP4 GT PUSH2 0x400D JUMPI DUP3 SWAP1 SUB PUSH1 0x1F AND DUP3 ADD SWAP2 JUMPDEST POP POP POP POP POP SWAP4 POP PUSH1 0xC DUP6 DUP2 SLOAD DUP2 LT PUSH2 0x406B JUMPI PUSH32 0x4E487B7100000000000000000000000000000000000000000000000000000000 PUSH1 0x0 MSTORE PUSH1 0x32 PUSH1 0x4 MSTORE PUSH1 0x24 PUSH1 0x0 REVERT JUMPDEST SWAP1 PUSH1 0x0 MSTORE PUSH1 0x20 PUSH1 0x0 KECCAK256 SWAP1 PUSH1 0xA MUL ADD PUSH1 0x3 ADD SLOAD SWAP3 POP PUSH1 0xC DUP6 DUP2 SLOAD DUP2 LT PUSH2 0x40B9 JUMPI PUSH32 0x4E487B7100000000000000000000000000000000000000000000000000000000 PUSH1 0x0 MSTORE PUSH1 0x32 PUSH1 0x4 MSTORE PUSH1 0x24 PUSH1 0x0 REVERT JUMPDEST SWAP1 PUSH1 0x0 MSTORE PUSH1 0x20 PUSH1 0x0 KECCAK256 SWAP1 PUSH1 0xA MUL ADD PUSH1 0x4 ADD DUP1 SLOAD DUP1 PUSH1 0x20 MUL PUSH1 0x20 ADD PUSH1 0x40 MLOAD SWAP1 DUP2 ADD PUSH1 0x40 MSTORE DUP1 SWAP3 SWAP2 SWAP1 DUP2 DUP2 MSTORE PUSH1 0x20 ADD DUP3 DUP1 SLOAD DUP1 ISZERO PUSH2 0x4114 JUMPI PUSH1 0x20 MUL DUP3 ADD SWAP2 SWAP1 PUSH1 0x0 MSTORE PUSH1 0x20 PUSH1 0x0 KECCAK256 SWAP1 JUMPDEST DUP2 SLOAD DUP2 MSTORE PUSH1 0x20 ADD SWAP1 PUSH1 0x1 ADD SWAP1 DUP1 DUP4 GT PUSH2 0x4100 JUMPI JUMPDEST POP POP POP POP POP SWAP2 POP PUSH1 0xC DUP6 DUP2 SLOAD DUP2 LT PUSH2 0x4155 JUMPI PUSH32 0x4E487B7100000000000000000000000000000000000000000000000000000000 PUSH1 0x0 MSTORE PUSH1 0x32 PUSH1 0x4 MSTORE PUSH1 0x24 PUSH1 0x0 REVERT JUMPDEST SWAP1 PUSH1 0x0 MSTORE PUSH1 0x20 PUSH1 0x0 KECCAK256 SWAP1 PUSH1 0xA MUL ADD PUSH1 0x5 ADD DUP1 SLOAD DUP1 PUSH1 0x20 MUL PUSH1 0x20 ADD PUSH1 0x40 MLOAD SWAP1 DUP2 ADD PUSH1 0x40 MSTORE DUP1 SWAP3 SWAP2 SWAP1 DUP2 DUP2 MSTORE PUSH1 0x20 ADD DUP3 DUP1 SLOAD DUP1 ISZERO PUSH2 0x41B0 JUMPI PUSH1 0x20 MUL DUP3 ADD SWAP2 SWAP1 PUSH1 0x0 MSTORE PUSH1 0x20 PUSH1 0x0 KECCAK256 SWAP1 JUMPDEST DUP2 SLOAD DUP2 MSTORE PUSH1 0x20 ADD SWAP1 PUSH1 0x1 ADD SWAP1 DUP1 DUP4 GT PUSH2 0x419C JUMPI JUMPDEST POP POP POP POP POP SWAP1 POP SWAP2 SWAP4 POP SWAP2 SWAP4 JUMP JUMPDEST PUSH1 0x0 CALLER SWAP1 POP SWAP1 JUMP JUMPDEST PUSH1 0x0 PUSH20 0xFFFFFFFFFFFFFFFFFFFFFFFFFFFFFFFFFFFFFFFF AND DUP4 PUSH20 0xFFFFFFFFFFFFFFFFFFFFFFFFFFFFFFFFFFFFFFFF AND EQ ISZERO PUSH2 0x4236 JUMPI PUSH1 0x40 MLOAD PUSH32 0x8C379A000000000000000000000000000000000000000000000000000000000 DUP2 MSTORE PUSH1 0x4 ADD PUSH2 0x422D SWAP1 PUSH2 0x5746 JUMP JUMPDEST PUSH1 0x40 MLOAD DUP1 SWAP2 SUB SWAP1 REVERT JUMPDEST PUSH1 0x0 PUSH20 0xFFFFFFFFFFFFFFFFFFFFFFFFFFFFFFFFFFFFFFFF AND DUP3 PUSH20 0xFFFFFFFFFFFFFFFFFFFFFFFFFFFFFFFFFFFFFFFF AND EQ ISZERO PUSH2 0x42A6 JUMPI PUSH1 0x40 MLOAD PUSH32 0x8C379A000000000000000000000000000000000000000000000000000000000 DUP2 MSTORE PUSH1 0x4 ADD PUSH2 0x429D SWAP1 PUSH2 0x5466 JUMP JUMPDEST PUSH1 0x40 MLOAD DUP1 SWAP2 SUB SWAP1 REVERT JUMPDEST DUP1 PUSH1 0x1 PUSH1 0x0 DUP6 PUSH20 0xFFFFFFFFFFFFFFFFFFFFFFFFFFFFFFFFFFFFFFFF AND PUSH20 0xFFFFFFFFFFFFFFFFFFFFFFFFFFFFFFFFFFFFFFFF AND DUP2 MSTORE PUSH1 0x20 ADD SWAP1 DUP2 MSTORE PUSH1 0x20 ADD PUSH1 0x0 KECCAK256 PUSH1 0x0 DUP5 PUSH20 0xFFFFFFFFFFFFFFFFFFFFFFFFFFFFFFFFFFFFFFFF AND PUSH20 0xFFFFFFFFFFFFFFFFFFFFFFFFFFFFFFFFFFFFFFFF AND DUP2 MSTORE PUSH1 0x20 ADD SWAP1 DUP2 MSTORE PUSH1 0x20 ADD PUSH1 0x0 KECCAK256 DUP2 SWAP1 SSTORE POP DUP2 PUSH20 0xFFFFFFFFFFFFFFFFFFFFFFFFFFFFFFFFFFFFFFFF AND DUP4 PUSH20 0xFFFFFFFFFFFFFFFFFFFFFFFFFFFFFFFFFFFFFFFF AND PUSH32 0x8C5BE1E5EBEC7D5BD14F71427D1E84F3DD0314C0F7B2291E5B200AC8C7C3B925 DUP4 PUSH1 0x40 MLOAD PUSH2 0x4384 SWAP2 SWAP1 PUSH2 0x57E6 JUMP JUMPDEST PUSH1 0x40 MLOAD DUP1 SWAP2 SUB SWAP1 LOG3 POP POP POP JUMP JUMPDEST PUSH1 0x0 PUSH2 0x439D DUP5 DUP5 PUSH2 0x3109 JUMP JUMPDEST SWAP1 POP PUSH32 0xFFFFFFFFFFFFFFFFFFFFFFFFFFFFFFFFFFFFFFFFFFFFFFFFFFFFFFFFFFFFFFFF DUP2 EQ PUSH2 0x4417 JUMPI DUP2 DUP2 LT ISZERO PUSH2 0x4409 JUMPI PUSH1 0x40 MLOAD PUSH32 0x8C379A000000000000000000000000000000000000000000000000000000000 DUP2 MSTORE PUSH1 0x4 ADD PUSH2 0x4400 SWAP1 PUSH2 0x54C6 JUMP JUMPDEST PUSH1 0x40 MLOAD DUP1 SWAP2 SUB SWAP1 REVERT JUMPDEST PUSH2 0x4416 DUP5 DUP5 DUP5 DUP5 SUB PUSH2 0x41C6 JUMP JUMPDEST JUMPDEST POP POP POP POP JUMP JUMPDEST PUSH1 0x0 PUSH20 0xFFFFFFFFFFFFFFFFFFFFFFFFFFFFFFFFFFFFFFFF AND DUP4 PUSH20 0xFFFFFFFFFFFFFFFFFFFFFFFFFFFFFFFFFFFFFFFF AND EQ ISZERO PUSH2 0x448D JUMPI PUSH1 0x40 MLOAD PUSH32 0x8C379A000000000000000000000000000000000000000000000000000000000 DUP2 MSTORE PUSH1 0x4 ADD PUSH2 0x4484 SWAP1 PUSH2 0x56E6 JUMP JUMPDEST PUSH1 0x40 MLOAD DUP1 SWAP2 SUB SWAP1 REVERT JUMPDEST PUSH1 0x0 PUSH20 0xFFFFFFFFFFFFFFFFFFFFFFFFFFFFFFFFFFFFFFFF AND DUP3 PUSH20 0xFFFFFFFFFFFFFFFFFFFFFFFFFFFFFFFFFFFFFFFF AND EQ ISZERO PUSH2 0x44FD JUMPI PUSH1 0x40 MLOAD PUSH32 0x8C379A000000000000000000000000000000000000000000000000000000000 DUP2 MSTORE PUSH1 0x4 ADD PUSH2 0x44F4 SWAP1 PUSH2 0x53E6 JUMP JUMPDEST PUSH1 0x40 MLOAD DUP1 SWAP2 SUB SWAP1 REVERT JUMPDEST PUSH2 0x4508 DUP4 DUP4 DUP4 PUSH2 0x4695 JUMP JUMPDEST PUSH1 0x0 DUP1 PUSH1 0x0 DUP6 PUSH20 0xFFFFFFFFFFFFFFFFFFFFFFFFFFFFFFFFFFFFFFFF AND PUSH20 0xFFFFFFFFFFFFFFFFFFFFFFFFFFFFFFFFFFFFFFFF AND DUP2 MSTORE PUSH1 0x20 ADD SWAP1 DUP2 MSTORE PUSH1 0x20 ADD PUSH1 0x0 KECCAK256 SLOAD SWAP1 POP DUP2 DUP2 LT ISZERO PUSH2 0x458E JUMPI PUSH1 0x40 MLOAD PUSH32 0x8C379A000000000000000000000000000000000000000000000000000000000 DUP2 MSTORE PUSH1 0x4 ADD PUSH2 0x4585 SWAP1 PUSH2 0x5526 JUMP JUMPDEST PUSH1 0x40 MLOAD DUP1 SWAP2 SUB SWAP1 REVERT JUMPDEST DUP2 DUP2 SUB PUSH1 0x0 DUP1 DUP7 PUSH20 0xFFFFFFFFFFFFFFFFFFFFFFFFFFFFFFFFFFFFFFFF AND PUSH20 0xFFFFFFFFFFFFFFFFFFFFFFFFFFFFFFFFFFFFFFFF AND DUP2 MSTORE PUSH1 0x20 ADD SWAP1 DUP2 MSTORE PUSH1 0x20 ADD PUSH1 0x0 KECCAK256 DUP2 SWAP1 SSTORE POP DUP2 PUSH1 0x0 DUP1 DUP6 PUSH20 0xFFFFFFFFFFFFFFFFFFFFFFFFFFFFFFFFFFFFFFFF AND PUSH20 0xFFFFFFFFFFFFFFFFFFFFFFFFFFFFFFFFFFFFFFFF AND DUP2 MSTORE PUSH1 0x20 ADD SWAP1 DUP2 MSTORE PUSH1 0x20 ADD PUSH1 0x0 KECCAK256 PUSH1 0x0 DUP3 DUP3 SLOAD ADD SWAP3 POP POP DUP2 SWAP1 SSTORE POP DUP3 PUSH20 0xFFFFFFFFFFFFFFFFFFFFFFFFFFFFFFFFFFFFFFFF AND DUP5 PUSH20 0xFFFFFFFFFFFFFFFFFFFFFFFFFFFFFFFFFFFFFFFF AND PUSH32 0xDDF252AD1BE2C89B69C2B068FC378DAA952BA7F163C4A11628F55A4DF523B3EF DUP5 PUSH1 0x40 MLOAD PUSH2 0x467C SWAP2 SWAP1 PUSH2 0x57E6 JUMP JUMPDEST PUSH1 0x40 MLOAD DUP1 SWAP2 SUB SWAP1 LOG3 PUSH2 0x468F DUP5 DUP5 DUP5 PUSH2 0x469A JUMP JUMPDEST POP POP POP POP JUMP JUMPDEST POP POP POP JUMP JUMPDEST POP POP POP JUMP JUMPDEST DUP3 DUP1 SLOAD DUP3 DUP3 SSTORE SWAP1 PUSH1 0x0 MSTORE PUSH1 0x20 PUSH1 0x0 KECCAK256 SWAP1 DUP2 ADD SWAP3 DUP3 ISZERO PUSH2 0x46DB JUMPI SWAP2 PUSH1 0x20 MUL DUP3 ADD JUMPDEST DUP3 DUP2 GT ISZERO PUSH2 0x46DA JUMPI DUP3 MLOAD DUP3 SSTORE SWAP2 PUSH1 0x20 ADD SWAP2 SWAP1 PUSH1 0x1 ADD SWAP1 PUSH2 0x46BF JUMP JUMPDEST JUMPDEST POP SWAP1 POP PUSH2 0x46E8 SWAP2 SWAP1 PUSH2 0x4818 JUMP JUMPDEST POP SWAP1 JUMP JUMPDEST DUP3 DUP1 SLOAD PUSH2 0x46F8 SWAP1 PUSH2 0x5B5A JUMP JUMPDEST SWAP1 PUSH1 0x0 MSTORE PUSH1 0x20 PUSH1 0x0 KECCAK256 SWAP1 PUSH1 0x1F ADD PUSH1 0x20 SWAP1 DIV DUP2 ADD SWAP3 DUP3 PUSH2 0x471A JUMPI PUSH1 0x0 DUP6 SSTORE PUSH2 0x4761 JUMP JUMPDEST DUP3 PUSH1 0x1F LT PUSH2 0x4733 JUMPI DUP1 MLOAD PUSH1 0xFF NOT AND DUP4 DUP1 ADD OR DUP6 SSTORE PUSH2 0x4761 JUMP JUMPDEST DUP3 DUP1 ADD PUSH1 0x1 ADD DUP6 SSTORE DUP3 ISZERO PUSH2 0x4761 JUMPI SWAP2 DUP3 ADD JUMPDEST DUP3 DUP2 GT ISZERO PUSH2 0x4760 JUMPI DUP3 MLOAD DUP3 SSTORE SWAP2 PUSH1 0x20 ADD SWAP2 SWAP1 PUSH1 0x1 ADD SWAP1 PUSH2 0x4745 JUMP JUMPDEST JUMPDEST POP SWAP1 POP PUSH2 0x476E SWAP2 SWAP1 PUSH2 0x4818 JUMP JUMPDEST POP SWAP1 JUMP JUMPDEST DUP3 DUP1 SLOAD DUP3 DUP3 SSTORE SWAP1 PUSH1 0x0 MSTORE PUSH1 0x20 PUSH1 0x0 KECCAK256 SWAP1 PUSH1 0x1F ADD PUSH1 0x20 SWAP1 DIV DUP2 ADD SWAP3 DUP3 ISZERO PUSH2 0x4807 JUMPI SWAP2 PUSH1 0x20 MUL DUP3 ADD PUSH1 0x0 JUMPDEST DUP4 DUP3 GT ISZERO PUSH2 0x47D8 JUMPI DUP4 MLOAD DUP4 DUP3 PUSH2 0x100 EXP DUP2 SLOAD DUP2 PUSH1 0xFF MUL NOT AND SWAP1 DUP4 ISZERO ISZERO MUL OR SWAP1 SSTORE POP SWAP3 PUSH1 0x20 ADD SWAP3 PUSH1 0x1 ADD PUSH1 0x20 DUP2 PUSH1 0x0 ADD DIV SWAP3 DUP4 ADD SWAP3 PUSH1 0x1 SUB MUL PUSH2 0x479B JUMP JUMPDEST DUP1 ISZERO PUSH2 0x4805 JUMPI DUP3 DUP2 PUSH2 0x100 EXP DUP2 SLOAD SWAP1 PUSH1 0xFF MUL NOT AND SWAP1 SSTORE PUSH1 0x1 ADD PUSH1 0x20 DUP2 PUSH1 0x0 ADD DIV SWAP3 DUP4 ADD SWAP3 PUSH1 0x1 SUB MUL PUSH2 0x47D8 JUMP JUMPDEST POP JUMPDEST POP SWAP1 POP PUSH2 0x4814 SWAP2 SWAP1 PUSH2 0x4818 JUMP JUMPDEST POP SWAP1 JUMP JUMPDEST JUMPDEST DUP1 DUP3 GT ISZERO PUSH2 0x4831 JUMPI PUSH1 0x0 DUP2 PUSH1 0x0 SWAP1 SSTORE POP PUSH1 0x1 ADD PUSH2 0x4819 JUMP JUMPDEST POP SWAP1 JUMP JUMPDEST PUSH1 0x0 PUSH2 0x4848 PUSH2 0x4843 DUP5 PUSH2 0x5910 JUMP JUMPDEST PUSH2 0x58EB JUMP JUMPDEST SWAP1 POP DUP1 DUP4 DUP3 MSTORE PUSH1 0x20 DUP3 ADD SWAP1 POP DUP3 DUP6 PUSH1 0x20 DUP7 MUL DUP3 ADD GT ISZERO PUSH2 0x4867 JUMPI PUSH1 0x0 DUP1 REVERT JUMPDEST PUSH1 0x0 JUMPDEST DUP6 DUP2 LT ISZERO PUSH2 0x4897 JUMPI DUP2 PUSH2 0x487D DUP9 DUP3 PUSH2 0x4972 JUMP JUMPDEST DUP5 MSTORE PUSH1 0x20 DUP5 ADD SWAP4 POP PUSH1 0x20 DUP4 ADD SWAP3 POP POP PUSH1 0x1 DUP2 ADD SWAP1 POP PUSH2 0x486A JUMP JUMPDEST POP POP POP SWAP4 SWAP3 POP POP POP JUMP JUMPDEST PUSH1 0x0 PUSH2 0x48B4 PUSH2 0x48AF DUP5 PUSH2 0x593C JUMP JUMPDEST PUSH2 0x58EB JUMP JUMPDEST SWAP1 POP DUP3 DUP2 MSTORE PUSH1 0x20 DUP2 ADD DUP5 DUP5 DUP5 ADD GT ISZERO PUSH2 0x48CC JUMPI PUSH1 0x0 DUP1 REVERT JUMPDEST PUSH2 0x48D7 DUP5 DUP3 DUP6 PUSH2 0x5B18 JUMP JUMPDEST POP SWAP4 SWAP3 POP POP POP JUMP JUMPDEST PUSH1 0x0 DUP2 CALLDATALOAD SWAP1 POP PUSH2 0x48EE DUP2 PUSH2 0x6531 JUMP JUMPDEST SWAP3 SWAP2 POP POP JUMP JUMPDEST PUSH1 0x0 DUP3 PUSH1 0x1F DUP4 ADD SLT PUSH2 0x4905 JUMPI PUSH1 0x0 DUP1 REVERT JUMPDEST DUP2 CALLDATALOAD PUSH2 0x4915 DUP5 DUP3 PUSH1 0x20 DUP7 ADD PUSH2 0x4835 JUMP JUMPDEST SWAP2 POP POP SWAP3 SWAP2 POP POP JUMP JUMPDEST PUSH1 0x0 DUP2 CALLDATALOAD SWAP1 POP PUSH2 0x492D DUP2 PUSH2 0x6548 JUMP JUMPDEST SWAP3 SWAP2 POP POP JUMP JUMPDEST PUSH1 0x0 DUP2 MLOAD SWAP1 POP PUSH2 0x4942 DUP2 PUSH2 0x6548 JUMP JUMPDEST SWAP3 SWAP2 POP POP JUMP JUMPDEST PUSH1 0x0 DUP3 PUSH1 0x1F DUP4 ADD SLT PUSH2 0x4959 JUMPI PUSH1 0x0 DUP1 REVERT JUMPDEST DUP2 CALLDATALOAD PUSH2 0x4969 DUP5 DUP3 PUSH1 0x20 DUP7 ADD PUSH2 0x48A1 JUMP JUMPDEST SWAP2 POP POP SWAP3 SWAP2 POP POP JUMP JUMPDEST PUSH1 0x0 DUP2 CALLDATALOAD SWAP1 POP PUSH2 0x4981 DUP2 PUSH2 0x655F JUMP JUMPDEST SWAP3 SWAP2 POP POP JUMP JUMPDEST PUSH1 0x0 PUSH1 0x20 DUP3 DUP5 SUB SLT ISZERO PUSH2 0x4999 JUMPI PUSH1 0x0 DUP1 REVERT JUMPDEST PUSH1 0x0 PUSH2 0x49A7 DUP5 DUP3 DUP6 ADD PUSH2 0x48DF JUMP JUMPDEST SWAP2 POP POP SWAP3 SWAP2 POP POP JUMP JUMPDEST PUSH1 0x0 DUP1 PUSH1 0x40 DUP4 DUP6 SUB SLT ISZERO PUSH2 0x49C3 JUMPI PUSH1 0x0 DUP1 REVERT JUMPDEST PUSH1 0x0 PUSH2 0x49D1 DUP6 DUP3 DUP7 ADD PUSH2 0x48DF JUMP JUMPDEST SWAP3 POP POP PUSH1 0x20 PUSH2 0x49E2 DUP6 DUP3 DUP7 ADD PUSH2 0x48DF JUMP JUMPDEST SWAP2 POP POP SWAP3 POP SWAP3 SWAP1 POP JUMP JUMPDEST PUSH1 0x0 DUP1 PUSH1 0x0 PUSH1 0x60 DUP5 DUP7 SUB SLT ISZERO PUSH2 0x4A01 JUMPI PUSH1 0x0 DUP1 REVERT JUMPDEST PUSH1 0x0 PUSH2 0x4A0F DUP7 DUP3 DUP8 ADD PUSH2 0x48DF JUMP JUMPDEST SWAP4 POP POP PUSH1 0x20 PUSH2 0x4A20 DUP7 DUP3 DUP8 ADD PUSH2 0x48DF JUMP JUMPDEST SWAP3 POP POP PUSH1 0x40 PUSH2 0x4A31 DUP7 DUP3 DUP8 ADD PUSH2 0x4972 JUMP JUMPDEST SWAP2 POP POP SWAP3 POP SWAP3 POP SWAP3 JUMP JUMPDEST PUSH1 0x0 DUP1 PUSH1 0x40 DUP4 DUP6 SUB SLT ISZERO PUSH2 0x4A4E JUMPI PUSH1 0x0 DUP1 REVERT JUMPDEST PUSH1 0x0 PUSH2 0x4A5C DUP6 DUP3 DUP7 ADD PUSH2 0x48DF JUMP JUMPDEST SWAP3 POP POP PUSH1 0x20 PUSH2 0x4A6D DUP6 DUP3 DUP7 ADD PUSH2 0x4972 JUMP JUMPDEST SWAP2 POP POP SWAP3 POP SWAP3 SWAP1 POP JUMP JUMPDEST PUSH1 0x0 PUSH1 0x20 DUP3 DUP5 SUB SLT ISZERO PUSH2 0x4A89 JUMPI PUSH1 0x0 DUP1 REVERT JUMPDEST PUSH1 0x0 PUSH2 0x4A97 DUP5 DUP3 DUP6 ADD PUSH2 0x4933 JUMP JUMPDEST SWAP2 POP POP SWAP3 SWAP2 POP POP JUMP JUMPDEST PUSH1 0x0 DUP1 PUSH1 0x0 DUP1 PUSH1 0x80 DUP6 DUP8 SUB SLT ISZERO PUSH2 0x4AB6 JUMPI PUSH1 0x0 DUP1 REVERT JUMPDEST PUSH1 0x0 DUP6 ADD CALLDATALOAD PUSH8 0xFFFFFFFFFFFFFFFF DUP2 GT ISZERO PUSH2 0x4AD0 JUMPI PUSH1 0x0 DUP1 REVERT JUMPDEST PUSH2 0x4ADC DUP8 DUP3 DUP9 ADD PUSH2 0x4948 JUMP JUMPDEST SWAP5 POP POP PUSH1 0x20 PUSH2 0x4AED DUP8 DUP3 DUP9 ADD PUSH2 0x4972 JUMP JUMPDEST SWAP4 POP POP PUSH1 0x40 DUP6 ADD CALLDATALOAD PUSH8 0xFFFFFFFFFFFFFFFF DUP2 GT ISZERO PUSH2 0x4B0A JUMPI PUSH1 0x0 DUP1 REVERT JUMPDEST PUSH2 0x4B16 DUP8 DUP3 DUP9 ADD PUSH2 0x48F4 JUMP JUMPDEST SWAP3 POP POP PUSH1 0x60 DUP6 ADD CALLDATALOAD PUSH8 0xFFFFFFFFFFFFFFFF DUP2 GT ISZERO PUSH2 0x4B33 JUMPI PUSH1 0x0 DUP1 REVERT JUMPDEST PUSH2 0x4B3F DUP8 DUP3 DUP9 ADD PUSH2 0x48F4 JUMP JUMPDEST SWAP2 POP POP SWAP3 SWAP6 SWAP2 SWAP5 POP SWAP3 POP JUMP JUMPDEST PUSH1 0x0 DUP1 PUSH1 0x0 DUP1 PUSH1 0x80 DUP6 DUP8 SUB SLT ISZERO PUSH2 0x4B61 JUMPI PUSH1 0x0 DUP1 REVERT JUMPDEST PUSH1 0x0 DUP6 ADD CALLDATALOAD PUSH8 0xFFFFFFFFFFFFFFFF DUP2 GT ISZERO PUSH2 0x4B7B JUMPI PUSH1 0x0 DUP1 REVERT JUMPDEST PUSH2 0x4B87 DUP8 DUP3 DUP9 ADD PUSH2 0x4948 JUMP JUMPDEST SWAP5 POP POP PUSH1 0x20 PUSH2 0x4B98 DUP8 DUP3 DUP9 ADD PUSH2 0x4972 JUMP JUMPDEST SWAP4 POP POP PUSH1 0x40 PUSH2 0x4BA9 DUP8 DUP3 DUP9 ADD PUSH2 0x4972 JUMP JUMPDEST SWAP3 POP POP PUSH1 0x60 PUSH2 0x4BBA DUP8 DUP3 DUP9 ADD PUSH2 0x4972 JUMP JUMPDEST SWAP2 POP POP SWAP3 SWAP6 SWAP2 SWAP5 POP SWAP3 POP JUMP JUMPDEST PUSH1 0x0 PUSH1 0x20 DUP3 DUP5 SUB SLT ISZERO PUSH2 0x4BD8 JUMPI PUSH1 0x0 DUP1 REVERT JUMPDEST PUSH1 0x0 PUSH2 0x4BE6 DUP5 DUP3 DUP6 ADD PUSH2 0x4972 JUMP JUMPDEST SWAP2 POP POP SWAP3 SWAP2 POP POP JUMP JUMPDEST PUSH1 0x0 DUP1 PUSH1 0x40 DUP4 DUP6 SUB SLT ISZERO PUSH2 0x4C02 JUMPI PUSH1 0x0 DUP1 REVERT JUMPDEST PUSH1 0x0 PUSH2 0x4C10 DUP6 DUP3 DUP7 ADD PUSH2 0x4972 JUMP JUMPDEST SWAP3 POP POP PUSH1 0x20 DUP4 ADD CALLDATALOAD PUSH8 0xFFFFFFFFFFFFFFFF DUP2 GT ISZERO PUSH2 0x4C2D JUMPI PUSH1 0x0 DUP1 REVERT JUMPDEST PUSH2 0x4C39 DUP6 DUP3 DUP7 ADD PUSH2 0x48F4 JUMP JUMPDEST SWAP2 POP POP SWAP3 POP SWAP3 SWAP1 POP JUMP JUMPDEST PUSH1 0x0 DUP1 PUSH1 0x40 DUP4 DUP6 SUB SLT ISZERO PUSH2 0x4C56 JUMPI PUSH1 0x0 DUP1 REVERT JUMPDEST PUSH1 0x0 PUSH2 0x4C64 DUP6 DUP3 DUP7 ADD PUSH2 0x4972 JUMP JUMPDEST SWAP3 POP POP PUSH1 0x20 PUSH2 0x4C75 DUP6 DUP3 DUP7 ADD PUSH2 0x491E JUMP JUMPDEST SWAP2 POP POP SWAP3 POP SWAP3 SWAP1 POP JUMP JUMPDEST PUSH1 0x0 PUSH2 0x4C8B DUP4 DUP4 PUSH2 0x51DE JUMP JUMPDEST PUSH1 0x20 DUP4 ADD SWAP1 POP SWAP3 SWAP2 POP POP JUMP JUMPDEST PUSH2 0x4CA0 DUP2 PUSH2 0x5AB1 JUMP JUMPDEST DUP3 MSTORE POP POP JUMP JUMPDEST PUSH1 0x0 PUSH2 0x4CB1 DUP3 PUSH2 0x597D JUMP JUMPDEST PUSH2 0x4CBB DUP2 DUP6 PUSH2 0x59A0 JUMP JUMPDEST SWAP4 POP PUSH2 0x4CC6 DUP4 PUSH2 0x596D JUMP JUMPDEST DUP1 PUSH1 0x0 JUMPDEST DUP4 DUP2 LT ISZERO PUSH2 0x4CF7 JUMPI DUP2 MLOAD PUSH2 0x4CDE DUP9 DUP3 PUSH2 0x4C7F JUMP JUMPDEST SWAP8 POP PUSH2 0x4CE9 DUP4 PUSH2 0x5993 JUMP JUMPDEST SWAP3 POP POP PUSH1 0x1 DUP2 ADD SWAP1 POP PUSH2 0x4CCA JUMP JUMPDEST POP DUP6 SWAP4 POP POP POP POP SWAP3 SWAP2 POP POP JUMP JUMPDEST PUSH2 0x4D0D DUP2 PUSH2 0x5AC3 JUMP JUMPDEST DUP3 MSTORE POP POP JUMP JUMPDEST PUSH2 0x4D1C DUP2 PUSH2 0x5B06 JUMP JUMPDEST DUP3 MSTORE POP POP JUMP JUMPDEST PUSH1 0x0 PUSH2 0x4D2D DUP3 PUSH2 0x5988 JUMP JUMPDEST PUSH2 0x4D37 DUP2 DUP6 PUSH2 0x59BC JUMP JUMPDEST SWAP4 POP PUSH2 0x4D47 DUP2 DUP6 PUSH1 0x20 DUP7 ADD PUSH2 0x5B27 JUMP JUMPDEST PUSH2 0x4D50 DUP2 PUSH2 0x5C93 JUMP JUMPDEST DUP5 ADD SWAP2 POP POP SWAP3 SWAP2 POP POP JUMP JUMPDEST PUSH1 0x0 PUSH2 0x4D68 PUSH1 0x23 DUP4 PUSH2 0x59BC JUMP JUMPDEST SWAP2 POP PUSH2 0x4D73 DUP3 PUSH2 0x5CA4 JUMP JUMPDEST PUSH1 0x40 DUP3 ADD SWAP1 POP SWAP2 SWAP1 POP JUMP JUMPDEST PUSH1 0x0 PUSH2 0x4D8B PUSH1 0x2D DUP4 PUSH2 0x59BC JUMP JUMPDEST SWAP2 POP PUSH2 0x4D96 DUP3 PUSH2 0x5CF3 JUMP JUMPDEST PUSH1 0x40 DUP3 ADD SWAP1 POP SWAP2 SWAP1 POP JUMP JUMPDEST PUSH1 0x0 PUSH2 0x4DAE PUSH1 0x24 DUP4 PUSH2 0x59BC JUMP JUMPDEST SWAP2 POP PUSH2 0x4DB9 DUP3 PUSH2 0x5D42 JUMP JUMPDEST PUSH1 0x40 DUP3 ADD SWAP1 POP SWAP2 SWAP1 POP JUMP JUMPDEST PUSH1 0x0 PUSH2 0x4DD1 PUSH1 0x25 DUP4 PUSH2 0x59BC JUMP JUMPDEST SWAP2 POP PUSH2 0x4DDC DUP3 PUSH2 0x5D91 JUMP JUMPDEST PUSH1 0x40 DUP3 ADD SWAP1 POP SWAP2 SWAP1 POP JUMP JUMPDEST PUSH1 0x0 PUSH2 0x4DF4 PUSH1 0x22 DUP4 PUSH2 0x59BC JUMP JUMPDEST SWAP2 POP PUSH2 0x4DFF DUP3 PUSH2 0x5DE0 JUMP JUMPDEST PUSH1 0x40 DUP3 ADD SWAP1 POP SWAP2 SWAP1 POP JUMP JUMPDEST PUSH1 0x0 PUSH2 0x4E17 PUSH1 0x1 DUP4 PUSH2 0x59BC JUMP JUMPDEST SWAP2 POP PUSH2 0x4E22 DUP3 PUSH2 0x5E2F JUMP JUMPDEST PUSH1 0x20 DUP3 ADD SWAP1 POP SWAP2 SWAP1 POP JUMP JUMPDEST PUSH1 0x0 PUSH2 0x4E3A PUSH1 0x28 DUP4 PUSH2 0x59BC JUMP JUMPDEST SWAP2 POP PUSH2 0x4E45 DUP3 PUSH2 0x5E58 JUMP JUMPDEST PUSH1 0x40 DUP3 ADD SWAP1 POP SWAP2 SWAP1 POP JUMP JUMPDEST PUSH1 0x0 PUSH2 0x4E5D PUSH1 0x1D DUP4 PUSH2 0x59BC JUMP JUMPDEST SWAP2 POP PUSH2 0x4E68 DUP3 PUSH2 0x5EA7 JUMP JUMPDEST PUSH1 0x20 DUP3 ADD SWAP1 POP SWAP2 SWAP1 POP JUMP JUMPDEST PUSH1 0x0 PUSH2 0x4E80 PUSH1 0x26 DUP4 PUSH2 0x59BC JUMP JUMPDEST SWAP2 POP PUSH2 0x4E8B DUP3 PUSH2 0x5ED0 JUMP JUMPDEST PUSH1 0x40 DUP3 ADD SWAP1 POP SWAP2 SWAP1 POP JUMP JUMPDEST PUSH1 0x0 PUSH2 0x4EA3 PUSH1 0x20 DUP4 PUSH2 0x59BC JUMP JUMPDEST SWAP2 POP PUSH2 0x4EAE DUP3 PUSH2 0x5F1F JUMP JUMPDEST PUSH1 0x20 DUP3 ADD SWAP1 POP SWAP2 SWAP1 POP JUMP JUMPDEST PUSH1 0x0 PUSH2 0x4EC6 PUSH1 0x26 DUP4 PUSH2 0x59BC JUMP JUMPDEST SWAP2 POP PUSH2 0x4ED1 DUP3 PUSH2 0x5F48 JUMP JUMPDEST PUSH1 0x40 DUP3 ADD SWAP1 POP SWAP2 SWAP1 POP JUMP JUMPDEST PUSH1 0x0 PUSH2 0x4EE9 PUSH1 0x18 DUP4 PUSH2 0x59BC JUMP JUMPDEST SWAP2 POP PUSH2 0x4EF4 DUP3 PUSH2 0x5F97 JUMP JUMPDEST PUSH1 0x20 DUP3 ADD SWAP1 POP SWAP2 SWAP1 POP JUMP JUMPDEST PUSH1 0x0 PUSH2 0x4F0C PUSH1 0x32 DUP4 PUSH2 0x59BC JUMP JUMPDEST SWAP2 POP PUSH2 0x4F17 DUP3 PUSH2 0x5FC0 JUMP JUMPDEST PUSH1 0x40 DUP3 ADD SWAP1 POP SWAP2 SWAP1 POP JUMP JUMPDEST PUSH1 0x0 PUSH2 0x4F2F PUSH1 0x12 DUP4 PUSH2 0x59BC JUMP JUMPDEST SWAP2 POP PUSH2 0x4F3A DUP3 PUSH2 0x600F JUMP JUMPDEST PUSH1 0x20 DUP3 ADD SWAP1 POP SWAP2 SWAP1 POP JUMP JUMPDEST PUSH1 0x0 PUSH2 0x4F52 PUSH1 0x13 DUP4 PUSH2 0x59BC JUMP JUMPDEST SWAP2 POP PUSH2 0x4F5D DUP3 PUSH2 0x6038 JUMP JUMPDEST PUSH1 0x20 DUP3 ADD SWAP1 POP SWAP2 SWAP1 POP JUMP JUMPDEST PUSH1 0x0 PUSH2 0x4F75 PUSH1 0x29 DUP4 PUSH2 0x59BC JUMP JUMPDEST SWAP2 POP PUSH2 0x4F80 DUP3 PUSH2 0x6061 JUMP JUMPDEST PUSH1 0x40 DUP3 ADD SWAP1 POP SWAP2 SWAP1 POP JUMP JUMPDEST PUSH1 0x0 PUSH2 0x4F98 PUSH1 0x16 DUP4 PUSH2 0x59BC JUMP JUMPDEST SWAP2 POP PUSH2 0x4FA3 DUP3 PUSH2 0x60B0 JUMP JUMPDEST PUSH1 0x20 DUP3 ADD SWAP1 POP SWAP2 SWAP1 POP JUMP JUMPDEST PUSH1 0x0 PUSH2 0x4FBB PUSH1 0x24 DUP4 PUSH2 0x59BC JUMP JUMPDEST SWAP2 POP PUSH2 0x4FC6 DUP3 PUSH2 0x60D9 JUMP JUMPDEST PUSH1 0x40 DUP3 ADD SWAP1 POP SWAP2 SWAP1 POP JUMP JUMPDEST PUSH1 0x0 PUSH2 0x4FDE PUSH1 0x26 DUP4 PUSH2 0x59BC JUMP JUMPDEST SWAP2 POP PUSH2 0x4FE9 DUP3 PUSH2 0x6128 JUMP JUMPDEST PUSH1 0x40 DUP3 ADD SWAP1 POP SWAP2 SWAP1 POP JUMP JUMPDEST PUSH1 0x0 PUSH2 0x5001 PUSH1 0x26 DUP4 PUSH2 0x59BC JUMP JUMPDEST SWAP2 POP PUSH2 0x500C DUP3 PUSH2 0x6177 JUMP JUMPDEST PUSH1 0x40 DUP3 ADD SWAP1 POP SWAP2 SWAP1 POP JUMP JUMPDEST PUSH1 0x0 PUSH2 0x5024 PUSH1 0x43 DUP4 PUSH2 0x59BC JUMP JUMPDEST SWAP2 POP PUSH2 0x502F DUP3 PUSH2 0x61C6 JUMP JUMPDEST PUSH1 0x60 DUP3 ADD SWAP1 POP SWAP2 SWAP1 POP JUMP JUMPDEST PUSH1 0x0 PUSH2 0x5047 PUSH1 0x29 DUP4 PUSH2 0x59BC JUMP JUMPDEST SWAP2 POP PUSH2 0x5052 DUP3 PUSH2 0x623B JUMP JUMPDEST PUSH1 0x40 DUP3 ADD SWAP1 POP SWAP2 SWAP1 POP JUMP JUMPDEST PUSH1 0x0 PUSH2 0x506A PUSH1 0x1C DUP4 PUSH2 0x59BC JUMP JUMPDEST SWAP2 POP PUSH2 0x5075 DUP3 PUSH2 0x628A JUMP JUMPDEST PUSH1 0x20 DUP3 ADD SWAP1 POP SWAP2 SWAP1 POP JUMP JUMPDEST PUSH1 0x0 PUSH2 0x508D PUSH1 0x10 DUP4 PUSH2 0x59BC JUMP JUMPDEST SWAP2 POP PUSH2 0x5098 DUP3 PUSH2 0x62B3 JUMP JUMPDEST PUSH1 0x20 DUP3 ADD SWAP1 POP SWAP2 SWAP1 POP JUMP JUMPDEST PUSH1 0x0 PUSH2 0x50B0 PUSH1 0x25 DUP4 PUSH2 0x59BC JUMP JUMPDEST SWAP2 POP PUSH2 0x50BB DUP3 PUSH2 0x62DC JUMP JUMPDEST PUSH1 0x40 DUP3 ADD SWAP1 POP SWAP2 SWAP1 POP JUMP JUMPDEST PUSH1 0x0 PUSH2 0x50D3 PUSH1 0x26 DUP4 PUSH2 0x59BC JUMP JUMPDEST SWAP2 POP PUSH2 0x50DE DUP3 PUSH2 0x632B JUMP JUMPDEST PUSH1 0x40 DUP3 ADD SWAP1 POP SWAP2 SWAP1 POP JUMP JUMPDEST PUSH1 0x0 PUSH2 0x50F6 PUSH1 0x0 DUP4 PUSH2 0x59B1 JUMP JUMPDEST SWAP2 POP PUSH2 0x5101 DUP3 PUSH2 0x637A JUMP JUMPDEST PUSH1 0x0 DUP3 ADD SWAP1 POP SWAP2 SWAP1 POP JUMP JUMPDEST PUSH1 0x0 PUSH2 0x5119 PUSH1 0x1 DUP4 PUSH2 0x59BC JUMP JUMPDEST SWAP2 POP PUSH2 0x5124 DUP3 PUSH2 0x637D JUMP JUMPDEST PUSH1 0x20 DUP3 ADD SWAP1 POP SWAP2 SWAP1 POP JUMP JUMPDEST PUSH1 0x0 PUSH2 0x513C PUSH1 0x24 DUP4 PUSH2 0x59BC JUMP JUMPDEST SWAP2 POP PUSH2 0x5147 DUP3 PUSH2 0x63A6 JUMP JUMPDEST PUSH1 0x40 DUP3 ADD SWAP1 POP SWAP2 SWAP1 POP JUMP JUMPDEST PUSH1 0x0 PUSH2 0x515F PUSH1 0x27 DUP4 PUSH2 0x59BC JUMP JUMPDEST SWAP2 POP PUSH2 0x516A DUP3 PUSH2 0x63F5 JUMP JUMPDEST PUSH1 0x40 DUP3 ADD SWAP1 POP SWAP2 SWAP1 POP JUMP JUMPDEST PUSH1 0x0 PUSH2 0x5182 PUSH1 0x38 DUP4 PUSH2 0x59BC JUMP JUMPDEST SWAP2 POP PUSH2 0x518D DUP3 PUSH2 0x6444 JUMP JUMPDEST PUSH1 0x40 DUP3 ADD SWAP1 POP SWAP2 SWAP1 POP JUMP JUMPDEST PUSH1 0x0 PUSH2 0x51A5 PUSH1 0x3D DUP4 PUSH2 0x59BC JUMP JUMPDEST SWAP2 POP PUSH2 0x51B0 DUP3 PUSH2 0x6493 JUMP JUMPDEST PUSH1 0x40 DUP3 ADD SWAP1 POP SWAP2 SWAP1 POP JUMP JUMPDEST PUSH1 0x0 PUSH2 0x51C8 PUSH1 0x25 DUP4 PUSH2 0x59BC JUMP JUMPDEST SWAP2 POP PUSH2 0x51D3 DUP3 PUSH2 0x64E2 JUMP JUMPDEST PUSH1 0x40 DUP3 ADD SWAP1 POP SWAP2 SWAP1 POP JUMP JUMPDEST PUSH2 0x51E7 DUP2 PUSH2 0x5AEF JUMP JUMPDEST DUP3 MSTORE POP POP JUMP JUMPDEST PUSH2 0x51F6 DUP2 PUSH2 0x5AEF JUMP JUMPDEST DUP3 MSTORE POP POP JUMP JUMPDEST PUSH2 0x5205 DUP2 PUSH2 0x5AF9 JUMP JUMPDEST DUP3 MSTORE POP POP JUMP JUMPDEST PUSH1 0x0 PUSH2 0x5216 DUP3 PUSH2 0x50E9 JUMP JUMPDEST SWAP2 POP DUP2 SWAP1 POP SWAP2 SWAP1 POP JUMP JUMPDEST PUSH1 0x0 PUSH1 0x20 DUP3 ADD SWAP1 POP PUSH2 0x5235 PUSH1 0x0 DUP4 ADD DUP5 PUSH2 0x4C97 JUMP JUMPDEST SWAP3 SWAP2 POP POP JUMP JUMPDEST PUSH1 0x0 PUSH1 0x40 DUP3 ADD SWAP1 POP PUSH2 0x5250 PUSH1 0x0 DUP4 ADD DUP6 PUSH2 0x4C97 JUMP JUMPDEST PUSH2 0x525D PUSH1 0x20 DUP4 ADD DUP5 PUSH2 0x4D13 JUMP JUMPDEST SWAP4 SWAP3 POP POP POP JUMP JUMPDEST PUSH1 0x0 PUSH1 0x40 DUP3 ADD SWAP1 POP PUSH2 0x5279 PUSH1 0x0 DUP4 ADD DUP6 PUSH2 0x4C97 JUMP JUMPDEST PUSH2 0x5286 PUSH1 0x20 DUP4 ADD DUP5 PUSH2 0x51ED JUMP JUMPDEST SWAP4 SWAP3 POP POP POP JUMP JUMPDEST PUSH1 0x0 PUSH1 0x20 DUP3 ADD SWAP1 POP PUSH2 0x52A2 PUSH1 0x0 DUP4 ADD DUP5 PUSH2 0x4D04 JUMP JUMPDEST SWAP3 SWAP2 POP POP JUMP JUMPDEST PUSH1 0x0 PUSH1 0x20 DUP3 ADD SWAP1 POP DUP2 DUP2 SUB PUSH1 0x0 DUP4 ADD MSTORE PUSH2 0x52C2 DUP2 DUP5 PUSH2 0x4D22 JUMP JUMPDEST SWAP1 POP SWAP3 SWAP2 POP POP JUMP JUMPDEST PUSH1 0x0 PUSH1 0xE0 DUP3 ADD SWAP1 POP DUP2 DUP2 SUB PUSH1 0x0 DUP4 ADD MSTORE PUSH2 0x52E4 DUP2 DUP11 PUSH2 0x4D22 JUMP JUMPDEST SWAP1 POP PUSH2 0x52F3 PUSH1 0x20 DUP4 ADD DUP10 PUSH2 0x4C97 JUMP JUMPDEST PUSH2 0x5300 PUSH1 0x40 DUP4 ADD DUP9 PUSH2 0x51ED JUMP JUMPDEST PUSH2 0x530D PUSH1 0x60 DUP4 ADD DUP8 PUSH2 0x51ED JUMP JUMPDEST PUSH2 0x531A PUSH1 0x80 DUP4 ADD DUP7 PUSH2 0x51ED JUMP JUMPDEST PUSH2 0x5327 PUSH1 0xA0 DUP4 ADD DUP6 PUSH2 0x51ED JUMP JUMPDEST PUSH2 0x5334 PUSH1 0xC0 DUP4 ADD DUP5 PUSH2 0x51ED JUMP JUMPDEST SWAP9 SWAP8 POP POP POP POP POP POP POP POP JUMP JUMPDEST PUSH1 0x0 PUSH1 0x80 DUP3 ADD SWAP1 POP DUP2 DUP2 SUB PUSH1 0x0 DUP4 ADD MSTORE PUSH2 0x535A DUP2 DUP8 PUSH2 0x4D22 JUMP JUMPDEST SWAP1 POP PUSH2 0x5369 PUSH1 0x20 DUP4 ADD DUP7 PUSH2 0x51ED JUMP JUMPDEST DUP2 DUP2 SUB PUSH1 0x40 DUP4 ADD MSTORE PUSH2 0x537B DUP2 DUP6 PUSH2 0x4CA6 JUMP JUMPDEST SWAP1 POP DUP2 DUP2 SUB PUSH1 0x60 DUP4 ADD MSTORE PUSH2 0x538F DUP2 DUP5 PUSH2 0x4CA6 JUMP JUMPDEST SWAP1 POP SWAP6 SWAP5 POP POP POP POP POP JUMP JUMPDEST PUSH1 0x0 PUSH1 0x80 DUP3 ADD SWAP1 POP DUP2 DUP2 SUB PUSH1 0x0 DUP4 ADD MSTORE PUSH2 0x53B4 DUP2 DUP8 PUSH2 0x4D22 JUMP JUMPDEST SWAP1 POP PUSH2 0x53C3 PUSH1 0x20 DUP4 ADD DUP7 PUSH2 0x51ED JUMP JUMPDEST PUSH2 0x53D0 PUSH1 0x40 DUP4 ADD DUP6 PUSH2 0x51ED JUMP JUMPDEST PUSH2 0x53DD PUSH1 0x60 DUP4 ADD DUP5 PUSH2 0x51ED JUMP JUMPDEST SWAP6 SWAP5 POP POP POP POP POP JUMP JUMPDEST PUSH1 0x0 PUSH1 0x20 DUP3 ADD SWAP1 POP DUP2 DUP2 SUB PUSH1 0x0 DUP4 ADD MSTORE PUSH2 0x53FF DUP2 PUSH2 0x4D5B JUMP JUMPDEST SWAP1 POP SWAP2 SWAP1 POP JUMP JUMPDEST PUSH1 0x0 PUSH1 0x20 DUP3 ADD SWAP1 POP DUP2 DUP2 SUB PUSH1 0x0 DUP4 ADD MSTORE PUSH2 0x541F DUP2 PUSH2 0x4D7E JUMP JUMPDEST SWAP1 POP SWAP2 SWAP1 POP JUMP JUMPDEST PUSH1 0x0 PUSH1 0x20 DUP3 ADD SWAP1 POP DUP2 DUP2 SUB PUSH1 0x0 DUP4 ADD MSTORE PUSH2 0x543F DUP2 PUSH2 0x4DA1 JUMP JUMPDEST SWAP1 POP SWAP2 SWAP1 POP JUMP JUMPDEST PUSH1 0x0 PUSH1 0x20 DUP3 ADD SWAP1 POP DUP2 DUP2 SUB PUSH1 0x0 DUP4 ADD MSTORE PUSH2 0x545F DUP2 PUSH2 0x4DC4 JUMP JUMPDEST SWAP1 POP SWAP2 SWAP1 POP JUMP JUMPDEST PUSH1 0x0 PUSH1 0x20 DUP3 ADD SWAP1 POP DUP2 DUP2 SUB PUSH1 0x0 DUP4 ADD MSTORE PUSH2 0x547F DUP2 PUSH2 0x4DE7 JUMP JUMPDEST SWAP1 POP SWAP2 SWAP1 POP JUMP JUMPDEST PUSH1 0x0 PUSH1 0x20 DUP3 ADD SWAP1 POP DUP2 DUP2 SUB PUSH1 0x0 DUP4 ADD MSTORE PUSH2 0x549F DUP2 PUSH2 0x4E0A JUMP JUMPDEST SWAP1 POP SWAP2 SWAP1 POP JUMP JUMPDEST PUSH1 0x0 PUSH1 0x20 DUP3 ADD SWAP1 POP DUP2 DUP2 SUB PUSH1 0x0 DUP4 ADD MSTORE PUSH2 0x54BF DUP2 PUSH2 0x4E2D JUMP JUMPDEST SWAP1 POP SWAP2 SWAP1 POP JUMP JUMPDEST PUSH1 0x0 PUSH1 0x20 DUP3 ADD SWAP1 POP DUP2 DUP2 SUB PUSH1 0x0 DUP4 ADD MSTORE PUSH2 0x54DF DUP2 PUSH2 0x4E50 JUMP JUMPDEST SWAP1 POP SWAP2 SWAP1 POP JUMP JUMPDEST PUSH1 0x0 PUSH1 0x20 DUP3 ADD SWAP1 POP DUP2 DUP2 SUB PUSH1 0x0 DUP4 ADD MSTORE PUSH2 0x54FF DUP2 PUSH2 0x4E73 JUMP JUMPDEST SWAP1 POP SWAP2 SWAP1 POP JUMP JUMPDEST PUSH1 0x0 PUSH1 0x20 DUP3 ADD SWAP1 POP DUP2 DUP2 SUB PUSH1 0x0 DUP4 ADD MSTORE PUSH2 0x551F DUP2 PUSH2 0x4E96 JUMP JUMPDEST SWAP1 POP SWAP2 SWAP1 POP JUMP JUMPDEST PUSH1 0x0 PUSH1 0x20 DUP3 ADD SWAP1 POP DUP2 DUP2 SUB PUSH1 0x0 DUP4 ADD MSTORE PUSH2 0x553F DUP2 PUSH2 0x4EB9 JUMP JUMPDEST SWAP1 POP SWAP2 SWAP1 POP JUMP JUMPDEST PUSH1 0x0 PUSH1 0x20 DUP3 ADD SWAP1 POP DUP2 DUP2 SUB PUSH1 0x0 DUP4 ADD MSTORE PUSH2 0x555F DUP2 PUSH2 0x4EDC JUMP JUMPDEST SWAP1 POP SWAP2 SWAP1 POP JUMP JUMPDEST PUSH1 0x0 PUSH1 0x20 DUP3 ADD SWAP1 POP DUP2 DUP2 SUB PUSH1 0x0 DUP4 ADD MSTORE PUSH2 0x557F DUP2 PUSH2 0x4EFF JUMP JUMPDEST SWAP1 POP SWAP2 SWAP1 POP JUMP JUMPDEST PUSH1 0x0 PUSH1 0x20 DUP3 ADD SWAP1 POP DUP2 DUP2 SUB PUSH1 0x0 DUP4 ADD MSTORE PUSH2 0x559F DUP2 PUSH2 0x4F22 JUMP JUMPDEST SWAP1 POP SWAP2 SWAP1 POP JUMP JUMPDEST PUSH1 0x0 PUSH1 0x20 DUP3 ADD SWAP1 POP DUP2 DUP2 SUB PUSH1 0x0 DUP4 ADD MSTORE PUSH2 0x55BF DUP2 PUSH2 0x4F45 JUMP JUMPDEST SWAP1 POP SWAP2 SWAP1 POP JUMP JUMPDEST PUSH1 0x0 PUSH1 0x20 DUP3 ADD SWAP1 POP DUP2 DUP2 SUB PUSH1 0x0 DUP4 ADD MSTORE PUSH2 0x55DF DUP2 PUSH2 0x4F68 JUMP JUMPDEST SWAP1 POP SWAP2 SWAP1 POP JUMP JUMPDEST PUSH1 0x0 PUSH1 0x20 DUP3 ADD SWAP1 POP DUP2 DUP2 SUB PUSH1 0x0 DUP4 ADD MSTORE PUSH2 0x55FF DUP2 PUSH2 0x4F8B JUMP JUMPDEST SWAP1 POP SWAP2 SWAP1 POP JUMP JUMPDEST PUSH1 0x0 PUSH1 0x20 DUP3 ADD SWAP1 POP DUP2 DUP2 SUB PUSH1 0x0 DUP4 ADD MSTORE PUSH2 0x561F DUP2 PUSH2 0x4FAE JUMP JUMPDEST SWAP1 POP SWAP2 SWAP1 POP JUMP JUMPDEST PUSH1 0x0 PUSH1 0x20 DUP3 ADD SWAP1 POP DUP2 DUP2 SUB PUSH1 0x0 DUP4 ADD MSTORE PUSH2 0x563F DUP2 PUSH2 0x4FD1 JUMP JUMPDEST SWAP1 POP SWAP2 SWAP1 POP JUMP JUMPDEST PUSH1 0x0 PUSH1 0x20 DUP3 ADD SWAP1 POP DUP2 DUP2 SUB PUSH1 0x0 DUP4 ADD MSTORE PUSH2 0x565F DUP2 PUSH2 0x4FF4 JUMP JUMPDEST SWAP1 POP SWAP2 SWAP1 POP JUMP JUMPDEST PUSH1 0x0 PUSH1 0x20 DUP3 ADD SWAP1 POP DUP2 DUP2 SUB PUSH1 0x0 DUP4 ADD MSTORE PUSH2 0x567F DUP2 PUSH2 0x5017 JUMP JUMPDEST SWAP1 POP SWAP2 SWAP1 POP JUMP JUMPDEST PUSH1 0x0 PUSH1 0x20 DUP3 ADD SWAP1 POP DUP2 DUP2 SUB PUSH1 0x0 DUP4 ADD MSTORE PUSH2 0x569F DUP2 PUSH2 0x503A JUMP JUMPDEST SWAP1 POP SWAP2 SWAP1 POP JUMP JUMPDEST PUSH1 0x0 PUSH1 0x20 DUP3 ADD SWAP1 POP DUP2 DUP2 SUB PUSH1 0x0 DUP4 ADD MSTORE PUSH2 0x56BF DUP2 PUSH2 0x505D JUMP JUMPDEST SWAP1 POP SWAP2 SWAP1 POP JUMP JUMPDEST PUSH1 0x0 PUSH1 0x20 DUP3 ADD SWAP1 POP DUP2 DUP2 SUB PUSH1 0x0 DUP4 ADD MSTORE PUSH2 0x56DF DUP2 PUSH2 0x5080 JUMP JUMPDEST SWAP1 POP SWAP2 SWAP1 POP JUMP JUMPDEST PUSH1 0x0 PUSH1 0x20 DUP3 ADD SWAP1 POP DUP2 DUP2 SUB PUSH1 0x0 DUP4 ADD MSTORE PUSH2 0x56FF DUP2 PUSH2 0x50A3 JUMP JUMPDEST SWAP1 POP SWAP2 SWAP1 POP JUMP JUMPDEST PUSH1 0x0 PUSH1 0x20 DUP3 ADD SWAP1 POP DUP2 DUP2 SUB PUSH1 0x0 DUP4 ADD MSTORE PUSH2 0x571F DUP2 PUSH2 0x50C6 JUMP JUMPDEST SWAP1 POP SWAP2 SWAP1 POP JUMP JUMPDEST PUSH1 0x0 PUSH1 0x20 DUP3 ADD SWAP1 POP DUP2 DUP2 SUB PUSH1 0x0 DUP4 ADD MSTORE PUSH2 0x573F DUP2 PUSH2 0x510C JUMP JUMPDEST SWAP1 POP SWAP2 SWAP1 POP JUMP JUMPDEST PUSH1 0x0 PUSH1 0x20 DUP3 ADD SWAP1 POP DUP2 DUP2 SUB PUSH1 0x0 DUP4 ADD MSTORE PUSH2 0x575F DUP2 PUSH2 0x512F JUMP JUMPDEST SWAP1 POP SWAP2 SWAP1 POP JUMP JUMPDEST PUSH1 0x0 PUSH1 0x20 DUP3 ADD SWAP1 POP DUP2 DUP2 SUB PUSH1 0x0 DUP4 ADD MSTORE PUSH2 0x577F DUP2 PUSH2 0x5152 JUMP JUMPDEST SWAP1 POP SWAP2 SWAP1 POP JUMP JUMPDEST PUSH1 0x0 PUSH1 0x20 DUP3 ADD SWAP1 POP DUP2 DUP2 SUB PUSH1 0x0 DUP4 ADD MSTORE PUSH2 0x579F DUP2 PUSH2 0x5175 JUMP JUMPDEST SWAP1 POP SWAP2 SWAP1 POP JUMP JUMPDEST PUSH1 0x0 PUSH1 0x20 DUP3 ADD SWAP1 POP DUP2 DUP2 SUB PUSH1 0x0 DUP4 ADD MSTORE PUSH2 0x57BF DUP2 PUSH2 0x5198 JUMP JUMPDEST SWAP1 POP SWAP2 SWAP1 POP JUMP JUMPDEST PUSH1 0x0 PUSH1 0x20 DUP3 ADD SWAP1 POP DUP2 DUP2 SUB PUSH1 0x0 DUP4 ADD MSTORE PUSH2 0x57DF DUP2 PUSH2 0x51BB JUMP JUMPDEST SWAP1 POP SWAP2 SWAP1 POP JUMP JUMPDEST PUSH1 0x0 PUSH1 0x20 DUP3 ADD SWAP1 POP PUSH2 0x57FB PUSH1 0x0 DUP4 ADD DUP5 PUSH2 0x51ED JUMP JUMPDEST SWAP3 SWAP2 POP POP JUMP JUMPDEST PUSH1 0x0 PUSH1 0x40 DUP3 ADD SWAP1 POP PUSH2 0x5816 PUSH1 0x0 DUP4 ADD DUP6 PUSH2 0x51ED JUMP JUMPDEST DUP2 DUP2 SUB PUSH1 0x20 DUP4 ADD MSTORE PUSH2 0x5828 DUP2 DUP5 PUSH2 0x4CA6 JUMP JUMPDEST SWAP1 POP SWAP4 SWAP3 POP POP POP JUMP JUMPDEST PUSH1 0x0 PUSH1 0x60 DUP3 ADD SWAP1 POP PUSH2 0x5846 PUSH1 0x0 DUP4 ADD DUP7 PUSH2 0x51ED JUMP JUMPDEST PUSH2 0x5853 PUSH1 0x20 DUP4 ADD DUP6 PUSH2 0x51ED JUMP JUMPDEST PUSH2 0x5860 PUSH1 0x40 DUP4 ADD DUP5 PUSH2 0x4D04 JUMP JUMPDEST SWAP5 SWAP4 POP POP POP POP JUMP JUMPDEST PUSH1 0x0 PUSH1 0xC0 DUP3 ADD SWAP1 POP PUSH2 0x587D PUSH1 0x0 DUP4 ADD DUP10 PUSH2 0x51ED JUMP JUMPDEST PUSH2 0x588A PUSH1 0x20 DUP4 ADD DUP9 PUSH2 0x51ED JUMP JUMPDEST PUSH2 0x5897 PUSH1 0x40 DUP4 ADD DUP8 PUSH2 0x51ED JUMP JUMPDEST DUP2 DUP2 SUB PUSH1 0x60 DUP4 ADD MSTORE PUSH2 0x58A9 DUP2 DUP7 PUSH2 0x4D22 JUMP JUMPDEST SWAP1 POP PUSH2 0x58B8 PUSH1 0x80 DUP4 ADD DUP6 PUSH2 0x4C97 JUMP JUMPDEST PUSH2 0x58C5 PUSH1 0xA0 DUP4 ADD DUP5 PUSH2 0x4D04 JUMP JUMPDEST SWAP8 SWAP7 POP POP POP POP POP POP POP JUMP JUMPDEST PUSH1 0x0 PUSH1 0x20 DUP3 ADD SWAP1 POP PUSH2 0x58E5 PUSH1 0x0 DUP4 ADD DUP5 PUSH2 0x51FC JUMP JUMPDEST SWAP3 SWAP2 POP POP JUMP JUMPDEST PUSH1 0x0 PUSH2 0x58F5 PUSH2 0x5906 JUMP JUMPDEST SWAP1 POP PUSH2 0x5901 DUP3 DUP3 PUSH2 0x5B8C JUMP JUMPDEST SWAP2 SWAP1 POP JUMP JUMPDEST PUSH1 0x0 PUSH1 0x40 MLOAD SWAP1 POP SWAP1 JUMP JUMPDEST PUSH1 0x0 PUSH8 0xFFFFFFFFFFFFFFFF DUP3 GT ISZERO PUSH2 0x592B JUMPI PUSH2 0x592A PUSH2 0x5C64 JUMP JUMPDEST JUMPDEST PUSH1 0x20 DUP3 MUL SWAP1 POP PUSH1 0x20 DUP2 ADD SWAP1 POP SWAP2 SWAP1 POP JUMP JUMPDEST PUSH1 0x0 PUSH8 0xFFFFFFFFFFFFFFFF DUP3 GT ISZERO PUSH2 0x5957 JUMPI PUSH2 0x5956 PUSH2 0x5C64 JUMP JUMPDEST JUMPDEST PUSH2 0x5960 DUP3 PUSH2 0x5C93 JUMP JUMPDEST SWAP1 POP PUSH1 0x20 DUP2 ADD SWAP1 POP SWAP2 SWAP1 POP JUMP JUMPDEST PUSH1 0x0 DUP2 SWAP1 POP PUSH1 0x20 DUP3 ADD SWAP1 POP SWAP2 SWAP1 POP JUMP JUMPDEST PUSH1 0x0 DUP2 MLOAD SWAP1 POP SWAP2 SWAP1 POP JUMP JUMPDEST PUSH1 0x0 DUP2 MLOAD SWAP1 POP SWAP2 SWAP1 POP JUMP JUMPDEST PUSH1 0x0 PUSH1 0x20 DUP3 ADD SWAP1 POP SWAP2 SWAP1 POP JUMP JUMPDEST PUSH1 0x0 DUP3 DUP3 MSTORE PUSH1 0x20 DUP3 ADD SWAP1 POP SWAP3 SWAP2 POP POP JUMP JUMPDEST PUSH1 0x0 DUP2 SWAP1 POP SWAP3 SWAP2 POP POP JUMP JUMPDEST PUSH1 0x0 DUP3 DUP3 MSTORE PUSH1 0x20 DUP3 ADD SWAP1 POP SWAP3 SWAP2 POP POP JUMP JUMPDEST PUSH1 0x0 PUSH2 0x59D8 DUP3 PUSH2 0x5AEF JUMP JUMPDEST SWAP2 POP PUSH2 0x59E3 DUP4 PUSH2 0x5AEF JUMP JUMPDEST SWAP3 POP DUP3 PUSH32 0xFFFFFFFFFFFFFFFFFFFFFFFFFFFFFFFFFFFFFFFFFFFFFFFFFFFFFFFFFFFFFFFF SUB DUP3 GT ISZERO PUSH2 0x5A18 JUMPI PUSH2 0x5A17 PUSH2 0x5C06 JUMP JUMPDEST JUMPDEST DUP3 DUP3 ADD SWAP1 POP SWAP3 SWAP2 POP POP JUMP JUMPDEST PUSH1 0x0 PUSH2 0x5A2E DUP3 PUSH2 0x5AEF JUMP JUMPDEST SWAP2 POP PUSH2 0x5A39 DUP4 PUSH2 0x5AEF JUMP JUMPDEST SWAP3 POP DUP2 PUSH32 0xFFFFFFFFFFFFFFFFFFFFFFFFFFFFFFFFFFFFFFFFFFFFFFFFFFFFFFFFFFFFFFFF DIV DUP4 GT DUP3 ISZERO ISZERO AND ISZERO PUSH2 0x5A72 JUMPI PUSH2 0x5A71 PUSH2 0x5C06 JUMP JUMPDEST JUMPDEST DUP3 DUP3 MUL SWAP1 POP SWAP3 SWAP2 POP POP JUMP JUMPDEST PUSH1 0x0 PUSH2 0x5A88 DUP3 PUSH2 0x5AEF JUMP JUMPDEST SWAP2 POP PUSH2 0x5A93 DUP4 PUSH2 0x5AEF JUMP JUMPDEST SWAP3 POP DUP3 DUP3 LT ISZERO PUSH2 0x5AA6 JUMPI PUSH2 0x5AA5 PUSH2 0x5C06 JUMP JUMPDEST JUMPDEST DUP3 DUP3 SUB SWAP1 POP SWAP3 SWAP2 POP POP JUMP JUMPDEST PUSH1 0x0 PUSH2 0x5ABC DUP3 PUSH2 0x5ACF JUMP JUMPDEST SWAP1 POP SWAP2 SWAP1 POP JUMP JUMPDEST PUSH1 0x0 DUP2 ISZERO ISZERO SWAP1 POP SWAP2 SWAP1 POP JUMP JUMPDEST PUSH1 0x0 PUSH20 0xFFFFFFFFFFFFFFFFFFFFFFFFFFFFFFFFFFFFFFFF DUP3 AND SWAP1 POP SWAP2 SWAP1 POP JUMP JUMPDEST PUSH1 0x0 DUP2 SWAP1 POP SWAP2 SWAP1 POP JUMP JUMPDEST PUSH1 0x0 PUSH1 0xFF DUP3 AND SWAP1 POP SWAP2 SWAP1 POP JUMP JUMPDEST PUSH1 0x0 PUSH2 0x5B11 DUP3 PUSH2 0x5AEF JUMP JUMPDEST SWAP1 POP SWAP2 SWAP1 POP JUMP JUMPDEST DUP3 DUP2 DUP4 CALLDATACOPY PUSH1 0x0 DUP4 DUP4 ADD MSTORE POP POP POP JUMP JUMPDEST PUSH1 0x0 JUMPDEST DUP4 DUP2 LT ISZERO PUSH2 0x5B45 JUMPI DUP1 DUP3 ADD MLOAD DUP2 DUP5 ADD MSTORE PUSH1 0x20 DUP2 ADD SWAP1 POP PUSH2 0x5B2A JUMP JUMPDEST DUP4 DUP2 GT ISZERO PUSH2 0x5B54 JUMPI PUSH1 0x0 DUP5 DUP5 ADD MSTORE JUMPDEST POP POP POP POP JUMP JUMPDEST PUSH1 0x0 PUSH1 0x2 DUP3 DIV SWAP1 POP PUSH1 0x1 DUP3 AND DUP1 PUSH2 0x5B72 JUMPI PUSH1 0x7F DUP3 AND SWAP2 POP JUMPDEST PUSH1 0x20 DUP3 LT DUP2 EQ ISZERO PUSH2 0x5B86 JUMPI PUSH2 0x5B85 PUSH2 0x5C35 JUMP JUMPDEST JUMPDEST POP SWAP2 SWAP1 POP JUMP JUMPDEST PUSH2 0x5B95 DUP3 PUSH2 0x5C93 JUMP JUMPDEST DUP2 ADD DUP2 DUP2 LT PUSH8 0xFFFFFFFFFFFFFFFF DUP3 GT OR ISZERO PUSH2 0x5BB4 JUMPI PUSH2 0x5BB3 PUSH2 0x5C64 JUMP JUMPDEST JUMPDEST DUP1 PUSH1 0x40 MSTORE POP POP POP JUMP JUMPDEST PUSH1 0x0 PUSH2 0x5BC8 DUP3 PUSH2 0x5AEF JUMP JUMPDEST SWAP2 POP PUSH32 0xFFFFFFFFFFFFFFFFFFFFFFFFFFFFFFFFFFFFFFFFFFFFFFFFFFFFFFFFFFFFFFFF DUP3 EQ ISZERO PUSH2 0x5BFB JUMPI PUSH2 0x5BFA PUSH2 0x5C06 JUMP JUMPDEST JUMPDEST PUSH1 0x1 DUP3 ADD SWAP1 POP SWAP2 SWAP1 POP JUMP JUMPDEST PUSH32 0x4E487B7100000000000000000000000000000000000000000000000000000000 PUSH1 0x0 MSTORE PUSH1 0x11 PUSH1 0x4 MSTORE PUSH1 0x24 PUSH1 0x0 REVERT JUMPDEST PUSH32 0x4E487B7100000000000000000000000000000000000000000000000000000000 PUSH1 0x0 MSTORE PUSH1 0x22 PUSH1 0x4 MSTORE PUSH1 0x24 PUSH1 0x0 REVERT JUMPDEST PUSH32 0x4E487B7100000000000000000000000000000000000000000000000000000000 PUSH1 0x0 MSTORE PUSH1 0x41 PUSH1 0x4 MSTORE PUSH1 0x24 PUSH1 0x0 REVERT JUMPDEST PUSH1 0x0 PUSH1 0x1F NOT PUSH1 0x1F DUP4 ADD AND SWAP1 POP SWAP2 SWAP1 POP JUMP JUMPDEST PUSH32 0x45524332303A207472616E7366657220746F20746865207A65726F2061646472 PUSH1 0x0 DUP3 ADD MSTORE PUSH32 0x6573730000000000000000000000000000000000000000000000000000000000 PUSH1 0x20 DUP3 ADD MSTORE POP JUMP JUMPDEST PUSH32 0x4E6F6E206D656D626572732063616E6E6F742070617274696369706174652069 PUSH1 0x0 DUP3 ADD MSTORE PUSH32 0x6E20746865207375727665792E00000000000000000000000000000000000000 PUSH1 0x20 DUP3 ADD MSTORE POP JUMP JUMPDEST PUSH32 0x4E6F206D6F726520746F6B656E73206C65667420696E2074686520636F6E7472 PUSH1 0x0 DUP3 ADD MSTORE PUSH32 0x6163742E00000000000000000000000000000000000000000000000000000000 PUSH1 0x20 DUP3 ADD MSTORE POP JUMP JUMPDEST PUSH32 0x4E6F20737563682070726F6A6563742065786973747320776974682067697665 PUSH1 0x0 DUP3 ADD MSTORE PUSH32 0x6E2069642E000000000000000000000000000000000000000000000000000000 PUSH1 0x20 DUP3 ADD MSTORE POP JUMP JUMPDEST PUSH32 0x45524332303A20617070726F766520746F20746865207A65726F206164647265 PUSH1 0x0 DUP3 ADD MSTORE PUSH32 0x7373000000000000000000000000000000000000000000000000000000000000 PUSH1 0x20 DUP3 ADD MSTORE POP JUMP JUMPDEST PUSH32 0x3300000000000000000000000000000000000000000000000000000000000000 PUSH1 0x0 DUP3 ADD MSTORE POP JUMP JUMPDEST PUSH32 0x557365722068617320616C726561647920766F74656420666F72207468697320 PUSH1 0x0 DUP3 ADD MSTORE PUSH32 0x7061796D656E742E000000000000000000000000000000000000000000000000 PUSH1 0x20 DUP3 ADD MSTORE POP JUMP JUMPDEST PUSH32 0x45524332303A20696E73756666696369656E7420616C6C6F77616E6365000000 PUSH1 0x0 DUP3 ADD MSTORE POP JUMP JUMPDEST PUSH32 0x4E6F7420656E6F7567682065746865727320746F2066756E6420746865207072 PUSH1 0x0 DUP3 ADD MSTORE PUSH32 0x6F6A6563742E0000000000000000000000000000000000000000000000000000 PUSH1 0x20 DUP3 ADD MSTORE POP JUMP JUMPDEST PUSH32 0x53656C662D64656C65676174696F6E206973206E6F7420706F737369626C652E PUSH1 0x0 DUP3 ADD MSTORE POP JUMP JUMPDEST PUSH32 0x45524332303A207472616E7366657220616D6F756E7420657863656564732062 PUSH1 0x0 DUP3 ADD MSTORE PUSH32 0x616C616E63650000000000000000000000000000000000000000000000000000 PUSH1 0x20 DUP3 ADD MSTORE POP JUMP JUMPDEST PUSH32 0x54686520646561646C696E6520686173207061737365642E0000000000000000 PUSH1 0x0 DUP3 ADD MSTORE POP JUMP JUMPDEST PUSH32 0x557365722063616E6E6F742064726F702069742773206D656D62657220737461 PUSH1 0x0 DUP3 ADD MSTORE PUSH32 0x74757320647572696E6720766F74696E672E0000000000000000000000000000 PUSH1 0x20 DUP3 ADD MSTORE POP JUMP JUMPDEST PUSH32 0x446561646C696E652065786365656465642E0000000000000000000000000000 PUSH1 0x0 DUP3 ADD MSTORE POP JUMP JUMPDEST PUSH32 0x50726F6A656374206E6F742066756E6465642E00000000000000000000000000 PUSH1 0x0 DUP3 ADD MSTORE POP JUMP JUMPDEST PUSH32 0x4E6F7420656E6F7567682065746865727320746F207375626D69742074686520 PUSH1 0x0 DUP3 ADD MSTORE PUSH32 0x70726F706F73616C2E0000000000000000000000000000000000000000000000 PUSH1 0x20 DUP3 ADD MSTORE POP JUMP JUMPDEST PUSH32 0x557365722068617320616C726561647920766F74656400000000000000000000 PUSH1 0x0 DUP3 ADD MSTORE POP JUMP JUMPDEST PUSH32 0x5468652064656C65676174696F6E2068617320616C7265616479206861707065 PUSH1 0x0 DUP3 ADD MSTORE PUSH32 0x6E65642E00000000000000000000000000000000000000000000000000000000 PUSH1 0x20 DUP3 ADD MSTORE POP JUMP JUMPDEST PUSH32 0x596F7520616C72656164792070617274696369706174656420696E2074686520 PUSH1 0x0 DUP3 ADD MSTORE PUSH32 0x7375727665790000000000000000000000000000000000000000000000000000 PUSH1 0x20 DUP3 ADD MSTORE POP JUMP JUMPDEST PUSH32 0x4E6F6E2D6D656D626572732063616E6E6F742063616C6C20746869732066756E PUSH1 0x0 DUP3 ADD MSTORE PUSH32 0x6374696F6E2E0000000000000000000000000000000000000000000000000000 PUSH1 0x20 DUP3 ADD MSTORE POP JUMP JUMPDEST PUSH32 0x4E6F6E2D6D656D6265727320646F6E2774206861766520746865207269676874 PUSH1 0x0 DUP3 ADD MSTORE PUSH32 0x20746F20766F74652074687573206E6F20726967687420746F2064656C656761 PUSH1 0x20 DUP3 ADD MSTORE PUSH32 0x74652E0000000000000000000000000000000000000000000000000000000000 PUSH1 0x40 DUP3 ADD MSTORE POP JUMP JUMPDEST PUSH32 0x4E6F2070726F6A6563742070726F706F73616C207769746820676976656E2069 PUSH1 0x0 DUP3 ADD MSTORE PUSH32 0x64206578697374732E0000000000000000000000000000000000000000000000 PUSH1 0x20 DUP3 ADD MSTORE POP JUMP JUMPDEST PUSH32 0x596F7520616C7265616479207573656420746865206661756365742E00000000 PUSH1 0x0 DUP3 ADD MSTORE POP JUMP JUMPDEST PUSH32 0x6661696C656420746F20726566756E6400000000000000000000000000000000 PUSH1 0x0 DUP3 ADD MSTORE POP JUMP JUMPDEST PUSH32 0x45524332303A207472616E736665722066726F6D20746865207A65726F206164 PUSH1 0x0 DUP3 ADD MSTORE PUSH32 0x6472657373000000000000000000000000000000000000000000000000000000 PUSH1 0x20 DUP3 ADD MSTORE POP JUMP JUMPDEST PUSH32 0x55736572206973206E6F742061206D656D62657220746875732063616E6E6F74 PUSH1 0x0 DUP3 ADD MSTORE PUSH32 0x20766F74652E0000000000000000000000000000000000000000000000000000 PUSH1 0x20 DUP3 ADD MSTORE POP JUMP JUMPDEST POP JUMP JUMPDEST PUSH32 0x3100000000000000000000000000000000000000000000000000000000000000 PUSH1 0x0 DUP3 ADD MSTORE POP JUMP JUMPDEST PUSH32 0x45524332303A20617070726F76652066726F6D20746865207A65726F20616464 PUSH1 0x0 DUP3 ADD MSTORE PUSH32 0x7265737300000000000000000000000000000000000000000000000000000000 PUSH1 0x20 DUP3 ADD MSTORE POP JUMP JUMPDEST PUSH32 0x44656C65676174696F6E2063616E206F6E6C7920626520646F6E6520746F206D PUSH1 0x0 DUP3 ADD MSTORE PUSH32 0x656D626572732E00000000000000000000000000000000000000000000000000 PUSH1 0x20 DUP3 ADD MSTORE POP JUMP JUMPDEST PUSH32 0x55736572206861732064656C65676174656420736F6D656F6E6520656C736520 PUSH1 0x0 DUP3 ADD MSTORE PUSH32 0x746F20766F746520666F72207468652070726F6A6563742E0000000000000000 PUSH1 0x20 DUP3 ADD MSTORE POP JUMP JUMPDEST PUSH32 0x496E73756666696369656E74204D79476F76546F6B656E732062616C616E6365 PUSH1 0x0 DUP3 ADD MSTORE PUSH32 0x20666F7220656E746572656420646F6E6174696F6E20616D6F756E742E000000 PUSH1 0x20 DUP3 ADD MSTORE POP JUMP JUMPDEST PUSH32 0x45524332303A2064656372656173656420616C6C6F77616E63652062656C6F77 PUSH1 0x0 DUP3 ADD MSTORE PUSH32 0x207A65726F000000000000000000000000000000000000000000000000000000 PUSH1 0x20 DUP3 ADD MSTORE POP JUMP JUMPDEST PUSH2 0x653A DUP2 PUSH2 0x5AB1 JUMP JUMPDEST DUP2 EQ PUSH2 0x6545 JUMPI PUSH1 0x0 DUP1 REVERT JUMPDEST POP JUMP JUMPDEST PUSH2 0x6551 DUP2 PUSH2 0x5AC3 JUMP JUMPDEST DUP2 EQ PUSH2 0x655C JUMPI PUSH1 0x0 DUP1 REVERT JUMPDEST POP JUMP JUMPDEST PUSH2 0x6568 DUP2 PUSH2 0x5AEF JUMP JUMPDEST DUP2 EQ PUSH2 0x6573 JUMPI PUSH1 0x0 DUP1 REVERT JUMPDEST POP JUMP INVALID LOG2 PUSH5 0x6970667358 0x22 SLT KECCAK256 0xF8 0xB7 0x5D PUSH5 0x17F7CAFAF4 PUSH27 0xA46007A09BA6ED7C3ABA09AECC4EF153E6B4EE3C8F1264736F6C63 NUMBER STOP ADDMOD SUB STOP CALLER "},"methodIdentifiers":{"allowance(address,address)":"dd62ed3e","approve(address,uint256)":"095ea7b3","balanceOf(address)":"70a08231","decimals()":"313ce567","decreaseAllowance(address,uint256)":"a457c2d7","delegateVoteTo(address,uint256)":"a1669b32","donateEther()":"863451dd","donateMyGovToken(uint256)":"39c94d2d","faucet()":"de5f72fd","findSchIndex(uint256)":"b5003369","getEtherReceivedByProject(uint256)":"9983fa58","getIsProjectFunded(uint256)":"7c405164","getNoOfFundedProjects()":"bf50556d","getNoOfProjectProposals()":"23fd498b","getNoOfSurveys()":"5d801b37","getProjectInfo(uint256)":"fabf5968","getProjectNextPayment(uint256)":"1d2acdfd","getProjectOwner(uint256)":"92256aec","getSurveyInfo(uint256)":"2e8f3413","getSurveyOwner(uint256)":"875b5076","getSurveyResults(uint256)":"70a56c73","increaseAllowance(address,uint256)":"39509351","isMember(address)":"a230c524","name()":"06fdde03","projectProposals(uint256)":"dbc1d569","reserveProjectGrant(uint256)":"bd275764","submitProjectProposal(string,uint256,uint256[],uint256[])":"a5e898e1","submitSurvey(string,uint256,uint256,uint256)":"ef269ae3","surveys(uint256)":"86e68b90","symbol()":"95d89b41","takeSurvey(uint256,uint256[])":"702798df","totalSupply()":"18160ddd","transfer(address,uint256)":"a9059cbb","transferFrom(address,address,uint256)":"23b872dd","users(address)":"a87430ba","voteForProjectProposal(uint256,bool)":"f22449ba","votingforinstallment(uint256,bool)":"94d9ff48","withdrawProjectPayment(uint256)":"bd6c733c"}}}}}