{
  "_format": "hh-sol-artifact-1",
  "contractName": "MyGov",
  "sourceName": "contracts/mygov.sol",
  "abi": [
    {
      "inputs": [
        {
          "internalType": "uint256",
          "name": "tokensupply",
          "type": "uint256"
        }
      ],
      "stateMutability": "nonpayable",
      "type": "constructor"
    },
    {
      "anonymous": false,
      "inputs": [
        {
          "indexed": true,
          "internalType": "address",
          "name": "owner",
          "type": "address"
        },
        {
          "indexed": true,
          "internalType": "address",
          "name": "spender",
          "type": "address"
        },
        {
          "indexed": false,
          "internalType": "uint256",
          "name": "value",
          "type": "uint256"
        }
      ],
      "name": "Approval",
      "type": "event"
    },
    {
      "anonymous": false,
      "inputs": [
        {
          "indexed": true,
          "internalType": "address",
          "name": "from",
          "type": "address"
        },
        {
          "indexed": true,
          "internalType": "address",
          "name": "to",
          "type": "address"
        },
        {
          "indexed": false,
          "internalType": "uint256",
          "name": "value",
          "type": "uint256"
        }
      ],
      "name": "Transfer",
      "type": "event"
    },
    {
      "inputs": [
        {
          "internalType": "address",
          "name": "owner",
          "type": "address"
        },
        {
          "internalType": "address",
          "name": "spender",
          "type": "address"
        }
      ],
      "name": "allowance",
      "outputs": [
        {
          "internalType": "uint256",
          "name": "",
          "type": "uint256"
        }
      ],
      "stateMutability": "view",
      "type": "function"
    },
    {
      "inputs": [
        {
          "internalType": "address",
          "name": "spender",
          "type": "address"
        },
        {
          "internalType": "uint256",
          "name": "amount",
          "type": "uint256"
        }
      ],
      "name": "approve",
      "outputs": [
        {
          "internalType": "bool",
          "name": "",
          "type": "bool"
        }
      ],
      "stateMutability": "nonpayable",
      "type": "function"
    },
    {
      "inputs": [
        {
          "internalType": "address",
          "name": "account",
          "type": "address"
        }
      ],
      "name": "balanceOf",
      "outputs": [
        {
          "internalType": "uint256",
          "name": "",
          "type": "uint256"
        }
      ],
      "stateMutability": "view",
      "type": "function"
    },
    {
      "inputs": [],
      "name": "decimals",
      "outputs": [
        {
          "internalType": "uint8",
          "name": "",
          "type": "uint8"
        }
      ],
      "stateMutability": "view",
      "type": "function"
    },
    {
      "inputs": [
        {
          "internalType": "address",
          "name": "spender",
          "type": "address"
        },
        {
          "internalType": "uint256",
          "name": "subtractedValue",
          "type": "uint256"
        }
      ],
      "name": "decreaseAllowance",
      "outputs": [
        {
          "internalType": "bool",
          "name": "",
          "type": "bool"
        }
      ],
      "stateMutability": "nonpayable",
      "type": "function"
    },
    {
      "inputs": [
        {
          "internalType": "address",
          "name": "memberaddr",
          "type": "address"
        },
        {
          "internalType": "uint256",
          "name": "projectid",
          "type": "uint256"
        }
      ],
      "name": "delegateVoteTo",
      "outputs": [],
      "stateMutability": "payable",
      "type": "function"
    },
    {
      "inputs": [],
      "name": "donateEther",
      "outputs": [],
      "stateMutability": "payable",
      "type": "function"
    },
    {
      "inputs": [
        {
          "internalType": "uint256",
          "name": "amount",
          "type": "uint256"
        }
      ],
      "name": "donateMyGovToken",
      "outputs": [],
      "stateMutability": "nonpayable",
      "type": "function"
    },
    {
      "inputs": [],
      "name": "faucet",
      "outputs": [],
      "stateMutability": "nonpayable",
      "type": "function"
    },
    {
      "inputs": [
        {
          "internalType": "uint256",
          "name": "projectid",
          "type": "uint256"
        }
      ],
      "name": "findSchIndex",
      "outputs": [
        {
          "internalType": "uint256",
          "name": "idx",
          "type": "uint256"
        }
      ],
      "stateMutability": "view",
      "type": "function"
    },
    {
      "inputs": [
        {
          "internalType": "uint256",
          "name": "projectid",
          "type": "uint256"
        }
      ],
      "name": "getEtherReceivedByProject",
      "outputs": [
        {
          "internalType": "uint256",
          "name": "amount",
          "type": "uint256"
        }
      ],
      "stateMutability": "view",
      "type": "function"
    },
    {
      "inputs": [
        {
          "internalType": "uint256",
          "name": "projectid",
          "type": "uint256"
        }
      ],
      "name": "getIsProjectFunded",
      "outputs": [
        {
          "internalType": "bool",
          "name": "funded",
          "type": "bool"
        }
      ],
      "stateMutability": "view",
      "type": "function"
    },
    {
      "inputs": [],
      "name": "getNoOfFundedProjects",
      "outputs": [
        {
          "internalType": "uint256",
          "name": "numfunded",
          "type": "uint256"
        }
      ],
      "stateMutability": "view",
      "type": "function"
    },
    {
      "inputs": [],
      "name": "getNoOfProjectProposals",
      "outputs": [
        {
          "internalType": "uint256",
          "name": "numproposals",
          "type": "uint256"
        }
      ],
      "stateMutability": "view",
      "type": "function"
    },
    {
      "inputs": [],
      "name": "getNoOfSurveys",
      "outputs": [
        {
          "internalType": "uint256",
          "name": "numsurveys",
          "type": "uint256"
        }
      ],
      "stateMutability": "view",
      "type": "function"
    },
    {
      "inputs": [
        {
          "internalType": "uint256",
          "name": "projectid",
          "type": "uint256"
        }
      ],
      "name": "getProjectInfo",
      "outputs": [
        {
          "internalType": "string",
          "name": "ipfshash",
          "type": "string"
        },
        {
          "internalType": "uint256",
          "name": "votedeadline",
          "type": "uint256"
        },
        {
          "internalType": "uint256[]",
          "name": "paymentamounts",
          "type": "uint256[]"
        },
        {
          "internalType": "uint256[]",
          "name": "payschedule",
          "type": "uint256[]"
        }
      ],
      "stateMutability": "view",
      "type": "function"
    },
    {
      "inputs": [
        {
          "internalType": "uint256",
          "name": "projectid",
          "type": "uint256"
        }
      ],
      "name": "getProjectNextPayment",
      "outputs": [
        {
          "internalType": "uint256",
          "name": "next",
          "type": "uint256"
        }
      ],
      "stateMutability": "view",
      "type": "function"
    },
    {
      "inputs": [
        {
          "internalType": "uint256",
          "name": "projectid",
          "type": "uint256"
        }
      ],
      "name": "getProjectOwner",
      "outputs": [
        {
          "internalType": "address",
          "name": "projectowner",
          "type": "address"
        }
      ],
      "stateMutability": "view",
      "type": "function"
    },
    {
      "inputs": [
        {
          "internalType": "uint256",
          "name": "surveyid",
          "type": "uint256"
        }
      ],
      "name": "getSurveyInfo",
      "outputs": [
        {
          "internalType": "string",
          "name": "ipfshash",
          "type": "string"
        },
        {
          "internalType": "uint256",
          "name": "surveydeadline",
          "type": "uint256"
        },
        {
          "internalType": "uint256",
          "name": "numchoices",
          "type": "uint256"
        },
        {
          "internalType": "uint256",
          "name": "atmostchoice",
          "type": "uint256"
        }
      ],
      "stateMutability": "view",
      "type": "function"
    },
    {
      "inputs": [
        {
          "internalType": "uint256",
          "name": "surveyid",
          "type": "uint256"
        }
      ],
      "name": "getSurveyOwner",
      "outputs": [
        {
          "internalType": "address",
          "name": "surveyowner",
          "type": "address"
        }
      ],
      "stateMutability": "view",
      "type": "function"
    },
    {
      "inputs": [
        {
          "internalType": "uint256",
          "name": "surveyid",
          "type": "uint256"
        }
      ],
      "name": "getSurveyResults",
      "outputs": [
        {
          "internalType": "uint256",
          "name": "numtaken",
          "type": "uint256"
        },
        {
          "internalType": "uint256[]",
          "name": "results",
          "type": "uint256[]"
        }
      ],
      "stateMutability": "view",
      "type": "function"
    },
    {
      "inputs": [
        {
          "internalType": "address",
          "name": "spender",
          "type": "address"
        },
        {
          "internalType": "uint256",
          "name": "addedValue",
          "type": "uint256"
        }
      ],
      "name": "increaseAllowance",
      "outputs": [
        {
          "internalType": "bool",
          "name": "",
          "type": "bool"
        }
      ],
      "stateMutability": "nonpayable",
      "type": "function"
    },
    {
      "inputs": [
        {
          "internalType": "address",
          "name": "useraddress",
          "type": "address"
        }
      ],
      "name": "isMember",
      "outputs": [
        {
          "internalType": "bool",
          "name": "",
          "type": "bool"
        }
      ],
      "stateMutability": "view",
      "type": "function"
    },
    {
      "inputs": [
        {
          "internalType": "address",
          "name": "to",
          "type": "address"
        },
        {
          "internalType": "uint256",
          "name": "amount",
          "type": "uint256"
        }
      ],
      "name": "mint",
      "outputs": [],
      "stateMutability": "nonpayable",
      "type": "function"
    },
    {
      "inputs": [],
      "name": "name",
      "outputs": [
        {
          "internalType": "string",
          "name": "",
          "type": "string"
        }
      ],
      "stateMutability": "view",
      "type": "function"
    },
    {
      "inputs": [
        {
          "internalType": "uint256",
          "name": "",
          "type": "uint256"
        }
      ],
      "name": "projectProposals",
      "outputs": [
        {
          "internalType": "uint256",
          "name": "voteCountForProjectProposal",
          "type": "uint256"
        },
        {
          "internalType": "uint256",
          "name": "totalFundingWei",
          "type": "uint256"
        },
        {
          "internalType": "uint256",
          "name": "deadline",
          "type": "uint256"
        },
        {
          "internalType": "string",
          "name": "ipfsHash",
          "type": "string"
        },
        {
          "internalType": "address",
          "name": "owner",
          "type": "address"
        },
        {
          "internalType": "bool",
          "name": "isStillFunded",
          "type": "bool"
        }
      ],
      "stateMutability": "view",
      "type": "function"
    },
    {
      "inputs": [
        {
          "internalType": "uint256",
          "name": "projectid",
          "type": "uint256"
        }
      ],
      "name": "reserveProjectGrant",
      "outputs": [],
      "stateMutability": "nonpayable",
      "type": "function"
    },
    {
      "inputs": [
        {
          "internalType": "string",
          "name": "ipfshash",
          "type": "string"
        },
        {
          "internalType": "uint256",
          "name": "votedeadline",
          "type": "uint256"
        },
        {
          "internalType": "uint256[]",
          "name": "paymentamounts",
          "type": "uint256[]"
        },
        {
          "internalType": "uint256[]",
          "name": "payschedule",
          "type": "uint256[]"
        }
      ],
      "name": "submitProjectProposal",
      "outputs": [
        {
          "internalType": "uint256",
          "name": "projectid",
          "type": "uint256"
        }
      ],
      "stateMutability": "payable",
      "type": "function"
    },
    {
      "inputs": [
        {
          "internalType": "string",
          "name": "ipfshash",
          "type": "string"
        },
        {
          "internalType": "uint256",
          "name": "surveydeadline",
          "type": "uint256"
        },
        {
          "internalType": "uint256",
          "name": "numchoices",
          "type": "uint256"
        },
        {
          "internalType": "uint256",
          "name": "atmostchoice",
          "type": "uint256"
        }
      ],
      "name": "submitSurvey",
      "outputs": [
        {
          "internalType": "uint256",
          "name": "surveyid",
          "type": "uint256"
        }
      ],
      "stateMutability": "payable",
      "type": "function"
    },
    {
      "inputs": [
        {
          "internalType": "uint256",
          "name": "",
          "type": "uint256"
        }
      ],
      "name": "surveys",
      "outputs": [
        {
          "internalType": "string",
          "name": "Ipfshash",
          "type": "string"
        },
        {
          "internalType": "address",
          "name": "Owner",
          "type": "address"
        },
        {
          "internalType": "uint256",
          "name": "Deadline",
          "type": "uint256"
        },
        {
          "internalType": "uint256",
          "name": "AtmostChoice",
          "type": "uint256"
        },
        {
          "internalType": "uint256",
          "name": "SurveyId",
          "type": "uint256"
        },
        {
          "internalType": "uint256",
          "name": "NumChoices",
          "type": "uint256"
        },
        {
          "internalType": "uint256",
          "name": "NumTaken",
          "type": "uint256"
        }
      ],
      "stateMutability": "view",
      "type": "function"
    },
    {
      "inputs": [],
      "name": "symbol",
      "outputs": [
        {
          "internalType": "string",
          "name": "",
          "type": "string"
        }
      ],
      "stateMutability": "view",
      "type": "function"
    },
    {
      "inputs": [
        {
          "internalType": "uint256",
          "name": "surveyid",
          "type": "uint256"
        },
        {
          "internalType": "uint256[]",
          "name": "choices",
          "type": "uint256[]"
        }
      ],
      "name": "takeSurvey",
      "outputs": [],
      "stateMutability": "nonpayable",
      "type": "function"
    },
    {
      "inputs": [],
      "name": "totalSupply",
      "outputs": [
        {
          "internalType": "uint256",
          "name": "",
          "type": "uint256"
        }
      ],
      "stateMutability": "view",
      "type": "function"
    },
    {
      "inputs": [
        {
          "internalType": "address",
          "name": "to",
          "type": "address"
        },
        {
          "internalType": "uint256",
          "name": "amount",
          "type": "uint256"
        }
      ],
      "name": "transfer",
      "outputs": [
        {
          "internalType": "bool",
          "name": "",
          "type": "bool"
        }
      ],
      "stateMutability": "nonpayable",
      "type": "function"
    },
    {
      "inputs": [
        {
          "internalType": "address",
          "name": "from",
          "type": "address"
        },
        {
          "internalType": "address",
          "name": "to",
          "type": "address"
        },
        {
          "internalType": "uint256",
          "name": "amount",
          "type": "uint256"
        }
      ],
      "name": "transferFrom",
      "outputs": [
        {
          "internalType": "bool",
          "name": "",
          "type": "bool"
        }
      ],
      "stateMutability": "nonpayable",
      "type": "function"
    },
    {
      "inputs": [
        {
          "internalType": "address",
          "name": "",
          "type": "address"
        }
      ],
      "name": "users",
      "outputs": [
        {
          "internalType": "uint256",
          "name": "myGovTokens",
          "type": "uint256"
        },
        {
          "internalType": "uint256",
          "name": "myGovTokensLockedUntil",
          "type": "uint256"
        },
        {
          "internalType": "bool",
          "name": "UsedFaucet",
          "type": "bool"
        }
      ],
      "stateMutability": "view",
      "type": "function"
    },
    {
      "inputs": [
        {
          "internalType": "uint256",
          "name": "projectid",
          "type": "uint256"
        },
        {
          "internalType": "bool",
          "name": "choice",
          "type": "bool"
        }
      ],
      "name": "voteForProjectProposal",
      "outputs": [],
      "stateMutability": "nonpayable",
      "type": "function"
    },
    {
      "inputs": [
        {
          "internalType": "uint256",
          "name": "projectid",
          "type": "uint256"
        },
        {
          "internalType": "bool",
          "name": "choice",
          "type": "bool"
        }
      ],
      "name": "votingforinstallment",
      "outputs": [],
      "stateMutability": "nonpayable",
      "type": "function"
    },
    {
      "inputs": [
        {
          "internalType": "uint256",
          "name": "projectid",
          "type": "uint256"
        }
      ],
      "name": "withdrawProjectPayment",
      "outputs": [],
      "stateMutability": "nonpayable",
      "type": "function"
    },
    {
      "stateMutability": "payable",
      "type": "receive"
    }
  ],
  "bytecode": "0x6080604052668e1bc9bf040000600a556002600b553480156200002157600080fd5b5060405162006baa38038062006baa83398181016040528101906200004791906200034d565b6040518060400160405280600581526020017f4d79476f760000000000000000000000000000000000000000000000000000008152506040518060400160405280600281526020017f4d470000000000000000000000000000000000000000000000000000000000008152508160039080519060200190620000cb92919062000286565b508060049080519060200190620000e492919062000286565b50505080600581905550806006819055506200010730826200010e60201b60201c565b506200053f565b600073ffffffffffffffffffffffffffffffffffffffff168273ffffffffffffffffffffffffffffffffffffffff16141562000181576040517f08c379a00000000000000000000000000000000000000000000000000000000081526004016200017890620003b1565b60405180910390fd5b62000195600083836200027c60201b60201c565b8060026000828254620001a9919062000401565b92505081905550806000808473ffffffffffffffffffffffffffffffffffffffff1673ffffffffffffffffffffffffffffffffffffffff168152602001908152602001600020600082825401925050819055508173ffffffffffffffffffffffffffffffffffffffff16600073ffffffffffffffffffffffffffffffffffffffff167fddf252ad1be2c89b69c2b068fc378daa952ba7f163c4a11628f55a4df523b3ef836040516200025c9190620003d3565b60405180910390a362000278600083836200028160201b60201c565b5050565b505050565b505050565b828054620002949062000468565b90600052602060002090601f016020900481019282620002b8576000855562000304565b82601f10620002d357805160ff191683800117855562000304565b8280016001018555821562000304579182015b8281111562000303578251825591602001919060010190620002e6565b5b50905062000313919062000317565b5090565b5b808211156200033257600081600090555060010162000318565b5090565b600081519050620003478162000525565b92915050565b6000602082840312156200036057600080fd5b6000620003708482850162000336565b91505092915050565b600062000388601f83620003f0565b91506200039582620004fc565b602082019050919050565b620003ab816200045e565b82525050565b60006020820190508181036000830152620003cc8162000379565b9050919050565b6000602082019050620003ea6000830184620003a0565b92915050565b600082825260208201905092915050565b60006200040e826200045e565b91506200041b836200045e565b9250827fffffffffffffffffffffffffffffffffffffffffffffffffffffffffffffffff038211156200045357620004526200049e565b5b828201905092915050565b6000819050919050565b600060028204905060018216806200048157607f821691505b60208210811415620004985762000497620004cd565b5b50919050565b7f4e487b7100000000000000000000000000000000000000000000000000000000600052601160045260246000fd5b7f4e487b7100000000000000000000000000000000000000000000000000000000600052602260045260246000fd5b7f45524332303a206d696e7420746f20746865207a65726f206164647265737300600082015250565b62000530816200045e565b81146200053c57600080fd5b50565b61665b806200054f6000396000f3fe6080604052600436106102345760003560e01c806392256aec1161012e578063b5003369116100ab578063dd62ed3e1161006f578063dd62ed3e1461092d578063de5f72fd1461096a578063ef269ae314610981578063f22449ba146109b1578063fabf5968146109da57610254565b8063b500336914610831578063bd2757641461086e578063bd6c733c14610897578063bf50556d146108c0578063dbc1d569146108eb57610254565b8063a230c524116100f2578063a230c5241461070b578063a457c2d714610748578063a5e898e114610785578063a87430ba146107b5578063a9059cbb146107f457610254565b806392256aec1461062157806394d9ff481461065e57806395d89b41146106875780639983fa58146106b2578063a1669b32146106ef57610254565b806339c94d2d116101bc57806370a56c731161018057806370a56c731461051c5780637c4051641461055a578063863451dd1461059757806386e68b90146105a1578063875b5076146105e457610254565b806339c94d2d1461043957806340c10f19146104625780635d801b371461048b578063702798df146104b657806370a08231146104df57610254565b806323b872dd1161020357806323b872dd1461032957806323fd498b146103665780632e8f341314610391578063313ce567146103d157806339509351146103fc57610254565b806306fdde0314610259578063095ea7b31461028457806318160ddd146102c15780631d2acdfd146102ec57610254565b3661025457346007600082825461024b9190615a7f565b92505081905550005b600080fd5b34801561026557600080fd5b5061026e610a1a565b60405161027b9190615365565b60405180910390f35b34801561029057600080fd5b506102ab60048036038101906102a69190614b30565b610aac565b6040516102b8919061534a565b60405180910390f35b3480156102cd57600080fd5b506102d6610acf565b6040516102e391906158a3565b60405180910390f35b3480156102f857600080fd5b50610313600480360381019061030e9190614cbb565b610ad9565b60405161032091906158a3565b60405180910390f35b34801561033557600080fd5b50610350600480360381019061034b9190614ae1565b610b7d565b60405161035d919061534a565b60405180910390f35b34801561037257600080fd5b5061037b610bac565b60405161038891906158a3565b60405180910390f35b34801561039d57600080fd5b506103b860048036038101906103b39190614cbb565b610bb9565b6040516103c89493929190615457565b60405180910390f35b3480156103dd57600080fd5b506103e6610d87565b6040516103f3919061598d565b60405180910390f35b34801561040857600080fd5b50610423600480360381019061041e9190614b30565b610d90565b604051610430919061534a565b60405180910390f35b34801561044557600080fd5b50610460600480360381019061045b9190614cbb565b610dc7565b005b34801561046e57600080fd5b5061048960048036038101906104849190614b30565b610f84565b005b34801561049757600080fd5b506104a0610f92565b6040516104ad91906158a3565b60405180910390f35b3480156104c257600080fd5b506104dd60048036038101906104d89190614ce4565b610f9f565b005b3480156104eb57600080fd5b5061050660048036038101906105019190614a7c565b6112ba565b60405161051391906158a3565b60405180910390f35b34801561052857600080fd5b50610543600480360381019061053e9190614cbb565b611302565b6040516105519291906158be565b60405180910390f35b34801561056657600080fd5b50610581600480360381019061057c9190614cbb565b6113f5565b60405161058e919061534a565b60405180910390f35b61059f6114bc565b005b3480156105ad57600080fd5b506105c860048036038101906105c39190614cbb565b6114d7565b6040516105db9796959493929190615387565b60405180910390f35b3480156105f057600080fd5b5061060b60048036038101906106069190614cbb565b6115d1565b60405161061891906152dd565b60405180910390f35b34801561062d57600080fd5b5061064860048036038101906106439190614cbb565b611646565b60405161065591906152dd565b60405180910390f35b34801561066a57600080fd5b5061068560048036038101906106809190614d38565b6116bb565b005b34801561069357600080fd5b5061069c611c5b565b6040516106a99190615365565b60405180910390f35b3480156106be57600080fd5b506106d960048036038101906106d49190614cbb565b611ced565b6040516106e691906158a3565b60405180910390f35b61070960048036038101906107049190614b30565b611d89565b005b34801561071757600080fd5b50610732600480360381019061072d9190614a7c565b6120f5565b60405161073f919061534a565b60405180910390f35b34801561075457600080fd5b5061076f600480360381019061076a9190614b30565b612109565b60405161077c919061534a565b60405180910390f35b61079f600480360381019061079a9190614b95565b612180565b6040516107ac91906158a3565b60405180910390f35b3480156107c157600080fd5b506107dc60048036038101906107d79190614a7c565b6124a4565b6040516107eb939291906158ee565b60405180910390f35b34801561080057600080fd5b5061081b60048036038101906108169190614b30565b6124db565b604051610828919061534a565b60405180910390f35b34801561083d57600080fd5b5061085860048036038101906108539190614cbb565b6124fe565b60405161086591906158a3565b60405180910390f35b34801561087a57600080fd5b5061089560048036038101906108909190614cbb565b612665565b005b3480156108a357600080fd5b506108be60048036038101906108b99190614cbb565b6129f8565b005b3480156108cc57600080fd5b506108d5613014565b6040516108e291906158a3565b60405180910390f35b3480156108f757600080fd5b50610912600480360381019061090d9190614cbb565b613063565b60405161092496959493929190615925565b60405180910390f35b34801561093957600080fd5b50610954600480360381019061094f9190614aa5565b613164565b60405161096191906158a3565b60405180910390f35b34801561097657600080fd5b5061097f6131eb565b005b61099b60048036038101906109969190614c40565b613412565b6040516109a891906158a3565b60405180910390f35b3480156109bd57600080fd5b506109d860048036038101906109d39190614d38565b6137f1565b005b3480156109e657600080fd5b50610a0160048036038101906109fc9190614cbb565b613ef2565b604051610a1194939291906153fd565b60405180910390f35b606060038054610a2990615c0c565b80601f0160208091040260200160405190810160405280929190818152602001828054610a5590615c0c565b8015610aa25780601f10610a7757610100808354040283529160200191610aa2565b820191906000526020600020905b815481529060010190602001808311610a8557829003601f168201915b5050505050905090565b600080610ab761415c565b9050610ac4818585614164565b600191505092915050565b6000600254905090565b600080610ae5836124fe565b9050600c8381548110610b21577f4e487b7100000000000000000000000000000000000000000000000000000000600052603260045260246000fd5b90600052602060002090600a02016004018181548110610b6a577f4e487b7100000000000000000000000000000000000000000000000000000000600052603260045260246000fd5b9060005260206000200154915050919050565b600080610b8861415c565b9050610b9585828561432f565b610ba08585856143bb565b60019150509392505050565b6000600c80549050905090565b60606000806000600f8581548110610bfa577f4e487b7100000000000000000000000000000000000000000000000000000000600052603260045260246000fd5b90600052602060002090600802016000018054610c1690615c0c565b80601f0160208091040260200160405190810160405280929190818152602001828054610c4290615c0c565b8015610c8f5780601f10610c6457610100808354040283529160200191610c8f565b820191906000526020600020905b815481529060010190602001808311610c7257829003601f168201915b50505050509350600f8581548110610cd0577f4e487b7100000000000000000000000000000000000000000000000000000000600052603260045260246000fd5b9060005260206000209060080201600201549250600f8581548110610d1e577f4e487b7100000000000000000000000000000000000000000000000000000000600052603260045260246000fd5b9060005260206000209060080201600501549150600f8581548110610d6c577f4e487b7100000000000000000000000000000000000000000000000000000000600052603260045260246000fd5b90600052602060002090600802016003015490509193509193565b60006012905090565b600080610d9b61415c565b9050610dbc818585610dad8589613164565b610db79190615a7f565b614164565b600191505092915050565b80600d60003373ffffffffffffffffffffffffffffffffffffffff1673ffffffffffffffffffffffffffffffffffffffff168152602001908152602001600020600001541015610e4c576040517f08c379a0000000000000000000000000000000000000000000000000000000008152600401610e4390615843565b60405180910390fd5b80600d60003373ffffffffffffffffffffffffffffffffffffffff1673ffffffffffffffffffffffffffffffffffffffff168152602001908152602001600020600001541180610ede575042600d60003373ffffffffffffffffffffffffffffffffffffffff1673ffffffffffffffffffffffffffffffffffffffff1681526020019081526020016000206006015411155b610f1d576040517f08c379a0000000000000000000000000000000000000000000000000000000008152600401610f1490615643565b60405180910390fd5b80600d60003373ffffffffffffffffffffffffffffffffffffffff1673ffffffffffffffffffffffffffffffffffffffff1681526020019081526020016000206000016000828254610f6f9190615b2f565b92505081905550610f8030826124db565b5050565b610f8e8282614633565b5050565b6000600f80549050905090565b6000600d60003373ffffffffffffffffffffffffffffffffffffffff1673ffffffffffffffffffffffffffffffffffffffff1681526020019081526020016000209050610feb336120f5565b61102a576040517f08c379a0000000000000000000000000000000000000000000000000000000008152600401611021906154e3565b60405180910390fd5b6000151581600301600085815260200190815260200160002060009054906101000a900460ff16151514611093576040517f08c379a000000000000000000000000000000000000000000000000000000000815260040161108a906156e3565b60405180910390fd5b42600f84815481106110ce577f4e487b7100000000000000000000000000000000000000000000000000000000600052603260045260246000fd5b9060005260206000209060080201600201541015611121576040517f08c379a000000000000000000000000000000000000000000000000000000000815260040161111890615663565b60405180910390fd5b60005b825181101561122357600f8481548110611167577f4e487b7100000000000000000000000000000000000000000000000000000000600052603260045260246000fd5b90600052602060002090600802016007018382815181106111b1577f4e487b7100000000000000000000000000000000000000000000000000000000600052603260045260246000fd5b6020026020010151815481106111f0577f4e487b7100000000000000000000000000000000000000000000000000000000600052603260045260246000fd5b90600052602060002001600081548092919061120b90615c6f565b9190505550808061121b90615c6f565b915050611124565b506001600f8481548110611260577f4e487b7100000000000000000000000000000000000000000000000000000000600052603260045260246000fd5b906000526020600020906008020160060160008282546112809190615a7f565b92505081905550600181600301600085815260200190815260200160002060006101000a81548160ff021916908315150217905550505050565b60008060008373ffffffffffffffffffffffffffffffffffffffff1673ffffffffffffffffffffffffffffffffffffffff168152602001908152602001600020549050919050565b60006060600f8381548110611340577f4e487b7100000000000000000000000000000000000000000000000000000000600052603260045260246000fd5b9060005260206000209060080201600601549150600f838154811061138e577f4e487b7100000000000000000000000000000000000000000000000000000000600052603260045260246000fd5b90600052602060002090600802016007018054806020026020016040519081016040528092919081815260200182805480156113e957602002820191906000526020600020905b8154815260200190600101908083116113d5575b50505050509050915091565b600081600c8054905011801561140c575060008210155b61144b576040517f08c379a000000000000000000000000000000000000000000000000000000000815260040161144290615523565b60405180910390fd5b600c8281548110611485577f4e487b7100000000000000000000000000000000000000000000000000000000600052603260045260246000fd5b90600052602060002090600a020160090160009054906101000a900460ff16156114b257600190506114b7565b600190505b919050565b34600760008282546114ce9190615a7f565b92505081905550565b600f81815481106114e757600080fd5b906000526020600020906008020160009150905080600001805461150a90615c0c565b80601f016020809104026020016040519081016040528092919081815260200182805461153690615c0c565b80156115835780601f1061155857610100808354040283529160200191611583565b820191906000526020600020905b81548152906001019060200180831161156657829003601f168201915b5050505050908060010160009054906101000a900473ffffffffffffffffffffffffffffffffffffffff16908060020154908060030154908060040154908060050154908060060154905087565b6000600f828154811061160d577f4e487b7100000000000000000000000000000000000000000000000000000000600052603260045260246000fd5b906000526020600020906008020160010160009054906101000a900473ffffffffffffffffffffffffffffffffffffffff169050919050565b6000600c8281548110611682577f4e487b7100000000000000000000000000000000000000000000000000000000600052603260045260246000fd5b90600052602060002090600a020160070160009054906101000a900473ffffffffffffffffffffffffffffffffffffffff169050919050565b60006116c6836124fe565b905082600c805490501180156116dd575060008310155b61171c576040517f08c379a000000000000000000000000000000000000000000000000000000000815260040161171390615523565b60405180910390fd5b6000600d60003373ffffffffffffffffffffffffffffffffffffffff1673ffffffffffffffffffffffffffffffffffffffff16815260200190815260200160002090506001151581600101600086815260200190815260200160002060009054906101000a900460ff16151514156117c9576040517f08c379a00000000000000000000000000000000000000000000000000000000081526004016117c090615583565b60405180910390fd5b600073ffffffffffffffffffffffffffffffffffffffff1681600501600086815260200190815260200160002060009054906101000a900473ffffffffffffffffffffffffffffffffffffffff1673ffffffffffffffffffffffffffffffffffffffff161461186d576040517f08c379a000000000000000000000000000000000000000000000000000000000815260040161186490615823565b60405180910390fd5b611876336120f5565b6118b5576040517f08c379a00000000000000000000000000000000000000000000000000000000081526004016118ac906157a3565b60405180910390fd5b60016118c057600080fd5b821561196c576001600c8581548110611902577f4e487b7100000000000000000000000000000000000000000000000000000000600052603260045260246000fd5b90600052602060002090600a0201600001838154811061194b577f4e487b7100000000000000000000000000000000000000000000000000000000600052603260045260246000fd5b9060005260206000200160008282546119649190615a7f565b925050819055505b6000600c85815481106119a8577f4e487b7100000000000000000000000000000000000000000000000000000000600052603260045260246000fd5b90600052602060002090600a020160000183815481106119f1577f4e487b7100000000000000000000000000000000000000000000000000000000600052603260045260246000fd5b9060005260206000200154905060095481611a0c9190615a7f565b816064611a199190615ad5565b1115611c54576001600c8681548110611a5b577f4e487b7100000000000000000000000000000000000000000000000000000000600052603260045260246000fd5b90600052602060002090600a02016008018481548110611aa4577f4e487b7100000000000000000000000000000000000000000000000000000000600052603260045260246000fd5b90600052602060002090602091828204019190066101000a81548160ff0219169083151502179055503073ffffffffffffffffffffffffffffffffffffffff166339509351600c8781548110611b23577f4e487b7100000000000000000000000000000000000000000000000000000000600052603260045260246000fd5b90600052602060002090600a020160070160009054906101000a900473ffffffffffffffffffffffffffffffffffffffff16600c8881548110611b8f577f4e487b7100000000000000000000000000000000000000000000000000000000600052603260045260246000fd5b90600052602060002090600a02016004018681548110611bd8577f4e487b7100000000000000000000000000000000000000000000000000000000600052603260045260246000fd5b90600052602060002001546040518363ffffffff1660e01b8152600401611c00929190615321565b602060405180830381600087803b158015611c1a57600080fd5b505af1158015611c2e573d6000803e3d6000fd5b505050506040513d601f19601f82011682018060405250810190611c529190614b6c565b505b5050505050565b606060048054611c6a90615c0c565b80601f0160208091040260200160405190810160405280929190818152602001828054611c9690615c0c565b8015611ce35780601f10611cb857610100808354040283529160200191611ce3565b820191906000526020600020905b815481529060010190602001808311611cc657829003601f168201915b5050505050905090565b600081600c8054905011611d36576040517f08c379a0000000000000000000000000000000000000000000000000000000008152600401611d2d90615743565b60405180910390fd5b600c8281548110611d70577f4e487b7100000000000000000000000000000000000000000000000000000000600052603260045260246000fd5b90600052602060002090600a0201600201549050919050565b60008290506000339050611d9c826120f5565b611ddb576040517f08c379a0000000000000000000000000000000000000000000000000000000008152600401611dd290615803565b60405180910390fd5b611de4816120f5565b611e23576040517f08c379a0000000000000000000000000000000000000000000000000000000008152600401611e1a90615723565b60405180910390fd5b8173ffffffffffffffffffffffffffffffffffffffff168173ffffffffffffffffffffffffffffffffffffffff161415611e92576040517f08c379a0000000000000000000000000000000000000000000000000000000008152600401611e89906155e3565b60405180910390fd5b600073ffffffffffffffffffffffffffffffffffffffff16600d60008373ffffffffffffffffffffffffffffffffffffffff1673ffffffffffffffffffffffffffffffffffffffff168152602001908152602001600020600501600085815260200190815260200160002060009054906101000a900473ffffffffffffffffffffffffffffffffffffffff1673ffffffffffffffffffffffffffffffffffffffff1614611f74576040517f08c379a0000000000000000000000000000000000000000000000000000000008152600401611f6b906156c3565b60405180910390fd5b600d60008373ffffffffffffffffffffffffffffffffffffffff1673ffffffffffffffffffffffffffffffffffffffff16815260200190815260200160002060040160405180604001604052808581526020018373ffffffffffffffffffffffffffffffffffffffff1681525090806001815401808255809150506001900390600052602060002090600202016000909190919091506000820151816000015560208201518160010160006101000a81548173ffffffffffffffffffffffffffffffffffffffff021916908373ffffffffffffffffffffffffffffffffffffffff160217905550505081600d60008373ffffffffffffffffffffffffffffffffffffffff1673ffffffffffffffffffffffffffffffffffffffff168152602001908152602001600020600501600085815260200190815260200160002060006101000a81548173ffffffffffffffffffffffffffffffffffffffff021916908373ffffffffffffffffffffffffffffffffffffffff16021790555050505050565b600080612101836112ba565b119050919050565b60008061211461415c565b905060006121228286613164565b905083811015612167576040517f08c379a000000000000000000000000000000000000000000000000000000000815260040161215e90615863565b60405180910390fd5b6121748286868403614164565b60019250505092915050565b600061218b336120f5565b6121ca576040517f08c379a00000000000000000000000000000000000000000000000000000000081526004016121c190615703565b60405180910390fd5b6000835167ffffffffffffffff81111561220d577f4e487b7100000000000000000000000000000000000000000000000000000000600052604160045260246000fd5b60405190808252806020026020018201604052801561223b5781602001602082028036833780820191505090505b5090506122493060056124db565b50600030905061225b81600b546124db565b50600b54600760008282546122709190615a7f565b92505081905550600c805490509250600060405180610140016040528084815260200160008152602001600081526020018881526020018781526020018681526020018981526020013373ffffffffffffffffffffffffffffffffffffffff168152602001875167ffffffffffffffff811115612316577f4e487b7100000000000000000000000000000000000000000000000000000000600052604160045260246000fd5b6040519080825280602002602001820160405280156123445781602001602082028036833780820191505090505b508152602001600015158152509050600c8190806001815401808255809150506001900390600052602060002090600a0201600090919091909150600082015181600001908051906020019061239b929190614794565b5060208201518160010155604082015181600201556060820151816003015560808201518160040190805190602001906123d6929190614794565b5060a08201518160050190805190602001906123f3929190614794565b5060c08201518160060190805190602001906124109291906147e1565b5060e08201518160070160006101000a81548173ffffffffffffffffffffffffffffffffffffffff021916908373ffffffffffffffffffffffffffffffffffffffff160217905550610100820151816008019080519060200190612475929190614867565b506101208201518160090160006101000a81548160ff0219169083151502179055505050505050949350505050565b600d6020528060005260406000206000915090508060000154908060060154908060070160009054906101000a900460ff16905083565b6000806124e661415c565b90506124f38185856143bb565b600191505092915050565b600080600090505b600c8381548110612540577f4e487b7100000000000000000000000000000000000000000000000000000000600052603260045260246000fd5b90600052602060002090600a02016005018054905081101561260d57600c8381548110612596577f4e487b7100000000000000000000000000000000000000000000000000000000600052603260045260246000fd5b90600052602060002090600a020160050181815481106125df577f4e487b7100000000000000000000000000000000000000000000000000000000600052603260045260246000fd5b90600052602060002001544210156125fa5780915050612660565b808061260590615c6f565b915050612506565b50600c8281548110612648577f4e487b7100000000000000000000000000000000000000000000000000000000600052603260045260246000fd5b90600052602060002090600a02016005018054905090505b919050565b61266e816113f5565b6126ad576040517f08c379a00000000000000000000000000000000000000000000000000000000081526004016126a490615683565b60405180910390fd5b80600c805490501180156126c2575060008110155b612701576040517f08c379a00000000000000000000000000000000000000000000000000000000081526004016126f890615523565b60405180910390fd5b6001612742576040517f08c379a000000000000000000000000000000000000000000000000000000000815260040161273990615623565b60405180910390fd5b6000805b600c8381548110612780577f4e487b7100000000000000000000000000000000000000000000000000000000600052603260045260246000fd5b90600052602060002090600a02016004018054905081101561284a57600c83815481106127d6577f4e487b7100000000000000000000000000000000000000000000000000000000600052603260045260246000fd5b90600052602060002090600a0201600401818154811061281f577f4e487b7100000000000000000000000000000000000000000000000000000000600052603260045260246000fd5b9060005260206000200154826128359190615a7f565b9150808061284290615c6f565b915050612746565b50600161288c576040517f08c379a0000000000000000000000000000000000000000000000000000000008152600401612883906155c3565b60405180910390fd5b600c82815481106128c6577f4e487b7100000000000000000000000000000000000000000000000000000000600052603260045260246000fd5b90600052602060002090600a020160020154600860008282546128e99190615a7f565b925050819055506129f3600c838154811061292d577f4e487b7100000000000000000000000000000000000000000000000000000000600052603260045260246000fd5b90600052602060002090600a020160070160009054906101000a900473ffffffffffffffffffffffffffffffffffffffff16600c8481548110612999577f4e487b7100000000000000000000000000000000000000000000000000000000600052603260045260246000fd5b90600052602060002090600a02016004016000815481106129e3577f4e487b7100000000000000000000000000000000000000000000000000000000600052603260045260246000fd5b9060005260206000200154610aac565b505050565b60006001612a05836124fe565b612a0f9190615b2f565b905081600c80549050118015612a26575060008210155b612a65576040517f08c379a0000000000000000000000000000000000000000000000000000000008152600401612a5c90615523565b60405180910390fd5b600c8281548110612a9f577f4e487b7100000000000000000000000000000000000000000000000000000000600052603260045260246000fd5b90600052602060002090600a020160070160009054906101000a900473ffffffffffffffffffffffffffffffffffffffff1673ffffffffffffffffffffffffffffffffffffffff163373ffffffffffffffffffffffffffffffffffffffff1614612b0857600080fd5b600c8281548110612b42577f4e487b7100000000000000000000000000000000000000000000000000000000600052603260045260246000fd5b90600052602060002090600a020160050180549050612b60836124fe565b1115612b6b57600080fd5b600c8281548110612ba5577f4e487b7100000000000000000000000000000000000000000000000000000000600052603260045260246000fd5b90600052602060002090600a02016005018181548110612bee577f4e487b7100000000000000000000000000000000000000000000000000000000600052603260045260246000fd5b90600052602060002050506001612c0457600080fd5b600080600c8481548110612c41577f4e487b7100000000000000000000000000000000000000000000000000000000600052603260045260246000fd5b90600052602060002090600a02016040518061014001604052908160008201805480602002602001604051908101604052809291908181526020018280548015612caa57602002820191906000526020600020905b815481526020019060010190808311612c96575b5050505050815260200160018201548152602001600282015481526020016003820154815260200160048201805480602002602001604051908101604052809291908181526020018280548015612d2057602002820191906000526020600020905b815481526020019060010190808311612d0c575b5050505050815260200160058201805480602002602001604051908101604052809291908181526020018280548015612d7857602002820191906000526020600020905b815481526020019060010190808311612d64575b50505050508152602001600682018054612d9190615c0c565b80601f0160208091040260200160405190810160405280929190818152602001828054612dbd90615c0c565b8015612e0a5780601f10612ddf57610100808354040283529160200191612e0a565b820191906000526020600020905b815481529060010190602001808311612ded57829003601f168201915b505050505081526020016007820160009054906101000a900473ffffffffffffffffffffffffffffffffffffffff1673ffffffffffffffffffffffffffffffffffffffff1673ffffffffffffffffffffffffffffffffffffffff16815260200160088201805480602002602001604051908101604052809291908181526020018280548015612edd57602002820191906000526020600020906000905b82829054906101000a900460ff16151581526020019060010190602082600001049283019260010382029150808411612ea75790505b505050505081526020016009820160009054906101000a900460ff161515151581525050905060005b838111612fbe578161010001518181518110612f4b577f4e487b7100000000000000000000000000000000000000000000000000000000600052603260045260246000fd5b602002602001015115612fab5781608001518181518110612f95577f4e487b7100000000000000000000000000000000000000000000000000000000600052603260045260246000fd5b602002602001015183612fa89190615a7f565b92505b8080612fb690615c6f565b915050612f06565b508160086000828254612fd19190615b2f565b925050819055508160076000828254612fea9190615b2f565b925050819055506000339050613001308285610b7d565b5061300d30828561432f565b5050505050565b6000806000905060005b600c8054905081101561305b57613034816113f5565b1561304857818061304490615c6f565b9250505b808061305390615c6f565b91505061301e565b508091505090565b600c818154811061307357600080fd5b90600052602060002090600a02016000915090508060010154908060020154908060030154908060060180546130a890615c0c565b80601f01602080910402602001604051908101604052809291908181526020018280546130d490615c0c565b80156131215780601f106130f657610100808354040283529160200191613121565b820191906000526020600020905b81548152906001019060200180831161310457829003601f168201915b5050505050908060070160009054906101000a900473ffffffffffffffffffffffffffffffffffffffff16908060090160009054906101000a900460ff16905086565b6000600160008473ffffffffffffffffffffffffffffffffffffffff1673ffffffffffffffffffffffffffffffffffffffff16815260200190815260200160002060008373ffffffffffffffffffffffffffffffffffffffff1673ffffffffffffffffffffffffffffffffffffffff16815260200190815260200160002054905092915050565b6000339050600060065411613235576040517f08c379a000000000000000000000000000000000000000000000000000000000815260040161322c90615503565b60405180910390fd5b60001515600d60008373ffffffffffffffffffffffffffffffffffffffff1673ffffffffffffffffffffffffffffffffffffffff16815260200190815260200160002060070160009054906101000a900460ff161515146132cb576040517f08c379a00000000000000000000000000000000000000000000000000000000081526004016132c290615763565b60405180910390fd5b3073ffffffffffffffffffffffffffffffffffffffff1663a9059cbb8260056040518363ffffffff1660e01b81526004016133079291906152f8565b602060405180830381600087803b15801561332157600080fd5b505af1158015613335573d6000803e3d6000fd5b505050506040513d601f19601f820116820180604052508101906133599190614b6c565b506001600d60008373ffffffffffffffffffffffffffffffffffffffff1673ffffffffffffffffffffffffffffffffffffffff16815260200190815260200160002060070160006101000a81548160ff0219169083151502179055506005600d60008373ffffffffffffffffffffffffffffffffffffffff1673ffffffffffffffffffffffffffffffffffffffff16815260200190815260200160002060000160008282546134089190615a7f565b9250508190555050565b600061341d336120f5565b61345c576040517f08c379a0000000000000000000000000000000000000000000000000000000008152600401613453906157c3565b60405180910390fd5b6002600d60003373ffffffffffffffffffffffffffffffffffffffff1673ffffffffffffffffffffffffffffffffffffffff1681526020019081526020016000206000015410156134e2576040517f08c379a00000000000000000000000000000000000000000000000000000000081526004016134d9906157c3565b60405180910390fd5b6002600d60003373ffffffffffffffffffffffffffffffffffffffff1673ffffffffffffffffffffffffffffffffffffffff168152602001908152602001600020600001541180613575575042600d60003373ffffffffffffffffffffffffffffffffffffffff1673ffffffffffffffffffffffffffffffffffffffff1681526020019081526020016000206006015411155b6135b4576040517f08c379a00000000000000000000000000000000000000000000000000000000081526004016135ab90615563565b60405180910390fd5b600a543410156135f9576040517f08c379a00000000000000000000000000000000000000000000000000000000081526004016135f0906154c3565b60405180910390fd5b60008367ffffffffffffffff81111561363b577f4e487b7100000000000000000000000000000000000000000000000000000000600052604160045260246000fd5b6040519080825280602002602001820160405280156136695781602001602082028036833780820191505090505b50905060006040518061010001604052808881526020013373ffffffffffffffffffffffffffffffffffffffff168152602001878152602001858152602001848152602001868152602001600081526020018381525090506136cc3060026124db565b50600a54600760008282546136e19190615a7f565b92505081905550600f81908060018154018082558091505060019003906000526020600020906008020160009091909190915060008201518160000190805190602001906137309291906147e1565b5060208201518160010160006101000a81548173ffffffffffffffffffffffffffffffffffffffff021916908373ffffffffffffffffffffffffffffffffffffffff16021790555060408201518160020155606082015181600301556080820151816004015560a0820151816005015560c0820151816006015560e08201518160070190805190602001906137c6929190614794565b5050506001600f805490506137db9190615b2f565b9250828160800181815250505050949350505050565b81600c80549050118015613806575060008210155b613845576040517f08c379a000000000000000000000000000000000000000000000000000000000815260040161383c90615523565b60405180910390fd5b6000600d60003373ffffffffffffffffffffffffffffffffffffffff1673ffffffffffffffffffffffffffffffffffffffff16815260200190815260200160002090506001151581600201600085815260200190815260200160002060009054906101000a900460ff16151514156138f2576040517f08c379a00000000000000000000000000000000000000000000000000000000081526004016138e9906156a3565b60405180910390fd5b600073ffffffffffffffffffffffffffffffffffffffff1681600501600085815260200190815260200160002060009054906101000a900473ffffffffffffffffffffffffffffffffffffffff1673ffffffffffffffffffffffffffffffffffffffff1614613996576040517f08c379a000000000000000000000000000000000000000000000000000000000815260040161398d90615823565b60405180910390fd5b61399f336120f5565b6139de576040517f08c379a00000000000000000000000000000000000000000000000000000000081526004016139d5906157a3565b60405180910390fd5b600181600201600085815260200190815260200160002060006101000a81548160ff0219169083151502179055508115613a7457600c8381548110613a4c577f4e487b7100000000000000000000000000000000000000000000000000000000600052603260045260246000fd5b90600052602060002090600a02016001016000815480929190613a6e90615c6f565b91905055505b600c8381548110613aae577f4e487b7100000000000000000000000000000000000000000000000000000000600052603260045260246000fd5b90600052602060002090600a02016003015481600601541015613b2057600c8381548110613b05577f4e487b7100000000000000000000000000000000000000000000000000000000600052603260045260246000fd5b90600052602060002090600a02016003015481600601819055505b60005b8160040180549050811015613dbe576000826004018281548110613b70577f4e487b7100000000000000000000000000000000000000000000000000000000600052603260045260246000fd5b9060005260206000209060020201604051806040016040529081600082015481526020016001820160009054906101000a900473ffffffffffffffffffffffffffffffffffffffff1673ffffffffffffffffffffffffffffffffffffffff1673ffffffffffffffffffffffffffffffffffffffff168152505090508481600001511415613daa576000600d6000836020015173ffffffffffffffffffffffffffffffffffffffff1673ffffffffffffffffffffffffffffffffffffffff168152602001908152602001600020905080600201600087815260200190815260200160002060009054906101000a900460ff16613da857600181600201600088815260200190815260200160002060006101000a81548160ff021916908315150217905550600c8681548110613ccd577f4e487b7100000000000000000000000000000000000000000000000000000000600052603260045260246000fd5b90600052602060002090600a02016003015481600601541015613d3f57600c8681548110613d24577f4e487b7100000000000000000000000000000000000000000000000000000000600052603260045260246000fd5b90600052602060002090600a02016003015481600601819055505b8415613da757600c8681548110613d7f577f4e487b7100000000000000000000000000000000000000000000000000000000600052603260045260246000fd5b90600052602060002090600a02016001016000815480929190613da190615c6f565b91905055505b5b505b508080613db690615c6f565b915050613b23565b50600c8381548110613df9577f4e487b7100000000000000000000000000000000000000000000000000000000600052603260045260246000fd5b90600052602060002090600a020160010154600a613e179190615ad5565b60095411613e88576001600c8481548110613e5b577f4e487b7100000000000000000000000000000000000000000000000000000000600052603260045260246000fd5b90600052602060002090600a020160090160006101000a81548160ff021916908315150217905550613eed565b6000600c8481548110613ec4577f4e487b7100000000000000000000000000000000000000000000000000000000600052603260045260246000fd5b90600052602060002090600a020160090160006101000a81548160ff0219169083151502179055505b505050565b60606000606080600c8581548110613f33577f4e487b7100000000000000000000000000000000000000000000000000000000600052603260045260246000fd5b90600052602060002090600a02016006018054613f4f90615c0c565b80601f0160208091040260200160405190810160405280929190818152602001828054613f7b90615c0c565b8015613fc85780601f10613f9d57610100808354040283529160200191613fc8565b820191906000526020600020905b815481529060010190602001808311613fab57829003601f168201915b50505050509350600c8581548110614009577f4e487b7100000000000000000000000000000000000000000000000000000000600052603260045260246000fd5b90600052602060002090600a0201600301549250600c8581548110614057577f4e487b7100000000000000000000000000000000000000000000000000000000600052603260045260246000fd5b90600052602060002090600a02016004018054806020026020016040519081016040528092919081815260200182805480156140b257602002820191906000526020600020905b81548152602001906001019080831161409e575b50505050509150600c85815481106140f3577f4e487b7100000000000000000000000000000000000000000000000000000000600052603260045260246000fd5b90600052602060002090600a020160050180548060200260200160405190810160405280929190818152602001828054801561414e57602002820191906000526020600020905b81548152602001906001019080831161413a575b505050505090509193509193565b600033905090565b600073ffffffffffffffffffffffffffffffffffffffff168373ffffffffffffffffffffffffffffffffffffffff1614156141d4576040517f08c379a00000000000000000000000000000000000000000000000000000000081526004016141cb906157e3565b60405180910390fd5b600073ffffffffffffffffffffffffffffffffffffffff168273ffffffffffffffffffffffffffffffffffffffff161415614244576040517f08c379a000000000000000000000000000000000000000000000000000000000815260040161423b90615543565b60405180910390fd5b80600160008573ffffffffffffffffffffffffffffffffffffffff1673ffffffffffffffffffffffffffffffffffffffff16815260200190815260200160002060008473ffffffffffffffffffffffffffffffffffffffff1673ffffffffffffffffffffffffffffffffffffffff168152602001908152602001600020819055508173ffffffffffffffffffffffffffffffffffffffff168373ffffffffffffffffffffffffffffffffffffffff167f8c5be1e5ebec7d5bd14f71427d1e84f3dd0314c0f7b2291e5b200ac8c7c3b9258360405161432291906158a3565b60405180910390a3505050565b600061433b8484613164565b90507fffffffffffffffffffffffffffffffffffffffffffffffffffffffffffffffff81146143b557818110156143a7576040517f08c379a000000000000000000000000000000000000000000000000000000000815260040161439e906155a3565b60405180910390fd5b6143b48484848403614164565b5b50505050565b600073ffffffffffffffffffffffffffffffffffffffff168373ffffffffffffffffffffffffffffffffffffffff16141561442b576040517f08c379a000000000000000000000000000000000000000000000000000000000815260040161442290615783565b60405180910390fd5b600073ffffffffffffffffffffffffffffffffffffffff168273ffffffffffffffffffffffffffffffffffffffff16141561449b576040517f08c379a0000000000000000000000000000000000000000000000000000000008152600401614492906154a3565b60405180910390fd5b6144a683838361478a565b60008060008573ffffffffffffffffffffffffffffffffffffffff1673ffffffffffffffffffffffffffffffffffffffff1681526020019081526020016000205490508181101561452c576040517f08c379a000000000000000000000000000000000000000000000000000000000815260040161452390615603565b60405180910390fd5b8181036000808673ffffffffffffffffffffffffffffffffffffffff1673ffffffffffffffffffffffffffffffffffffffff16815260200190815260200160002081905550816000808573ffffffffffffffffffffffffffffffffffffffff1673ffffffffffffffffffffffffffffffffffffffff168152602001908152602001600020600082825401925050819055508273ffffffffffffffffffffffffffffffffffffffff168473ffffffffffffffffffffffffffffffffffffffff167fddf252ad1be2c89b69c2b068fc378daa952ba7f163c4a11628f55a4df523b3ef8460405161461a91906158a3565b60405180910390a361462d84848461478f565b50505050565b600073ffffffffffffffffffffffffffffffffffffffff168273ffffffffffffffffffffffffffffffffffffffff1614156146a3576040517f08c379a000000000000000000000000000000000000000000000000000000000815260040161469a90615883565b60405180910390fd5b6146af6000838361478a565b80600260008282546146c19190615a7f565b92505081905550806000808473ffffffffffffffffffffffffffffffffffffffff1673ffffffffffffffffffffffffffffffffffffffff168152602001908152602001600020600082825401925050819055508173ffffffffffffffffffffffffffffffffffffffff16600073ffffffffffffffffffffffffffffffffffffffff167fddf252ad1be2c89b69c2b068fc378daa952ba7f163c4a11628f55a4df523b3ef8360405161477291906158a3565b60405180910390a36147866000838361478f565b5050565b505050565b505050565b8280548282559060005260206000209081019282156147d0579160200282015b828111156147cf5782518255916020019190600101906147b4565b5b5090506147dd919061490d565b5090565b8280546147ed90615c0c565b90600052602060002090601f01602090048101928261480f5760008555614856565b82601f1061482857805160ff1916838001178555614856565b82800160010185558215614856579182015b8281111561485557825182559160200191906001019061483a565b5b509050614863919061490d565b5090565b82805482825590600052602060002090601f016020900481019282156148fc5791602002820160005b838211156148cd57835183826101000a81548160ff0219169083151502179055509260200192600101602081600001049283019260010302614890565b80156148fa5782816101000a81549060ff02191690556001016020816000010492830192600103026148cd565b505b509050614909919061490d565b5090565b5b8082111561492657600081600090555060010161490e565b5090565b600061493d614938846159cd565b6159a8565b9050808382526020820190508285602086028201111561495c57600080fd5b60005b8581101561498c57816149728882614a67565b84526020840193506020830192505060018101905061495f565b5050509392505050565b60006149a96149a4846159f9565b6159a8565b9050828152602081018484840111156149c157600080fd5b6149cc848285615bca565b509392505050565b6000813590506149e3816165e0565b92915050565b600082601f8301126149fa57600080fd5b8135614a0a84826020860161492a565b91505092915050565b600081359050614a22816165f7565b92915050565b600081519050614a37816165f7565b92915050565b600082601f830112614a4e57600080fd5b8135614a5e848260208601614996565b91505092915050565b600081359050614a768161660e565b92915050565b600060208284031215614a8e57600080fd5b6000614a9c848285016149d4565b91505092915050565b60008060408385031215614ab857600080fd5b6000614ac6858286016149d4565b9250506020614ad7858286016149d4565b9150509250929050565b600080600060608486031215614af657600080fd5b6000614b04868287016149d4565b9350506020614b15868287016149d4565b9250506040614b2686828701614a67565b9150509250925092565b60008060408385031215614b4357600080fd5b6000614b51858286016149d4565b9250506020614b6285828601614a67565b9150509250929050565b600060208284031215614b7e57600080fd5b6000614b8c84828501614a28565b91505092915050565b60008060008060808587031215614bab57600080fd5b600085013567ffffffffffffffff811115614bc557600080fd5b614bd187828801614a3d565b9450506020614be287828801614a67565b935050604085013567ffffffffffffffff811115614bff57600080fd5b614c0b878288016149e9565b925050606085013567ffffffffffffffff811115614c2857600080fd5b614c34878288016149e9565b91505092959194509250565b60008060008060808587031215614c5657600080fd5b600085013567ffffffffffffffff811115614c7057600080fd5b614c7c87828801614a3d565b9450506020614c8d87828801614a67565b9350506040614c9e87828801614a67565b9250506060614caf87828801614a67565b91505092959194509250565b600060208284031215614ccd57600080fd5b6000614cdb84828501614a67565b91505092915050565b60008060408385031215614cf757600080fd5b6000614d0585828601614a67565b925050602083013567ffffffffffffffff811115614d2257600080fd5b614d2e858286016149e9565b9150509250929050565b60008060408385031215614d4b57600080fd5b6000614d5985828601614a67565b9250506020614d6a85828601614a13565b9150509250929050565b6000614d8083836152b0565b60208301905092915050565b614d9581615b63565b82525050565b6000614da682615a3a565b614db08185615a5d565b9350614dbb83615a2a565b8060005b83811015614dec578151614dd38882614d74565b9750614dde83615a50565b925050600181019050614dbf565b5085935050505092915050565b614e0281615b75565b82525050565b614e1181615bb8565b82525050565b6000614e2282615a45565b614e2c8185615a6e565b9350614e3c818560208601615bd9565b614e4581615d45565b840191505092915050565b6000614e5d602383615a6e565b9150614e6882615d56565b604082019050919050565b6000614e80602783615a6e565b9150614e8b82615da5565b604082019050919050565b6000614ea3602d83615a6e565b9150614eae82615df4565b604082019050919050565b6000614ec6602483615a6e565b9150614ed182615e43565b604082019050919050565b6000614ee9602583615a6e565b9150614ef482615e92565b604082019050919050565b6000614f0c602283615a6e565b9150614f1782615ee1565b604082019050919050565b6000614f2f600183615a6e565b9150614f3a82615f30565b602082019050919050565b6000614f52602883615a6e565b9150614f5d82615f59565b604082019050919050565b6000614f75601d83615a6e565b9150614f8082615fa8565b602082019050919050565b6000614f98602683615a6e565b9150614fa382615fd1565b604082019050919050565b6000614fbb602083615a6e565b9150614fc682616020565b602082019050919050565b6000614fde602683615a6e565b9150614fe982616049565b604082019050919050565b6000615001601883615a6e565b915061500c82616098565b602082019050919050565b6000615024603283615a6e565b915061502f826160c1565b604082019050919050565b6000615047601283615a6e565b915061505282616110565b602082019050919050565b600061506a601383615a6e565b915061507582616139565b602082019050919050565b600061508d601683615a6e565b915061509882616162565b602082019050919050565b60006150b0602483615a6e565b91506150bb8261618b565b604082019050919050565b60006150d3602683615a6e565b91506150de826161da565b604082019050919050565b60006150f6602683615a6e565b915061510182616229565b604082019050919050565b6000615119604383615a6e565b915061512482616278565b606082019050919050565b600061513c602983615a6e565b9150615147826162ed565b604082019050919050565b600061515f601c83615a6e565b915061516a8261633c565b602082019050919050565b6000615182602583615a6e565b915061518d82616365565b604082019050919050565b60006151a5602683615a6e565b91506151b0826163b4565b604082019050919050565b60006151c8600183615a6e565b91506151d382616403565b602082019050919050565b60006151eb602483615a6e565b91506151f68261642c565b604082019050919050565b600061520e602783615a6e565b91506152198261647b565b604082019050919050565b6000615231603883615a6e565b915061523c826164ca565b604082019050919050565b6000615254603d83615a6e565b915061525f82616519565b604082019050919050565b6000615277602583615a6e565b915061528282616568565b604082019050919050565b600061529a601f83615a6e565b91506152a5826165b7565b602082019050919050565b6152b981615ba1565b82525050565b6152c881615ba1565b82525050565b6152d781615bab565b82525050565b60006020820190506152f26000830184614d8c565b92915050565b600060408201905061530d6000830185614d8c565b61531a6020830184614e08565b9392505050565b60006040820190506153366000830185614d8c565b61534360208301846152bf565b9392505050565b600060208201905061535f6000830184614df9565b92915050565b6000602082019050818103600083015261537f8184614e17565b905092915050565b600060e08201905081810360008301526153a1818a614e17565b90506153b06020830189614d8c565b6153bd60408301886152bf565b6153ca60608301876152bf565b6153d760808301866152bf565b6153e460a08301856152bf565b6153f160c08301846152bf565b98975050505050505050565b600060808201905081810360008301526154178187614e17565b905061542660208301866152bf565b81810360408301526154388185614d9b565b9050818103606083015261544c8184614d9b565b905095945050505050565b600060808201905081810360008301526154718187614e17565b905061548060208301866152bf565b61548d60408301856152bf565b61549a60608301846152bf565b95945050505050565b600060208201905081810360008301526154bc81614e50565b9050919050565b600060208201905081810360008301526154dc81614e73565b9050919050565b600060208201905081810360008301526154fc81614e96565b9050919050565b6000602082019050818103600083015261551c81614eb9565b9050919050565b6000602082019050818103600083015261553c81614edc565b9050919050565b6000602082019050818103600083015261555c81614eff565b9050919050565b6000602082019050818103600083015261557c81614f22565b9050919050565b6000602082019050818103600083015261559c81614f45565b9050919050565b600060208201905081810360008301526155bc81614f68565b9050919050565b600060208201905081810360008301526155dc81614f8b565b9050919050565b600060208201905081810360008301526155fc81614fae565b9050919050565b6000602082019050818103600083015261561c81614fd1565b9050919050565b6000602082019050818103600083015261563c81614ff4565b9050919050565b6000602082019050818103600083015261565c81615017565b9050919050565b6000602082019050818103600083015261567c8161503a565b9050919050565b6000602082019050818103600083015261569c8161505d565b9050919050565b600060208201905081810360008301526156bc81615080565b9050919050565b600060208201905081810360008301526156dc816150a3565b9050919050565b600060208201905081810360008301526156fc816150c6565b9050919050565b6000602082019050818103600083015261571c816150e9565b9050919050565b6000602082019050818103600083015261573c8161510c565b9050919050565b6000602082019050818103600083015261575c8161512f565b9050919050565b6000602082019050818103600083015261577c81615152565b9050919050565b6000602082019050818103600083015261579c81615175565b9050919050565b600060208201905081810360008301526157bc81615198565b9050919050565b600060208201905081810360008301526157dc816151bb565b9050919050565b600060208201905081810360008301526157fc816151de565b9050919050565b6000602082019050818103600083015261581c81615201565b9050919050565b6000602082019050818103600083015261583c81615224565b9050919050565b6000602082019050818103600083015261585c81615247565b9050919050565b6000602082019050818103600083015261587c8161526a565b9050919050565b6000602082019050818103600083015261589c8161528d565b9050919050565b60006020820190506158b860008301846152bf565b92915050565b60006040820190506158d360008301856152bf565b81810360208301526158e58184614d9b565b90509392505050565b600060608201905061590360008301866152bf565b61591060208301856152bf565b61591d6040830184614df9565b949350505050565b600060c08201905061593a60008301896152bf565b61594760208301886152bf565b61595460408301876152bf565b81810360608301526159668186614e17565b90506159756080830185614d8c565b61598260a0830184614df9565b979650505050505050565b60006020820190506159a260008301846152ce565b92915050565b60006159b26159c3565b90506159be8282615c3e565b919050565b6000604051905090565b600067ffffffffffffffff8211156159e8576159e7615d16565b5b602082029050602081019050919050565b600067ffffffffffffffff821115615a1457615a13615d16565b5b615a1d82615d45565b9050602081019050919050565b6000819050602082019050919050565b600081519050919050565b600081519050919050565b6000602082019050919050565b600082825260208201905092915050565b600082825260208201905092915050565b6000615a8a82615ba1565b9150615a9583615ba1565b9250827fffffffffffffffffffffffffffffffffffffffffffffffffffffffffffffffff03821115615aca57615ac9615cb8565b5b828201905092915050565b6000615ae082615ba1565b9150615aeb83615ba1565b9250817fffffffffffffffffffffffffffffffffffffffffffffffffffffffffffffffff0483118215151615615b2457615b23615cb8565b5b828202905092915050565b6000615b3a82615ba1565b9150615b4583615ba1565b925082821015615b5857615b57615cb8565b5b828203905092915050565b6000615b6e82615b81565b9050919050565b60008115159050919050565b600073ffffffffffffffffffffffffffffffffffffffff82169050919050565b6000819050919050565b600060ff82169050919050565b6000615bc382615ba1565b9050919050565b82818337600083830152505050565b60005b83811015615bf7578082015181840152602081019050615bdc565b83811115615c06576000848401525b50505050565b60006002820490506001821680615c2457607f821691505b60208210811415615c3857615c37615ce7565b5b50919050565b615c4782615d45565b810181811067ffffffffffffffff82111715615c6657615c65615d16565b5b80604052505050565b6000615c7a82615ba1565b91507fffffffffffffffffffffffffffffffffffffffffffffffffffffffffffffffff821415615cad57615cac615cb8565b5b600182019050919050565b7f4e487b7100000000000000000000000000000000000000000000000000000000600052601160045260246000fd5b7f4e487b7100000000000000000000000000000000000000000000000000000000600052602260045260246000fd5b7f4e487b7100000000000000000000000000000000000000000000000000000000600052604160045260246000fd5b6000601f19601f8301169050919050565b7f45524332303a207472616e7366657220746f20746865207a65726f206164647260008201527f6573730000000000000000000000000000000000000000000000000000000000602082015250565b7f4e6f7420656e6f7567682065746865727320746f207375626d6974207468652060008201527f7375727665792e00000000000000000000000000000000000000000000000000602082015250565b7f4e6f6e206d656d626572732063616e6e6f74207061727469636970617465206960008201527f6e20746865207375727665792e00000000000000000000000000000000000000602082015250565b7f4e6f206d6f726520746f6b656e73206c65667420696e2074686520636f6e747260008201527f6163742e00000000000000000000000000000000000000000000000000000000602082015250565b7f4e6f20737563682070726f6a656374206578697374732077697468206769766560008201527f6e2069642e000000000000000000000000000000000000000000000000000000602082015250565b7f45524332303a20617070726f766520746f20746865207a65726f20616464726560008201527f7373000000000000000000000000000000000000000000000000000000000000602082015250565b7f3300000000000000000000000000000000000000000000000000000000000000600082015250565b7f557365722068617320616c726561647920766f74656420666f7220746869732060008201527f7061796d656e742e000000000000000000000000000000000000000000000000602082015250565b7f45524332303a20696e73756666696369656e7420616c6c6f77616e6365000000600082015250565b7f4e6f7420656e6f7567682065746865727320746f2066756e642074686520707260008201527f6f6a6563742e0000000000000000000000000000000000000000000000000000602082015250565b7f53656c662d64656c65676174696f6e206973206e6f7420706f737369626c652e600082015250565b7f45524332303a207472616e7366657220616d6f756e742065786365656473206260008201527f616c616e63650000000000000000000000000000000000000000000000000000602082015250565b7f54686520646561646c696e6520686173207061737365642e0000000000000000600082015250565b7f557365722063616e6e6f742064726f702069742773206d656d6265722073746160008201527f74757320647572696e6720766f74696e672e0000000000000000000000000000602082015250565b7f446561646c696e652065786365656465642e0000000000000000000000000000600082015250565b7f50726f6a656374206e6f742066756e6465642e00000000000000000000000000600082015250565b7f557365722068617320616c726561647920766f74656400000000000000000000600082015250565b7f5468652064656c65676174696f6e2068617320616c726561647920686170706560008201527f6e65642e00000000000000000000000000000000000000000000000000000000602082015250565b7f596f7520616c72656164792070617274696369706174656420696e207468652060008201527f7375727665790000000000000000000000000000000000000000000000000000602082015250565b7f4e6f6e2d6d656d626572732063616e6e6f742063616c6c20746869732066756e60008201527f6374696f6e2e0000000000000000000000000000000000000000000000000000602082015250565b7f4e6f6e2d6d656d6265727320646f6e277420686176652074686520726967687460008201527f20746f20766f74652074687573206e6f20726967687420746f2064656c65676160208201527f74652e0000000000000000000000000000000000000000000000000000000000604082015250565b7f4e6f2070726f6a6563742070726f706f73616c207769746820676976656e206960008201527f64206578697374732e0000000000000000000000000000000000000000000000602082015250565b7f596f7520616c7265616479207573656420746865206661756365742e00000000600082015250565b7f45524332303a207472616e736665722066726f6d20746865207a65726f20616460008201527f6472657373000000000000000000000000000000000000000000000000000000602082015250565b7f55736572206973206e6f742061206d656d62657220746875732063616e6e6f7460008201527f20766f74652e0000000000000000000000000000000000000000000000000000602082015250565b7f3100000000000000000000000000000000000000000000000000000000000000600082015250565b7f45524332303a20617070726f76652066726f6d20746865207a65726f2061646460008201527f7265737300000000000000000000000000000000000000000000000000000000602082015250565b7f44656c65676174696f6e2063616e206f6e6c7920626520646f6e6520746f206d60008201527f656d626572732e00000000000000000000000000000000000000000000000000602082015250565b7f55736572206861732064656c65676174656420736f6d656f6e6520656c73652060008201527f746f20766f746520666f72207468652070726f6a6563742e0000000000000000602082015250565b7f496e73756666696369656e74204d79476f76546f6b656e732062616c616e636560008201527f20666f7220656e746572656420646f6e6174696f6e20616d6f756e742e000000602082015250565b7f45524332303a2064656372656173656420616c6c6f77616e63652062656c6f7760008201527f207a65726f000000000000000000000000000000000000000000000000000000602082015250565b7f45524332303a206d696e7420746f20746865207a65726f206164647265737300600082015250565b6165e981615b63565b81146165f457600080fd5b50565b61660081615b75565b811461660b57600080fd5b50565b61661781615ba1565b811461662257600080fd5b5056fea2646970667358221220092628e03efcf0a565d8f5dbbc7f064ca59f5ae44dcc419d21226d3849a4fbb364736f6c63430008030033",
  "linkReferences": {},
  "deployedLinkReferences": {}
}