{
  "_format": "hh-sol-artifact-1",
  "contractName": "MyGov",
  "sourceName": "contracts/mygov.sol",
  "abi": [
    {
      "inputs": [
        {
          "internalType": "uint256",
          "name": "tokensupply",
          "type": "uint256"
        }
      ],
      "stateMutability": "nonpayable",
      "type": "constructor"
    },
    {
      "anonymous": false,
      "inputs": [
        {
          "indexed": true,
          "internalType": "address",
          "name": "owner",
          "type": "address"
        },
        {
          "indexed": true,
          "internalType": "address",
          "name": "spender",
          "type": "address"
        },
        {
          "indexed": false,
          "internalType": "uint256",
          "name": "value",
          "type": "uint256"
        }
      ],
      "name": "Approval",
      "type": "event"
    },
    {
      "anonymous": false,
      "inputs": [
        {
          "indexed": true,
          "internalType": "address",
          "name": "from",
          "type": "address"
        },
        {
          "indexed": true,
          "internalType": "address",
          "name": "to",
          "type": "address"
        },
        {
          "indexed": false,
          "internalType": "uint256",
          "name": "value",
          "type": "uint256"
        }
      ],
      "name": "Transfer",
      "type": "event"
    },
    {
      "inputs": [
        {
          "internalType": "address",
          "name": "owner",
          "type": "address"
        },
        {
          "internalType": "address",
          "name": "spender",
          "type": "address"
        }
      ],
      "name": "allowance",
      "outputs": [
        {
          "internalType": "uint256",
          "name": "",
          "type": "uint256"
        }
      ],
      "stateMutability": "view",
      "type": "function"
    },
    {
      "inputs": [
        {
          "internalType": "address",
          "name": "spender",
          "type": "address"
        },
        {
          "internalType": "uint256",
          "name": "amount",
          "type": "uint256"
        }
      ],
      "name": "approve",
      "outputs": [
        {
          "internalType": "bool",
          "name": "",
          "type": "bool"
        }
      ],
      "stateMutability": "nonpayable",
      "type": "function"
    },
    {
      "inputs": [
        {
          "internalType": "address",
          "name": "account",
          "type": "address"
        }
      ],
      "name": "balanceOf",
      "outputs": [
        {
          "internalType": "uint256",
          "name": "",
          "type": "uint256"
        }
      ],
      "stateMutability": "view",
      "type": "function"
    },
    {
      "inputs": [],
      "name": "decimals",
      "outputs": [
        {
          "internalType": "uint8",
          "name": "",
          "type": "uint8"
        }
      ],
      "stateMutability": "view",
      "type": "function"
    },
    {
      "inputs": [
        {
          "internalType": "address",
          "name": "spender",
          "type": "address"
        },
        {
          "internalType": "uint256",
          "name": "subtractedValue",
          "type": "uint256"
        }
      ],
      "name": "decreaseAllowance",
      "outputs": [
        {
          "internalType": "bool",
          "name": "",
          "type": "bool"
        }
      ],
      "stateMutability": "nonpayable",
      "type": "function"
    },
    {
      "inputs": [
        {
          "internalType": "address",
          "name": "memberaddr",
          "type": "address"
        },
        {
          "internalType": "uint256",
          "name": "projectid",
          "type": "uint256"
        }
      ],
      "name": "delegateVoteTo",
      "outputs": [],
      "stateMutability": "payable",
      "type": "function"
    },
    {
      "inputs": [],
      "name": "donateEther",
      "outputs": [],
      "stateMutability": "payable",
      "type": "function"
    },
    {
      "inputs": [
        {
          "internalType": "uint256",
          "name": "amount",
          "type": "uint256"
        }
      ],
      "name": "donateMyGovToken",
      "outputs": [],
      "stateMutability": "nonpayable",
      "type": "function"
    },
    {
      "inputs": [],
      "name": "faucet",
      "outputs": [],
      "stateMutability": "nonpayable",
      "type": "function"
    },
    {
      "inputs": [
        {
          "internalType": "uint256",
          "name": "projectid",
          "type": "uint256"
        }
      ],
      "name": "findSchIndex",
      "outputs": [
        {
          "internalType": "uint256",
          "name": "idx",
          "type": "uint256"
        }
      ],
      "stateMutability": "view",
      "type": "function"
    },
    {
      "inputs": [
        {
          "internalType": "uint256",
          "name": "projectid",
          "type": "uint256"
        }
      ],
      "name": "getEtherReceivedByProject",
      "outputs": [
        {
          "internalType": "uint256",
          "name": "amount",
          "type": "uint256"
        }
      ],
      "stateMutability": "view",
      "type": "function"
    },
    {
      "inputs": [
        {
          "internalType": "uint256",
          "name": "projectid",
          "type": "uint256"
        }
      ],
      "name": "getIsProjectFunded",
      "outputs": [
        {
          "internalType": "bool",
          "name": "funded",
          "type": "bool"
        }
      ],
      "stateMutability": "view",
      "type": "function"
    },
    {
      "inputs": [],
      "name": "getNoOfFundedProjects",
      "outputs": [
        {
          "internalType": "uint256",
          "name": "numfunded",
          "type": "uint256"
        }
      ],
      "stateMutability": "view",
      "type": "function"
    },
    {
      "inputs": [],
      "name": "getNoOfProjectProposals",
      "outputs": [
        {
          "internalType": "uint256",
          "name": "numproposals",
          "type": "uint256"
        }
      ],
      "stateMutability": "view",
      "type": "function"
    },
    {
      "inputs": [],
      "name": "getNoOfSurveys",
      "outputs": [
        {
          "internalType": "uint256",
          "name": "numsurveys",
          "type": "uint256"
        }
      ],
      "stateMutability": "view",
      "type": "function"
    },
    {
      "inputs": [
        {
          "internalType": "uint256",
          "name": "projectid",
          "type": "uint256"
        }
      ],
      "name": "getProjectInfo",
      "outputs": [
        {
          "internalType": "string",
          "name": "ipfshash",
          "type": "string"
        },
        {
          "internalType": "uint256",
          "name": "votedeadline",
          "type": "uint256"
        },
        {
          "internalType": "uint256[]",
          "name": "paymentamounts",
          "type": "uint256[]"
        },
        {
          "internalType": "uint256[]",
          "name": "payschedule",
          "type": "uint256[]"
        }
      ],
      "stateMutability": "view",
      "type": "function"
    },
    {
      "inputs": [
        {
          "internalType": "uint256",
          "name": "projectid",
          "type": "uint256"
        }
      ],
      "name": "getProjectNextPayment",
      "outputs": [
        {
          "internalType": "uint256",
          "name": "next",
          "type": "uint256"
        }
      ],
      "stateMutability": "view",
      "type": "function"
    },
    {
      "inputs": [
        {
          "internalType": "uint256",
          "name": "projectid",
          "type": "uint256"
        }
      ],
      "name": "getProjectOwner",
      "outputs": [
        {
          "internalType": "address",
          "name": "projectowner",
          "type": "address"
        }
      ],
      "stateMutability": "view",
      "type": "function"
    },
    {
      "inputs": [
        {
          "internalType": "uint256",
          "name": "surveyid",
          "type": "uint256"
        }
      ],
      "name": "getSurveyInfo",
      "outputs": [
        {
          "internalType": "string",
          "name": "ipfshash",
          "type": "string"
        },
        {
          "internalType": "uint256",
          "name": "surveydeadline",
          "type": "uint256"
        },
        {
          "internalType": "uint256",
          "name": "numchoices",
          "type": "uint256"
        },
        {
          "internalType": "uint256",
          "name": "atmostchoice",
          "type": "uint256"
        }
      ],
      "stateMutability": "view",
      "type": "function"
    },
    {
      "inputs": [
        {
          "internalType": "uint256",
          "name": "surveyid",
          "type": "uint256"
        }
      ],
      "name": "getSurveyOwner",
      "outputs": [
        {
          "internalType": "address",
          "name": "surveyowner",
          "type": "address"
        }
      ],
      "stateMutability": "view",
      "type": "function"
    },
    {
      "inputs": [
        {
          "internalType": "uint256",
          "name": "surveyid",
          "type": "uint256"
        }
      ],
      "name": "getSurveyResults",
      "outputs": [
        {
          "internalType": "uint256",
          "name": "numtaken",
          "type": "uint256"
        },
        {
          "internalType": "uint256[]",
          "name": "results",
          "type": "uint256[]"
        }
      ],
      "stateMutability": "view",
      "type": "function"
    },
    {
      "inputs": [
        {
          "internalType": "address",
          "name": "spender",
          "type": "address"
        },
        {
          "internalType": "uint256",
          "name": "addedValue",
          "type": "uint256"
        }
      ],
      "name": "increaseAllowance",
      "outputs": [
        {
          "internalType": "bool",
          "name": "",
          "type": "bool"
        }
      ],
      "stateMutability": "nonpayable",
      "type": "function"
    },
    {
      "inputs": [
        {
          "internalType": "address",
          "name": "useraddress",
          "type": "address"
        }
      ],
      "name": "isMember",
      "outputs": [
        {
          "internalType": "bool",
          "name": "",
          "type": "bool"
        }
      ],
      "stateMutability": "view",
      "type": "function"
    },
    {
      "inputs": [
        {
          "internalType": "address",
          "name": "to",
          "type": "address"
        },
        {
          "internalType": "uint256",
          "name": "amount",
          "type": "uint256"
        }
      ],
      "name": "mint",
      "outputs": [],
      "stateMutability": "nonpayable",
      "type": "function"
    },
    {
      "inputs": [],
      "name": "name",
      "outputs": [
        {
          "internalType": "string",
          "name": "",
          "type": "string"
        }
      ],
      "stateMutability": "view",
      "type": "function"
    },
    {
      "inputs": [
        {
          "internalType": "uint256",
          "name": "",
          "type": "uint256"
        }
      ],
      "name": "projectProposals",
      "outputs": [
        {
          "internalType": "uint256",
          "name": "voteCountForProjectProposal",
          "type": "uint256"
        },
        {
          "internalType": "uint256",
          "name": "totalFundingWei",
          "type": "uint256"
        },
        {
          "internalType": "uint256",
          "name": "deadline",
          "type": "uint256"
        },
        {
          "internalType": "string",
          "name": "ipfsHash",
          "type": "string"
        },
        {
          "internalType": "address",
          "name": "owner",
          "type": "address"
        },
        {
          "internalType": "bool",
          "name": "isStillFunded",
          "type": "bool"
        }
      ],
      "stateMutability": "view",
      "type": "function"
    },
    {
      "inputs": [
        {
          "internalType": "uint256",
          "name": "projectid",
          "type": "uint256"
        }
      ],
      "name": "reserveProjectGrant",
      "outputs": [],
      "stateMutability": "nonpayable",
      "type": "function"
    },
    {
      "inputs": [
        {
          "internalType": "string",
          "name": "ipfshash",
          "type": "string"
        },
        {
          "internalType": "uint256",
          "name": "votedeadline",
          "type": "uint256"
        },
        {
          "internalType": "uint256[]",
          "name": "paymentamounts",
          "type": "uint256[]"
        },
        {
          "internalType": "uint256[]",
          "name": "payschedule",
          "type": "uint256[]"
        }
      ],
      "name": "submitProjectProposal",
      "outputs": [
        {
          "internalType": "uint256",
          "name": "projectid",
          "type": "uint256"
        }
      ],
      "stateMutability": "payable",
      "type": "function"
    },
    {
      "inputs": [
        {
          "internalType": "string",
          "name": "ipfshash",
          "type": "string"
        },
        {
          "internalType": "uint256",
          "name": "surveydeadline",
          "type": "uint256"
        },
        {
          "internalType": "uint256",
          "name": "numchoices",
          "type": "uint256"
        },
        {
          "internalType": "uint256",
          "name": "atmostchoice",
          "type": "uint256"
        }
      ],
      "name": "submitSurvey",
      "outputs": [
        {
          "internalType": "uint256",
          "name": "surveyid",
          "type": "uint256"
        }
      ],
      "stateMutability": "payable",
      "type": "function"
    },
    {
      "inputs": [
        {
          "internalType": "uint256",
          "name": "",
          "type": "uint256"
        }
      ],
      "name": "surveys",
      "outputs": [
        {
          "internalType": "string",
          "name": "Ipfshash",
          "type": "string"
        },
        {
          "internalType": "address",
          "name": "Owner",
          "type": "address"
        },
        {
          "internalType": "uint256",
          "name": "Deadline",
          "type": "uint256"
        },
        {
          "internalType": "uint256",
          "name": "AtmostChoice",
          "type": "uint256"
        },
        {
          "internalType": "uint256",
          "name": "SurveyId",
          "type": "uint256"
        },
        {
          "internalType": "uint256",
          "name": "NumChoices",
          "type": "uint256"
        },
        {
          "internalType": "uint256",
          "name": "NumTaken",
          "type": "uint256"
        }
      ],
      "stateMutability": "view",
      "type": "function"
    },
    {
      "inputs": [],
      "name": "symbol",
      "outputs": [
        {
          "internalType": "string",
          "name": "",
          "type": "string"
        }
      ],
      "stateMutability": "view",
      "type": "function"
    },
    {
      "inputs": [
        {
          "internalType": "uint256",
          "name": "surveyid",
          "type": "uint256"
        },
        {
          "internalType": "uint256[]",
          "name": "choices",
          "type": "uint256[]"
        }
      ],
      "name": "takeSurvey",
      "outputs": [],
      "stateMutability": "nonpayable",
      "type": "function"
    },
    {
      "inputs": [],
      "name": "totalSupply",
      "outputs": [
        {
          "internalType": "uint256",
          "name": "",
          "type": "uint256"
        }
      ],
      "stateMutability": "view",
      "type": "function"
    },
    {
      "inputs": [
        {
          "internalType": "address",
          "name": "to",
          "type": "address"
        },
        {
          "internalType": "uint256",
          "name": "amount",
          "type": "uint256"
        }
      ],
      "name": "transfer",
      "outputs": [
        {
          "internalType": "bool",
          "name": "",
          "type": "bool"
        }
      ],
      "stateMutability": "nonpayable",
      "type": "function"
    },
    {
      "inputs": [
        {
          "internalType": "address",
          "name": "from",
          "type": "address"
        },
        {
          "internalType": "address",
          "name": "to",
          "type": "address"
        },
        {
          "internalType": "uint256",
          "name": "amount",
          "type": "uint256"
        }
      ],
      "name": "transferFrom",
      "outputs": [
        {
          "internalType": "bool",
          "name": "",
          "type": "bool"
        }
      ],
      "stateMutability": "nonpayable",
      "type": "function"
    },
    {
      "inputs": [
        {
          "internalType": "address",
          "name": "",
          "type": "address"
        }
      ],
      "name": "users",
      "outputs": [
        {
          "internalType": "uint256",
          "name": "myGovTokens",
          "type": "uint256"
        },
        {
          "internalType": "uint256",
          "name": "myGovTokensLockedUntil",
          "type": "uint256"
        },
        {
          "internalType": "bool",
          "name": "UsedFaucet",
          "type": "bool"
        }
      ],
      "stateMutability": "view",
      "type": "function"
    },
    {
      "inputs": [
        {
          "internalType": "uint256",
          "name": "projectid",
          "type": "uint256"
        },
        {
          "internalType": "bool",
          "name": "choice",
          "type": "bool"
        }
      ],
      "name": "voteForProjectProposal",
      "outputs": [],
      "stateMutability": "nonpayable",
      "type": "function"
    },
    {
      "inputs": [
        {
          "internalType": "uint256",
          "name": "projectid",
          "type": "uint256"
        },
        {
          "internalType": "bool",
          "name": "choice",
          "type": "bool"
        }
      ],
      "name": "votingforinstallment",
      "outputs": [],
      "stateMutability": "nonpayable",
      "type": "function"
    },
    {
      "inputs": [
        {
          "internalType": "uint256",
          "name": "projectid",
          "type": "uint256"
        }
      ],
      "name": "withdrawProjectPayment",
      "outputs": [],
      "stateMutability": "nonpayable",
      "type": "function"
    },
    {
      "stateMutability": "payable",
      "type": "receive"
    }
  ],
  "bytecode": "0x6080604052668e1bc9bf040000600a553480156200001c57600080fd5b5060405162006cfe38038062006cfe833981810160405281019062000042919062000348565b6040518060400160405280600581526020017f4d79476f760000000000000000000000000000000000000000000000000000008152506040518060400160405280600281526020017f4d470000000000000000000000000000000000000000000000000000000000008152508160039080519060200190620000c692919062000281565b508060049080519060200190620000df92919062000281565b50505080600581905550806006819055506200010230826200010960201b60201c565b506200053a565b600073ffffffffffffffffffffffffffffffffffffffff168273ffffffffffffffffffffffffffffffffffffffff1614156200017c576040517f08c379a00000000000000000000000000000000000000000000000000000000081526004016200017390620003ac565b60405180910390fd5b62000190600083836200027760201b60201c565b8060026000828254620001a49190620003fc565b92505081905550806000808473ffffffffffffffffffffffffffffffffffffffff1673ffffffffffffffffffffffffffffffffffffffff168152602001908152602001600020600082825401925050819055508173ffffffffffffffffffffffffffffffffffffffff16600073ffffffffffffffffffffffffffffffffffffffff167fddf252ad1be2c89b69c2b068fc378daa952ba7f163c4a11628f55a4df523b3ef83604051620002579190620003ce565b60405180910390a362000273600083836200027c60201b60201c565b5050565b505050565b505050565b8280546200028f9062000463565b90600052602060002090601f016020900481019282620002b35760008555620002ff565b82601f10620002ce57805160ff1916838001178555620002ff565b82800160010185558215620002ff579182015b82811115620002fe578251825591602001919060010190620002e1565b5b5090506200030e919062000312565b5090565b5b808211156200032d57600081600090555060010162000313565b5090565b600081519050620003428162000520565b92915050565b6000602082840312156200035b57600080fd5b60006200036b8482850162000331565b91505092915050565b600062000383601f83620003eb565b91506200039082620004f7565b602082019050919050565b620003a68162000459565b82525050565b60006020820190508181036000830152620003c78162000374565b9050919050565b6000602082019050620003e560008301846200039b565b92915050565b600082825260208201905092915050565b6000620004098262000459565b9150620004168362000459565b9250827fffffffffffffffffffffffffffffffffffffffffffffffffffffffffffffffff038211156200044e576200044d62000499565b5b828201905092915050565b6000819050919050565b600060028204905060018216806200047c57607f821691505b60208210811415620004935762000492620004c8565b5b50919050565b7f4e487b7100000000000000000000000000000000000000000000000000000000600052601160045260246000fd5b7f4e487b7100000000000000000000000000000000000000000000000000000000600052602260045260246000fd5b7f45524332303a206d696e7420746f20746865207a65726f206164647265737300600082015250565b6200052b8162000459565b81146200053757600080fd5b50565b6167b4806200054a6000396000f3fe6080604052600436106102345760003560e01c806392256aec1161012e578063b5003369116100ab578063dd62ed3e1161006f578063dd62ed3e1461092d578063de5f72fd1461096a578063ef269ae314610981578063f22449ba146109b1578063fabf5968146109da57610254565b8063b500336914610831578063bd2757641461086e578063bd6c733c14610897578063bf50556d146108c0578063dbc1d569146108eb57610254565b8063a230c524116100f2578063a230c5241461070b578063a457c2d714610748578063a5e898e114610785578063a87430ba146107b5578063a9059cbb146107f457610254565b806392256aec1461062157806394d9ff481461065e57806395d89b41146106875780639983fa58146106b2578063a1669b32146106ef57610254565b806339c94d2d116101bc57806370a56c731161018057806370a56c731461051c5780637c4051641461055a578063863451dd1461059757806386e68b90146105a1578063875b5076146105e457610254565b806339c94d2d1461043957806340c10f19146104625780635d801b371461048b578063702798df146104b657806370a08231146104df57610254565b806323b872dd1161020357806323b872dd1461032957806323fd498b146103665780632e8f341314610391578063313ce567146103d157806339509351146103fc57610254565b806306fdde0314610259578063095ea7b31461028457806318160ddd146102c15780631d2acdfd146102ec57610254565b3661025457346007600082825461024b9190615bac565b92505081905550005b600080fd5b34801561026557600080fd5b5061026e610a1a565b60405161027b9190615467565b60405180910390f35b34801561029057600080fd5b506102ab60048036038101906102a69190614bd7565b610aac565b6040516102b8919061544c565b60405180910390f35b3480156102cd57600080fd5b506102d6610acf565b6040516102e391906159c5565b60405180910390f35b3480156102f857600080fd5b50610313600480360381019061030e9190614d62565b610ad9565b60405161032091906159c5565b60405180910390f35b34801561033557600080fd5b50610350600480360381019061034b9190614b88565b610b7d565b60405161035d919061544c565b60405180910390f35b34801561037257600080fd5b5061037b610bac565b60405161038891906159c5565b60405180910390f35b34801561039d57600080fd5b506103b860048036038101906103b39190614d62565b610bb9565b6040516103c89493929190615559565b60405180910390f35b3480156103dd57600080fd5b506103e6610d87565b6040516103f39190615aaf565b60405180910390f35b34801561040857600080fd5b50610423600480360381019061041e9190614bd7565b610d90565b604051610430919061544c565b60405180910390f35b34801561044557600080fd5b50610460600480360381019061045b9190614d62565b610dc7565b005b34801561046e57600080fd5b5061048960048036038101906104849190614bd7565b610f84565b005b34801561049757600080fd5b506104a0610f92565b6040516104ad91906159c5565b60405180910390f35b3480156104c257600080fd5b506104dd60048036038101906104d89190614d8b565b610f9f565b005b3480156104eb57600080fd5b5061050660048036038101906105019190614b23565b6112ba565b60405161051391906159c5565b60405180910390f35b34801561052857600080fd5b50610543600480360381019061053e9190614d62565b611302565b6040516105519291906159e0565b60405180910390f35b34801561056657600080fd5b50610581600480360381019061057c9190614d62565b6113f5565b60405161058e919061544c565b60405180910390f35b61059f6114bc565b005b3480156105ad57600080fd5b506105c860048036038101906105c39190614d62565b6114be565b6040516105db9796959493929190615489565b60405180910390f35b3480156105f057600080fd5b5061060b60048036038101906106069190614d62565b6115b8565b60405161061891906153df565b60405180910390f35b34801561062d57600080fd5b5061064860048036038101906106439190614d62565b61162d565b60405161065591906153df565b60405180910390f35b34801561066a57600080fd5b5061068560048036038101906106809190614ddf565b6116a2565b005b34801561069357600080fd5b5061069c611c42565b6040516106a99190615467565b60405180910390f35b3480156106be57600080fd5b506106d960048036038101906106d49190614d62565b611cd4565b6040516106e691906159c5565b60405180910390f35b61070960048036038101906107049190614bd7565b611d70565b005b34801561071757600080fd5b50610732600480360381019061072d9190614b23565b6120dc565b60405161073f919061544c565b60405180910390f35b34801561075457600080fd5b5061076f600480360381019061076a9190614bd7565b6120f0565b60405161077c919061544c565b60405180910390f35b61079f600480360381019061079a9190614c3c565b612167565b6040516107ac91906159c5565b60405180910390f35b3480156107c157600080fd5b506107dc60048036038101906107d79190614b23565b61248e565b6040516107eb93929190615a10565b60405180910390f35b34801561080057600080fd5b5061081b60048036038101906108169190614bd7565b6124c5565b604051610828919061544c565b60405180910390f35b34801561083d57600080fd5b5061085860048036038101906108539190614d62565b6124e8565b60405161086591906159c5565b60405180910390f35b34801561087a57600080fd5b5061089560048036038101906108909190614d62565b61264f565b005b3480156108a357600080fd5b506108be60048036038101906108b99190614d62565b6129e2565b005b3480156108cc57600080fd5b506108d5612ffe565b6040516108e291906159c5565b60405180910390f35b3480156108f757600080fd5b50610912600480360381019061090d9190614d62565b61304d565b60405161092496959493929190615a47565b60405180910390f35b34801561093957600080fd5b50610954600480360381019061094f9190614b4c565b61314e565b60405161096191906159c5565b60405180910390f35b34801561097657600080fd5b5061097f6131d5565b005b61099b60048036038101906109969190614ce7565b6133fc565b6040516109a891906159c5565b60405180910390f35b3480156109bd57600080fd5b506109d860048036038101906109d39190614ddf565b613898565b005b3480156109e657600080fd5b50610a0160048036038101906109fc9190614d62565b613f99565b604051610a1194939291906154ff565b60405180910390f35b606060038054610a2990615d39565b80601f0160208091040260200160405190810160405280929190818152602001828054610a5590615d39565b8015610aa25780601f10610a7757610100808354040283529160200191610aa2565b820191906000526020600020905b815481529060010190602001808311610a8557829003601f168201915b5050505050905090565b600080610ab7614203565b9050610ac481858561420b565b600191505092915050565b6000600254905090565b600080610ae5836124e8565b9050600b8381548110610b21577f4e487b7100000000000000000000000000000000000000000000000000000000600052603260045260246000fd5b90600052602060002090600a02016004018181548110610b6a577f4e487b7100000000000000000000000000000000000000000000000000000000600052603260045260246000fd5b9060005260206000200154915050919050565b600080610b88614203565b9050610b958582856143d6565b610ba0858585614462565b60019150509392505050565b6000600b80549050905090565b60606000806000600e8581548110610bfa577f4e487b7100000000000000000000000000000000000000000000000000000000600052603260045260246000fd5b90600052602060002090600802016000018054610c1690615d39565b80601f0160208091040260200160405190810160405280929190818152602001828054610c4290615d39565b8015610c8f5780601f10610c6457610100808354040283529160200191610c8f565b820191906000526020600020905b815481529060010190602001808311610c7257829003601f168201915b50505050509350600e8581548110610cd0577f4e487b7100000000000000000000000000000000000000000000000000000000600052603260045260246000fd5b9060005260206000209060080201600201549250600e8581548110610d1e577f4e487b7100000000000000000000000000000000000000000000000000000000600052603260045260246000fd5b9060005260206000209060080201600501549150600e8581548110610d6c577f4e487b7100000000000000000000000000000000000000000000000000000000600052603260045260246000fd5b90600052602060002090600802016003015490509193509193565b60006012905090565b600080610d9b614203565b9050610dbc818585610dad858961314e565b610db79190615bac565b61420b565b600191505092915050565b80600c60003373ffffffffffffffffffffffffffffffffffffffff1673ffffffffffffffffffffffffffffffffffffffff168152602001908152602001600020600001541015610e4c576040517f08c379a0000000000000000000000000000000000000000000000000000000008152600401610e4390615965565b60405180910390fd5b80600c60003373ffffffffffffffffffffffffffffffffffffffff1673ffffffffffffffffffffffffffffffffffffffff168152602001908152602001600020600001541180610ede575042600c60003373ffffffffffffffffffffffffffffffffffffffff1673ffffffffffffffffffffffffffffffffffffffff1681526020019081526020016000206006015411155b610f1d576040517f08c379a0000000000000000000000000000000000000000000000000000000008152600401610f1490615725565b60405180910390fd5b80600c60003373ffffffffffffffffffffffffffffffffffffffff1673ffffffffffffffffffffffffffffffffffffffff1681526020019081526020016000206000016000828254610f6f9190615c5c565b92505081905550610f8030826124c5565b5050565b610f8e82826146da565b5050565b6000600e80549050905090565b6000600c60003373ffffffffffffffffffffffffffffffffffffffff1673ffffffffffffffffffffffffffffffffffffffff1681526020019081526020016000209050610feb336120dc565b61102a576040517f08c379a0000000000000000000000000000000000000000000000000000000008152600401611021906155c5565b60405180910390fd5b6000151581600301600085815260200190815260200160002060009054906101000a900460ff16151514611093576040517f08c379a000000000000000000000000000000000000000000000000000000000815260040161108a906157e5565b60405180910390fd5b42600e84815481106110ce577f4e487b7100000000000000000000000000000000000000000000000000000000600052603260045260246000fd5b9060005260206000209060080201600201541015611121576040517f08c379a000000000000000000000000000000000000000000000000000000000815260040161111890615745565b60405180910390fd5b60005b825181101561122357600e8481548110611167577f4e487b7100000000000000000000000000000000000000000000000000000000600052603260045260246000fd5b90600052602060002090600802016007018382815181106111b1577f4e487b7100000000000000000000000000000000000000000000000000000000600052603260045260246000fd5b6020026020010151815481106111f0577f4e487b7100000000000000000000000000000000000000000000000000000000600052603260045260246000fd5b90600052602060002001600081548092919061120b90615d9c565b9190505550808061121b90615d9c565b915050611124565b506001600e8481548110611260577f4e487b7100000000000000000000000000000000000000000000000000000000600052603260045260246000fd5b906000526020600020906008020160060160008282546112809190615bac565b92505081905550600181600301600085815260200190815260200160002060006101000a81548160ff021916908315150217905550505050565b60008060008373ffffffffffffffffffffffffffffffffffffffff1673ffffffffffffffffffffffffffffffffffffffff168152602001908152602001600020549050919050565b60006060600e8381548110611340577f4e487b7100000000000000000000000000000000000000000000000000000000600052603260045260246000fd5b9060005260206000209060080201600601549150600e838154811061138e577f4e487b7100000000000000000000000000000000000000000000000000000000600052603260045260246000fd5b90600052602060002090600802016007018054806020026020016040519081016040528092919081815260200182805480156113e957602002820191906000526020600020905b8154815260200190600101908083116113d5575b50505050509050915091565b600081600b8054905011801561140c575060008210155b61144b576040517f08c379a000000000000000000000000000000000000000000000000000000000815260040161144290615605565b60405180910390fd5b600b8281548110611485577f4e487b7100000000000000000000000000000000000000000000000000000000600052603260045260246000fd5b90600052602060002090600a020160090160009054906101000a900460ff16156114b257600190506114b7565b600190505b919050565b565b600e81815481106114ce57600080fd5b90600052602060002090600802016000915090508060000180546114f190615d39565b80601f016020809104026020016040519081016040528092919081815260200182805461151d90615d39565b801561156a5780601f1061153f5761010080835404028352916020019161156a565b820191906000526020600020905b81548152906001019060200180831161154d57829003601f168201915b5050505050908060010160009054906101000a900473ffffffffffffffffffffffffffffffffffffffff16908060020154908060030154908060040154908060050154908060060154905087565b6000600e82815481106115f4577f4e487b7100000000000000000000000000000000000000000000000000000000600052603260045260246000fd5b906000526020600020906008020160010160009054906101000a900473ffffffffffffffffffffffffffffffffffffffff169050919050565b6000600b8281548110611669577f4e487b7100000000000000000000000000000000000000000000000000000000600052603260045260246000fd5b90600052602060002090600a020160070160009054906101000a900473ffffffffffffffffffffffffffffffffffffffff169050919050565b60006116ad836124e8565b905082600b805490501180156116c4575060008310155b611703576040517f08c379a00000000000000000000000000000000000000000000000000000000081526004016116fa90615605565b60405180910390fd5b6000600c60003373ffffffffffffffffffffffffffffffffffffffff1673ffffffffffffffffffffffffffffffffffffffff16815260200190815260200160002090506001151581600101600086815260200190815260200160002060009054906101000a900460ff16151514156117b0576040517f08c379a00000000000000000000000000000000000000000000000000000000081526004016117a790615665565b60405180910390fd5b600073ffffffffffffffffffffffffffffffffffffffff1681600501600086815260200190815260200160002060009054906101000a900473ffffffffffffffffffffffffffffffffffffffff1673ffffffffffffffffffffffffffffffffffffffff1614611854576040517f08c379a000000000000000000000000000000000000000000000000000000000815260040161184b90615945565b60405180910390fd5b61185d336120dc565b61189c576040517f08c379a0000000000000000000000000000000000000000000000000000000008152600401611893906158c5565b60405180910390fd5b60016118a757600080fd5b8215611953576001600b85815481106118e9577f4e487b7100000000000000000000000000000000000000000000000000000000600052603260045260246000fd5b90600052602060002090600a02016000018381548110611932577f4e487b7100000000000000000000000000000000000000000000000000000000600052603260045260246000fd5b90600052602060002001600082825461194b9190615bac565b925050819055505b6000600b858154811061198f577f4e487b7100000000000000000000000000000000000000000000000000000000600052603260045260246000fd5b90600052602060002090600a020160000183815481106119d8577f4e487b7100000000000000000000000000000000000000000000000000000000600052603260045260246000fd5b90600052602060002001549050600954816119f39190615bac565b816064611a009190615c02565b1115611c3b576001600b8681548110611a42577f4e487b7100000000000000000000000000000000000000000000000000000000600052603260045260246000fd5b90600052602060002090600a02016008018481548110611a8b577f4e487b7100000000000000000000000000000000000000000000000000000000600052603260045260246000fd5b90600052602060002090602091828204019190066101000a81548160ff0219169083151502179055503073ffffffffffffffffffffffffffffffffffffffff166339509351600b8781548110611b0a577f4e487b7100000000000000000000000000000000000000000000000000000000600052603260045260246000fd5b90600052602060002090600a020160070160009054906101000a900473ffffffffffffffffffffffffffffffffffffffff16600b8881548110611b76577f4e487b7100000000000000000000000000000000000000000000000000000000600052603260045260246000fd5b90600052602060002090600a02016004018681548110611bbf577f4e487b7100000000000000000000000000000000000000000000000000000000600052603260045260246000fd5b90600052602060002001546040518363ffffffff1660e01b8152600401611be7929190615423565b602060405180830381600087803b158015611c0157600080fd5b505af1158015611c15573d6000803e3d6000fd5b505050506040513d601f19601f82011682018060405250810190611c399190614c13565b505b5050505050565b606060048054611c5190615d39565b80601f0160208091040260200160405190810160405280929190818152602001828054611c7d90615d39565b8015611cca5780601f10611c9f57610100808354040283529160200191611cca565b820191906000526020600020905b815481529060010190602001808311611cad57829003601f168201915b5050505050905090565b600081600b8054905011611d1d576040517f08c379a0000000000000000000000000000000000000000000000000000000008152600401611d1490615845565b60405180910390fd5b600b8281548110611d57577f4e487b7100000000000000000000000000000000000000000000000000000000600052603260045260246000fd5b90600052602060002090600a0201600201549050919050565b60008290506000339050611d83826120dc565b611dc2576040517f08c379a0000000000000000000000000000000000000000000000000000000008152600401611db990615925565b60405180910390fd5b611dcb816120dc565b611e0a576040517f08c379a0000000000000000000000000000000000000000000000000000000008152600401611e0190615825565b60405180910390fd5b8173ffffffffffffffffffffffffffffffffffffffff168173ffffffffffffffffffffffffffffffffffffffff161415611e79576040517f08c379a0000000000000000000000000000000000000000000000000000000008152600401611e70906156c5565b60405180910390fd5b600073ffffffffffffffffffffffffffffffffffffffff16600c60008373ffffffffffffffffffffffffffffffffffffffff1673ffffffffffffffffffffffffffffffffffffffff168152602001908152602001600020600501600085815260200190815260200160002060009054906101000a900473ffffffffffffffffffffffffffffffffffffffff1673ffffffffffffffffffffffffffffffffffffffff1614611f5b576040517f08c379a0000000000000000000000000000000000000000000000000000000008152600401611f52906157c5565b60405180910390fd5b600c60008373ffffffffffffffffffffffffffffffffffffffff1673ffffffffffffffffffffffffffffffffffffffff16815260200190815260200160002060040160405180604001604052808581526020018373ffffffffffffffffffffffffffffffffffffffff1681525090806001815401808255809150506001900390600052602060002090600202016000909190919091506000820151816000015560208201518160010160006101000a81548173ffffffffffffffffffffffffffffffffffffffff021916908373ffffffffffffffffffffffffffffffffffffffff160217905550505081600c60008373ffffffffffffffffffffffffffffffffffffffff1673ffffffffffffffffffffffffffffffffffffffff168152602001908152602001600020600501600085815260200190815260200160002060006101000a81548173ffffffffffffffffffffffffffffffffffffffff021916908373ffffffffffffffffffffffffffffffffffffffff16021790555050505050565b6000806120e8836112ba565b119050919050565b6000806120fb614203565b90506000612109828661314e565b90508381101561214e576040517f08c379a000000000000000000000000000000000000000000000000000000000815260040161214590615985565b60405180910390fd5b61215b828686840361420b565b60019250505092915050565b6000612172336120dc565b6121b1576040517f08c379a00000000000000000000000000000000000000000000000000000000081526004016121a890615805565b60405180910390fd5b6000835167ffffffffffffffff8111156121f4577f4e487b7100000000000000000000000000000000000000000000000000000000600052604160045260246000fd5b6040519080825280602002602001820160405280156122225781602001602082028036833780820191505090505b5090506000600590506122363060056124c5565b50600030905061224681836124c5565b5081600760008282546122599190615bac565b92505081905550600b805490509350600060405180610140016040528085815260200160008152602001600081526020018981526020018881526020018781526020018a81526020013373ffffffffffffffffffffffffffffffffffffffff168152602001885167ffffffffffffffff8111156122ff577f4e487b7100000000000000000000000000000000000000000000000000000000600052604160045260246000fd5b60405190808252806020026020018201604052801561232d5781602001602082028036833780820191505090505b508152602001600015158152509050600b8190806001815401808255809150506001900390600052602060002090600a0201600090919091909150600082015181600001908051906020019061238492919061483b565b5060208201518160010155604082015181600201556060820151816003015560808201518160040190805190602001906123bf92919061483b565b5060a08201518160050190805190602001906123dc92919061483b565b5060c08201518160060190805190602001906123f9929190614888565b5060e08201518160070160006101000a81548173ffffffffffffffffffffffffffffffffffffffff021916908373ffffffffffffffffffffffffffffffffffffffff16021790555061010082015181600801908051906020019061245e92919061490e565b506101208201518160090160006101000a81548160ff021916908315150217905550505050505050949350505050565b600c6020528060005260406000206000915090508060000154908060060154908060070160009054906101000a900460ff16905083565b6000806124d0614203565b90506124dd818585614462565b600191505092915050565b600080600090505b600b838154811061252a577f4e487b7100000000000000000000000000000000000000000000000000000000600052603260045260246000fd5b90600052602060002090600a0201600501805490508110156125f757600b8381548110612580577f4e487b7100000000000000000000000000000000000000000000000000000000600052603260045260246000fd5b90600052602060002090600a020160050181815481106125c9577f4e487b7100000000000000000000000000000000000000000000000000000000600052603260045260246000fd5b90600052602060002001544210156125e4578091505061264a565b80806125ef90615d9c565b9150506124f0565b50600b8281548110612632577f4e487b7100000000000000000000000000000000000000000000000000000000600052603260045260246000fd5b90600052602060002090600a02016005018054905090505b919050565b612658816113f5565b612697576040517f08c379a000000000000000000000000000000000000000000000000000000000815260040161268e90615765565b60405180910390fd5b80600b805490501180156126ac575060008110155b6126eb576040517f08c379a00000000000000000000000000000000000000000000000000000000081526004016126e290615605565b60405180910390fd5b600161272c576040517f08c379a000000000000000000000000000000000000000000000000000000000815260040161272390615705565b60405180910390fd5b6000805b600b838154811061276a577f4e487b7100000000000000000000000000000000000000000000000000000000600052603260045260246000fd5b90600052602060002090600a02016004018054905081101561283457600b83815481106127c0577f4e487b7100000000000000000000000000000000000000000000000000000000600052603260045260246000fd5b90600052602060002090600a02016004018181548110612809577f4e487b7100000000000000000000000000000000000000000000000000000000600052603260045260246000fd5b90600052602060002001548261281f9190615bac565b9150808061282c90615d9c565b915050612730565b506001612876576040517f08c379a000000000000000000000000000000000000000000000000000000000815260040161286d906156a5565b60405180910390fd5b600b82815481106128b0577f4e487b7100000000000000000000000000000000000000000000000000000000600052603260045260246000fd5b90600052602060002090600a020160020154600860008282546128d39190615bac565b925050819055506129dd600b8381548110612917577f4e487b7100000000000000000000000000000000000000000000000000000000600052603260045260246000fd5b90600052602060002090600a020160070160009054906101000a900473ffffffffffffffffffffffffffffffffffffffff16600b8481548110612983577f4e487b7100000000000000000000000000000000000000000000000000000000600052603260045260246000fd5b90600052602060002090600a02016004016000815481106129cd577f4e487b7100000000000000000000000000000000000000000000000000000000600052603260045260246000fd5b9060005260206000200154610aac565b505050565b600060016129ef836124e8565b6129f99190615c5c565b905081600b80549050118015612a10575060008210155b612a4f576040517f08c379a0000000000000000000000000000000000000000000000000000000008152600401612a4690615605565b60405180910390fd5b600b8281548110612a89577f4e487b7100000000000000000000000000000000000000000000000000000000600052603260045260246000fd5b90600052602060002090600a020160070160009054906101000a900473ffffffffffffffffffffffffffffffffffffffff1673ffffffffffffffffffffffffffffffffffffffff163373ffffffffffffffffffffffffffffffffffffffff1614612af257600080fd5b600b8281548110612b2c577f4e487b7100000000000000000000000000000000000000000000000000000000600052603260045260246000fd5b90600052602060002090600a020160050180549050612b4a836124e8565b1115612b5557600080fd5b600b8281548110612b8f577f4e487b7100000000000000000000000000000000000000000000000000000000600052603260045260246000fd5b90600052602060002090600a02016005018181548110612bd8577f4e487b7100000000000000000000000000000000000000000000000000000000600052603260045260246000fd5b90600052602060002050506001612bee57600080fd5b600080600b8481548110612c2b577f4e487b7100000000000000000000000000000000000000000000000000000000600052603260045260246000fd5b90600052602060002090600a02016040518061014001604052908160008201805480602002602001604051908101604052809291908181526020018280548015612c9457602002820191906000526020600020905b815481526020019060010190808311612c80575b5050505050815260200160018201548152602001600282015481526020016003820154815260200160048201805480602002602001604051908101604052809291908181526020018280548015612d0a57602002820191906000526020600020905b815481526020019060010190808311612cf6575b5050505050815260200160058201805480602002602001604051908101604052809291908181526020018280548015612d6257602002820191906000526020600020905b815481526020019060010190808311612d4e575b50505050508152602001600682018054612d7b90615d39565b80601f0160208091040260200160405190810160405280929190818152602001828054612da790615d39565b8015612df45780601f10612dc957610100808354040283529160200191612df4565b820191906000526020600020905b815481529060010190602001808311612dd757829003601f168201915b505050505081526020016007820160009054906101000a900473ffffffffffffffffffffffffffffffffffffffff1673ffffffffffffffffffffffffffffffffffffffff1673ffffffffffffffffffffffffffffffffffffffff16815260200160088201805480602002602001604051908101604052809291908181526020018280548015612ec757602002820191906000526020600020906000905b82829054906101000a900460ff16151581526020019060010190602082600001049283019260010382029150808411612e915790505b505050505081526020016009820160009054906101000a900460ff161515151581525050905060005b838111612fa8578161010001518181518110612f35577f4e487b7100000000000000000000000000000000000000000000000000000000600052603260045260246000fd5b602002602001015115612f955781608001518181518110612f7f577f4e487b7100000000000000000000000000000000000000000000000000000000600052603260045260246000fd5b602002602001015183612f929190615bac565b92505b8080612fa090615d9c565b915050612ef0565b508160086000828254612fbb9190615c5c565b925050819055508160076000828254612fd49190615c5c565b925050819055506000339050612feb308285610b7d565b50612ff73082856143d6565b5050505050565b6000806000905060005b600b805490508110156130455761301e816113f5565b1561303257818061302e90615d9c565b9250505b808061303d90615d9c565b915050613008565b508091505090565b600b818154811061305d57600080fd5b90600052602060002090600a020160009150905080600101549080600201549080600301549080600601805461309290615d39565b80601f01602080910402602001604051908101604052809291908181526020018280546130be90615d39565b801561310b5780601f106130e05761010080835404028352916020019161310b565b820191906000526020600020905b8154815290600101906020018083116130ee57829003601f168201915b5050505050908060070160009054906101000a900473ffffffffffffffffffffffffffffffffffffffff16908060090160009054906101000a900460ff16905086565b6000600160008473ffffffffffffffffffffffffffffffffffffffff1673ffffffffffffffffffffffffffffffffffffffff16815260200190815260200160002060008373ffffffffffffffffffffffffffffffffffffffff1673ffffffffffffffffffffffffffffffffffffffff16815260200190815260200160002054905092915050565b600033905060006006541161321f576040517f08c379a0000000000000000000000000000000000000000000000000000000008152600401613216906155e5565b60405180910390fd5b60001515600c60008373ffffffffffffffffffffffffffffffffffffffff1673ffffffffffffffffffffffffffffffffffffffff16815260200190815260200160002060070160009054906101000a900460ff161515146132b5576040517f08c379a00000000000000000000000000000000000000000000000000000000081526004016132ac90615865565b60405180910390fd5b3073ffffffffffffffffffffffffffffffffffffffff1663a9059cbb8260056040518363ffffffff1660e01b81526004016132f19291906153fa565b602060405180830381600087803b15801561330b57600080fd5b505af115801561331f573d6000803e3d6000fd5b505050506040513d601f19601f820116820180604052508101906133439190614c13565b506001600c60008373ffffffffffffffffffffffffffffffffffffffff1673ffffffffffffffffffffffffffffffffffffffff16815260200190815260200160002060070160006101000a81548160ff0219169083151502179055506005600c60008373ffffffffffffffffffffffffffffffffffffffff1673ffffffffffffffffffffffffffffffffffffffff16815260200190815260200160002060000160008282546133f29190615bac565b9250508190555050565b6000613407336120dc565b613446576040517f08c379a000000000000000000000000000000000000000000000000000000000815260040161343d906158e5565b60405180910390fd5b6002600c60003373ffffffffffffffffffffffffffffffffffffffff1673ffffffffffffffffffffffffffffffffffffffff1681526020019081526020016000206000015410156134cc576040517f08c379a00000000000000000000000000000000000000000000000000000000081526004016134c3906158e5565b60405180910390fd5b6002600c60003373ffffffffffffffffffffffffffffffffffffffff1673ffffffffffffffffffffffffffffffffffffffff16815260200190815260200160002060000154118061355f575042600c60003373ffffffffffffffffffffffffffffffffffffffff1673ffffffffffffffffffffffffffffffffffffffff1681526020019081526020016000206006015411155b61359e576040517f08c379a000000000000000000000000000000000000000000000000000000000815260040161359590615645565b60405180910390fd5b600a543410156135e3576040517f08c379a00000000000000000000000000000000000000000000000000000000081526004016135da90615785565b60405180910390fd5b60008367ffffffffffffffff811115613625577f4e487b7100000000000000000000000000000000000000000000000000000000600052604160045260246000fd5b6040519080825280602002602001820160405280156136535781602001602082028036833780820191505090505b50905060006040518061010001604052808881526020013373ffffffffffffffffffffffffffffffffffffffff168152602001878152602001858152602001848152602001868152602001600081526020018381525090506136b63060026124c5565b50600a54600760008282546136cb9190615bac565b92505081905550600e819080600181540180825580915050600190039060005260206000209060080201600090919091909150600082015181600001908051906020019061371a929190614888565b5060208201518160010160006101000a81548173ffffffffffffffffffffffffffffffffffffffff021916908373ffffffffffffffffffffffffffffffffffffffff16021790555060408201518160020155606082015181600301556080820151816004015560a0820151816005015560c0820151816006015560e08201518160070190805190602001906137b092919061483b565b5050506001600e805490506137c59190615c5c565b9250828160800181815250506000803373ffffffffffffffffffffffffffffffffffffffff16600a54346137f99190615c5c565b604051613805906153ca565b60006040518083038185875af1925050503d8060008114613842576040519150601f19603f3d011682016040523d82523d6000602084013e613847565b606091505b50915091508161388c576040517f08c379a000000000000000000000000000000000000000000000000000000000815260040161388390615885565b60405180910390fd5b50505050949350505050565b81600b805490501180156138ad575060008210155b6138ec576040517f08c379a00000000000000000000000000000000000000000000000000000000081526004016138e390615605565b60405180910390fd5b6000600c60003373ffffffffffffffffffffffffffffffffffffffff1673ffffffffffffffffffffffffffffffffffffffff16815260200190815260200160002090506001151581600201600085815260200190815260200160002060009054906101000a900460ff1615151415613999576040517f08c379a0000000000000000000000000000000000000000000000000000000008152600401613990906157a5565b60405180910390fd5b600073ffffffffffffffffffffffffffffffffffffffff1681600501600085815260200190815260200160002060009054906101000a900473ffffffffffffffffffffffffffffffffffffffff1673ffffffffffffffffffffffffffffffffffffffff1614613a3d576040517f08c379a0000000000000000000000000000000000000000000000000000000008152600401613a3490615945565b60405180910390fd5b613a46336120dc565b613a85576040517f08c379a0000000000000000000000000000000000000000000000000000000008152600401613a7c906158c5565b60405180910390fd5b600181600201600085815260200190815260200160002060006101000a81548160ff0219169083151502179055508115613b1b57600b8381548110613af3577f4e487b7100000000000000000000000000000000000000000000000000000000600052603260045260246000fd5b90600052602060002090600a02016001016000815480929190613b1590615d9c565b91905055505b600b8381548110613b55577f4e487b7100000000000000000000000000000000000000000000000000000000600052603260045260246000fd5b90600052602060002090600a02016003015481600601541015613bc757600b8381548110613bac577f4e487b7100000000000000000000000000000000000000000000000000000000600052603260045260246000fd5b90600052602060002090600a02016003015481600601819055505b60005b8160040180549050811015613e65576000826004018281548110613c17577f4e487b7100000000000000000000000000000000000000000000000000000000600052603260045260246000fd5b9060005260206000209060020201604051806040016040529081600082015481526020016001820160009054906101000a900473ffffffffffffffffffffffffffffffffffffffff1673ffffffffffffffffffffffffffffffffffffffff1673ffffffffffffffffffffffffffffffffffffffff168152505090508481600001511415613e51576000600c6000836020015173ffffffffffffffffffffffffffffffffffffffff1673ffffffffffffffffffffffffffffffffffffffff168152602001908152602001600020905080600201600087815260200190815260200160002060009054906101000a900460ff16613e4f57600181600201600088815260200190815260200160002060006101000a81548160ff021916908315150217905550600b8681548110613d74577f4e487b7100000000000000000000000000000000000000000000000000000000600052603260045260246000fd5b90600052602060002090600a02016003015481600601541015613de657600b8681548110613dcb577f4e487b7100000000000000000000000000000000000000000000000000000000600052603260045260246000fd5b90600052602060002090600a02016003015481600601819055505b8415613e4e57600b8681548110613e26577f4e487b7100000000000000000000000000000000000000000000000000000000600052603260045260246000fd5b90600052602060002090600a02016001016000815480929190613e4890615d9c565b91905055505b5b505b508080613e5d90615d9c565b915050613bca565b50600b8381548110613ea0577f4e487b7100000000000000000000000000000000000000000000000000000000600052603260045260246000fd5b90600052602060002090600a020160010154600a613ebe9190615c02565b60095411613f2f576001600b8481548110613f02577f4e487b7100000000000000000000000000000000000000000000000000000000600052603260045260246000fd5b90600052602060002090600a020160090160006101000a81548160ff021916908315150217905550613f94565b6000600b8481548110613f6b577f4e487b7100000000000000000000000000000000000000000000000000000000600052603260045260246000fd5b90600052602060002090600a020160090160006101000a81548160ff0219169083151502179055505b505050565b60606000606080600b8581548110613fda577f4e487b7100000000000000000000000000000000000000000000000000000000600052603260045260246000fd5b90600052602060002090600a02016006018054613ff690615d39565b80601f016020809104026020016040519081016040528092919081815260200182805461402290615d39565b801561406f5780601f106140445761010080835404028352916020019161406f565b820191906000526020600020905b81548152906001019060200180831161405257829003601f168201915b50505050509350600b85815481106140b0577f4e487b7100000000000000000000000000000000000000000000000000000000600052603260045260246000fd5b90600052602060002090600a0201600301549250600b85815481106140fe577f4e487b7100000000000000000000000000000000000000000000000000000000600052603260045260246000fd5b90600052602060002090600a020160040180548060200260200160405190810160405280929190818152602001828054801561415957602002820191906000526020600020905b815481526020019060010190808311614145575b50505050509150600b858154811061419a577f4e487b7100000000000000000000000000000000000000000000000000000000600052603260045260246000fd5b90600052602060002090600a02016005018054806020026020016040519081016040528092919081815260200182805480156141f557602002820191906000526020600020905b8154815260200190600101908083116141e1575b505050505090509193509193565b600033905090565b600073ffffffffffffffffffffffffffffffffffffffff168373ffffffffffffffffffffffffffffffffffffffff16141561427b576040517f08c379a000000000000000000000000000000000000000000000000000000000815260040161427290615905565b60405180910390fd5b600073ffffffffffffffffffffffffffffffffffffffff168273ffffffffffffffffffffffffffffffffffffffff1614156142eb576040517f08c379a00000000000000000000000000000000000000000000000000000000081526004016142e290615625565b60405180910390fd5b80600160008573ffffffffffffffffffffffffffffffffffffffff1673ffffffffffffffffffffffffffffffffffffffff16815260200190815260200160002060008473ffffffffffffffffffffffffffffffffffffffff1673ffffffffffffffffffffffffffffffffffffffff168152602001908152602001600020819055508173ffffffffffffffffffffffffffffffffffffffff168373ffffffffffffffffffffffffffffffffffffffff167f8c5be1e5ebec7d5bd14f71427d1e84f3dd0314c0f7b2291e5b200ac8c7c3b925836040516143c991906159c5565b60405180910390a3505050565b60006143e2848461314e565b90507fffffffffffffffffffffffffffffffffffffffffffffffffffffffffffffffff811461445c578181101561444e576040517f08c379a000000000000000000000000000000000000000000000000000000000815260040161444590615685565b60405180910390fd5b61445b848484840361420b565b5b50505050565b600073ffffffffffffffffffffffffffffffffffffffff168373ffffffffffffffffffffffffffffffffffffffff1614156144d2576040517f08c379a00000000000000000000000000000000000000000000000000000000081526004016144c9906158a5565b60405180910390fd5b600073ffffffffffffffffffffffffffffffffffffffff168273ffffffffffffffffffffffffffffffffffffffff161415614542576040517f08c379a0000000000000000000000000000000000000000000000000000000008152600401614539906155a5565b60405180910390fd5b61454d838383614831565b60008060008573ffffffffffffffffffffffffffffffffffffffff1673ffffffffffffffffffffffffffffffffffffffff168152602001908152602001600020549050818110156145d3576040517f08c379a00000000000000000000000000000000000000000000000000000000081526004016145ca906156e5565b60405180910390fd5b8181036000808673ffffffffffffffffffffffffffffffffffffffff1673ffffffffffffffffffffffffffffffffffffffff16815260200190815260200160002081905550816000808573ffffffffffffffffffffffffffffffffffffffff1673ffffffffffffffffffffffffffffffffffffffff168152602001908152602001600020600082825401925050819055508273ffffffffffffffffffffffffffffffffffffffff168473ffffffffffffffffffffffffffffffffffffffff167fddf252ad1be2c89b69c2b068fc378daa952ba7f163c4a11628f55a4df523b3ef846040516146c191906159c5565b60405180910390a36146d4848484614836565b50505050565b600073ffffffffffffffffffffffffffffffffffffffff168273ffffffffffffffffffffffffffffffffffffffff16141561474a576040517f08c379a0000000000000000000000000000000000000000000000000000000008152600401614741906159a5565b60405180910390fd5b61475660008383614831565b80600260008282546147689190615bac565b92505081905550806000808473ffffffffffffffffffffffffffffffffffffffff1673ffffffffffffffffffffffffffffffffffffffff168152602001908152602001600020600082825401925050819055508173ffffffffffffffffffffffffffffffffffffffff16600073ffffffffffffffffffffffffffffffffffffffff167fddf252ad1be2c89b69c2b068fc378daa952ba7f163c4a11628f55a4df523b3ef8360405161481991906159c5565b60405180910390a361482d60008383614836565b5050565b505050565b505050565b828054828255906000526020600020908101928215614877579160200282015b8281111561487657825182559160200191906001019061485b565b5b50905061488491906149b4565b5090565b82805461489490615d39565b90600052602060002090601f0160209004810192826148b657600085556148fd565b82601f106148cf57805160ff19168380011785556148fd565b828001600101855582156148fd579182015b828111156148fc5782518255916020019190600101906148e1565b5b50905061490a91906149b4565b5090565b82805482825590600052602060002090601f016020900481019282156149a35791602002820160005b8382111561497457835183826101000a81548160ff0219169083151502179055509260200192600101602081600001049283019260010302614937565b80156149a15782816101000a81549060ff0219169055600101602081600001049283019260010302614974565b505b5090506149b091906149b4565b5090565b5b808211156149cd5760008160009055506001016149b5565b5090565b60006149e46149df84615aef565b615aca565b90508083825260208201905082856020860282011115614a0357600080fd5b60005b85811015614a335781614a198882614b0e565b845260208401935060208301925050600181019050614a06565b5050509392505050565b6000614a50614a4b84615b1b565b615aca565b905082815260208101848484011115614a6857600080fd5b614a73848285615cf7565b509392505050565b600081359050614a8a81616739565b92915050565b600082601f830112614aa157600080fd5b8135614ab18482602086016149d1565b91505092915050565b600081359050614ac981616750565b92915050565b600081519050614ade81616750565b92915050565b600082601f830112614af557600080fd5b8135614b05848260208601614a3d565b91505092915050565b600081359050614b1d81616767565b92915050565b600060208284031215614b3557600080fd5b6000614b4384828501614a7b565b91505092915050565b60008060408385031215614b5f57600080fd5b6000614b6d85828601614a7b565b9250506020614b7e85828601614a7b565b9150509250929050565b600080600060608486031215614b9d57600080fd5b6000614bab86828701614a7b565b9350506020614bbc86828701614a7b565b9250506040614bcd86828701614b0e565b9150509250925092565b60008060408385031215614bea57600080fd5b6000614bf885828601614a7b565b9250506020614c0985828601614b0e565b9150509250929050565b600060208284031215614c2557600080fd5b6000614c3384828501614acf565b91505092915050565b60008060008060808587031215614c5257600080fd5b600085013567ffffffffffffffff811115614c6c57600080fd5b614c7887828801614ae4565b9450506020614c8987828801614b0e565b935050604085013567ffffffffffffffff811115614ca657600080fd5b614cb287828801614a90565b925050606085013567ffffffffffffffff811115614ccf57600080fd5b614cdb87828801614a90565b91505092959194509250565b60008060008060808587031215614cfd57600080fd5b600085013567ffffffffffffffff811115614d1757600080fd5b614d2387828801614ae4565b9450506020614d3487828801614b0e565b9350506040614d4587828801614b0e565b9250506060614d5687828801614b0e565b91505092959194509250565b600060208284031215614d7457600080fd5b6000614d8284828501614b0e565b91505092915050565b60008060408385031215614d9e57600080fd5b6000614dac85828601614b0e565b925050602083013567ffffffffffffffff811115614dc957600080fd5b614dd585828601614a90565b9150509250929050565b60008060408385031215614df257600080fd5b6000614e0085828601614b0e565b9250506020614e1185828601614aba565b9150509250929050565b6000614e27838361539d565b60208301905092915050565b614e3c81615c90565b82525050565b6000614e4d82615b5c565b614e578185615b7f565b9350614e6283615b4c565b8060005b83811015614e93578151614e7a8882614e1b565b9750614e8583615b72565b925050600181019050614e66565b5085935050505092915050565b614ea981615ca2565b82525050565b614eb881615ce5565b82525050565b6000614ec982615b67565b614ed38185615b9b565b9350614ee3818560208601615d06565b614eec81615e72565b840191505092915050565b6000614f04602383615b9b565b9150614f0f82615e83565b604082019050919050565b6000614f27602d83615b9b565b9150614f3282615ed2565b604082019050919050565b6000614f4a602483615b9b565b9150614f5582615f21565b604082019050919050565b6000614f6d602583615b9b565b9150614f7882615f70565b604082019050919050565b6000614f90602283615b9b565b9150614f9b82615fbf565b604082019050919050565b6000614fb3600183615b9b565b9150614fbe8261600e565b602082019050919050565b6000614fd6602883615b9b565b9150614fe182616037565b604082019050919050565b6000614ff9601d83615b9b565b915061500482616086565b602082019050919050565b600061501c602683615b9b565b9150615027826160af565b604082019050919050565b600061503f602083615b9b565b915061504a826160fe565b602082019050919050565b6000615062602683615b9b565b915061506d82616127565b604082019050919050565b6000615085601883615b9b565b915061509082616176565b602082019050919050565b60006150a8603283615b9b565b91506150b38261619f565b604082019050919050565b60006150cb601283615b9b565b91506150d6826161ee565b602082019050919050565b60006150ee601383615b9b565b91506150f982616217565b602082019050919050565b6000615111602983615b9b565b915061511c82616240565b604082019050919050565b6000615134601683615b9b565b915061513f8261628f565b602082019050919050565b6000615157602483615b9b565b9150615162826162b8565b604082019050919050565b600061517a602683615b9b565b915061518582616307565b604082019050919050565b600061519d602683615b9b565b91506151a882616356565b604082019050919050565b60006151c0604383615b9b565b91506151cb826163a5565b606082019050919050565b60006151e3602983615b9b565b91506151ee8261641a565b604082019050919050565b6000615206601c83615b9b565b915061521182616469565b602082019050919050565b6000615229601083615b9b565b915061523482616492565b602082019050919050565b600061524c602583615b9b565b9150615257826164bb565b604082019050919050565b600061526f602683615b9b565b915061527a8261650a565b604082019050919050565b6000615292600083615b90565b915061529d82616559565b600082019050919050565b60006152b5600183615b9b565b91506152c08261655c565b602082019050919050565b60006152d8602483615b9b565b91506152e382616585565b604082019050919050565b60006152fb602783615b9b565b9150615306826165d4565b604082019050919050565b600061531e603883615b9b565b915061532982616623565b604082019050919050565b6000615341603d83615b9b565b915061534c82616672565b604082019050919050565b6000615364602583615b9b565b915061536f826166c1565b604082019050919050565b6000615387601f83615b9b565b915061539282616710565b602082019050919050565b6153a681615cce565b82525050565b6153b581615cce565b82525050565b6153c481615cd8565b82525050565b60006153d582615285565b9150819050919050565b60006020820190506153f46000830184614e33565b92915050565b600060408201905061540f6000830185614e33565b61541c6020830184614eaf565b9392505050565b60006040820190506154386000830185614e33565b61544560208301846153ac565b9392505050565b60006020820190506154616000830184614ea0565b92915050565b600060208201905081810360008301526154818184614ebe565b905092915050565b600060e08201905081810360008301526154a3818a614ebe565b90506154b26020830189614e33565b6154bf60408301886153ac565b6154cc60608301876153ac565b6154d960808301866153ac565b6154e660a08301856153ac565b6154f360c08301846153ac565b98975050505050505050565b600060808201905081810360008301526155198187614ebe565b905061552860208301866153ac565b818103604083015261553a8185614e42565b9050818103606083015261554e8184614e42565b905095945050505050565b600060808201905081810360008301526155738187614ebe565b905061558260208301866153ac565b61558f60408301856153ac565b61559c60608301846153ac565b95945050505050565b600060208201905081810360008301526155be81614ef7565b9050919050565b600060208201905081810360008301526155de81614f1a565b9050919050565b600060208201905081810360008301526155fe81614f3d565b9050919050565b6000602082019050818103600083015261561e81614f60565b9050919050565b6000602082019050818103600083015261563e81614f83565b9050919050565b6000602082019050818103600083015261565e81614fa6565b9050919050565b6000602082019050818103600083015261567e81614fc9565b9050919050565b6000602082019050818103600083015261569e81614fec565b9050919050565b600060208201905081810360008301526156be8161500f565b9050919050565b600060208201905081810360008301526156de81615032565b9050919050565b600060208201905081810360008301526156fe81615055565b9050919050565b6000602082019050818103600083015261571e81615078565b9050919050565b6000602082019050818103600083015261573e8161509b565b9050919050565b6000602082019050818103600083015261575e816150be565b9050919050565b6000602082019050818103600083015261577e816150e1565b9050919050565b6000602082019050818103600083015261579e81615104565b9050919050565b600060208201905081810360008301526157be81615127565b9050919050565b600060208201905081810360008301526157de8161514a565b9050919050565b600060208201905081810360008301526157fe8161516d565b9050919050565b6000602082019050818103600083015261581e81615190565b9050919050565b6000602082019050818103600083015261583e816151b3565b9050919050565b6000602082019050818103600083015261585e816151d6565b9050919050565b6000602082019050818103600083015261587e816151f9565b9050919050565b6000602082019050818103600083015261589e8161521c565b9050919050565b600060208201905081810360008301526158be8161523f565b9050919050565b600060208201905081810360008301526158de81615262565b9050919050565b600060208201905081810360008301526158fe816152a8565b9050919050565b6000602082019050818103600083015261591e816152cb565b9050919050565b6000602082019050818103600083015261593e816152ee565b9050919050565b6000602082019050818103600083015261595e81615311565b9050919050565b6000602082019050818103600083015261597e81615334565b9050919050565b6000602082019050818103600083015261599e81615357565b9050919050565b600060208201905081810360008301526159be8161537a565b9050919050565b60006020820190506159da60008301846153ac565b92915050565b60006040820190506159f560008301856153ac565b8181036020830152615a078184614e42565b90509392505050565b6000606082019050615a2560008301866153ac565b615a3260208301856153ac565b615a3f6040830184614ea0565b949350505050565b600060c082019050615a5c60008301896153ac565b615a6960208301886153ac565b615a7660408301876153ac565b8181036060830152615a888186614ebe565b9050615a976080830185614e33565b615aa460a0830184614ea0565b979650505050505050565b6000602082019050615ac460008301846153bb565b92915050565b6000615ad4615ae5565b9050615ae08282615d6b565b919050565b6000604051905090565b600067ffffffffffffffff821115615b0a57615b09615e43565b5b602082029050602081019050919050565b600067ffffffffffffffff821115615b3657615b35615e43565b5b615b3f82615e72565b9050602081019050919050565b6000819050602082019050919050565b600081519050919050565b600081519050919050565b6000602082019050919050565b600082825260208201905092915050565b600081905092915050565b600082825260208201905092915050565b6000615bb782615cce565b9150615bc283615cce565b9250827fffffffffffffffffffffffffffffffffffffffffffffffffffffffffffffffff03821115615bf757615bf6615de5565b5b828201905092915050565b6000615c0d82615cce565b9150615c1883615cce565b9250817fffffffffffffffffffffffffffffffffffffffffffffffffffffffffffffffff0483118215151615615c5157615c50615de5565b5b828202905092915050565b6000615c6782615cce565b9150615c7283615cce565b925082821015615c8557615c84615de5565b5b828203905092915050565b6000615c9b82615cae565b9050919050565b60008115159050919050565b600073ffffffffffffffffffffffffffffffffffffffff82169050919050565b6000819050919050565b600060ff82169050919050565b6000615cf082615cce565b9050919050565b82818337600083830152505050565b60005b83811015615d24578082015181840152602081019050615d09565b83811115615d33576000848401525b50505050565b60006002820490506001821680615d5157607f821691505b60208210811415615d6557615d64615e14565b5b50919050565b615d7482615e72565b810181811067ffffffffffffffff82111715615d9357615d92615e43565b5b80604052505050565b6000615da782615cce565b91507fffffffffffffffffffffffffffffffffffffffffffffffffffffffffffffffff821415615dda57615dd9615de5565b5b600182019050919050565b7f4e487b7100000000000000000000000000000000000000000000000000000000600052601160045260246000fd5b7f4e487b7100000000000000000000000000000000000000000000000000000000600052602260045260246000fd5b7f4e487b7100000000000000000000000000000000000000000000000000000000600052604160045260246000fd5b6000601f19601f8301169050919050565b7f45524332303a207472616e7366657220746f20746865207a65726f206164647260008201527f6573730000000000000000000000000000000000000000000000000000000000602082015250565b7f4e6f6e206d656d626572732063616e6e6f74207061727469636970617465206960008201527f6e20746865207375727665792e00000000000000000000000000000000000000602082015250565b7f4e6f206d6f726520746f6b656e73206c65667420696e2074686520636f6e747260008201527f6163742e00000000000000000000000000000000000000000000000000000000602082015250565b7f4e6f20737563682070726f6a656374206578697374732077697468206769766560008201527f6e2069642e000000000000000000000000000000000000000000000000000000602082015250565b7f45524332303a20617070726f766520746f20746865207a65726f20616464726560008201527f7373000000000000000000000000000000000000000000000000000000000000602082015250565b7f3300000000000000000000000000000000000000000000000000000000000000600082015250565b7f557365722068617320616c726561647920766f74656420666f7220746869732060008201527f7061796d656e742e000000000000000000000000000000000000000000000000602082015250565b7f45524332303a20696e73756666696369656e7420616c6c6f77616e6365000000600082015250565b7f4e6f7420656e6f7567682065746865727320746f2066756e642074686520707260008201527f6f6a6563742e0000000000000000000000000000000000000000000000000000602082015250565b7f53656c662d64656c65676174696f6e206973206e6f7420706f737369626c652e600082015250565b7f45524332303a207472616e7366657220616d6f756e742065786365656473206260008201527f616c616e63650000000000000000000000000000000000000000000000000000602082015250565b7f54686520646561646c696e6520686173207061737365642e0000000000000000600082015250565b7f557365722063616e6e6f742064726f702069742773206d656d6265722073746160008201527f74757320647572696e6720766f74696e672e0000000000000000000000000000602082015250565b7f446561646c696e652065786365656465642e0000000000000000000000000000600082015250565b7f50726f6a656374206e6f742066756e6465642e00000000000000000000000000600082015250565b7f4e6f7420656e6f7567682065746865727320746f207375626d6974207468652060008201527f70726f706f73616c2e0000000000000000000000000000000000000000000000602082015250565b7f557365722068617320616c726561647920766f74656400000000000000000000600082015250565b7f5468652064656c65676174696f6e2068617320616c726561647920686170706560008201527f6e65642e00000000000000000000000000000000000000000000000000000000602082015250565b7f596f7520616c72656164792070617274696369706174656420696e207468652060008201527f7375727665790000000000000000000000000000000000000000000000000000602082015250565b7f4e6f6e2d6d656d626572732063616e6e6f742063616c6c20746869732066756e60008201527f6374696f6e2e0000000000000000000000000000000000000000000000000000602082015250565b7f4e6f6e2d6d656d6265727320646f6e277420686176652074686520726967687460008201527f20746f20766f74652074687573206e6f20726967687420746f2064656c65676160208201527f74652e0000000000000000000000000000000000000000000000000000000000604082015250565b7f4e6f2070726f6a6563742070726f706f73616c207769746820676976656e206960008201527f64206578697374732e0000000000000000000000000000000000000000000000602082015250565b7f596f7520616c7265616479207573656420746865206661756365742e00000000600082015250565b7f6661696c656420746f20726566756e6400000000000000000000000000000000600082015250565b7f45524332303a207472616e736665722066726f6d20746865207a65726f20616460008201527f6472657373000000000000000000000000000000000000000000000000000000602082015250565b7f55736572206973206e6f742061206d656d62657220746875732063616e6e6f7460008201527f20766f74652e0000000000000000000000000000000000000000000000000000602082015250565b50565b7f3100000000000000000000000000000000000000000000000000000000000000600082015250565b7f45524332303a20617070726f76652066726f6d20746865207a65726f2061646460008201527f7265737300000000000000000000000000000000000000000000000000000000602082015250565b7f44656c65676174696f6e2063616e206f6e6c7920626520646f6e6520746f206d60008201527f656d626572732e00000000000000000000000000000000000000000000000000602082015250565b7f55736572206861732064656c65676174656420736f6d656f6e6520656c73652060008201527f746f20766f746520666f72207468652070726f6a6563742e0000000000000000602082015250565b7f496e73756666696369656e74204d79476f76546f6b656e732062616c616e636560008201527f20666f7220656e746572656420646f6e6174696f6e20616d6f756e742e000000602082015250565b7f45524332303a2064656372656173656420616c6c6f77616e63652062656c6f7760008201527f207a65726f000000000000000000000000000000000000000000000000000000602082015250565b7f45524332303a206d696e7420746f20746865207a65726f206164647265737300600082015250565b61674281615c90565b811461674d57600080fd5b50565b61675981615ca2565b811461676457600080fd5b50565b61677081615cce565b811461677b57600080fd5b5056fea2646970667358221220ff2d75e6085422e61ab39e3a4994f1059ee70150fa14c23e17455f9fa06aa17764736f6c63430008030033",
  "linkReferences": {},
  "deployedLinkReferences": {}
}