{
  "_format": "hh-sol-artifact-1",
  "contractName": "MyGov",
  "sourceName": "contracts/mygov.sol",
  "abi": [
    {
      "inputs": [
        {
          "internalType": "uint256",
          "name": "tokensupply",
          "type": "uint256"
        }
      ],
      "stateMutability": "nonpayable",
      "type": "constructor"
    },
    {
      "anonymous": false,
      "inputs": [
        {
          "indexed": true,
          "internalType": "address",
          "name": "owner",
          "type": "address"
        },
        {
          "indexed": true,
          "internalType": "address",
          "name": "spender",
          "type": "address"
        },
        {
          "indexed": false,
          "internalType": "uint256",
          "name": "value",
          "type": "uint256"
        }
      ],
      "name": "Approval",
      "type": "event"
    },
    {
      "anonymous": false,
      "inputs": [
        {
          "indexed": true,
          "internalType": "address",
          "name": "from",
          "type": "address"
        },
        {
          "indexed": true,
          "internalType": "address",
          "name": "to",
          "type": "address"
        },
        {
          "indexed": false,
          "internalType": "uint256",
          "name": "value",
          "type": "uint256"
        }
      ],
      "name": "Transfer",
      "type": "event"
    },
    {
      "inputs": [
        {
          "internalType": "address",
          "name": "owner",
          "type": "address"
        },
        {
          "internalType": "address",
          "name": "spender",
          "type": "address"
        },
        {
          "internalType": "uint256",
          "name": "amount",
          "type": "uint256"
        }
      ],
      "name": "_approveToken",
      "outputs": [
        {
          "internalType": "bool",
          "name": "",
          "type": "bool"
        }
      ],
      "stateMutability": "nonpayable",
      "type": "function"
    },
    {
      "inputs": [
        {
          "internalType": "address",
          "name": "owner",
          "type": "address"
        },
        {
          "internalType": "address",
          "name": "spender",
          "type": "address"
        }
      ],
      "name": "allowance",
      "outputs": [
        {
          "internalType": "uint256",
          "name": "",
          "type": "uint256"
        }
      ],
      "stateMutability": "view",
      "type": "function"
    },
    {
      "inputs": [
        {
          "internalType": "address",
          "name": "owner",
          "type": "address"
        },
        {
          "internalType": "address",
          "name": "spender",
          "type": "address"
        }
      ],
      "name": "allowanceToken",
      "outputs": [
        {
          "internalType": "uint256",
          "name": "",
          "type": "uint256"
        }
      ],
      "stateMutability": "view",
      "type": "function"
    },
    {
      "inputs": [
        {
          "internalType": "address",
          "name": "spender",
          "type": "address"
        },
        {
          "internalType": "uint256",
          "name": "amount",
          "type": "uint256"
        }
      ],
      "name": "approve",
      "outputs": [
        {
          "internalType": "bool",
          "name": "",
          "type": "bool"
        }
      ],
      "stateMutability": "nonpayable",
      "type": "function"
    },
    {
      "inputs": [
        {
          "internalType": "address",
          "name": "spender",
          "type": "address"
        },
        {
          "internalType": "uint256",
          "name": "amount",
          "type": "uint256"
        }
      ],
      "name": "approveToken",
      "outputs": [
        {
          "internalType": "bool",
          "name": "",
          "type": "bool"
        }
      ],
      "stateMutability": "nonpayable",
      "type": "function"
    },
    {
      "inputs": [
        {
          "internalType": "address",
          "name": "account",
          "type": "address"
        }
      ],
      "name": "balanceOf",
      "outputs": [
        {
          "internalType": "uint256",
          "name": "",
          "type": "uint256"
        }
      ],
      "stateMutability": "view",
      "type": "function"
    },
    {
      "inputs": [],
      "name": "decimals",
      "outputs": [
        {
          "internalType": "uint8",
          "name": "",
          "type": "uint8"
        }
      ],
      "stateMutability": "view",
      "type": "function"
    },
    {
      "inputs": [
        {
          "internalType": "address",
          "name": "spender",
          "type": "address"
        },
        {
          "internalType": "uint256",
          "name": "subtractedValue",
          "type": "uint256"
        }
      ],
      "name": "decreaseAllowance",
      "outputs": [
        {
          "internalType": "bool",
          "name": "",
          "type": "bool"
        }
      ],
      "stateMutability": "nonpayable",
      "type": "function"
    },
    {
      "inputs": [
        {
          "internalType": "address",
          "name": "memberaddr",
          "type": "address"
        },
        {
          "internalType": "uint256",
          "name": "projectid",
          "type": "uint256"
        }
      ],
      "name": "delegateVoteTo",
      "outputs": [],
      "stateMutability": "payable",
      "type": "function"
    },
    {
      "inputs": [],
      "name": "donateEther",
      "outputs": [],
      "stateMutability": "payable",
      "type": "function"
    },
    {
      "inputs": [
        {
          "internalType": "uint256",
          "name": "amount",
          "type": "uint256"
        }
      ],
      "name": "donateMyGovToken",
      "outputs": [],
      "stateMutability": "nonpayable",
      "type": "function"
    },
    {
      "inputs": [],
      "name": "faucet",
      "outputs": [],
      "stateMutability": "nonpayable",
      "type": "function"
    },
    {
      "inputs": [
        {
          "internalType": "uint256",
          "name": "projectid",
          "type": "uint256"
        }
      ],
      "name": "findSchIndex",
      "outputs": [
        {
          "internalType": "uint256",
          "name": "idx",
          "type": "uint256"
        }
      ],
      "stateMutability": "view",
      "type": "function"
    },
    {
      "inputs": [
        {
          "internalType": "uint256",
          "name": "projectid",
          "type": "uint256"
        }
      ],
      "name": "getEtherReceivedByProject",
      "outputs": [
        {
          "internalType": "uint256",
          "name": "amount",
          "type": "uint256"
        }
      ],
      "stateMutability": "view",
      "type": "function"
    },
    {
      "inputs": [
        {
          "internalType": "uint256",
          "name": "projectid",
          "type": "uint256"
        }
      ],
      "name": "getIsProjectFunded",
      "outputs": [
        {
          "internalType": "bool",
          "name": "funded",
          "type": "bool"
        }
      ],
      "stateMutability": "view",
      "type": "function"
    },
    {
      "inputs": [],
      "name": "getNoOfFundedProjects",
      "outputs": [
        {
          "internalType": "uint256",
          "name": "numfunded",
          "type": "uint256"
        }
      ],
      "stateMutability": "view",
      "type": "function"
    },
    {
      "inputs": [],
      "name": "getNoOfProjectProposals",
      "outputs": [
        {
          "internalType": "uint256",
          "name": "numproposals",
          "type": "uint256"
        }
      ],
      "stateMutability": "view",
      "type": "function"
    },
    {
      "inputs": [],
      "name": "getNoOfSurveys",
      "outputs": [
        {
          "internalType": "uint256",
          "name": "numsurveys",
          "type": "uint256"
        }
      ],
      "stateMutability": "view",
      "type": "function"
    },
    {
      "inputs": [
        {
          "internalType": "uint256",
          "name": "projectid",
          "type": "uint256"
        }
      ],
      "name": "getProjectInfo",
      "outputs": [
        {
          "internalType": "string",
          "name": "ipfshash",
          "type": "string"
        },
        {
          "internalType": "uint256",
          "name": "votedeadline",
          "type": "uint256"
        },
        {
          "internalType": "uint256[]",
          "name": "paymentamounts",
          "type": "uint256[]"
        },
        {
          "internalType": "uint256[]",
          "name": "payschedule",
          "type": "uint256[]"
        }
      ],
      "stateMutability": "view",
      "type": "function"
    },
    {
      "inputs": [
        {
          "internalType": "uint256",
          "name": "projectid",
          "type": "uint256"
        }
      ],
      "name": "getProjectNextPayment",
      "outputs": [
        {
          "internalType": "uint256",
          "name": "next",
          "type": "uint256"
        }
      ],
      "stateMutability": "view",
      "type": "function"
    },
    {
      "inputs": [
        {
          "internalType": "uint256",
          "name": "projectid",
          "type": "uint256"
        }
      ],
      "name": "getProjectOwner",
      "outputs": [
        {
          "internalType": "address",
          "name": "projectowner",
          "type": "address"
        }
      ],
      "stateMutability": "view",
      "type": "function"
    },
    {
      "inputs": [
        {
          "internalType": "uint256",
          "name": "surveyid",
          "type": "uint256"
        }
      ],
      "name": "getSurveyInfo",
      "outputs": [
        {
          "internalType": "string",
          "name": "ipfshash",
          "type": "string"
        },
        {
          "internalType": "uint256",
          "name": "surveydeadline",
          "type": "uint256"
        },
        {
          "internalType": "uint256",
          "name": "numchoices",
          "type": "uint256"
        },
        {
          "internalType": "uint256",
          "name": "atmostchoice",
          "type": "uint256"
        }
      ],
      "stateMutability": "view",
      "type": "function"
    },
    {
      "inputs": [
        {
          "internalType": "uint256",
          "name": "surveyid",
          "type": "uint256"
        }
      ],
      "name": "getSurveyOwner",
      "outputs": [
        {
          "internalType": "address",
          "name": "surveyowner",
          "type": "address"
        }
      ],
      "stateMutability": "view",
      "type": "function"
    },
    {
      "inputs": [
        {
          "internalType": "uint256",
          "name": "surveyid",
          "type": "uint256"
        }
      ],
      "name": "getSurveyResults",
      "outputs": [
        {
          "internalType": "uint256",
          "name": "numtaken",
          "type": "uint256"
        },
        {
          "internalType": "uint256[]",
          "name": "results",
          "type": "uint256[]"
        }
      ],
      "stateMutability": "view",
      "type": "function"
    },
    {
      "inputs": [
        {
          "internalType": "address",
          "name": "spender",
          "type": "address"
        },
        {
          "internalType": "uint256",
          "name": "addedValue",
          "type": "uint256"
        }
      ],
      "name": "increaseAllowance",
      "outputs": [
        {
          "internalType": "bool",
          "name": "",
          "type": "bool"
        }
      ],
      "stateMutability": "nonpayable",
      "type": "function"
    },
    {
      "inputs": [],
      "name": "name",
      "outputs": [
        {
          "internalType": "string",
          "name": "",
          "type": "string"
        }
      ],
      "stateMutability": "view",
      "type": "function"
    },
    {
      "inputs": [
        {
          "internalType": "uint256",
          "name": "",
          "type": "uint256"
        }
      ],
      "name": "projectProposals",
      "outputs": [
        {
          "internalType": "uint256",
          "name": "voteCountForProjectProposal",
          "type": "uint256"
        },
        {
          "internalType": "uint256",
          "name": "totalFundingWei",
          "type": "uint256"
        },
        {
          "internalType": "uint256",
          "name": "deadline",
          "type": "uint256"
        },
        {
          "internalType": "string",
          "name": "ipfsHash",
          "type": "string"
        },
        {
          "internalType": "address",
          "name": "owner",
          "type": "address"
        },
        {
          "internalType": "bool",
          "name": "isStillFunded",
          "type": "bool"
        }
      ],
      "stateMutability": "view",
      "type": "function"
    },
    {
      "inputs": [
        {
          "internalType": "uint256",
          "name": "projectid",
          "type": "uint256"
        }
      ],
      "name": "reserveProjectGrant",
      "outputs": [],
      "stateMutability": "nonpayable",
      "type": "function"
    },
    {
      "inputs": [
        {
          "internalType": "string",
          "name": "ipfshash",
          "type": "string"
        },
        {
          "internalType": "uint256",
          "name": "votedeadline",
          "type": "uint256"
        },
        {
          "internalType": "uint256[]",
          "name": "paymentamounts",
          "type": "uint256[]"
        },
        {
          "internalType": "uint256[]",
          "name": "payschedule",
          "type": "uint256[]"
        }
      ],
      "name": "submitProjectProposal",
      "outputs": [
        {
          "internalType": "uint256",
          "name": "projectid",
          "type": "uint256"
        }
      ],
      "stateMutability": "payable",
      "type": "function"
    },
    {
      "inputs": [
        {
          "internalType": "string",
          "name": "ipfshash",
          "type": "string"
        },
        {
          "internalType": "uint256",
          "name": "surveydeadline",
          "type": "uint256"
        },
        {
          "internalType": "uint256",
          "name": "numchoices",
          "type": "uint256"
        },
        {
          "internalType": "uint256",
          "name": "atmostchoice",
          "type": "uint256"
        }
      ],
      "name": "submitSurvey",
      "outputs": [
        {
          "internalType": "uint256",
          "name": "surveyid",
          "type": "uint256"
        }
      ],
      "stateMutability": "nonpayable",
      "type": "function"
    },
    {
      "inputs": [
        {
          "internalType": "uint256",
          "name": "",
          "type": "uint256"
        }
      ],
      "name": "surveys",
      "outputs": [
        {
          "internalType": "string",
          "name": "Ipfshash",
          "type": "string"
        },
        {
          "internalType": "address",
          "name": "Owner",
          "type": "address"
        },
        {
          "internalType": "uint256",
          "name": "Deadline",
          "type": "uint256"
        },
        {
          "internalType": "uint256",
          "name": "AtmostChoice",
          "type": "uint256"
        },
        {
          "internalType": "uint256",
          "name": "SurveyId",
          "type": "uint256"
        },
        {
          "internalType": "uint256",
          "name": "NumChoices",
          "type": "uint256"
        },
        {
          "internalType": "uint256",
          "name": "NumTaken",
          "type": "uint256"
        }
      ],
      "stateMutability": "view",
      "type": "function"
    },
    {
      "inputs": [],
      "name": "symbol",
      "outputs": [
        {
          "internalType": "string",
          "name": "",
          "type": "string"
        }
      ],
      "stateMutability": "view",
      "type": "function"
    },
    {
      "inputs": [
        {
          "internalType": "uint256",
          "name": "surveyid",
          "type": "uint256"
        },
        {
          "internalType": "uint256[]",
          "name": "choices",
          "type": "uint256[]"
        }
      ],
      "name": "takeSurvey",
      "outputs": [],
      "stateMutability": "nonpayable",
      "type": "function"
    },
    {
      "inputs": [
        {
          "internalType": "address",
          "name": "account",
          "type": "address"
        }
      ],
      "name": "tokenBalanceOf",
      "outputs": [
        {
          "internalType": "uint256",
          "name": "rvalue",
          "type": "uint256"
        }
      ],
      "stateMutability": "view",
      "type": "function"
    },
    {
      "inputs": [],
      "name": "totalSupply",
      "outputs": [
        {
          "internalType": "uint256",
          "name": "",
          "type": "uint256"
        }
      ],
      "stateMutability": "view",
      "type": "function"
    },
    {
      "inputs": [],
      "name": "totalTokenSupply",
      "outputs": [
        {
          "internalType": "uint256",
          "name": "",
          "type": "uint256"
        }
      ],
      "stateMutability": "view",
      "type": "function"
    },
    {
      "inputs": [
        {
          "internalType": "address",
          "name": "to",
          "type": "address"
        },
        {
          "internalType": "uint256",
          "name": "amount",
          "type": "uint256"
        }
      ],
      "name": "transfer",
      "outputs": [
        {
          "internalType": "bool",
          "name": "",
          "type": "bool"
        }
      ],
      "stateMutability": "nonpayable",
      "type": "function"
    },
    {
      "inputs": [
        {
          "internalType": "address",
          "name": "from",
          "type": "address"
        },
        {
          "internalType": "address",
          "name": "to",
          "type": "address"
        },
        {
          "internalType": "uint256",
          "name": "amount",
          "type": "uint256"
        }
      ],
      "name": "transferFrom",
      "outputs": [
        {
          "internalType": "bool",
          "name": "",
          "type": "bool"
        }
      ],
      "stateMutability": "nonpayable",
      "type": "function"
    },
    {
      "inputs": [
        {
          "internalType": "address",
          "name": "to",
          "type": "address"
        },
        {
          "internalType": "uint256",
          "name": "amount",
          "type": "uint256"
        }
      ],
      "name": "transferToken",
      "outputs": [
        {
          "internalType": "bool",
          "name": "",
          "type": "bool"
        }
      ],
      "stateMutability": "nonpayable",
      "type": "function"
    },
    {
      "inputs": [
        {
          "internalType": "address",
          "name": "from",
          "type": "address"
        },
        {
          "internalType": "address",
          "name": "to",
          "type": "address"
        },
        {
          "internalType": "uint256",
          "name": "amount",
          "type": "uint256"
        }
      ],
      "name": "transferTokensFrom",
      "outputs": [
        {
          "internalType": "bool",
          "name": "",
          "type": "bool"
        }
      ],
      "stateMutability": "nonpayable",
      "type": "function"
    },
    {
      "inputs": [
        {
          "internalType": "address",
          "name": "",
          "type": "address"
        }
      ],
      "name": "users",
      "outputs": [
        {
          "internalType": "uint256",
          "name": "myGovTokens",
          "type": "uint256"
        },
        {
          "internalType": "uint256",
          "name": "myGovTokensLockedUntil",
          "type": "uint256"
        },
        {
          "internalType": "bool",
          "name": "UsedFaucet",
          "type": "bool"
        }
      ],
      "stateMutability": "view",
      "type": "function"
    },
    {
      "inputs": [
        {
          "internalType": "uint256",
          "name": "projectid",
          "type": "uint256"
        },
        {
          "internalType": "bool",
          "name": "choice",
          "type": "bool"
        }
      ],
      "name": "voteForProjectProposal",
      "outputs": [],
      "stateMutability": "nonpayable",
      "type": "function"
    },
    {
      "inputs": [
        {
          "internalType": "uint256",
          "name": "projectid",
          "type": "uint256"
        },
        {
          "internalType": "bool",
          "name": "choice",
          "type": "bool"
        }
      ],
      "name": "votingforinstallment",
      "outputs": [],
      "stateMutability": "nonpayable",
      "type": "function"
    },
    {
      "inputs": [
        {
          "internalType": "uint256",
          "name": "projectid",
          "type": "uint256"
        }
      ],
      "name": "withdrawProjectPayment",
      "outputs": [],
      "stateMutability": "nonpayable",
      "type": "function"
    }
  ],
  "bytecode": "0x6080604052668e1bc9bf040000600a5567016345785d8a0000600b553480156200002857600080fd5b50604051620078b1380380620078b183398181016040528101906200004e919062000354565b6040518060400160405280600581526020017f4d79476f760000000000000000000000000000000000000000000000000000008152506040518060400160405280600281526020017f4d470000000000000000000000000000000000000000000000000000000000008152508160039080519060200190620000d29291906200028d565b508060049080519060200190620000eb9291906200028d565b50505080600581905550806006819055506200010e33826200011560201b60201c565b5062000546565b600073ffffffffffffffffffffffffffffffffffffffff168273ffffffffffffffffffffffffffffffffffffffff16141562000188576040517f08c379a00000000000000000000000000000000000000000000000000000000081526004016200017f90620003b8565b60405180910390fd5b6200019c600083836200028360201b60201c565b8060026000828254620001b0919062000408565b92505081905550806000808473ffffffffffffffffffffffffffffffffffffffff1673ffffffffffffffffffffffffffffffffffffffff168152602001908152602001600020600082825401925050819055508173ffffffffffffffffffffffffffffffffffffffff16600073ffffffffffffffffffffffffffffffffffffffff167fddf252ad1be2c89b69c2b068fc378daa952ba7f163c4a11628f55a4df523b3ef83604051620002639190620003da565b60405180910390a36200027f600083836200028860201b60201c565b5050565b505050565b505050565b8280546200029b906200046f565b90600052602060002090601f016020900481019282620002bf57600085556200030b565b82601f10620002da57805160ff19168380011785556200030b565b828001600101855582156200030b579182015b828111156200030a578251825591602001919060010190620002ed565b5b5090506200031a91906200031e565b5090565b5b80821115620003395760008160009055506001016200031f565b5090565b6000815190506200034e816200052c565b92915050565b6000602082840312156200036757600080fd5b600062000377848285016200033d565b91505092915050565b60006200038f601f83620003f7565b91506200039c8262000503565b602082019050919050565b620003b28162000465565b82525050565b60006020820190508181036000830152620003d38162000380565b9050919050565b6000602082019050620003f16000830184620003a7565b92915050565b600082825260208201905092915050565b6000620004158262000465565b9150620004228362000465565b9250827fffffffffffffffffffffffffffffffffffffffffffffffffffffffffffffffff038211156200045a5762000459620004a5565b5b828201905092915050565b6000819050919050565b600060028204905060018216806200048857607f821691505b602082108114156200049f576200049e620004d4565b5b50919050565b7f4e487b7100000000000000000000000000000000000000000000000000000000600052601160045260246000fd5b7f4e487b7100000000000000000000000000000000000000000000000000000000600052602260045260246000fd5b7f45524332303a206d696e7420746f20746865207a65726f206164647265737300600082015250565b620005378162000465565b81146200054357600080fd5b50565b61735b80620005566000396000f3fe6080604052600436106102675760003560e01c8063875b507611610144578063b5003369116100b6578063dd62ed3e1161007a578063dd62ed3e14610a36578063de5f72fd14610a73578063e42c08f214610a8a578063ef269ae314610ac7578063f22449ba14610b04578063fabf596814610b2d57610267565b8063b50033691461093a578063bd27576414610977578063bd6c733c146109a0578063bf50556d146109c9578063dbc1d569146109f457610267565b8063a1669b3211610108578063a1669b32146107f8578063a457c2d714610814578063a5e898e114610851578063a87430ba14610881578063a9059cbb146108c0578063ad6822ae146108fd57610267565b8063875b5076146106ed57806392256aec1461072a57806394d9ff481461076757806395d89b41146107905780639983fa58146107bb57610267565b806339509351116101dd57806370a08231116101a157806370a08231146105ab57806370a56c73146105e85780637c405164146106265780638024ec3014610663578063863451dd146106a057806386e68b90146106aa57610267565b806339509351146104b457806339c94d2d146104f1578063529120421461051a5780635d801b3714610557578063702798df1461058257610267565b80631ca8b6cb1161022f5780631ca8b6cb146103795780631d2acdfd146103a457806323b872dd146103e157806323fd498b1461041e5780632e8f341314610449578063313ce5671461048957610267565b8063022fc88b1461026c57806306fdde03146102a9578063095ea7b3146102d45780631072cbea1461031157806318160ddd1461034e575b600080fd5b34801561027857600080fd5b50610293600480360381019061028e9190615495565b610b6d565b6040516102a09190615d86565b60405180910390f35b3480156102b557600080fd5b506102be610b8a565b6040516102cb9190615da1565b60405180910390f35b3480156102e057600080fd5b506102fb60048036038101906102f69190615495565b610c1c565b6040516103089190615d86565b60405180910390f35b34801561031d57600080fd5b5061033860048036038101906103339190615495565b610c3f565b6040516103459190615d86565b60405180910390f35b34801561035a57600080fd5b50610363610c5b565b604051610370919061639f565b60405180910390f35b34801561038557600080fd5b5061038e610c65565b60405161039b919061639f565b60405180910390f35b3480156103b057600080fd5b506103cb60048036038101906103c69190615625565b610c6f565b6040516103d8919061639f565b60405180910390f35b3480156103ed57600080fd5b5061040860048036038101906104039190615446565b610d0e565b6040516104159190615d86565b60405180910390f35b34801561042a57600080fd5b50610433610d3d565b604051610440919061639f565b60405180910390f35b34801561045557600080fd5b50610470600480360381019061046b9190615625565b610d4a565b6040516104809493929190615e93565b60405180910390f35b34801561049557600080fd5b5061049e610f18565b6040516104ab9190616489565b60405180910390f35b3480156104c057600080fd5b506104db60048036038101906104d69190615495565b610f21565b6040516104e89190615d86565b60405180910390f35b3480156104fd57600080fd5b5061051860048036038101906105139190615625565b610f58565b005b34801561052657600080fd5b50610541600480360381019061053c9190615446565b6110bc565b60405161054e9190615d86565b60405180910390f35b34801561056357600080fd5b5061056c61112b565b604051610579919061639f565b60405180910390f35b34801561058e57600080fd5b506105a960048036038101906105a4919061564e565b611138565b005b3480156105b757600080fd5b506105d260048036038101906105cd91906153e1565b611453565b6040516105df919061639f565b60405180910390f35b3480156105f457600080fd5b5061060f600480360381019061060a9190615625565b61149b565b60405161061d9291906163ba565b60405180910390f35b34801561063257600080fd5b5061064d60048036038101906106489190615625565b61158e565b60405161065a9190615d86565b60405180910390f35b34801561066f57600080fd5b5061068a60048036038101906106859190615446565b611655565b6040516106979190615d86565b60405180910390f35b6106a86117c2565b005b3480156106b657600080fd5b506106d160048036038101906106cc9190615625565b6117ee565b6040516106e49796959493929190615dc3565b60405180910390f35b3480156106f957600080fd5b50610714600480360381019061070f9190615625565b6118e8565b6040516107219190615d19565b60405180910390f35b34801561073657600080fd5b50610751600480360381019061074c9190615625565b61195d565b60405161075e9190615d19565b60405180910390f35b34801561077357600080fd5b5061078e600480360381019061078991906156a2565b6119d2565b005b34801561079c57600080fd5b506107a5611fc2565b6040516107b29190615da1565b60405180910390f35b3480156107c757600080fd5b506107e260048036038101906107dd9190615625565b612054565b6040516107ef919061639f565b60405180910390f35b610812600480360381019061080d9190615495565b6120f0565b005b34801561082057600080fd5b5061083b60048036038101906108369190615495565b6124d8565b6040516108489190615d86565b60405180910390f35b61086b6004803603810190610866919061557a565b61254f565b604051610878919061639f565b60405180910390f35b34801561088d57600080fd5b506108a860048036038101906108a391906153e1565b6128ef565b6040516108b7939291906163ea565b60405180910390f35b3480156108cc57600080fd5b506108e760048036038101906108e29190615495565b612926565b6040516108f49190615d86565b60405180910390f35b34801561090957600080fd5b50610924600480360381019061091f919061540a565b612949565b604051610931919061639f565b60405180910390f35b34801561094657600080fd5b50610961600480360381019061095c9190615625565b6129d0565b60405161096e919061639f565b60405180910390f35b34801561098357600080fd5b5061099e60048036038101906109999190615625565b612b37565b005b3480156109ac57600080fd5b506109c760048036038101906109c29190615625565b612f28565b005b3480156109d557600080fd5b506109de613539565b6040516109eb919061639f565b60405180910390f35b348015610a0057600080fd5b50610a1b6004803603810190610a169190615625565b613588565b604051610a2d96959493929190616421565b60405180910390f35b348015610a4257600080fd5b50610a5d6004803603810190610a58919061540a565b613689565b604051610a6a919061639f565b60405180910390f35b348015610a7f57600080fd5b50610a88613710565b005b348015610a9657600080fd5b50610ab16004803603810190610aac91906153e1565b6138ea565b604051610abe919061639f565b60405180910390f35b348015610ad357600080fd5b50610aee6004803603810190610ae991906154fa565b613936565b604051610afb919061639f565b60405180910390f35b348015610b1057600080fd5b50610b2b6004803603810190610b2691906156a2565b613cb1565b005b348015610b3957600080fd5b50610b546004803603810190610b4f9190615625565b6143b2565b604051610b649493929190615e39565b60405180910390f35b600080339050610b7e818585611655565b50600191505092915050565b606060038054610b9990616732565b80601f0160208091040260200160405190810160405280929190818152602001828054610bc590616732565b8015610c125780601f10610be757610100808354040283529160200191610c12565b820191906000526020600020905b815481529060010190602001808311610bf557829003601f168201915b5050505050905090565b600080610c2761461c565b9050610c34818585614624565b600191505092915050565b600080339050610c508185856147ef565b600191505092915050565b6000600254905090565b6000600554905090565b6000600c8281548110610cab577f4e487b7100000000000000000000000000000000000000000000000000000000600052603260045260246000fd5b90600052602060002090600a0201600401610cc5836129d0565b81548110610cfc577f4e487b7100000000000000000000000000000000000000000000000000000000600052603260045260246000fd5b90600052602060002001549050919050565b600080610d1961461c565b9050610d26858285614c42565b610d31858585614cce565b60019150509392505050565b6000600c80549050905090565b60606000806000600f8581548110610d8b577f4e487b7100000000000000000000000000000000000000000000000000000000600052603260045260246000fd5b90600052602060002090600802016000018054610da790616732565b80601f0160208091040260200160405190810160405280929190818152602001828054610dd390616732565b8015610e205780601f10610df557610100808354040283529160200191610e20565b820191906000526020600020905b815481529060010190602001808311610e0357829003601f168201915b50505050509350600f8581548110610e61577f4e487b7100000000000000000000000000000000000000000000000000000000600052603260045260246000fd5b9060005260206000209060080201600201549250600f8581548110610eaf577f4e487b7100000000000000000000000000000000000000000000000000000000600052603260045260246000fd5b9060005260206000209060080201600501549150600f8581548110610efd577f4e487b7100000000000000000000000000000000000000000000000000000000600052603260045260246000fd5b90600052602060002090600802016003015490509193509193565b60006012905090565b600080610f2c61461c565b9050610f4d818585610f3e8589613689565b610f48919061657b565b614624565b600191505092915050565b80600d60003373ffffffffffffffffffffffffffffffffffffffff1673ffffffffffffffffffffffffffffffffffffffff168152602001908152602001600020600001541015610fdd576040517f08c379a0000000000000000000000000000000000000000000000000000000008152600401610fd49061635f565b60405180910390fd5b80600d60003373ffffffffffffffffffffffffffffffffffffffff1673ffffffffffffffffffffffffffffffffffffffff16815260200190815260200160002060000154118061106f575042600d60003373ffffffffffffffffffffffffffffffffffffffff1673ffffffffffffffffffffffffffffffffffffffff1681526020019081526020016000206006015411155b6110ae576040517f08c379a00000000000000000000000000000000000000000000000000000000081526004016110a5906160bf565b60405180910390fd5b6110b83082610c3f565b5050565b60006110c88484612949565b82111561110a576040517f08c379a0000000000000000000000000000000000000000000000000000000008152600401611101906160df565b60405180910390fd5b6111158484846147ef565b611120848484614f46565b600190509392505050565b6000600f80549050905090565b6000600d60003373ffffffffffffffffffffffffffffffffffffffff1673ffffffffffffffffffffffffffffffffffffffff168152602001908152602001600020905061118481614fd3565b6111c3576040517f08c379a00000000000000000000000000000000000000000000000000000000081526004016111ba90615f1f565b60405180910390fd5b6000151581600301600085815260200190815260200160002060009054906101000a900460ff1615151461122c576040517f08c379a00000000000000000000000000000000000000000000000000000000081526004016112239061619f565b60405180910390fd5b42600f8481548110611267577f4e487b7100000000000000000000000000000000000000000000000000000000600052603260045260246000fd5b90600052602060002090600802016002015410156112ba576040517f08c379a00000000000000000000000000000000000000000000000000000000081526004016112b1906160ff565b60405180910390fd5b60005b82518110156113bc57600f8481548110611300577f4e487b7100000000000000000000000000000000000000000000000000000000600052603260045260246000fd5b906000526020600020906008020160070183828151811061134a577f4e487b7100000000000000000000000000000000000000000000000000000000600052603260045260246000fd5b602002602001015181548110611389577f4e487b7100000000000000000000000000000000000000000000000000000000600052603260045260246000fd5b9060005260206000200160008154809291906113a490616795565b919050555080806113b490616795565b9150506112bd565b506001600f84815481106113f9577f4e487b7100000000000000000000000000000000000000000000000000000000600052603260045260246000fd5b90600052602060002090600802016006016000828254611419919061657b565b92505081905550600181600301600085815260200190815260200160002060006101000a81548160ff021916908315150217905550505050565b60008060008373ffffffffffffffffffffffffffffffffffffffff1673ffffffffffffffffffffffffffffffffffffffff168152602001908152602001600020549050919050565b60006060600f83815481106114d9577f4e487b7100000000000000000000000000000000000000000000000000000000600052603260045260246000fd5b9060005260206000209060080201600601549150600f8381548110611527577f4e487b7100000000000000000000000000000000000000000000000000000000600052603260045260246000fd5b906000526020600020906008020160070180548060200260200160405190810160405280929190818152602001828054801561158257602002820191906000526020600020905b81548152602001906001019080831161156e575b50505050509050915091565b600081600c805490501180156115a5575060008210155b6115e4576040517f08c379a00000000000000000000000000000000000000000000000000000000081526004016115db90615f5f565b60405180910390fd5b600c828154811061161e577f4e487b7100000000000000000000000000000000000000000000000000000000600052603260045260246000fd5b90600052602060002090600a020160090160009054906101000a900460ff161561164b5760019050611650565b600090505b919050565b60008073ffffffffffffffffffffffffffffffffffffffff168473ffffffffffffffffffffffffffffffffffffffff1614156116c6576040517f08c379a00000000000000000000000000000000000000000000000000000000081526004016116bd9061607f565b60405180910390fd5b600073ffffffffffffffffffffffffffffffffffffffff168373ffffffffffffffffffffffffffffffffffffffff161415611736576040517f08c379a000000000000000000000000000000000000000000000000000000000815260040161172d9061631f565b60405180910390fd5b81600e60008673ffffffffffffffffffffffffffffffffffffffff1673ffffffffffffffffffffffffffffffffffffffff16815260200190815260200160002060008573ffffffffffffffffffffffffffffffffffffffff1673ffffffffffffffffffffffffffffffffffffffff16815260200190815260200160002081905550600190509392505050565b60003090506117d18134612926565b5034600760008282546117e4919061657b565b9250508190555050565b600f81815481106117fe57600080fd5b906000526020600020906008020160009150905080600001805461182190616732565b80601f016020809104026020016040519081016040528092919081815260200182805461184d90616732565b801561189a5780601f1061186f5761010080835404028352916020019161189a565b820191906000526020600020905b81548152906001019060200180831161187d57829003601f168201915b5050505050908060010160009054906101000a900473ffffffffffffffffffffffffffffffffffffffff16908060020154908060030154908060040154908060050154908060060154905087565b6000600f8281548110611924577f4e487b7100000000000000000000000000000000000000000000000000000000600052603260045260246000fd5b906000526020600020906008020160010160009054906101000a900473ffffffffffffffffffffffffffffffffffffffff169050919050565b6000600c8281548110611999577f4e487b7100000000000000000000000000000000000000000000000000000000600052603260045260246000fd5b90600052602060002090600a020160070160009054906101000a900473ffffffffffffffffffffffffffffffffffffffff169050919050565b60006119dd836129d0565b905082600c805490501180156119f4575060008310155b611a33576040517f08c379a0000000000000000000000000000000000000000000000000000000008152600401611a2a90615f5f565b60405180910390fd5b6000600d60003373ffffffffffffffffffffffffffffffffffffffff1673ffffffffffffffffffffffffffffffffffffffff16815260200190815260200160002090506001151581600101600086815260200190815260200160002060009054906101000a900460ff1615151415611ae0576040517f08c379a0000000000000000000000000000000000000000000000000000000008152600401611ad790615fdf565b60405180910390fd5b600073ffffffffffffffffffffffffffffffffffffffff1681600501600086815260200190815260200160002060009054906101000a900473ffffffffffffffffffffffffffffffffffffffff1673ffffffffffffffffffffffffffffffffffffffff1614611b84576040517f08c379a0000000000000000000000000000000000000000000000000000000008152600401611b7b9061633f565b60405180910390fd5b611b8d81614fd3565b611bcc576040517f08c379a0000000000000000000000000000000000000000000000000000000008152600401611bc3906162bf565b60405180910390fd5b600c8481548110611c06577f4e487b7100000000000000000000000000000000000000000000000000000000600052603260045260246000fd5b90600052602060002090600a020160050180549050821415611c2757600080fd5b8215611cd3576001600c8581548110611c69577f4e487b7100000000000000000000000000000000000000000000000000000000600052603260045260246000fd5b90600052602060002090600a02016000018381548110611cb2577f4e487b7100000000000000000000000000000000000000000000000000000000600052603260045260246000fd5b906000526020600020016000828254611ccb919061657b565b925050819055505b6000600c8581548110611d0f577f4e487b7100000000000000000000000000000000000000000000000000000000600052603260045260246000fd5b90600052602060002090600a02016000018381548110611d58577f4e487b7100000000000000000000000000000000000000000000000000000000600052603260045260246000fd5b9060005260206000200154905060095481611d73919061657b565b816064611d8091906165d1565b1115611fbb576001600c8681548110611dc2577f4e487b7100000000000000000000000000000000000000000000000000000000600052603260045260246000fd5b90600052602060002090600a02016008018481548110611e0b577f4e487b7100000000000000000000000000000000000000000000000000000000600052603260045260246000fd5b90600052602060002090602091828204019190066101000a81548160ff0219169083151502179055503073ffffffffffffffffffffffffffffffffffffffff166339509351600c8781548110611e8a577f4e487b7100000000000000000000000000000000000000000000000000000000600052603260045260246000fd5b90600052602060002090600a020160070160009054906101000a900473ffffffffffffffffffffffffffffffffffffffff16600c8881548110611ef6577f4e487b7100000000000000000000000000000000000000000000000000000000600052603260045260246000fd5b90600052602060002090600a02016004018681548110611f3f577f4e487b7100000000000000000000000000000000000000000000000000000000600052603260045260246000fd5b90600052602060002001546040518363ffffffff1660e01b8152600401611f67929190615d5d565b602060405180830381600087803b158015611f8157600080fd5b505af1158015611f95573d6000803e3d6000fd5b505050506040513d601f19601f82011682018060405250810190611fb991906154d1565b505b5050505050565b606060048054611fd190616732565b80601f0160208091040260200160405190810160405280929190818152602001828054611ffd90616732565b801561204a5780601f1061201f5761010080835404028352916020019161204a565b820191906000526020600020905b81548152906001019060200180831161202d57829003601f168201915b5050505050905090565b600081600c805490501161209d576040517f08c379a00000000000000000000000000000000000000000000000000000000081526004016120949061625f565b60405180910390fd5b600c82815481106120d7577f4e487b7100000000000000000000000000000000000000000000000000000000600052603260045260246000fd5b90600052602060002090600a0201600201549050919050565b60008290506000339050612141600d60008473ffffffffffffffffffffffffffffffffffffffff1673ffffffffffffffffffffffffffffffffffffffff168152602001908152602001600020614fd3565b612180576040517f08c379a0000000000000000000000000000000000000000000000000000000008152600401612177906162ff565b60405180910390fd5b6121c7600d60008373ffffffffffffffffffffffffffffffffffffffff1673ffffffffffffffffffffffffffffffffffffffff168152602001908152602001600020614fd3565b612206576040517f08c379a00000000000000000000000000000000000000000000000000000000081526004016121fd9061623f565b60405180910390fd5b8173ffffffffffffffffffffffffffffffffffffffff168173ffffffffffffffffffffffffffffffffffffffff161415612275576040517f08c379a000000000000000000000000000000000000000000000000000000000815260040161226c9061603f565b60405180910390fd5b600073ffffffffffffffffffffffffffffffffffffffff16600d60008373ffffffffffffffffffffffffffffffffffffffff1673ffffffffffffffffffffffffffffffffffffffff168152602001908152602001600020600501600085815260200190815260200160002060009054906101000a900473ffffffffffffffffffffffffffffffffffffffff1673ffffffffffffffffffffffffffffffffffffffff1614612357576040517f08c379a000000000000000000000000000000000000000000000000000000000815260040161234e9061617f565b60405180910390fd5b600d60008373ffffffffffffffffffffffffffffffffffffffff1673ffffffffffffffffffffffffffffffffffffffff16815260200190815260200160002060040160405180604001604052808581526020018373ffffffffffffffffffffffffffffffffffffffff1681525090806001815401808255809150506001900390600052602060002090600202016000909190919091506000820151816000015560208201518160010160006101000a81548173ffffffffffffffffffffffffffffffffffffffff021916908373ffffffffffffffffffffffffffffffffffffffff160217905550505081600d60008373ffffffffffffffffffffffffffffffffffffffff1673ffffffffffffffffffffffffffffffffffffffff168152602001908152602001600020600501600085815260200190815260200160002060006101000a81548173ffffffffffffffffffffffffffffffffffffffff021916908373ffffffffffffffffffffffffffffffffffffffff16021790555050505050565b6000806124e361461c565b905060006124f18286613689565b905083811015612536576040517f08c379a000000000000000000000000000000000000000000000000000000000815260040161252d9061637f565b60405180910390fd5b6125438286868403614624565b60019250505092915050565b600061258f6040518060400160405280600681526020017f496e736964650000000000000000000000000000000000000000000000000000815250614fe3565b6125d6600d60003373ffffffffffffffffffffffffffffffffffffffff1673ffffffffffffffffffffffffffffffffffffffff168152602001908152602001600020614fd3565b612615576040517f08c379a000000000000000000000000000000000000000000000000000000000815260040161260c9061621f565b60405180910390fd5b6000835167ffffffffffffffff811115612658577f4e487b7100000000000000000000000000000000000000000000000000000000600052604160045260246000fd5b6040519080825280602002602001820160405280156126865781602001602082028036833780820191505090505b509050612694306005610c3f565b5060003090506126a681600b54612926565b50600b54600760008282546126bb919061657b565b92505081905550600c805490509250600060405180610140016040528084815260200160008152602001600081526020018881526020018781526020018681526020018981526020013373ffffffffffffffffffffffffffffffffffffffff168152602001875167ffffffffffffffff811115612761577f4e487b7100000000000000000000000000000000000000000000000000000000600052604160045260246000fd5b60405190808252806020026020018201604052801561278f5781602001602082028036833780820191505090505b508152602001600015158152509050600c8190806001815401808255809150506001900390600052602060002090600a020160009091909190915060008201518160000190805190602001906127e69291906150af565b5060208201518160010155604082015181600201556060820151816003015560808201518160040190805190602001906128219291906150af565b5060a082015181600501908051906020019061283e9291906150af565b5060c082015181600601908051906020019061285b9291906150fc565b5060e08201518160070160006101000a81548173ffffffffffffffffffffffffffffffffffffffff021916908373ffffffffffffffffffffffffffffffffffffffff1602179055506101008201518160080190805190602001906128c0929190615182565b506101208201518160090160006101000a81548160ff0219169083151502179055505050505050949350505050565b600d6020528060005260406000206000915090508060000154908060060154908060070160009054906101000a900460ff16905083565b60008061293161461c565b905061293e818585614cce565b600191505092915050565b6000600e60008473ffffffffffffffffffffffffffffffffffffffff1673ffffffffffffffffffffffffffffffffffffffff16815260200190815260200160002060008373ffffffffffffffffffffffffffffffffffffffff1673ffffffffffffffffffffffffffffffffffffffff16815260200190815260200160002054905092915050565b600080600090505b600c8381548110612a12577f4e487b7100000000000000000000000000000000000000000000000000000000600052603260045260246000fd5b90600052602060002090600a020160050180549050811015612adf57600c8381548110612a68577f4e487b7100000000000000000000000000000000000000000000000000000000600052603260045260246000fd5b90600052602060002090600a02016005018181548110612ab1577f4e487b7100000000000000000000000000000000000000000000000000000000600052603260045260246000fd5b9060005260206000200154421015612acc5780915050612b32565b8080612ad790616795565b9150506129d8565b50600c8281548110612b1a577f4e487b7100000000000000000000000000000000000000000000000000000000600052603260045260246000fd5b90600052602060002090600a02016005018054905090505b919050565b612b408161158e565b612b7f576040517f08c379a0000000000000000000000000000000000000000000000000000000008152600401612b769061611f565b60405180910390fd5b80600c80549050118015612b94575060008110155b612bd3576040517f08c379a0000000000000000000000000000000000000000000000000000000008152600401612bca90615f5f565b60405180910390fd5b600c8181548110612c0d577f4e487b7100000000000000000000000000000000000000000000000000000000600052603260045260246000fd5b90600052602060002090600a020160030154421115612c61576040517f08c379a0000000000000000000000000000000000000000000000000000000008152600401612c589061609f565b60405180910390fd5b6000805b600c8381548110612c9f577f4e487b7100000000000000000000000000000000000000000000000000000000600052603260045260246000fd5b90600052602060002090600a020160040180549050811015612d6957600c8381548110612cf5577f4e487b7100000000000000000000000000000000000000000000000000000000600052603260045260246000fd5b90600052602060002090600a02016004018181548110612d3e577f4e487b7100000000000000000000000000000000000000000000000000000000600052603260045260246000fd5b906000526020600020015482612d54919061657b565b91508080612d6190616795565b915050612c65565b5080600854600754612d7b919061662b565b1015612dbc576040517f08c379a0000000000000000000000000000000000000000000000000000000008152600401612db39061601f565b60405180910390fd5b600c8281548110612df6577f4e487b7100000000000000000000000000000000000000000000000000000000600052603260045260246000fd5b90600052602060002090600a02016002015460086000828254612e19919061657b565b92505081905550612f23600c8381548110612e5d577f4e487b7100000000000000000000000000000000000000000000000000000000600052603260045260246000fd5b90600052602060002090600a020160070160009054906101000a900473ffffffffffffffffffffffffffffffffffffffff16600c8481548110612ec9577f4e487b7100000000000000000000000000000000000000000000000000000000600052603260045260246000fd5b90600052602060002090600a0201600401600081548110612f13577f4e487b7100000000000000000000000000000000000000000000000000000000600052603260045260246000fd5b9060005260206000200154610c1c565b505050565b6000612f33826129d0565b905081600c80549050118015612f4a575060008210155b612f89576040517f08c379a0000000000000000000000000000000000000000000000000000000008152600401612f8090615f5f565b60405180910390fd5b600c8281548110612fc3577f4e487b7100000000000000000000000000000000000000000000000000000000600052603260045260246000fd5b90600052602060002090600a020160070160009054906101000a900473ffffffffffffffffffffffffffffffffffffffff1673ffffffffffffffffffffffffffffffffffffffff163373ffffffffffffffffffffffffffffffffffffffff161461302c57600080fd5b600c8281548110613066577f4e487b7100000000000000000000000000000000000000000000000000000000600052603260045260246000fd5b90600052602060002090600a020160050180549050613084836129d0565b141561308f57600080fd5b600c82815481106130c9577f4e487b7100000000000000000000000000000000000000000000000000000000600052603260045260246000fd5b90600052602060002090600a02016005018181548110613112577f4e487b7100000000000000000000000000000000000000000000000000000000600052603260045260246000fd5b906000526020600020015442101561312957600080fd5b600080600c8481548110613166577f4e487b7100000000000000000000000000000000000000000000000000000000600052603260045260246000fd5b90600052602060002090600a020160405180610140016040529081600082018054806020026020016040519081016040528092919081815260200182805480156131cf57602002820191906000526020600020905b8154815260200190600101908083116131bb575b505050505081526020016001820154815260200160028201548152602001600382015481526020016004820180548060200260200160405190810160405280929190818152602001828054801561324557602002820191906000526020600020905b815481526020019060010190808311613231575b505050505081526020016005820180548060200260200160405190810160405280929190818152602001828054801561329d57602002820191906000526020600020905b815481526020019060010190808311613289575b505050505081526020016006820180546132b690616732565b80601f01602080910402602001604051908101604052809291908181526020018280546132e290616732565b801561332f5780601f106133045761010080835404028352916020019161332f565b820191906000526020600020905b81548152906001019060200180831161331257829003601f168201915b505050505081526020016007820160009054906101000a900473ffffffffffffffffffffffffffffffffffffffff1673ffffffffffffffffffffffffffffffffffffffff1673ffffffffffffffffffffffffffffffffffffffff1681526020016008820180548060200260200160405190810160405280929190818152602001828054801561340257602002820191906000526020600020906000905b82829054906101000a900460ff161515815260200190600101906020826000010492830192600103820291508084116133cc5790505b505050505081526020016009820160009054906101000a900460ff161515151581525050905060005b8381116134e3578161010001518181518110613470577f4e487b7100000000000000000000000000000000000000000000000000000000600052603260045260246000fd5b6020026020010151156134d057816080015181815181106134ba577f4e487b7100000000000000000000000000000000000000000000000000000000600052603260045260246000fd5b6020026020010151836134cd919061657b565b92505b80806134db90616795565b91505061342b565b5081600860008282546134f6919061662b565b92505081905550816007600082825461350f919061662b565b925050819055506000339050613526308285610d0e565b50613532308285614c42565b5050505050565b6000806000905060005b600c80549050811015613580576135598161158e565b1561356d57818061356990616795565b9250505b808061357890616795565b915050613543565b508091505090565b600c818154811061359857600080fd5b90600052602060002090600a02016000915090508060010154908060020154908060030154908060060180546135cd90616732565b80601f01602080910402602001604051908101604052809291908181526020018280546135f990616732565b80156136465780601f1061361b57610100808354040283529160200191613646565b820191906000526020600020905b81548152906001019060200180831161362957829003601f168201915b5050505050908060070160009054906101000a900473ffffffffffffffffffffffffffffffffffffffff16908060090160009054906101000a900460ff16905086565b6000600160008473ffffffffffffffffffffffffffffffffffffffff1673ffffffffffffffffffffffffffffffffffffffff16815260200190815260200160002060008373ffffffffffffffffffffffffffffffffffffffff1673ffffffffffffffffffffffffffffffffffffffff16815260200190815260200160002054905092915050565b600033905060006006541161375a576040517f08c379a000000000000000000000000000000000000000000000000000000000815260040161375190615f3f565b60405180910390fd5b60001515600d60008373ffffffffffffffffffffffffffffffffffffffff1673ffffffffffffffffffffffffffffffffffffffff16815260200190815260200160002060070160009054906101000a900460ff161515146137f0576040517f08c379a00000000000000000000000000000000000000000000000000000000081526004016137e79061627f565b60405180910390fd5b3073ffffffffffffffffffffffffffffffffffffffff1663022fc88b8260056040518363ffffffff1660e01b815260040161382c929190615d34565b602060405180830381600087803b15801561384657600080fd5b505af115801561385a573d6000803e3d6000fd5b505050506040513d601f19601f8201168201806040525081019061387e91906154d1565b5061388b308260056110bc565b506001600d60008373ffffffffffffffffffffffffffffffffffffffff1673ffffffffffffffffffffffffffffffffffffffff16815260200190815260200160002060070160006101000a81548160ff02191690831515021790555050565b6000600d60008373ffffffffffffffffffffffffffffffffffffffff1673ffffffffffffffffffffffffffffffffffffffff168152602001908152602001600020600001549050919050565b600080600d60003373ffffffffffffffffffffffffffffffffffffffff1673ffffffffffffffffffffffffffffffffffffffff168152602001908152602001600020905061398381614fd3565b6139c2576040517f08c379a00000000000000000000000000000000000000000000000000000000081526004016139b9906161bf565b60405180910390fd5b600281600001541015613a0a576040517f08c379a0000000000000000000000000000000000000000000000000000000008152600401613a01906161ff565b60405180910390fd5b600281600001541180613a21575042816006015411155b613a60576040517f08c379a0000000000000000000000000000000000000000000000000000000008152600401613a5790615fbf565b60405180910390fd5b60008467ffffffffffffffff811115613aa2577f4e487b7100000000000000000000000000000000000000000000000000000000600052604160045260246000fd5b604051908082528060200260200182016040528015613ad05781602001602082028036833780820191505090505b50905060006040518061010001604052808a8a8080601f016020809104026020016040519081016040528093929190818152602001838380828437600081840152601f19601f8201169050808301925050505050505081526020013373ffffffffffffffffffffffffffffffffffffffff16815260200188815260200186815260200185815260200187815260200160008152602001838152509050613b77306002610c3f565b506000309050613b8981600a54612926565b50600a5460076000828254613b9e919061657b565b92505081905550600f8290806001815401808255809150506001900390600052602060002090600802016000909190919091506000820151816000019080519060200190613bed9291906150fc565b5060208201518160010160006101000a81548173ffffffffffffffffffffffffffffffffffffffff021916908373ffffffffffffffffffffffffffffffffffffffff16021790555060408201518160020155606082015181600301556080820151816004015560a0820151816005015560c0820151816006015560e0820151816007019080519060200190613c839291906150af565b5050506001600f80549050613c98919061662b565b9450848260800181815250505050505095945050505050565b81600c80549050118015613cc6575060008210155b613d05576040517f08c379a0000000000000000000000000000000000000000000000000000000008152600401613cfc90615f5f565b60405180910390fd5b6000600d60003373ffffffffffffffffffffffffffffffffffffffff1673ffffffffffffffffffffffffffffffffffffffff16815260200190815260200160002090506001151581600201600085815260200190815260200160002060009054906101000a900460ff1615151415613db2576040517f08c379a0000000000000000000000000000000000000000000000000000000008152600401613da99061615f565b60405180910390fd5b600073ffffffffffffffffffffffffffffffffffffffff1681600501600085815260200190815260200160002060009054906101000a900473ffffffffffffffffffffffffffffffffffffffff1673ffffffffffffffffffffffffffffffffffffffff1614613e56576040517f08c379a0000000000000000000000000000000000000000000000000000000008152600401613e4d9061633f565b60405180910390fd5b613e5f81614fd3565b613e9e576040517f08c379a0000000000000000000000000000000000000000000000000000000008152600401613e95906162bf565b60405180910390fd5b600181600201600085815260200190815260200160002060006101000a81548160ff0219169083151502179055508115613f3457600c8381548110613f0c577f4e487b7100000000000000000000000000000000000000000000000000000000600052603260045260246000fd5b90600052602060002090600a02016001016000815480929190613f2e90616795565b91905055505b600c8381548110613f6e577f4e487b7100000000000000000000000000000000000000000000000000000000600052603260045260246000fd5b90600052602060002090600a02016003015481600601541015613fe057600c8381548110613fc5577f4e487b7100000000000000000000000000000000000000000000000000000000600052603260045260246000fd5b90600052602060002090600a02016003015481600601819055505b60005b816004018054905081101561427e576000826004018281548110614030577f4e487b7100000000000000000000000000000000000000000000000000000000600052603260045260246000fd5b9060005260206000209060020201604051806040016040529081600082015481526020016001820160009054906101000a900473ffffffffffffffffffffffffffffffffffffffff1673ffffffffffffffffffffffffffffffffffffffff1673ffffffffffffffffffffffffffffffffffffffff16815250509050848160000151141561426a576000600d6000836020015173ffffffffffffffffffffffffffffffffffffffff1673ffffffffffffffffffffffffffffffffffffffff168152602001908152602001600020905080600201600087815260200190815260200160002060009054906101000a900460ff1661426857600181600201600088815260200190815260200160002060006101000a81548160ff021916908315150217905550600c868154811061418d577f4e487b7100000000000000000000000000000000000000000000000000000000600052603260045260246000fd5b90600052602060002090600a020160030154816006015410156141ff57600c86815481106141e4577f4e487b7100000000000000000000000000000000000000000000000000000000600052603260045260246000fd5b90600052602060002090600a02016003015481600601819055505b841561426757600c868154811061423f577f4e487b7100000000000000000000000000000000000000000000000000000000600052603260045260246000fd5b90600052602060002090600a0201600101600081548092919061426190616795565b91905055505b5b505b50808061427690616795565b915050613fe3565b50600c83815481106142b9577f4e487b7100000000000000000000000000000000000000000000000000000000600052603260045260246000fd5b90600052602060002090600a020160010154600a6142d791906165d1565b60095411614348576001600c848154811061431b577f4e487b7100000000000000000000000000000000000000000000000000000000600052603260045260246000fd5b90600052602060002090600a020160090160006101000a81548160ff0219169083151502179055506143ad565b6000600c8481548110614384577f4e487b7100000000000000000000000000000000000000000000000000000000600052603260045260246000fd5b90600052602060002090600a020160090160006101000a81548160ff0219169083151502179055505b505050565b60606000606080600c85815481106143f3577f4e487b7100000000000000000000000000000000000000000000000000000000600052603260045260246000fd5b90600052602060002090600a0201600601805461440f90616732565b80601f016020809104026020016040519081016040528092919081815260200182805461443b90616732565b80156144885780601f1061445d57610100808354040283529160200191614488565b820191906000526020600020905b81548152906001019060200180831161446b57829003601f168201915b50505050509350600c85815481106144c9577f4e487b7100000000000000000000000000000000000000000000000000000000600052603260045260246000fd5b90600052602060002090600a0201600301549250600c8581548110614517577f4e487b7100000000000000000000000000000000000000000000000000000000600052603260045260246000fd5b90600052602060002090600a020160040180548060200260200160405190810160405280929190818152602001828054801561457257602002820191906000526020600020905b81548152602001906001019080831161455e575b50505050509150600c85815481106145b3577f4e487b7100000000000000000000000000000000000000000000000000000000600052603260045260246000fd5b90600052602060002090600a020160050180548060200260200160405190810160405280929190818152602001828054801561460e57602002820191906000526020600020905b8154815260200190600101908083116145fa575b505050505090509193509193565b600033905090565b600073ffffffffffffffffffffffffffffffffffffffff168373ffffffffffffffffffffffffffffffffffffffff161415614694576040517f08c379a000000000000000000000000000000000000000000000000000000000815260040161468b906162df565b60405180910390fd5b600073ffffffffffffffffffffffffffffffffffffffff168273ffffffffffffffffffffffffffffffffffffffff161415614704576040517f08c379a00000000000000000000000000000000000000000000000000000000081526004016146fb90615f9f565b60405180910390fd5b80600160008573ffffffffffffffffffffffffffffffffffffffff1673ffffffffffffffffffffffffffffffffffffffff16815260200190815260200160002060008473ffffffffffffffffffffffffffffffffffffffff1673ffffffffffffffffffffffffffffffffffffffff168152602001908152602001600020819055508173ffffffffffffffffffffffffffffffffffffffff168373ffffffffffffffffffffffffffffffffffffffff167f8c5be1e5ebec7d5bd14f71427d1e84f3dd0314c0f7b2291e5b200ac8c7c3b925836040516147e2919061639f565b60405180910390a3505050565b600073ffffffffffffffffffffffffffffffffffffffff168373ffffffffffffffffffffffffffffffffffffffff16141561485f576040517f08c379a00000000000000000000000000000000000000000000000000000000081526004016148569061629f565b60405180910390fd5b600073ffffffffffffffffffffffffffffffffffffffff168273ffffffffffffffffffffffffffffffffffffffff1614156148cf576040517f08c379a00000000000000000000000000000000000000000000000000000000081526004016148c690615eff565b60405180910390fd5b3073ffffffffffffffffffffffffffffffffffffffff168373ffffffffffffffffffffffffffffffffffffffff16141561496657806006541015614948576040517f08c379a000000000000000000000000000000000000000000000000000000000815260040161493f906161df565b60405180910390fd5b806006600082825461495a919061662b565b92505081905550614b2d565b80600d60008573ffffffffffffffffffffffffffffffffffffffff1673ffffffffffffffffffffffffffffffffffffffff1681526020019081526020016000206000015410156149eb576040517f08c379a00000000000000000000000000000000000000000000000000000000081526004016149e29061613f565b60405180910390fd5b80600d60008573ffffffffffffffffffffffffffffffffffffffff1673ffffffffffffffffffffffffffffffffffffffff168152602001908152602001600020600001541415614ad35742600d60008573ffffffffffffffffffffffffffffffffffffffff1673ffffffffffffffffffffffffffffffffffffffff168152602001908152602001600020600601541115614aba576040517f08c379a0000000000000000000000000000000000000000000000000000000008152600401614ab190615edf565b60405180910390fd5b60096000815480929190614acd90616708565b91905055505b80600d60008573ffffffffffffffffffffffffffffffffffffffff1673ffffffffffffffffffffffffffffffffffffffff1681526020019081526020016000206000016000828254614b25919061662b565b925050819055505b3073ffffffffffffffffffffffffffffffffffffffff168273ffffffffffffffffffffffffffffffffffffffff161415614b7f578060066000828254614b73919061657b565b92505081905550614c3d565b6000600d60008473ffffffffffffffffffffffffffffffffffffffff1673ffffffffffffffffffffffffffffffffffffffff168152602001908152602001600020600001541415614be35760096000815480929190614bdd90616795565b91905055505b80600d60008473ffffffffffffffffffffffffffffffffffffffff1673ffffffffffffffffffffffffffffffffffffffff1681526020019081526020016000206000016000828254614c35919061657b565b925050819055505b505050565b6000614c4e8484613689565b90507fffffffffffffffffffffffffffffffffffffffffffffffffffffffffffffffff8114614cc85781811015614cba576040517f08c379a0000000000000000000000000000000000000000000000000000000008152600401614cb190615fff565b60405180910390fd5b614cc78484848403614624565b5b50505050565b600073ffffffffffffffffffffffffffffffffffffffff168373ffffffffffffffffffffffffffffffffffffffff161415614d3e576040517f08c379a0000000000000000000000000000000000000000000000000000000008152600401614d359061629f565b60405180910390fd5b600073ffffffffffffffffffffffffffffffffffffffff168273ffffffffffffffffffffffffffffffffffffffff161415614dae576040517f08c379a0000000000000000000000000000000000000000000000000000000008152600401614da590615eff565b60405180910390fd5b614db983838361507c565b60008060008573ffffffffffffffffffffffffffffffffffffffff1673ffffffffffffffffffffffffffffffffffffffff16815260200190815260200160002054905081811015614e3f576040517f08c379a0000000000000000000000000000000000000000000000000000000008152600401614e369061605f565b60405180910390fd5b8181036000808673ffffffffffffffffffffffffffffffffffffffff1673ffffffffffffffffffffffffffffffffffffffff16815260200190815260200160002081905550816000808573ffffffffffffffffffffffffffffffffffffffff1673ffffffffffffffffffffffffffffffffffffffff168152602001908152602001600020600082825401925050819055508273ffffffffffffffffffffffffffffffffffffffff168473ffffffffffffffffffffffffffffffffffffffff167fddf252ad1be2c89b69c2b068fc378daa952ba7f163c4a11628f55a4df523b3ef84604051614f2d919061639f565b60405180910390a3614f40848484615081565b50505050565b6000614f528484612949565b90507fffffffffffffffffffffffffffffffffffffffffffffffffffffffffffffffff8114614fcd5781811015614fbe576040517f08c379a0000000000000000000000000000000000000000000000000000000008152600401614fb590615f7f565b60405180910390fd5b614fcb8484848403611655565b505b50505050565b6000808260000154119050919050565b61507981604051602401614ff79190615da1565b6040516020818303038152906040527f41304fac000000000000000000000000000000000000000000000000000000007bffffffffffffffffffffffffffffffffffffffffffffffffffffffff19166020820180517bffffffffffffffffffffffffffffffffffffffffffffffffffffffff8381831617835250505050615086565b50565b505050565b505050565b60008151905060006a636f6e736f6c652e6c6f679050602083016000808483855afa5050505050565b8280548282559060005260206000209081019282156150eb579160200282015b828111156150ea5782518255916020019190600101906150cf565b5b5090506150f89190615228565b5090565b82805461510890616732565b90600052602060002090601f01602090048101928261512a5760008555615171565b82601f1061514357805160ff1916838001178555615171565b82800160010185558215615171579182015b82811115615170578251825591602001919060010190615155565b5b50905061517e9190615228565b5090565b82805482825590600052602060002090601f016020900481019282156152175791602002820160005b838211156151e857835183826101000a81548160ff02191690831515021790555092602001926001016020816000010492830192600103026151ab565b80156152155782816101000a81549060ff02191690556001016020816000010492830192600103026151e8565b505b5090506152249190615228565b5090565b5b80821115615241576000816000905550600101615229565b5090565b6000615258615253846164c9565b6164a4565b9050808382526020820190508285602086028201111561527757600080fd5b60005b858110156152a7578161528d88826153cc565b84526020840193506020830192505060018101905061527a565b5050509392505050565b60006152c46152bf846164f5565b6164a4565b9050828152602081018484840111156152dc57600080fd5b6152e78482856166c6565b509392505050565b6000813590506152fe816172e0565b92915050565b600082601f83011261531557600080fd5b8135615325848260208601615245565b91505092915050565b60008135905061533d816172f7565b92915050565b600081519050615352816172f7565b92915050565b60008083601f84011261536a57600080fd5b8235905067ffffffffffffffff81111561538357600080fd5b60208301915083600182028301111561539b57600080fd5b9250929050565b600082601f8301126153b357600080fd5b81356153c38482602086016152b1565b91505092915050565b6000813590506153db8161730e565b92915050565b6000602082840312156153f357600080fd5b6000615401848285016152ef565b91505092915050565b6000806040838503121561541d57600080fd5b600061542b858286016152ef565b925050602061543c858286016152ef565b9150509250929050565b60008060006060848603121561545b57600080fd5b6000615469868287016152ef565b935050602061547a868287016152ef565b925050604061548b868287016153cc565b9150509250925092565b600080604083850312156154a857600080fd5b60006154b6858286016152ef565b92505060206154c7858286016153cc565b9150509250929050565b6000602082840312156154e357600080fd5b60006154f184828501615343565b91505092915050565b60008060008060006080868803121561551257600080fd5b600086013567ffffffffffffffff81111561552c57600080fd5b61553888828901615358565b9550955050602061554b888289016153cc565b935050604061555c888289016153cc565b925050606061556d888289016153cc565b9150509295509295909350565b6000806000806080858703121561559057600080fd5b600085013567ffffffffffffffff8111156155aa57600080fd5b6155b6878288016153a2565b94505060206155c7878288016153cc565b935050604085013567ffffffffffffffff8111156155e457600080fd5b6155f087828801615304565b925050606085013567ffffffffffffffff81111561560d57600080fd5b61561987828801615304565b91505092959194509250565b60006020828403121561563757600080fd5b6000615645848285016153cc565b91505092915050565b6000806040838503121561566157600080fd5b600061566f858286016153cc565b925050602083013567ffffffffffffffff81111561568c57600080fd5b61569885828601615304565b9150509250929050565b600080604083850312156156b557600080fd5b60006156c3858286016153cc565b92505060206156d48582860161532e565b9150509250929050565b60006156ea8383615cec565b60208301905092915050565b6156ff8161665f565b82525050565b600061571082616536565b61571a8185616559565b935061572583616526565b8060005b8381101561575657815161573d88826156de565b97506157488361654c565b925050600181019050615729565b5085935050505092915050565b61576c81616671565b82525050565b61577b816166b4565b82525050565b600061578c82616541565b615796818561656a565b93506157a68185602086016166d5565b6157af8161686b565b840191505092915050565b60006157c760328361656a565b91506157d28261687c565b604082019050919050565b60006157ea60238361656a565b91506157f5826168cb565b604082019050919050565b600061580d602d8361656a565b91506158188261691a565b604082019050919050565b600061583060248361656a565b915061583b82616969565b604082019050919050565b600061585360258361656a565b915061585e826169b8565b604082019050919050565b600061587660168361656a565b915061588182616a07565b602082019050919050565b600061589960228361656a565b91506158a482616a30565b604082019050919050565b60006158bc601e8361656a565b91506158c782616a7f565b602082019050919050565b60006158df60288361656a565b91506158ea82616aa8565b604082019050919050565b6000615902601d8361656a565b915061590d82616af7565b602082019050919050565b600061592560268361656a565b915061593082616b20565b604082019050919050565b600061594860208361656a565b915061595382616b6f565b602082019050919050565b600061596b60268361656a565b915061597682616b98565b604082019050919050565b600061598e602a8361656a565b915061599982616be7565b604082019050919050565b60006159b160188361656a565b91506159bc82616c36565b602082019050919050565b60006159d460328361656a565b91506159df82616c5f565b604082019050919050565b60006159f7601b8361656a565b9150615a0282616cae565b602082019050919050565b6000615a1a60128361656a565b9150615a2582616cd7565b602082019050919050565b6000615a3d60138361656a565b9150615a4882616d00565b602082019050919050565b6000615a6060358361656a565b9150615a6b82616d29565b604082019050919050565b6000615a8360168361656a565b9150615a8e82616d78565b602082019050919050565b6000615aa660248361656a565b9150615ab182616da1565b604082019050919050565b6000615ac960268361656a565b9150615ad482616df0565b604082019050919050565b6000615aec60198361656a565b9150615af782616e3f565b602082019050919050565b6000615b0f60428361656a565b9150615b1a82616e68565b606082019050919050565b6000615b32602a8361656a565b9150615b3d82616edd565b604082019050919050565b6000615b5560268361656a565b9150615b6082616f2c565b604082019050919050565b6000615b7860438361656a565b9150615b8382616f7b565b606082019050919050565b6000615b9b60298361656a565b9150615ba682616ff0565b604082019050919050565b6000615bbe601c8361656a565b9150615bc98261703f565b602082019050919050565b6000615be160258361656a565b9150615bec82617068565b604082019050919050565b6000615c0460268361656a565b9150615c0f826170b7565b604082019050919050565b6000615c2760248361656a565b9150615c3282617106565b604082019050919050565b6000615c4a60278361656a565b9150615c5582617155565b604082019050919050565b6000615c6d60288361656a565b9150615c78826171a4565b604082019050919050565b6000615c9060388361656a565b9150615c9b826171f3565b604082019050919050565b6000615cb3603d8361656a565b9150615cbe82617242565b604082019050919050565b6000615cd660258361656a565b9150615ce182617291565b604082019050919050565b615cf58161669d565b82525050565b615d048161669d565b82525050565b615d13816166a7565b82525050565b6000602082019050615d2e60008301846156f6565b92915050565b6000604082019050615d4960008301856156f6565b615d566020830184615772565b9392505050565b6000604082019050615d7260008301856156f6565b615d7f6020830184615cfb565b9392505050565b6000602082019050615d9b6000830184615763565b92915050565b60006020820190508181036000830152615dbb8184615781565b905092915050565b600060e0820190508181036000830152615ddd818a615781565b9050615dec60208301896156f6565b615df96040830188615cfb565b615e066060830187615cfb565b615e136080830186615cfb565b615e2060a0830185615cfb565b615e2d60c0830184615cfb565b98975050505050505050565b60006080820190508181036000830152615e538187615781565b9050615e626020830186615cfb565b8181036040830152615e748185615705565b90508181036060830152615e888184615705565b905095945050505050565b60006080820190508181036000830152615ead8187615781565b9050615ebc6020830186615cfb565b615ec96040830185615cfb565b615ed66060830184615cfb565b95945050505050565b60006020820190508181036000830152615ef8816157ba565b9050919050565b60006020820190508181036000830152615f18816157dd565b9050919050565b60006020820190508181036000830152615f3881615800565b9050919050565b60006020820190508181036000830152615f5881615823565b9050919050565b60006020820190508181036000830152615f7881615846565b9050919050565b60006020820190508181036000830152615f9881615869565b9050919050565b60006020820190508181036000830152615fb88161588c565b9050919050565b60006020820190508181036000830152615fd8816158af565b9050919050565b60006020820190508181036000830152615ff8816158d2565b9050919050565b60006020820190508181036000830152616018816158f5565b9050919050565b6000602082019050818103600083015261603881615918565b9050919050565b600060208201905081810360008301526160588161593b565b9050919050565b600060208201905081810360008301526160788161595e565b9050919050565b6000602082019050818103600083015261609881615981565b9050919050565b600060208201905081810360008301526160b8816159a4565b9050919050565b600060208201905081810360008301526160d8816159c7565b9050919050565b600060208201905081810360008301526160f8816159ea565b9050919050565b6000602082019050818103600083015261611881615a0d565b9050919050565b6000602082019050818103600083015261613881615a30565b9050919050565b6000602082019050818103600083015261615881615a53565b9050919050565b6000602082019050818103600083015261617881615a76565b9050919050565b6000602082019050818103600083015261619881615a99565b9050919050565b600060208201905081810360008301526161b881615abc565b9050919050565b600060208201905081810360008301526161d881615adf565b9050919050565b600060208201905081810360008301526161f881615b02565b9050919050565b6000602082019050818103600083015261621881615b25565b9050919050565b6000602082019050818103600083015261623881615b48565b9050919050565b6000602082019050818103600083015261625881615b6b565b9050919050565b6000602082019050818103600083015261627881615b8e565b9050919050565b6000602082019050818103600083015261629881615bb1565b9050919050565b600060208201905081810360008301526162b881615bd4565b9050919050565b600060208201905081810360008301526162d881615bf7565b9050919050565b600060208201905081810360008301526162f881615c1a565b9050919050565b6000602082019050818103600083015261631881615c3d565b9050919050565b6000602082019050818103600083015261633881615c60565b9050919050565b6000602082019050818103600083015261635881615c83565b9050919050565b6000602082019050818103600083015261637881615ca6565b9050919050565b6000602082019050818103600083015261639881615cc9565b9050919050565b60006020820190506163b46000830184615cfb565b92915050565b60006040820190506163cf6000830185615cfb565b81810360208301526163e18184615705565b90509392505050565b60006060820190506163ff6000830186615cfb565b61640c6020830185615cfb565b6164196040830184615763565b949350505050565b600060c0820190506164366000830189615cfb565b6164436020830188615cfb565b6164506040830187615cfb565b81810360608301526164628186615781565b905061647160808301856156f6565b61647e60a0830184615763565b979650505050505050565b600060208201905061649e6000830184615d0a565b92915050565b60006164ae6164bf565b90506164ba8282616764565b919050565b6000604051905090565b600067ffffffffffffffff8211156164e4576164e361683c565b5b602082029050602081019050919050565b600067ffffffffffffffff8211156165105761650f61683c565b5b6165198261686b565b9050602081019050919050565b6000819050602082019050919050565b600081519050919050565b600081519050919050565b6000602082019050919050565b600082825260208201905092915050565b600082825260208201905092915050565b60006165868261669d565b91506165918361669d565b9250827fffffffffffffffffffffffffffffffffffffffffffffffffffffffffffffffff038211156165c6576165c56167de565b5b828201905092915050565b60006165dc8261669d565b91506165e78361669d565b9250817fffffffffffffffffffffffffffffffffffffffffffffffffffffffffffffffff04831182151516156166205761661f6167de565b5b828202905092915050565b60006166368261669d565b91506166418361669d565b925082821015616654576166536167de565b5b828203905092915050565b600061666a8261667d565b9050919050565b60008115159050919050565b600073ffffffffffffffffffffffffffffffffffffffff82169050919050565b6000819050919050565b600060ff82169050919050565b60006166bf8261669d565b9050919050565b82818337600083830152505050565b60005b838110156166f35780820151818401526020810190506166d8565b83811115616702576000848401525b50505050565b60006167138261669d565b91506000821415616727576167266167de565b5b600182039050919050565b6000600282049050600182168061674a57607f821691505b6020821081141561675e5761675d61680d565b5b50919050565b61676d8261686b565b810181811067ffffffffffffffff8211171561678c5761678b61683c565b5b80604052505050565b60006167a08261669d565b91507fffffffffffffffffffffffffffffffffffffffffffffffffffffffffffffffff8214156167d3576167d26167de565b5b600182019050919050565b7f4e487b7100000000000000000000000000000000000000000000000000000000600052601160045260246000fd5b7f4e487b7100000000000000000000000000000000000000000000000000000000600052602260045260246000fd5b7f4e487b7100000000000000000000000000000000000000000000000000000000600052604160045260246000fd5b6000601f19601f8301169050919050565b7f54686520746f6b656e2062616c616e6365206973206c6f636b6564206475652060008201527f746f206f6e676f696e6720766f74696e672e0000000000000000000000000000602082015250565b7f45524332303a207472616e7366657220746f20746865207a65726f206164647260008201527f6573730000000000000000000000000000000000000000000000000000000000602082015250565b7f4e6f6e206d656d626572732063616e6e6f74207061727469636970617465206960008201527f6e20746865207375727665792e00000000000000000000000000000000000000602082015250565b7f4e6f206d6f726520746f6b656e73206c65667420696e2074686520636f6e747260008201527f6163742e00000000000000000000000000000000000000000000000000000000602082015250565b7f4e6f20737563682070726f6a656374206578697374732077697468206769766560008201527f6e2069642e000000000000000000000000000000000000000000000000000000602082015250565b7f696e73756666696369656e7420616c6c6f77616e636500000000000000000000600082015250565b7f45524332303a20617070726f766520746f20746865207a65726f20616464726560008201527f7373000000000000000000000000000000000000000000000000000000000000602082015250565b7f546865204d79476f767320617265206c6f636b656420666f72206e6f772e0000600082015250565b7f557365722068617320616c726561647920766f74656420666f7220746869732060008201527f7061796d656e742e000000000000000000000000000000000000000000000000602082015250565b7f45524332303a20696e73756666696369656e7420616c6c6f77616e6365000000600082015250565b7f4e6f7420656e6f7567682065746865727320746f2066756e642074686520707260008201527f6f6a6563742e0000000000000000000000000000000000000000000000000000602082015250565b7f53656c662d64656c65676174696f6e206973206e6f7420706f737369626c652e600082015250565b7f45524332303a207472616e7366657220616d6f756e742065786365656473206260008201527f616c616e63650000000000000000000000000000000000000000000000000000602082015250565b7f4552433230204d79476f763a20617070726f76652066726f6d20746865207a6560008201527f726f206164647265737300000000000000000000000000000000000000000000602082015250565b7f54686520646561646c696e6520686173207061737365642e0000000000000000600082015250565b7f557365722063616e6e6f742064726f702069742773206d656d6265722073746160008201527f74757320647572696e6720766f74696e672e0000000000000000000000000000602082015250565b7f4e6f7420656e6f75676820746f6b656e20616c6c6f77616e63652e0000000000600082015250565b7f446561646c696e652065786365656465642e0000000000000000000000000000600082015250565b7f50726f6a656374206e6f742066756e6465642e00000000000000000000000000600082015250565b7f496e73756666696369656e74204d79476f76546f6b656e732062616c616e636560008201527f20666f7220746865207472616e73616374696f6e2e0000000000000000000000602082015250565b7f557365722068617320616c726561647920766f74656400000000000000000000600082015250565b7f5468652064656c65676174696f6e2068617320616c726561647920686170706560008201527f6e65642e00000000000000000000000000000000000000000000000000000000602082015250565b7f596f7520616c72656164792070617274696369706174656420696e207468652060008201527f7375727665790000000000000000000000000000000000000000000000000000602082015250565b7f5468652075736572206973206e6f742061206d656d6265722e00000000000000600082015250565b7f436f6e74726163742068617320496e73756666696369656e74204d79476f765460008201527f6f6b656e732062616c616e636520666f7220746865207472616e73616374696f60208201527f6e2e000000000000000000000000000000000000000000000000000000000000604082015250565b7f496e73756666696369656e7420746f6b656e7320666f7220737572766579207360008201527f75626d697373696f6e2e00000000000000000000000000000000000000000000602082015250565b7f4e6f6e2d6d656d626572732063616e6e6f742063616c6c20746869732066756e60008201527f6374696f6e2e0000000000000000000000000000000000000000000000000000602082015250565b7f4e6f6e2d6d656d6265727320646f6e277420686176652074686520726967687460008201527f20746f20766f74652074687573206e6f20726967687420746f2064656c65676160208201527f74652e0000000000000000000000000000000000000000000000000000000000604082015250565b7f4e6f2070726f6a6563742070726f706f73616c207769746820676976656e206960008201527f64206578697374732e0000000000000000000000000000000000000000000000602082015250565b7f596f7520616c7265616479207573656420746865206661756365742e00000000600082015250565b7f45524332303a207472616e736665722066726f6d20746865207a65726f20616460008201527f6472657373000000000000000000000000000000000000000000000000000000602082015250565b7f55736572206973206e6f742061206d656d62657220746875732063616e6e6f7460008201527f20766f74652e0000000000000000000000000000000000000000000000000000602082015250565b7f45524332303a20617070726f76652066726f6d20746865207a65726f2061646460008201527f7265737300000000000000000000000000000000000000000000000000000000602082015250565b7f44656c65676174696f6e2063616e206f6e6c7920626520646f6e6520746f206d60008201527f656d626572732e00000000000000000000000000000000000000000000000000602082015250565b7f4552433230204d79476f763a20617070726f766520746f20746865207a65726f60008201527f2061646472657373000000000000000000000000000000000000000000000000602082015250565b7f55736572206861732064656c65676174656420736f6d656f6e6520656c73652060008201527f746f20766f746520666f72207468652070726f6a6563742e0000000000000000602082015250565b7f496e73756666696369656e74204d79476f76546f6b656e732062616c616e636560008201527f20666f7220656e746572656420646f6e6174696f6e20616d6f756e742e000000602082015250565b7f45524332303a2064656372656173656420616c6c6f77616e63652062656c6f7760008201527f207a65726f000000000000000000000000000000000000000000000000000000602082015250565b6172e98161665f565b81146172f457600080fd5b50565b61730081616671565b811461730b57600080fd5b50565b6173178161669d565b811461732257600080fd5b5056fea2646970667358221220fce284bbdf06de9dfc688eb4fbd6ba5d3dc986d2460643bd6538e5e43d099f2c64736f6c63430008030033",
  "linkReferences": {},
  "deployedLinkReferences": {}
}